{
  "_format": "hh-sol-artifact-1",
  "contractName": "ArexaPfmTokenAllowanceFacet",
  "sourceName": "contracts/ArexaPlatform/ArexaPfmTokenAllowanceFacet.sol",
  "abi": [
    {
      "inputs": [],
      "name": "Ownable__NotOwner",
      "type": "error"
    },
    {
      "inputs": [],
      "name": "TargetedPausable__TargetedPaused",
      "type": "error"
    },
    {
      "anonymous": false,
      "inputs": [
        {
          "indexed": true,
          "internalType": "address",
          "name": "owner",
          "type": "address"
        },
        {
          "indexed": true,
          "internalType": "address",
          "name": "operator",
          "type": "address"
        },
        {
          "indexed": true,
          "internalType": "uint256",
          "name": "id",
          "type": "uint256"
        },
        {
          "indexed": false,
          "internalType": "uint256",
          "name": "currenctValue",
          "type": "uint256"
        },
        {
          "indexed": false,
          "internalType": "uint256",
          "name": "newValue",
          "type": "uint256"
        }
      ],
      "name": "Approval",
      "type": "event"
    },
    {
      "inputs": [
        {
          "internalType": "address",
          "name": "owner_",
          "type": "address"
        },
        {
          "internalType": "address",
          "name": "operator",
          "type": "address"
        },
        {
          "internalType": "uint256",
          "name": "id",
          "type": "uint256"
        }
      ],
      "name": "allowance",
      "outputs": [
        {
          "internalType": "uint256",
          "name": "",
          "type": "uint256"
        }
      ],
      "stateMutability": "view",
      "type": "function"
    },
    {
      "inputs": [
        {
          "internalType": "address",
          "name": "operator",
          "type": "address"
        },
        {
          "internalType": "uint256",
          "name": "id",
          "type": "uint256"
        },
        {
          "internalType": "uint256",
          "name": "currentValue",
          "type": "uint256"
        },
        {
          "internalType": "uint256",
          "name": "newValue",
          "type": "uint256"
        }
      ],
      "name": "approve",
      "outputs": [],
      "stateMutability": "nonpayable",
      "type": "function"
    },
    {
      "inputs": [
        {
          "internalType": "uint256",
          "name": "tokenId",
          "type": "uint256"
        }
      ],
      "name": "isOperatorSpendingLimitEnabled",
      "outputs": [
        {
          "internalType": "bool",
          "name": "",
          "type": "bool"
        }
      ],
      "stateMutability": "view",
      "type": "function"
    },
    {
      "inputs": [
        {
          "internalType": "uint256",
          "name": "tokenId",
          "type": "uint256"
        },
        {
          "internalType": "bool",
          "name": "enabled",
          "type": "bool"
        }
      ],
      "name": "setOperatorSpendingLimitEnabled",
      "outputs": [],
      "stateMutability": "nonpayable",
      "type": "function"
    }
  ],
  "bytecode": "0x608060405234801561001057600080fd5b50610b41806100206000396000f3fe608060405234801561001057600080fd5b506004361061004c5760003560e01c806340cf0ba1146100515780634f4df4421461006d578063598af9e714610089578063ea2fbed0146100b9575b600080fd5b61006b60048036038101906100669190610820565b6100e9565b005b610087600480360381019061008291906108be565b610174565b005b6100a3600480360381019061009e9190610925565b61020a565b6040516100b09190610987565b60405180910390f35b6100d360048036038101906100ce91906109a2565b610295565b6040516100e091906109de565b60405180910390f35b6100f16102a7565b73ffffffffffffffffffffffffffffffffffffffff163073ffffffffffffffffffffffffffffffffffffffff161461015e576040517f08c379a000000000000000000000000000000000000000000000000000000000815260040161015590610a56565b60405180910390fd5b6101666102df565b610170828261034d565b5050565b61017c6102a7565b73ffffffffffffffffffffffffffffffffffffffff163073ffffffffffffffffffffffffffffffffffffffff16146101e9576040517f08c379a00000000000000000000000000000000000000000000000000000000081526004016101e090610a56565b60405180910390fd5b6000801b6101f68161038b565b61020333868686866103ce565b5050505050565b60006102146102a7565b73ffffffffffffffffffffffffffffffffffffffff163073ffffffffffffffffffffffffffffffffffffffff1614610281576040517f08c379a000000000000000000000000000000000000000000000000000000000815260040161027890610a56565b60405180910390fd5b61028c8484846105af565b90509392505050565b60006102a082610656565b9050919050565b6000806102b261068e565b90508060000160009054906101000a900473ffffffffffffffffffffffffffffffffffffffff1691505090565b6102e76106bb565b73ffffffffffffffffffffffffffffffffffffffff163373ffffffffffffffffffffffffffffffffffffffff161461034b576040517f2f7a8ee100000000000000000000000000000000000000000000000000000000815260040160405180910390fd5b565b60006103576106f3565b90508181600201600085815260200190815260200160002060006101000a81548160ff021916908315150217905550505050565b61039481610720565b156103cb576040517f2d0a436a00000000000000000000000000000000000000000000000000000000815260040160405180910390fd5b50565b60006103d86106f3565b9050828160030160008873ffffffffffffffffffffffffffffffffffffffff1673ffffffffffffffffffffffffffffffffffffffff16815260200190815260200160002060008773ffffffffffffffffffffffffffffffffffffffff1673ffffffffffffffffffffffffffffffffffffffff168152602001908152602001600020600086815260200190815260200160002054146104ab576040517f08c379a00000000000000000000000000000000000000000000000000000000081526004016104a290610ac2565b60405180910390fd5b818160030160008873ffffffffffffffffffffffffffffffffffffffff1673ffffffffffffffffffffffffffffffffffffffff16815260200190815260200160002060008773ffffffffffffffffffffffffffffffffffffffff1673ffffffffffffffffffffffffffffffffffffffff168152602001908152602001600020600086815260200190815260200160002081905550838573ffffffffffffffffffffffffffffffffffffffff168773ffffffffffffffffffffffffffffffffffffffff167f3a9c85c6b31f7a9d7fe1478f53e1be42e85db97ca30d1789cfef9196dbc472c9868660405161059f929190610ae2565b60405180910390a4505050505050565b6000806105ba6106f3565b90508060030160008673ffffffffffffffffffffffffffffffffffffffff1673ffffffffffffffffffffffffffffffffffffffff16815260200190815260200160002060008573ffffffffffffffffffffffffffffffffffffffff1673ffffffffffffffffffffffffffffffffffffffff1681526020019081526020016000206000848152602001908152602001600020549150509392505050565b6000806106616106f3565b905080600201600084815260200190815260200160002060009054906101000a900460ff16915050919050565b6000807ff72346055b4d7224c7ec19860d22963ca622fbb313761bfba507c1a3aeedf37290508091505090565b6000806106c6610753565b90508060000160009054906101000a900473ffffffffffffffffffffffffffffffffffffffff1691505090565b6000807fe20f5a7f7e820e4505f9ef8ed1186e372d3490e37d8001618819927829be4e0590508091505090565b600061072a610780565b600001600083815260200190815260200160002060009054906101000a900460ff169050919050565b6000807f746c6723185dc95a8925081faed89cbd4670299390e2ebfb0b9c3e755e204ef490508091505090565b6000807fe8ceb94393aac3e803a9d4b376f7c5ffd7e8b6caab697212a5360c34a283caa190508091505090565b600080fd5b6000819050919050565b6107c5816107b2565b81146107d057600080fd5b50565b6000813590506107e2816107bc565b92915050565b60008115159050919050565b6107fd816107e8565b811461080857600080fd5b50565b60008135905061081a816107f4565b92915050565b60008060408385031215610837576108366107ad565b5b6000610845858286016107d3565b92505060206108568582860161080b565b9150509250929050565b600073ffffffffffffffffffffffffffffffffffffffff82169050919050565b600061088b82610860565b9050919050565b61089b81610880565b81146108a657600080fd5b50565b6000813590506108b881610892565b92915050565b600080600080608085870312156108d8576108d76107ad565b5b60006108e6878288016108a9565b94505060206108f7878288016107d3565b9350506040610908878288016107d3565b9250506060610919878288016107d3565b91505092959194509250565b60008060006060848603121561093e5761093d6107ad565b5b600061094c868287016108a9565b935050602061095d868287016108a9565b925050604061096e868287016107d3565b9150509250925092565b610981816107b2565b82525050565b600060208201905061099c6000830184610978565b92915050565b6000602082840312156109b8576109b76107ad565b5b60006109c6848285016107d3565b91505092915050565b6109d8816107e8565b82525050565b60006020820190506109f360008301846109cf565b92915050565b600082825260208201905092915050565b7f4e4f545f414c4c4f574544000000000000000000000000000000000000000000600082015250565b6000610a40600b836109f9565b9150610a4b82610a0a565b602082019050919050565b60006020820190508181036000830152610a6f81610a33565b9050919050565b7f43757272656e742076616c7565206d69736d6174636800000000000000000000600082015250565b6000610aac6016836109f9565b9150610ab782610a76565b602082019050919050565b60006020820190508181036000830152610adb81610a9f565b9050919050565b6000604082019050610af76000830185610978565b610b046020830184610978565b939250505056fea26469706673582212208f510fb2bca0cd5d8d6c8bdebd1b10f31d7d2439beef3273f77034c0c7b2e9ff64736f6c63430008110033",
  "linkReferences": {},
  "deployedLinkReferences": {}
}