{
  "_format": "hh-sol-artifact-1",
  "contractName": "ArexaPoolPNLFacet",
  "sourceName": "contracts/ArexaPlatform/ArexaPoolPNLFacet.sol",
  "abi": [
    {
      "inputs": [
        {
          "internalType": "bytes32",
          "name": "role",
          "type": "bytes32"
        },
        {
          "internalType": "address",
          "name": "account",
          "type": "address"
        }
      ],
      "name": "AccessDenied",
      "type": "error"
    },
    {
      "inputs": [],
      "name": "AddressUtils__NotContract",
      "type": "error"
    },
    {
      "inputs": [
        {
          "internalType": "address",
          "name": "token",
          "type": "address"
        }
      ],
      "name": "SafeERC20FailedOperation",
      "type": "error"
    },
    {
      "inputs": [],
      "name": "TargetedPausable__TargetedPaused",
      "type": "error"
    },
    {
      "inputs": [
        {
          "internalType": "address",
          "name": "account",
          "type": "address"
        }
      ],
      "name": "calcDivident",
      "outputs": [
        {
          "internalType": "int256",
          "name": "",
          "type": "int256"
        }
      ],
      "stateMutability": "view",
      "type": "function"
    },
    {
      "inputs": [
        {
          "internalType": "uint256",
          "name": "tokenId",
          "type": "uint256"
        }
      ],
      "name": "getArexaIncomeParameter",
      "outputs": [
        {
          "internalType": "uint32",
          "name": "pool",
          "type": "uint32"
        },
        {
          "internalType": "uint32",
          "name": "arexa",
          "type": "uint32"
        }
      ],
      "stateMutability": "view",
      "type": "function"
    },
    {
      "inputs": [],
      "name": "getInventory",
      "outputs": [
        {
          "internalType": "bool",
          "name": "isEnabled",
          "type": "bool"
        },
        {
          "internalType": "int256",
          "name": "sumQuantity",
          "type": "int256"
        },
        {
          "internalType": "int256",
          "name": "sumAmount",
          "type": "int256"
        },
        {
          "internalType": "int256",
          "name": "sumPnl",
          "type": "int256"
        }
      ],
      "stateMutability": "view",
      "type": "function"
    },
    {
      "inputs": [
        {
          "internalType": "address",
          "name": "account",
          "type": "address"
        }
      ],
      "name": "getInventoryItem",
      "outputs": [
        {
          "internalType": "int256",
          "name": "quantity",
          "type": "int256"
        },
        {
          "internalType": "int256",
          "name": "deltaPnl",
          "type": "int256"
        },
        {
          "internalType": "int256",
          "name": "payedPnl",
          "type": "int256"
        }
      ],
      "stateMutability": "view",
      "type": "function"
    },
    {
      "inputs": [],
      "name": "getPoolAndArexaIncomeBalances",
      "outputs": [
        {
          "internalType": "uint256",
          "name": "pool",
          "type": "uint256"
        },
        {
          "internalType": "uint256",
          "name": "poolPaidOut",
          "type": "uint256"
        },
        {
          "internalType": "uint256",
          "name": "arexa",
          "type": "uint256"
        },
        {
          "internalType": "uint256",
          "name": "arexaPaidOut",
          "type": "uint256"
        }
      ],
      "stateMutability": "view",
      "type": "function"
    },
    {
      "inputs": [
        {
          "internalType": "address",
          "name": "toAccount",
          "type": "address"
        },
        {
          "internalType": "uint256",
          "name": "value",
          "type": "uint256"
        }
      ],
      "name": "payoutArexaDivident",
      "outputs": [],
      "stateMutability": "nonpayable",
      "type": "function"
    },
    {
      "inputs": [
        {
          "internalType": "address",
          "name": "toAccount",
          "type": "address"
        },
        {
          "internalType": "uint256",
          "name": "value",
          "type": "uint256"
        }
      ],
      "name": "payoutArexaIncome",
      "outputs": [],
      "stateMutability": "nonpayable",
      "type": "function"
    },
    {
      "inputs": [
        {
          "internalType": "uint256",
          "name": "value",
          "type": "uint256"
        }
      ],
      "name": "payoutDivident",
      "outputs": [],
      "stateMutability": "nonpayable",
      "type": "function"
    },
    {
      "inputs": [
        {
          "internalType": "uint256",
          "name": "tokenId",
          "type": "uint256"
        },
        {
          "internalType": "uint32",
          "name": "pool",
          "type": "uint32"
        },
        {
          "internalType": "uint32",
          "name": "arexa",
          "type": "uint32"
        }
      ],
      "name": "setArexaIncomeParameter",
      "outputs": [],
      "stateMutability": "nonpayable",
      "type": "function"
    }
  ],
  "bytecode": "0x608060405234801561001057600080fd5b50612161806100206000396000f3fe608060405234801561001057600080fd5b50600436106100935760003560e01c80636a4600ad116100665780636a4600ad1461010d5780637dd06ce214610129578063958e3ea814610159578063abc16e771461018a578063bb28a839146101bc57610093565b806305acb130146100985780631e5da67c146100b4578063384b2c62146100d05780635d7f850c146100ec575b600080fd5b6100b260048036038101906100ad91906116e8565b6101dd565b005b6100ce60048036038101906100c99190611773565b6102e5565b005b6100ea60048036038101906100e59190611773565b610420565b005b6100f4610553565b60405161010494939291906117e7565b60405180910390f35b61012760048036038101906101229190611868565b6105f9565b005b610143600480360381019061013e91906118bb565b61071f565b60405161015091906118e8565b60405180910390f35b610173600480360381019061016e91906116e8565b6107b3565b604051610181929190611912565b60405180910390f35b6101a4600480360381019061019f91906118bb565b6108a9565b6040516101b39392919061193b565b60405180910390f35b6101c461094c565b6040516101d49493929190611981565b60405180910390f35b6101e56109e5565b73ffffffffffffffffffffffffffffffffffffffff163073ffffffffffffffffffffffffffffffffffffffff1614610252576040517f08c379a000000000000000000000000000000000000000000000000000000000815260040161024990611a23565b60405180910390fd5b600061025c610a1d565b905080600001600081548092919061027390611a72565b91905055506000816000015490506000801b61028e81610a4a565b610299333386610a8d565b50816000015481146102e0576040517f08c379a00000000000000000000000000000000000000000000000000000000081526004016102d790611b2c565b60405180910390fd5b505050565b6102ed6109e5565b73ffffffffffffffffffffffffffffffffffffffff163073ffffffffffffffffffffffffffffffffffffffff161461035a576040517f08c379a000000000000000000000000000000000000000000000000000000000815260040161035190611a23565b60405180910390fd5b6000610364610a1d565b905080600001600081548092919061037b90611a72565b91905055506000816000015490507f72a415ccbbed7752b009b01c3fad0a1694ff64e2a51c65a309c0517cd732d2d16103b381610afd565b6000801b6103c081610a4a565b6103d26103cb6109e5565b8787610a8d565b50508160000154811461041a576040517f08c379a000000000000000000000000000000000000000000000000000000000815260040161041190611b2c565b60405180910390fd5b50505050565b6104286109e5565b73ffffffffffffffffffffffffffffffffffffffff163073ffffffffffffffffffffffffffffffffffffffff1614610495576040517f08c379a000000000000000000000000000000000000000000000000000000000815260040161048c90611a23565b60405180910390fd5b600061049f610a1d565b90508060000160008154809291906104b690611a72565b91905055506000816000015490507f72a415ccbbed7752b009b01c3fad0a1694ff64e2a51c65a309c0517cd732d2d16104ee81610afd565b6000801b6104fb81610a4a565b6105058686610b0a565b50508160000154811461054d576040517f08c379a000000000000000000000000000000000000000000000000000000000815260040161054490611b2c565b60405180910390fd5b50505050565b6000806000806105616109e5565b73ffffffffffffffffffffffffffffffffffffffff163073ffffffffffffffffffffffffffffffffffffffff16146105ce576040517f08c379a00000000000000000000000000000000000000000000000000000000081526004016105c590611a23565b60405180910390fd5b6105e36105d9610bb8565b6317d78400610bf0565b8094508195508296508397505050505090919293565b6106016109e5565b73ffffffffffffffffffffffffffffffffffffffff163073ffffffffffffffffffffffffffffffffffffffff161461066e576040517f08c379a000000000000000000000000000000000000000000000000000000000815260040161066590611a23565b60405180910390fd5b7f72a415ccbbed7752b009b01c3fad0a1694ff64e2a51c65a309c0517cd732d2d161069881610afd565b6000801b6106a581610a4a565b60006305f5e10080876106b89190611b7b565b6106c29190611bac565b90506305f5e1008114806106d95750630bebc20081145b806106e757506311e1a30081145b806106f557506317d7840081145b806107035750631dcd650081145b61070c57600080fd5b610717868686610c8c565b505050505050565b60006107296109e5565b73ffffffffffffffffffffffffffffffffffffffff163073ffffffffffffffffffffffffffffffffffffffff1614610796576040517f08c379a000000000000000000000000000000000000000000000000000000000815260040161078d90611a23565b60405180910390fd5b6107ac6107a1610bb8565b6317d7840084610d0c565b9050919050565b6000806107be6109e5565b73ffffffffffffffffffffffffffffffffffffffff163073ffffffffffffffffffffffffffffffffffffffff161461082b576040517f08c379a000000000000000000000000000000000000000000000000000000000815260040161082290611a23565b60405180910390fd5b60006305f5e100808561083e9190611b7b565b6108489190611bac565b90506305f5e10081148061085f5750630bebc20081145b8061086d57506311e1a30081145b8061087b57506317d7840081145b806108895750631dcd650081145b61089257600080fd5b61089b81610e78565b809350819450505050915091565b60008060006108b66109e5565b73ffffffffffffffffffffffffffffffffffffffff163073ffffffffffffffffffffffffffffffffffffffff1614610923576040517f08c379a000000000000000000000000000000000000000000000000000000000815260040161091a90611a23565b60405180910390fd5b61093961092e610bb8565b6317d7840086610ee3565b8093508194508295505050509193909250565b60008060008061095a6109e5565b73ffffffffffffffffffffffffffffffffffffffff163073ffffffffffffffffffffffffffffffffffffffff16146109c7576040517f08c379a00000000000000000000000000000000000000000000000000000000081526004016109be90611a23565b60405180910390fd5b6109cf611029565b8094508195508296508397505050505090919293565b6000806109f061105e565b90508060000160009054906101000a900473ffffffffffffffffffffffffffffffffffffffff1691505090565b6000807f428e3b8892e2a2bc8574ce4723c321a1755cf7dc73aa1328e37a7b6996fe907f90508091505090565b610a538161108b565b15610a8a576040517f2d0a436a00000000000000000000000000000000000000000000000000000000815260040160405180910390fd5b50565b6000610a976110be565b9050610ab0610aa4610bb8565b6317d7840086856110eb565b818160080154610ac09190611bee565b8160080181905550610af78160020160009054906101000a900473ffffffffffffffffffffffffffffffffffffffff168484611268565b50505050565b610b078133611370565b50565b6000610b146110be565b90508060040154828260090154610b2b9190611bee565b1115610b6c576040517f08c379a0000000000000000000000000000000000000000000000000000000008152600401610b6390611c6e565b60405180910390fd5b818160090154610b7c9190611bee565b8160090181905550610bb38160020160009054906101000a900473ffffffffffffffffffffffffffffffffffffffff168484611268565b505050565b600080610bc36110be565b90508060020160009054906101000a900473ffffffffffffffffffffffffffffffffffffffff1691505090565b6000806000806000610c006113c1565b905060008160000160008973ffffffffffffffffffffffffffffffffffffffff1673ffffffffffffffffffffffffffffffffffffffff168152602001908152602001600020600088815260200190815260200160002090508060000160009054906101000a900460ff168160010154826002015483600301549550955095509550505092959194509250565b6000610c966110be565b90508281600101600086815260200190815260200160002060000160006101000a81548163ffffffff021916908363ffffffff1602179055508181600101600086815260200190815260200160002060000160046101000a81548163ffffffff021916908363ffffffff16021790555050505050565b60008073ffffffffffffffffffffffffffffffffffffffff168273ffffffffffffffffffffffffffffffffffffffff1603610d4a5760009050610e71565b6000610d546113c1565b905060008160000160008773ffffffffffffffffffffffffffffffffffffffff1673ffffffffffffffffffffffffffffffffffffffff168152602001908152602001600020600086815260200190815260200160002090508060000160009054906101000a900460ff16610dcd57600092505050610e71565b60008160040160008673ffffffffffffffffffffffffffffffffffffffff1673ffffffffffffffffffffffffffffffffffffffff1681526020019081526020016000209050600080836001015414610e4557826001015482600001548460030154610e389190611c8e565b610e429190611d06565b90505b60008260020154836001015483610e5c9190611d70565b610e669190611db4565b905080955050505050505b9392505050565b6000806000610e856110be565b905080600101600085815260200190815260200160002060000160009054906101000a900463ffffffff16925080600101600085815260200190815260200160002060000160049054906101000a900463ffffffff16915050915091565b600080600080610ef16113c1565b905060008160000160008973ffffffffffffffffffffffffffffffffffffffff1673ffffffffffffffffffffffffffffffffffffffff168152602001908152602001600020600088815260200190815260200160002090508060040160008773ffffffffffffffffffffffffffffffffffffffff1673ffffffffffffffffffffffffffffffffffffffff168152602001908152602001600020600001548160040160008873ffffffffffffffffffffffffffffffffffffffff1673ffffffffffffffffffffffffffffffffffffffff168152602001908152602001600020600101548260040160008973ffffffffffffffffffffffffffffffffffffffff1673ffffffffffffffffffffffffffffffffffffffff16815260200190815260200160002060020154945094509450505093509350939050565b60008060008060006110396110be565b9050806003015494508060080154935080600401549250806009015491505090919293565b6000807ff72346055b4d7224c7ec19860d22963ca622fbb313761bfba507c1a3aeedf37290508091505090565b60006110956113ee565b600001600083815260200190815260200160002060009054906101000a900460ff169050919050565b6000807f1a2f703e435318ee39feac62abda44020ca215505d5ba3284195182c842a2d3090508091505090565b60006110f56113c1565b905060008160000160008773ffffffffffffffffffffffffffffffffffffffff1673ffffffffffffffffffffffffffffffffffffffff168152602001908152602001600020600086815260200190815260200160002090508060000160009054906101000a900460ff1661116a575050611262565b60008312156111ae576040517f08c379a00000000000000000000000000000000000000000000000000000000081526004016111a590611e69565b60405180910390fd5b60006111bb878787610d0c565b905080841315611200576040517f08c379a00000000000000000000000000000000000000000000000000000000081526004016111f790611efb565b60405180910390fd5b60008260040160008773ffffffffffffffffffffffffffffffffffffffff1673ffffffffffffffffffffffffffffffffffffffff16815260200190815260200160002090508481600201546112559190611d70565b8160020181905550505050505b50505050565b60006113038473ffffffffffffffffffffffffffffffffffffffff1663a9059cbb858560405160240161129c929190611f2a565b604051602081830303815290604052915060e01b6020820180517bffffffffffffffffffffffffffffffffffffffffffffffffffffffff83818316178352505050508573ffffffffffffffffffffffffffffffffffffffff1661141b90919063ffffffff16565b905060008151141580156113285750808060200190518101906113269190611f7f565b155b1561136a57836040517f5274afe70000000000000000000000000000000000000000000000000000000081526004016113619190611fac565b60405180910390fd5b50505050565b61137a8282611448565b6113bd5781816040517f521dcf0d0000000000000000000000000000000000000000000000000000000081526004016113b4929190611fe0565b60405180910390fd5b5050565b6000807ff0375085caeab71645bf74d020ee2aa37bc7b653d9e55911c1084d8c88b3c05c90508091505090565b6000807fe8ceb94393aac3e803a9d4b376f7c5ffd7e8b6caab697212a5360c34a283caa190508091505090565b60606114408383604051806060016040528060238152602001612109602391396114e9565b905092915050565b600080611453611501565b90506114e0838260010160008460000160009054906101000a900473ffffffffffffffffffffffffffffffffffffffff1673ffffffffffffffffffffffffffffffffffffffff1673ffffffffffffffffffffffffffffffffffffffff168152602001908152602001600020600087815260200190815260200160002060010161152e90919063ffffffff16565b91505092915050565b60606114f8848460008561155e565b90509392505050565b6000807f746c6723185dc95a8925081faed89cbd4670299390e2ebfb0b9c3e755e204ef490508091505090565b6000611556836000018373ffffffffffffffffffffffffffffffffffffffff1660001b611677565b905092915050565b60606115698561169a565b61159f576040517f89c35afc00000000000000000000000000000000000000000000000000000000815260040160405180910390fd5b6000808673ffffffffffffffffffffffffffffffffffffffff1685876040516115c8919061207a565b60006040518083038185875af1925050503d8060008114611605576040519150601f19603f3d011682016040523d82523d6000602084013e61160a565b606091505b5091509150811561161f57809250505061166f565b6000815111156116325780518082602001fd5b836040517f08c379a000000000000000000000000000000000000000000000000000000000815260040161166691906120e6565b60405180910390fd5b949350505050565b600080836001016000848152602001908152602001600020541415905092915050565b600080823b905060008111915050919050565b600080fd5b6000819050919050565b6116c5816116b2565b81146116d057600080fd5b50565b6000813590506116e2816116bc565b92915050565b6000602082840312156116fe576116fd6116ad565b5b600061170c848285016116d3565b91505092915050565b600073ffffffffffffffffffffffffffffffffffffffff82169050919050565b600061174082611715565b9050919050565b61175081611735565b811461175b57600080fd5b50565b60008135905061176d81611747565b92915050565b6000806040838503121561178a576117896116ad565b5b60006117988582860161175e565b92505060206117a9858286016116d3565b9150509250929050565b60008115159050919050565b6117c8816117b3565b82525050565b6000819050919050565b6117e1816117ce565b82525050565b60006080820190506117fc60008301876117bf565b61180960208301866117d8565b61181660408301856117d8565b61182360608301846117d8565b95945050505050565b600063ffffffff82169050919050565b6118458161182c565b811461185057600080fd5b50565b6000813590506118628161183c565b92915050565b600080600060608486031215611881576118806116ad565b5b600061188f868287016116d3565b93505060206118a086828701611853565b92505060406118b186828701611853565b9150509250925092565b6000602082840312156118d1576118d06116ad565b5b60006118df8482850161175e565b91505092915050565b60006020820190506118fd60008301846117d8565b92915050565b61190c8161182c565b82525050565b60006040820190506119276000830185611903565b6119346020830184611903565b9392505050565b600060608201905061195060008301866117d8565b61195d60208301856117d8565b61196a60408301846117d8565b949350505050565b61197b816116b2565b82525050565b60006080820190506119966000830187611972565b6119a36020830186611972565b6119b06040830185611972565b6119bd6060830184611972565b95945050505050565b600082825260208201905092915050565b7f4e4f545f414c4c4f574544000000000000000000000000000000000000000000600082015250565b6000611a0d600b836119c6565b9150611a18826119d7565b602082019050919050565b60006020820190508181036000830152611a3c81611a00565b9050919050565b7f4e487b7100000000000000000000000000000000000000000000000000000000600052601160045260246000fd5b6000611a7d826116b2565b91507fffffffffffffffffffffffffffffffffffffffffffffffffffffffffffffffff8203611aaf57611aae611a43565b5b600182019050919050565b7f5265656e74727950726f74656374696f6e3a207265656e74727920646574656360008201527f7465642100000000000000000000000000000000000000000000000000000000602082015250565b6000611b166024836119c6565b9150611b2182611aba565b604082019050919050565b60006020820190508181036000830152611b4581611b09565b9050919050565b7f4e487b7100000000000000000000000000000000000000000000000000000000600052601260045260246000fd5b6000611b86826116b2565b9150611b91836116b2565b925082611ba157611ba0611b4c565b5b828204905092915050565b6000611bb7826116b2565b9150611bc2836116b2565b9250828202611bd0816116b2565b91508282048414831517611be757611be6611a43565b5b5092915050565b6000611bf9826116b2565b9150611c04836116b2565b9250828201905080821115611c1c57611c1b611a43565b5b92915050565b7f4e6f7420656e6f75676820616d6f756e7420746f20706179206f757421000000600082015250565b6000611c58601d836119c6565b9150611c6382611c22565b602082019050919050565b60006020820190508181036000830152611c8781611c4b565b9050919050565b6000611c99826117ce565b9150611ca4836117ce565b9250828202611cb2816117ce565b91507f80000000000000000000000000000000000000000000000000000000000000008414600084121615611cea57611ce9611a43565b5b8282058414831517611cff57611cfe611a43565b5b5092915050565b6000611d11826117ce565b9150611d1c836117ce565b925082611d2c57611d2b611b4c565b5b600160000383147f800000000000000000000000000000000000000000000000000000000000000083141615611d6557611d64611a43565b5b828205905092915050565b6000611d7b826117ce565b9150611d86836117ce565b925082820190508281121560008312168382126000841215161715611dae57611dad611a43565b5b92915050565b6000611dbf826117ce565b9150611dca836117ce565b9250828203905081811260008412168282136000851215161715611df157611df0611a43565b5b92915050565b7f4f6e6c7920706f73697469766520616d6f756e742063616e206265207061796560008201527f64206f7574210000000000000000000000000000000000000000000000000000602082015250565b6000611e536026836119c6565b9150611e5e82611df7565b604082019050919050565b60006020820190508181036000830152611e8281611e46565b9050919050565b7f54686520616d6f756e7420697320626967676572207468656e2074686120706160008201527f7961626c65206469766964656e74210000000000000000000000000000000000602082015250565b6000611ee5602f836119c6565b9150611ef082611e89565b604082019050919050565b60006020820190508181036000830152611f1481611ed8565b9050919050565b611f2481611735565b82525050565b6000604082019050611f3f6000830185611f1b565b611f4c6020830184611972565b9392505050565b611f5c816117b3565b8114611f6757600080fd5b50565b600081519050611f7981611f53565b92915050565b600060208284031215611f9557611f946116ad565b5b6000611fa384828501611f6a565b91505092915050565b6000602082019050611fc16000830184611f1b565b92915050565b6000819050919050565b611fda81611fc7565b82525050565b6000604082019050611ff56000830185611fd1565b6120026020830184611f1b565b9392505050565b600081519050919050565b600081905092915050565b60005b8381101561203d578082015181840152602081019050612022565b60008484015250505050565b600061205482612009565b61205e8185612014565b935061206e81856020860161201f565b80840191505092915050565b60006120868284612049565b915081905092915050565b600081519050919050565b6000601f19601f8301169050919050565b60006120b882612091565b6120c281856119c6565b93506120d281856020860161201f565b6120db8161209c565b840191505092915050565b6000602082019050818103600083015261210081846120ad565b90509291505056fe416464726573735574696c733a206661696c6564206c6f772d6c6576656c2063616c6ca2646970667358221220fcd8d18cf346f6ca3de6f95651919dddf1b6543b6e83c6d253a4c3485dd03fcd64736f6c63430008110033",
  "linkReferences": {},
  "deployedLinkReferences": {}
}