{
  "_format": "hh-sol-artifact-1",
  "contractName": "ArexaAdminFacet",
  "sourceName": "contracts/ArexaPlatform/ArexaAdminFacet.sol",
  "abi": [
    {
      "inputs": [
        {
          "internalType": "bytes32",
          "name": "role",
          "type": "bytes32"
        },
        {
          "internalType": "address",
          "name": "account",
          "type": "address"
        }
      ],
      "name": "AccessDenied",
      "type": "error"
    },
    {
      "inputs": [],
      "name": "TargetedPausable__TargetedPaused",
      "type": "error"
    },
    {
      "inputs": [],
      "name": "getArexaERC20Token",
      "outputs": [
        {
          "internalType": "contract IERC20",
          "name": "",
          "type": "address"
        }
      ],
      "stateMutability": "view",
      "type": "function"
    },
    {
      "inputs": [],
      "name": "getPayingToken",
      "outputs": [
        {
          "internalType": "contract IERC20",
          "name": "",
          "type": "address"
        }
      ],
      "stateMutability": "view",
      "type": "function"
    },
    {
      "inputs": [
        {
          "internalType": "contract IERC20",
          "name": "token",
          "type": "address"
        }
      ],
      "name": "setPayingToken",
      "outputs": [],
      "stateMutability": "nonpayable",
      "type": "function"
    }
  ],
  "bytecode": "0x608060405234801561001057600080fd5b506108ff806100206000396000f3fe608060405234801561001057600080fd5b50600436106100415760003560e01c80630848818b146100465780635ddb39de146100625780639de34b3b14610080575b600080fd5b610060600480360381019061005b91906106c2565b61009e565b005b61006a6101ce565b604051610077919061074e565b60405180910390f35b610088610252565b604051610095919061074e565b60405180910390f35b6100a66102d6565b73ffffffffffffffffffffffffffffffffffffffff163073ffffffffffffffffffffffffffffffffffffffff1614610113576040517f08c379a000000000000000000000000000000000000000000000000000000000815260040161010a906107c6565b60405180910390fd5b6000801b6101208161030e565b7f72a415ccbbed7752b009b01c3fad0a1694ff64e2a51c65a309c0517cd732d2d161014a81610351565b600073ffffffffffffffffffffffffffffffffffffffff1661016a61035e565b73ffffffffffffffffffffffffffffffffffffffff16146101c0576040517f08c379a00000000000000000000000000000000000000000000000000000000081526004016101b790610858565b60405180910390fd5b6101c983610396565b505050565b60006101d86102d6565b73ffffffffffffffffffffffffffffffffffffffff163073ffffffffffffffffffffffffffffffffffffffff1614610245576040517f08c379a000000000000000000000000000000000000000000000000000000000815260040161023c906107c6565b60405180910390fd5b61024d6103e9565b905090565b600061025c6102d6565b73ffffffffffffffffffffffffffffffffffffffff163073ffffffffffffffffffffffffffffffffffffffff16146102c9576040517f08c379a00000000000000000000000000000000000000000000000000000000081526004016102c0906107c6565b60405180910390fd5b6102d161035e565b905090565b6000806102e1610421565b90508060000160009054906101000a900473ffffffffffffffffffffffffffffffffffffffff1691505090565b6103178161044e565b1561034e576040517f2d0a436a00000000000000000000000000000000000000000000000000000000815260040160405180910390fd5b50565b61035b8133610481565b50565b6000806103696104d2565b90508060020160009054906101000a900473ffffffffffffffffffffffffffffffffffffffff1691505090565b60006103a06104d2565b9050818160020160006101000a81548173ffffffffffffffffffffffffffffffffffffffff021916908373ffffffffffffffffffffffffffffffffffffffff1602179055505050565b6000806103f46104d2565b90508060060160009054906101000a900473ffffffffffffffffffffffffffffffffffffffff1691505090565b6000807ff72346055b4d7224c7ec19860d22963ca622fbb313761bfba507c1a3aeedf37290508091505090565b60006104586104ff565b600001600083815260200190815260200160002060009054906101000a900460ff169050919050565b61048b828261052c565b6104ce5781816040517f521dcf0d0000000000000000000000000000000000000000000000000000000081526004016104c59291906108a0565b60405180910390fd5b5050565b6000807f1a2f703e435318ee39feac62abda44020ca215505d5ba3284195182c842a2d3090508091505090565b6000807fe8ceb94393aac3e803a9d4b376f7c5ffd7e8b6caab697212a5360c34a283caa190508091505090565b6000806105376105cd565b90506105c4838260010160008460000160009054906101000a900473ffffffffffffffffffffffffffffffffffffffff1673ffffffffffffffffffffffffffffffffffffffff1673ffffffffffffffffffffffffffffffffffffffff16815260200190815260200160002060008781526020019081526020016000206001016105fa90919063ffffffff16565b91505092915050565b6000807f746c6723185dc95a8925081faed89cbd4670299390e2ebfb0b9c3e755e204ef490508091505090565b6000610622836000018373ffffffffffffffffffffffffffffffffffffffff1660001b61062a565b905092915050565b600080836001016000848152602001908152602001600020541415905092915050565b600080fd5b600073ffffffffffffffffffffffffffffffffffffffff82169050919050565b600061067d82610652565b9050919050565b600061068f82610672565b9050919050565b61069f81610684565b81146106aa57600080fd5b50565b6000813590506106bc81610696565b92915050565b6000602082840312156106d8576106d761064d565b5b60006106e6848285016106ad565b91505092915050565b6000819050919050565b600061071461070f61070a84610652565b6106ef565b610652565b9050919050565b6000610726826106f9565b9050919050565b60006107388261071b565b9050919050565b6107488161072d565b82525050565b6000602082019050610763600083018461073f565b92915050565b600082825260208201905092915050565b7f4e4f545f414c4c4f574544000000000000000000000000000000000000000000600082015250565b60006107b0600b83610769565b91506107bb8261077a565b602082019050919050565b600060208201905081810360008301526107df816107a3565b9050919050565b7f43757272656e746c79206368616e67696e67207061796d656e7420746f6b656e60008201527f206973206e6f74207065726d69747465642e0000000000000000000000000000602082015250565b6000610842603283610769565b915061084d826107e6565b604082019050919050565b6000602082019050818103600083015261087181610835565b9050919050565b6000819050919050565b61088b81610878565b82525050565b61089a81610672565b82525050565b60006040820190506108b56000830185610882565b6108c26020830184610891565b939250505056fea264697066735822122002fe6d05975196e7e51682894bba70bd8decea7488dd302ab5080e53d069677b64736f6c63430008110033",
  "linkReferences": {},
  "deployedLinkReferences": {}
}