{
  "_format": "hh-sol-artifact-1",
  "contractName": "ArexaPfmTokenReceiverFacet",
  "sourceName": "contracts/ArexaPlatform/ArexaPfmTokenReceiverFacet.sol",
  "abi": [
    {
      "inputs": [
        {
          "internalType": "address",
          "name": "operator",
          "type": "address"
        },
        {
          "internalType": "address",
          "name": "from",
          "type": "address"
        },
        {
          "internalType": "uint256[]",
          "name": "ids",
          "type": "uint256[]"
        },
        {
          "internalType": "uint256[]",
          "name": "values",
          "type": "uint256[]"
        },
        {
          "internalType": "bytes",
          "name": "data",
          "type": "bytes"
        }
      ],
      "name": "onERC1155BatchReceived",
      "outputs": [
        {
          "internalType": "bytes4",
          "name": "",
          "type": "bytes4"
        }
      ],
      "stateMutability": "nonpayable",
      "type": "function"
    },
    {
      "inputs": [
        {
          "internalType": "address",
          "name": "operator",
          "type": "address"
        },
        {
          "internalType": "address",
          "name": "from",
          "type": "address"
        },
        {
          "internalType": "uint256",
          "name": "id",
          "type": "uint256"
        },
        {
          "internalType": "uint256",
          "name": "value",
          "type": "uint256"
        },
        {
          "internalType": "bytes",
          "name": "data",
          "type": "bytes"
        }
      ],
      "name": "onERC1155Received",
      "outputs": [
        {
          "internalType": "bytes4",
          "name": "",
          "type": "bytes4"
        }
      ],
      "stateMutability": "nonpayable",
      "type": "function"
    }
  ],
  "bytecode": "0x608060405234801561001057600080fd5b50610d6c806100206000396000f3fe608060405234801561001057600080fd5b50600436106100365760003560e01c8063bc197c811461003b578063f23a6e611461006b575b600080fd5b610055600480360381019061005091906106fb565b61009b565b6040516100629190610812565b60405180910390f35b61008560048036038101906100809190610863565b610130565b6040516100929190610812565b60405180910390f35b60006100a56101c1565b73ffffffffffffffffffffffffffffffffffffffff163073ffffffffffffffffffffffffffffffffffffffff1614610112576040517f08c379a00000000000000000000000000000000000000000000000000000000081526004016101099061095a565b60405180910390fd5b61012289898989898989896101f9565b905098975050505050505050565b600061013a6101c1565b73ffffffffffffffffffffffffffffffffffffffff163073ffffffffffffffffffffffffffffffffffffffff16146101a7576040517f08c379a000000000000000000000000000000000000000000000000000000000815260040161019e9061095a565b60405180910390fd5b6101b5878787878787610317565b90509695505050505050565b6000806101cc61044d565b90508060000160009054906101000a900473ffffffffffffffffffffffffffffffffffffffff1691505090565b60008061020461047a565b9050600081600d01600083600c0154815260200190815260200160002090508a8160010160006101000a81548173ffffffffffffffffffffffffffffffffffffffff021916908373ffffffffffffffffffffffffffffffffffffffff160217905550898160020160006101000a81548173ffffffffffffffffffffffffffffffffffffffff021916908373ffffffffffffffffffffffffffffffffffffffff16021790555088888260030191906102bc929190610521565b5086868260040191906102d0929190610521565b5084848260000191826102e4929190610bc0565b5081600c0160008154809291906102fa90610cbf565b919050555063bc197c8160e01b9250505098975050505050505050565b60008061032261047a565b9050600081600d01600083600c015481526020019081526020016000209050888160010160006101000a81548173ffffffffffffffffffffffffffffffffffffffff021916908373ffffffffffffffffffffffffffffffffffffffff160217905550878160020160006101000a81548173ffffffffffffffffffffffffffffffffffffffff021916908373ffffffffffffffffffffffffffffffffffffffff1602179055506103d0876104a7565b8160030190805190602001906103e792919061056e565b506103f1866104a7565b81600401908051906020019061040892919061056e565b50848482600001918261041c929190610bc0565b5081600c01600081548092919061043290610cbf565b919050555063f23a6e6160e01b925050509695505050505050565b6000807ff72346055b4d7224c7ec19860d22963ca622fbb313761bfba507c1a3aeedf37290508091505090565b6000807fe20f5a7f7e820e4505f9ef8ed1186e372d3490e37d8001618819927829be4e0590508091505090565b60606000600167ffffffffffffffff8111156104c6576104c5610985565b5b6040519080825280602002602001820160405280156104f45781602001602082028036833780820191505090505b509050828160008151811061050c5761050b610d07565b5b60200260200101818152505080915050919050565b82805482825590600052602060002090810192821561055d579160200282015b8281111561055c578235825591602001919060010190610541565b5b50905061056a91906105bb565b5090565b8280548282559060005260206000209081019282156105aa579160200282015b828111156105a957825182559160200191906001019061058e565b5b5090506105b791906105bb565b5090565b5b808211156105d45760008160009055506001016105bc565b5090565b600080fd5b600080fd5b600073ffffffffffffffffffffffffffffffffffffffff82169050919050565b600061060d826105e2565b9050919050565b61061d81610602565b811461062857600080fd5b50565b60008135905061063a81610614565b92915050565b600080fd5b600080fd5b600080fd5b60008083601f84011261066557610664610640565b5b8235905067ffffffffffffffff81111561068257610681610645565b5b60208301915083602082028301111561069e5761069d61064a565b5b9250929050565b60008083601f8401126106bb576106ba610640565b5b8235905067ffffffffffffffff8111156106d8576106d7610645565b5b6020830191508360018202830111156106f4576106f361064a565b5b9250929050565b60008060008060008060008060a0898b03121561071b5761071a6105d8565b5b60006107298b828c0161062b565b985050602061073a8b828c0161062b565b975050604089013567ffffffffffffffff81111561075b5761075a6105dd565b5b6107678b828c0161064f565b9650965050606089013567ffffffffffffffff81111561078a576107896105dd565b5b6107968b828c0161064f565b9450945050608089013567ffffffffffffffff8111156107b9576107b86105dd565b5b6107c58b828c016106a5565b92509250509295985092959890939650565b60007fffffffff0000000000000000000000000000000000000000000000000000000082169050919050565b61080c816107d7565b82525050565b60006020820190506108276000830184610803565b92915050565b6000819050919050565b6108408161082d565b811461084b57600080fd5b50565b60008135905061085d81610837565b92915050565b60008060008060008060a087890312156108805761087f6105d8565b5b600061088e89828a0161062b565b965050602061089f89828a0161062b565b95505060406108b089828a0161084e565b94505060606108c189828a0161084e565b935050608087013567ffffffffffffffff8111156108e2576108e16105dd565b5b6108ee89828a016106a5565b92509250509295509295509295565b600082825260208201905092915050565b7f4e4f545f414c4c4f574544000000000000000000000000000000000000000000600082015250565b6000610944600b836108fd565b915061094f8261090e565b602082019050919050565b6000602082019050818103600083015261097381610937565b9050919050565b600082905092915050565b7f4e487b7100000000000000000000000000000000000000000000000000000000600052604160045260246000fd5b7f4e487b7100000000000000000000000000000000000000000000000000000000600052602260045260246000fd5b600060028204905060018216806109fb57607f821691505b602082108103610a0e57610a0d6109b4565b5b50919050565b60008190508160005260206000209050919050565b60006020601f8301049050919050565b600082821b905092915050565b600060088302610a767fffffffffffffffffffffffffffffffffffffffffffffffffffffffffffffffff82610a39565b610a808683610a39565b95508019841693508086168417925050509392505050565b6000819050919050565b6000610abd610ab8610ab38461082d565b610a98565b61082d565b9050919050565b6000819050919050565b610ad783610aa2565b610aeb610ae382610ac4565b848454610a46565b825550505050565b600090565b610b00610af3565b610b0b818484610ace565b505050565b5b81811015610b2f57610b24600082610af8565b600181019050610b11565b5050565b601f821115610b7457610b4581610a14565b610b4e84610a29565b81016020851015610b5d578190505b610b71610b6985610a29565b830182610b10565b50505b505050565b600082821c905092915050565b6000610b9760001984600802610b79565b1980831691505092915050565b6000610bb08383610b86565b9150826002028217905092915050565b610bca838361097a565b67ffffffffffffffff811115610be357610be2610985565b5b610bed82546109e3565b610bf8828285610b33565b6000601f831160018114610c275760008415610c15578287013590505b610c1f8582610ba4565b865550610c87565b601f198416610c3586610a14565b60005b82811015610c5d57848901358255600182019150602085019450602081019050610c38565b86831015610c7a5784890135610c76601f891682610b86565b8355505b6001600288020188555050505b50505050505050565b7f4e487b7100000000000000000000000000000000000000000000000000000000600052601160045260246000fd5b6000610cca8261082d565b91507fffffffffffffffffffffffffffffffffffffffffffffffffffffffffffffffff8203610cfc57610cfb610c90565b5b600182019050919050565b7f4e487b7100000000000000000000000000000000000000000000000000000000600052603260045260246000fdfea2646970667358221220aa0261a0333caf8b6032826da3ec037e415268924f3a1f304db3f340402eb21b64736f6c63430008110033",
  "linkReferences": {},
  "deployedLinkReferences": {}
}