{
  "address": "0xE6E340D132b5f46d1e472DebcD681B2aBc16e57E",
  "abi": [
    {
      "inputs": [],
      "stateMutability": "nonpayable",
      "type": "constructor"
    },
    {
      "inputs": [
        {
          "internalType": "bytes32",
          "name": "role",
          "type": "bytes32"
        },
        {
          "internalType": "address",
          "name": "account",
          "type": "address"
        }
      ],
      "name": "AccessDenied",
      "type": "error"
    },
    {
      "inputs": [],
      "name": "TargetedPausable__NotTargetedPaused",
      "type": "error"
    },
    {
      "inputs": [],
      "name": "TargetedPausable__TargetedPaused",
      "type": "error"
    },
    {
      "anonymous": false,
      "inputs": [
        {
          "indexed": true,
          "internalType": "address",
          "name": "account",
          "type": "address"
        }
      ],
      "name": "AllTokenPaused",
      "type": "event"
    },
    {
      "anonymous": false,
      "inputs": [
        {
          "indexed": true,
          "internalType": "address",
          "name": "account",
          "type": "address"
        }
      ],
      "name": "AllTokenUnpaused",
      "type": "event"
    },
    {
      "anonymous": false,
      "inputs": [
        {
          "indexed": true,
          "internalType": "address",
          "name": "account",
          "type": "address"
        },
        {
          "indexed": true,
          "internalType": "uint256",
          "name": "tokenId",
          "type": "uint256"
        }
      ],
      "name": "TokenPaused",
      "type": "event"
    },
    {
      "anonymous": false,
      "inputs": [
        {
          "indexed": true,
          "internalType": "address",
          "name": "account",
          "type": "address"
        },
        {
          "indexed": true,
          "internalType": "uint256",
          "name": "tokenId",
          "type": "uint256"
        }
      ],
      "name": "TokenUnpaused",
      "type": "event"
    },
    {
      "inputs": [],
      "name": "PAUSABLE_AREXA_TOKEN",
      "outputs": [
        {
          "internalType": "bytes32",
          "name": "",
          "type": "bytes32"
        }
      ],
      "stateMutability": "view",
      "type": "function"
    },
    {
      "inputs": [],
      "name": "PAUSABLE_FULL",
      "outputs": [
        {
          "internalType": "bytes32",
          "name": "",
          "type": "bytes32"
        }
      ],
      "stateMutability": "view",
      "type": "function"
    },
    {
      "inputs": [],
      "name": "PAUSABLE_MAGIC_TOKEN",
      "outputs": [
        {
          "internalType": "bytes32",
          "name": "",
          "type": "bytes32"
        }
      ],
      "stateMutability": "view",
      "type": "function"
    },
    {
      "inputs": [],
      "name": "PAUSABLE_SUBSCR1_TOKEN",
      "outputs": [
        {
          "internalType": "bytes32",
          "name": "",
          "type": "bytes32"
        }
      ],
      "stateMutability": "view",
      "type": "function"
    },
    {
      "inputs": [],
      "name": "PAUSABLE_SUBSCR2_TOKEN",
      "outputs": [
        {
          "internalType": "bytes32",
          "name": "",
          "type": "bytes32"
        }
      ],
      "stateMutability": "view",
      "type": "function"
    },
    {
      "inputs": [],
      "name": "PAUSABLE_TRADER_TOKEN",
      "outputs": [
        {
          "internalType": "bytes32",
          "name": "",
          "type": "bytes32"
        }
      ],
      "stateMutability": "view",
      "type": "function"
    },
    {
      "inputs": [
        {
          "internalType": "bytes32",
          "name": "target",
          "type": "bytes32"
        }
      ],
      "name": "pause",
      "outputs": [],
      "stateMutability": "nonpayable",
      "type": "function"
    },
    {
      "inputs": [],
      "name": "pauseAllToken",
      "outputs": [],
      "stateMutability": "nonpayable",
      "type": "function"
    },
    {
      "inputs": [
        {
          "internalType": "uint256",
          "name": "tokenId",
          "type": "uint256"
        }
      ],
      "name": "pauseToken",
      "outputs": [],
      "stateMutability": "nonpayable",
      "type": "function"
    },
    {
      "inputs": [
        {
          "internalType": "bytes32",
          "name": "target",
          "type": "bytes32"
        }
      ],
      "name": "paused",
      "outputs": [
        {
          "internalType": "bool",
          "name": "status_",
          "type": "bool"
        }
      ],
      "stateMutability": "view",
      "type": "function"
    },
    {
      "inputs": [
        {
          "internalType": "bytes32",
          "name": "target",
          "type": "bytes32"
        }
      ],
      "name": "unpause",
      "outputs": [],
      "stateMutability": "nonpayable",
      "type": "function"
    },
    {
      "inputs": [],
      "name": "unpauseAllToken",
      "outputs": [],
      "stateMutability": "nonpayable",
      "type": "function"
    },
    {
      "inputs": [
        {
          "internalType": "uint256",
          "name": "tokenId",
          "type": "uint256"
        }
      ],
      "name": "unpauseToken",
      "outputs": [],
      "stateMutability": "nonpayable",
      "type": "function"
    }
  ],
  "transactionHash": "0xf9a95e266911cb02120d86021da3181f837c195e246e0ecb8d68a7bc9424c439",
  "args": [],
  "numDeployments": 1,
  "solcInputHash": "29368373a120d2797ab4b44183bb832e",
  "bytecode": "0x608060405234801561001057600080fd5b506110b1806100206000396000f3fe608060405234801561001057600080fd5b50600436106100cf5760003560e01c80639e9e46661161008c578063c676cdc111610066578063c676cdc1146101c8578063ed56531a146101e6578063f33b89e514610202578063fbd395f814610220576100cf565b80639e9e46661461015c578063a0dcbb031461018c578063a4e8f699146101aa576100cf565b80632f4dae9f146100d45780634793c498146100f0578063595390251461010e578063776ab6341461012c5780637980d957146101485780637badc7c114610152575b600080fd5b6100ee60048036038101906100e99190610cd7565b61023c565b005b6100f861027f565b6040516101059190610d13565b60405180910390f35b6101166102ad565b6040516101239190610d13565b60405180910390f35b61014660048036038101906101419190610d64565b6102db565b005b610150610321565b005b61015a610365565b005b61017660048036038101906101719190610cd7565b6103a9565b6040516101839190610dac565b60405180910390f35b6101946103bb565b6040516101a19190610d13565b60405180910390f35b6101b26103e9565b6040516101bf9190610d13565b60405180910390f35b6101d06103f0565b6040516101dd9190610d13565b60405180910390f35b61020060048036038101906101fb9190610cd7565b61041e565b005b61020a610461565b6040516102179190610d13565b60405180910390f35b61023a60048036038101906102359190610d64565b61048f565b005b80610246816104d5565b7f72a415ccbbed7752b009b01c3fad0a1694ff64e2a51c65a309c0517cd732d2d161027081610517565b61027a8333610524565b505050565b630bebc2006040516020016102949190610e33565b6040516020818303038152906040528051906020012081565b631dcd65006040516020016102c29190610e33565b6040516020818303038152906040528051906020012081565b6000801b6102e88161062f565b7f72a415ccbbed7752b009b01c3fad0a1694ff64e2a51c65a309c0517cd732d2d161031281610517565b61031c3384610672565b505050565b6000801b61032e8161062f565b7f72a415ccbbed7752b009b01c3fad0a1694ff64e2a51c65a309c0517cd732d2d161035881610517565b61036133610757565b5050565b6000801b6103728161062f565b7f72a415ccbbed7752b009b01c3fad0a1694ff64e2a51c65a309c0517cd732d2d161039c81610517565b6103a533610819565b5050565b60006103b4826108da565b9050919050565b6317d784006040516020016103d09190610e33565b6040516020818303038152906040528051906020012081565b6000801b81565b6305f5e1006040516020016104059190610e33565b6040516020818303038152906040528051906020012081565b806104288161062f565b7f72a415ccbbed7752b009b01c3fad0a1694ff64e2a51c65a309c0517cd732d2d161045281610517565b61045c833361090d565b505050565b6311e1a3006040516020016104769190610e33565b6040516020818303038152906040528051906020012081565b6000801b61049c8161062f565b7f72a415ccbbed7752b009b01c3fad0a1694ff64e2a51c65a309c0517cd732d2d16104c681610517565b6104d033846109ea565b505050565b6104de816108da565b610514576040517f2ff32e2400000000000000000000000000000000000000000000000000000000815260040160405180910390fd5b50565b6105218133610ad0565b50565b600061052e610b21565b905080600001600084815260200190815260200160002060009054906101000a900460ff16610589576040517f2ff32e2400000000000000000000000000000000000000000000000000000000815260040160405180910390fd5b600081600001600085815260200190815260200160002060006101000a81548160ff02191690831515021790555080600001600084815260200190815260200160002060006101000a81549060ff02191690558173ffffffffffffffffffffffffffffffffffffffff167f586bd8e235751dfbced6dca3e1bf08b2d68cf19c2f502b0c4abf61280a1793aa846040516106229190610d13565b60405180910390a2505050565b610638816108da565b1561066f576040517f2d0a436a00000000000000000000000000000000000000000000000000000000815260040160405180910390fd5b50565b600061067c610b4e565b905080600b01600083815260200190815260200160002060009054906101000a900460ff166106e0576040517f08c379a00000000000000000000000000000000000000000000000000000000081526004016106d790610ead565b60405180910390fd5b600081600b01600084815260200190815260200160002060006101000a81548160ff021916908315150217905550818373ffffffffffffffffffffffffffffffffffffffff167f9db9e80f56a6219278c09b5683f265be968540b2e4d3c07303262ff72916ad7860405160405180910390a3505050565b6000610761610b4e565b905080600a0160009054906101000a900460ff16156107b5576040517f08c379a00000000000000000000000000000000000000000000000000000000081526004016107ac90610f19565b60405180910390fd5b600181600a0160006101000a81548160ff0219169083151502179055508173ffffffffffffffffffffffffffffffffffffffff167f703069bce051c97389ec0bdf63b01d3f5710db23f5f37aed683e7b15e218a5f660405160405180910390a25050565b6000610823610b4e565b905080600a0160009054906101000a900460ff16610876576040517f08c379a000000000000000000000000000000000000000000000000000000000815260040161086d90610f85565b60405180910390fd5b600081600a0160006101000a81548160ff0219169083151502179055508173ffffffffffffffffffffffffffffffffffffffff167f3afa8a905cd0f2190c890b78362507ef20599bd0b50747caaca2f6a2148563df60405160405180910390a25050565b60006108e4610b21565b600001600083815260200190815260200160002060009054906101000a900460ff169050919050565b6000610917610b21565b905080600001600084815260200190815260200160002060009054906101000a900460ff1615610973576040517f2d0a436a00000000000000000000000000000000000000000000000000000000815260040160405180910390fd5b600181600001600085815260200190815260200160002060006101000a81548160ff0219169083151502179055508173ffffffffffffffffffffffffffffffffffffffff16837fa4ee980acf45d6dea10fa511fd580be7a6ec548bfd60e2dfba4f318fd40b4eff60405160405180910390a3505050565b60006109f4610b4e565b905080600b01600083815260200190815260200160002060009054906101000a900460ff1615610a59576040517f08c379a0000000000000000000000000000000000000000000000000000000008152600401610a5090610ff1565b60405180910390fd5b600181600b01600084815260200190815260200160002060006101000a81548160ff021916908315150217905550818373ffffffffffffffffffffffffffffffffffffffff167f8622310c27420d43447724ef64e214ebf86405b8e9f149480fb03111f811e51960405160405180910390a3505050565b610ada8282610b7b565b610b1d5781816040517f521dcf0d000000000000000000000000000000000000000000000000000000008152600401610b14929190611052565b60405180910390fd5b5050565b6000807fe8ceb94393aac3e803a9d4b376f7c5ffd7e8b6caab697212a5360c34a283caa190508091505090565b6000807fe20f5a7f7e820e4505f9ef8ed1186e372d3490e37d8001618819927829be4e0590508091505090565b600080610b86610c1c565b9050610c13838260010160008460000160009054906101000a900473ffffffffffffffffffffffffffffffffffffffff1673ffffffffffffffffffffffffffffffffffffffff1673ffffffffffffffffffffffffffffffffffffffff1681526020019081526020016000206000878152602001908152602001600020600101610c4990919063ffffffff16565b91505092915050565b6000807f746c6723185dc95a8925081faed89cbd4670299390e2ebfb0b9c3e755e204ef490508091505090565b6000610c71836000018373ffffffffffffffffffffffffffffffffffffffff1660001b610c79565b905092915050565b600080836001016000848152602001908152602001600020541415905092915050565b600080fd5b6000819050919050565b610cb481610ca1565b8114610cbf57600080fd5b50565b600081359050610cd181610cab565b92915050565b600060208284031215610ced57610cec610c9c565b5b6000610cfb84828501610cc2565b91505092915050565b610d0d81610ca1565b82525050565b6000602082019050610d286000830184610d04565b92915050565b6000819050919050565b610d4181610d2e565b8114610d4c57600080fd5b50565b600081359050610d5e81610d38565b92915050565b600060208284031215610d7a57610d79610c9c565b5b6000610d8884828501610d4f565b91505092915050565b60008115159050919050565b610da681610d91565b82525050565b6000602082019050610dc16000830184610d9d565b92915050565b600082825260208201905092915050565b7f544f4b454e000000000000000000000000000000000000000000000000000000600082015250565b6000610e0e600583610dc7565b9150610e1982610dd8565b602082019050919050565b610e2d81610d2e565b82525050565b60006040820190508181036000830152610e4c81610e01565b9050610e5b6020830184610e24565b92915050565b7f546f6b656e206973206e6f742070617573656420796574000000000000000000600082015250565b6000610e97601783610dc7565b9150610ea282610e61565b602082019050919050565b60006020820190508181036000830152610ec681610e8a565b9050919050565b7f416c6c20746f6b656e732061726520616c726561647920706175736564000000600082015250565b6000610f03601d83610dc7565b9150610f0e82610ecd565b602082019050919050565b60006020820190508181036000830152610f3281610ef6565b9050919050565b7f416c6c20746f6b656e7320617265206e6f742070617573656420796574000000600082015250565b6000610f6f601d83610dc7565b9150610f7a82610f39565b602082019050919050565b60006020820190508181036000830152610f9e81610f62565b9050919050565b7f546f6b656e20697320616c726561647920706175736564000000000000000000600082015250565b6000610fdb601783610dc7565b9150610fe682610fa5565b602082019050919050565b6000602082019050818103600083015261100a81610fce565b9050919050565b600073ffffffffffffffffffffffffffffffffffffffff82169050919050565b600061103c82611011565b9050919050565b61104c81611031565b82525050565b60006040820190506110676000830185610d04565b6110746020830184611043565b939250505056fea2646970667358221220029cdf854471f30cdd1c075fb1d09e426d8cff12429c0ff11572bbf33acddafc64736f6c63430008110033",
  "devdoc": {
    "kind": "dev",
    "methods": {},
    "version": 1
  },
  "userdoc": {
    "events": {
      "AllTokenPaused(address)": {
        "notice": "Emitted when the pause is triggered by account."
      },
      "AllTokenUnpaused(address)": {
        "notice": "Emitted when the pause is lifted by account."
      },
      "TokenPaused(address,uint256)": {
        "notice": "Emitted when the pause of token is triggered by account."
      },
      "TokenUnpaused(address,uint256)": {
        "notice": "Emitted when the pause of token is lifted by account."
      }
    },
    "kind": "user",
    "methods": {
      "pauseAllToken()": {
        "notice": "WARNING! pause and unpause controls the token selling functions, but not the transfers"
      }
    },
    "version": 1
  },
  "storageLayout": {
    "storage": [],
    "types": null
  }
}