{
  "address": "0xa82fF9aFd8f496c3d6ac40E2a0F282E47488CFc9",
  "abi": [
    {
      "inputs": [],
      "name": "AddressUtils__NotContract",
      "type": "error"
    },
    {
      "inputs": [],
      "name": "LibERC1155__ArrayLengthMismatch",
      "type": "error"
    },
    {
      "inputs": [],
      "name": "LibERC1155__BalanceQueryZeroAddress",
      "type": "error"
    },
    {
      "inputs": [],
      "name": "LibERC1155__ERC1155ReceiverNotImplemented",
      "type": "error"
    },
    {
      "inputs": [],
      "name": "LibERC1155__ERC1155ReceiverRejected",
      "type": "error"
    },
    {
      "inputs": [],
      "name": "LibERC1155__MintToZeroAddress",
      "type": "error"
    },
    {
      "inputs": [],
      "name": "LibERC1155__NotOwnerOrApproved",
      "type": "error"
    },
    {
      "inputs": [],
      "name": "LibERC1155__NotOwnerOrApprovedLimit",
      "type": "error"
    },
    {
      "inputs": [],
      "name": "LibERC1155__TransferExceedsBalance",
      "type": "error"
    },
    {
      "inputs": [],
      "name": "LibERC1155__TransferToZeroAddress",
      "type": "error"
    },
    {
      "inputs": [
        {
          "internalType": "address",
          "name": "token",
          "type": "address"
        }
      ],
      "name": "SafeERC20FailedOperation",
      "type": "error"
    },
    {
      "inputs": [],
      "name": "TargetedPausable__TargetedPaused",
      "type": "error"
    },
    {
      "inputs": [],
      "name": "AMOUNT_VALUE_TYPE",
      "outputs": [
        {
          "internalType": "uint8",
          "name": "",
          "type": "uint8"
        }
      ],
      "stateMutability": "view",
      "type": "function"
    },
    {
      "inputs": [],
      "name": "AREXA_TOKEN_ID",
      "outputs": [
        {
          "internalType": "uint256",
          "name": "",
          "type": "uint256"
        }
      ],
      "stateMutability": "view",
      "type": "function"
    },
    {
      "inputs": [],
      "name": "AREXA_TOKEN_POOL_AREXAINC",
      "outputs": [
        {
          "internalType": "uint8",
          "name": "",
          "type": "uint8"
        }
      ],
      "stateMutability": "view",
      "type": "function"
    },
    {
      "inputs": [],
      "name": "AREXA_TOKEN_POOL_DEVELOPMENT",
      "outputs": [
        {
          "internalType": "uint8",
          "name": "",
          "type": "uint8"
        }
      ],
      "stateMutability": "view",
      "type": "function"
    },
    {
      "inputs": [],
      "name": "AREXA_TOKEN_POOL_INVESTOR",
      "outputs": [
        {
          "internalType": "uint8",
          "name": "",
          "type": "uint8"
        }
      ],
      "stateMutability": "view",
      "type": "function"
    },
    {
      "inputs": [],
      "name": "AREXA_TOKEN_POOL_MARKETING",
      "outputs": [
        {
          "internalType": "uint8",
          "name": "",
          "type": "uint8"
        }
      ],
      "stateMutability": "view",
      "type": "function"
    },
    {
      "inputs": [],
      "name": "AREXA_TOKEN_POOL_RESERVED",
      "outputs": [
        {
          "internalType": "uint8",
          "name": "",
          "type": "uint8"
        }
      ],
      "stateMutability": "view",
      "type": "function"
    },
    {
      "inputs": [],
      "name": "MAGIC_TOKEN_ID",
      "outputs": [
        {
          "internalType": "uint256",
          "name": "",
          "type": "uint256"
        }
      ],
      "stateMutability": "view",
      "type": "function"
    },
    {
      "inputs": [],
      "name": "QUANTITY_VALUE_TYPE",
      "outputs": [
        {
          "internalType": "uint8",
          "name": "",
          "type": "uint8"
        }
      ],
      "stateMutability": "view",
      "type": "function"
    },
    {
      "inputs": [],
      "name": "SUBSCR1_TOKEN_TYPE",
      "outputs": [
        {
          "internalType": "uint256",
          "name": "",
          "type": "uint256"
        }
      ],
      "stateMutability": "view",
      "type": "function"
    },
    {
      "inputs": [],
      "name": "SUBSCR2_TOKEN_TYPE",
      "outputs": [
        {
          "internalType": "uint256",
          "name": "",
          "type": "uint256"
        }
      ],
      "stateMutability": "view",
      "type": "function"
    },
    {
      "inputs": [],
      "name": "TRADER_TOKEN_ID",
      "outputs": [
        {
          "internalType": "uint256",
          "name": "",
          "type": "uint256"
        }
      ],
      "stateMutability": "view",
      "type": "function"
    },
    {
      "inputs": [
        {
          "internalType": "uint128",
          "name": "value",
          "type": "uint128"
        },
        {
          "internalType": "uint8",
          "name": "valueType",
          "type": "uint8"
        }
      ],
      "name": "buyArexaToken",
      "outputs": [],
      "stateMutability": "nonpayable",
      "type": "function"
    },
    {
      "inputs": [
        {
          "internalType": "uint32",
          "name": "quantity",
          "type": "uint32"
        }
      ],
      "name": "buyEdgeSubscription",
      "outputs": [],
      "stateMutability": "nonpayable",
      "type": "function"
    },
    {
      "inputs": [],
      "name": "buyMagic100Token",
      "outputs": [],
      "stateMutability": "nonpayable",
      "type": "function"
    },
    {
      "inputs": [
        {
          "internalType": "uint32",
          "name": "quantity",
          "type": "uint32"
        }
      ],
      "name": "buyOracleSubscription",
      "outputs": [],
      "stateMutability": "nonpayable",
      "type": "function"
    },
    {
      "inputs": [
        {
          "internalType": "uint256",
          "name": "tokenId",
          "type": "uint256"
        },
        {
          "internalType": "uint32",
          "name": "quantity",
          "type": "uint32"
        }
      ],
      "name": "buySubscription",
      "outputs": [],
      "stateMutability": "nonpayable",
      "type": "function"
    },
    {
      "inputs": [
        {
          "internalType": "uint128",
          "name": "value",
          "type": "uint128"
        },
        {
          "internalType": "uint8",
          "name": "valueType",
          "type": "uint8"
        }
      ],
      "name": "buyTraderToken",
      "outputs": [],
      "stateMutability": "nonpayable",
      "type": "function"
    },
    {
      "inputs": [
        {
          "internalType": "uint256",
          "name": "tokenId",
          "type": "uint256"
        },
        {
          "internalType": "uint32",
          "name": "quantity",
          "type": "uint32"
        }
      ],
      "name": "calcSubscriptionPrice",
      "outputs": [
        {
          "internalType": "uint256",
          "name": "",
          "type": "uint256"
        }
      ],
      "stateMutability": "view",
      "type": "function"
    },
    {
      "inputs": [
        {
          "internalType": "uint256",
          "name": "tokenType",
          "type": "uint256"
        }
      ],
      "name": "getCurrentSubscriptionTokenId",
      "outputs": [
        {
          "internalType": "uint256",
          "name": "",
          "type": "uint256"
        }
      ],
      "stateMutability": "view",
      "type": "function"
    }
  ],
  "transactionHash": "0x8c68b9827257bb1e1d0a107111db455da0486f72bb3699eb9140e065c7231794",
  "args": [],
  "numDeployments": 1,
  "solcInputHash": "fc16a9ae7444b9d94b4f8a593e68c905",
  "bytecode": "0x608060405234801561001057600080fd5b5061519e806100206000396000f3fe608060405234801561001057600080fd5b506004361061012c5760003560e01c80636442a5ed116100ad578063d19bcdf311610071578063d19bcdf3146102f9578063d5ddea0414610317578063da47320214610335578063dbcc4d9414610353578063f396f3d6146103715761012c565b80636442a5ed146102675780636a6128f41461028557806372b88f1b146102a1578063c1c64f0f146102d1578063cd304355146102db5761012c565b806336b01423116100f457806336b01423146101d55780634ba6348b146101f35780635aecf1891461020f5780635fc86ab91461022d57806361690b501461024b5761012c565b806303d1229c1461013157806308e7f2c51461014d5780631791bf201461016b5780632db4e5691461019b5780632dc00434146101b9575b600080fd5b61014b60048036038101906101469190613b5c565b61038f565b005b61015561049a565b6040516101629190613bb8565b60405180910390f35b61018560048036038101906101809190613bd3565b61049f565b6040516101929190613c0f565b60405180910390f35b6101a3610526565b6040516101b09190613c0f565b60405180910390f35b6101d360048036038101906101ce9190613c2a565b61052e565b005b6101dd61064a565b6040516101ea9190613c0f565b60405180910390f35b61020d60048036038101906102089190613ccb565b610652565b005b61021761075d565b6040516102249190613bb8565b60405180910390f35b610235610762565b6040516102429190613bb8565b60405180910390f35b61026560048036038101906102609190613c2a565b610767565b005b61026f610883565b60405161027c9190613c0f565b60405180910390f35b61029f600480360381019061029a9190613ccb565b61088b565b005b6102bb60048036038101906102b69190613b5c565b610997565b6040516102c89190613c0f565b60405180910390f35b6102d9610a20565b005b6102e3610c12565b6040516102f09190613bb8565b60405180910390f35b610301610c17565b60405161030e9190613bb8565b60405180910390f35b61031f610c1c565b60405161032c9190613bb8565b60405180910390f35b61033d610c21565b60405161034a9190613c0f565b60405180910390f35b61035b610c29565b6040516103689190613bb8565b60405180910390f35b610379610c2e565b6040516103869190613c0f565b60405180910390f35b610397610c36565b73ffffffffffffffffffffffffffffffffffffffff163073ffffffffffffffffffffffffffffffffffffffff1614610404576040517f08c379a00000000000000000000000000000000000000000000000000000000081526004016103fb90613d68565b60405180910390fd5b600061040e610c6e565b905080600001600081548092919061042590613db7565b91905055506000816000015490506000801b61044081610c9b565b61044d8533866000610cde565b5081600001548114610494576040517f08c379a000000000000000000000000000000000000000000000000000000000815260040161048b90613e71565b60405180910390fd5b50505050565b600581565b60006104a9610c36565b73ffffffffffffffffffffffffffffffffffffffff163073ffffffffffffffffffffffffffffffffffffffff1614610516576040517f08c379a000000000000000000000000000000000000000000000000000000000815260040161050d90613d68565b60405180910390fd5b61051f82610e33565b9050919050565b631dcd650081565b610536610c36565b73ffffffffffffffffffffffffffffffffffffffff163073ffffffffffffffffffffffffffffffffffffffff16146105a3576040517f08c379a000000000000000000000000000000000000000000000000000000000815260040161059a90613d68565b60405180910390fd5b60006105ad610c6e565b90508060000160008154809291906105c490613db7565b91905055506000816000015490506000801b6105df81610c9b565b60006105ee630bebc200610e33565b90506105fd8133876000610cde565b505081600001548114610645576040517f08c379a000000000000000000000000000000000000000000000000000000000815260040161063c90613e71565b60405180910390fd5b505050565b6317d7840081565b61065a610c36565b73ffffffffffffffffffffffffffffffffffffffff163073ffffffffffffffffffffffffffffffffffffffff16146106c7576040517f08c379a00000000000000000000000000000000000000000000000000000000081526004016106be90613d68565b60405180910390fd5b60006106d1610c6e565b90508060000160008154809291906106e890613db7565b91905055506000816000015490506000801b61070381610c9b565b6107103386866000610e5e565b5081600001548114610757576040517f08c379a000000000000000000000000000000000000000000000000000000000815260040161074e90613e71565b60405180910390fd5b50505050565b600081565b600481565b61076f610c36565b73ffffffffffffffffffffffffffffffffffffffff163073ffffffffffffffffffffffffffffffffffffffff16146107dc576040517f08c379a00000000000000000000000000000000000000000000000000000000081526004016107d390613d68565b60405180910390fd5b60006107e6610c6e565b90508060000160008154809291906107fd90613db7565b91905055506000816000015490506000801b61081881610c9b565b60006108276305f5e100610e33565b90506108368133876000610cde565b50508160000154811461087e576040517f08c379a000000000000000000000000000000000000000000000000000000000815260040161087590613e71565b60405180910390fd5b505050565b630bebc20081565b610893610c36565b73ffffffffffffffffffffffffffffffffffffffff163073ffffffffffffffffffffffffffffffffffffffff1614610900576040517f08c379a00000000000000000000000000000000000000000000000000000000081526004016108f790613d68565b60405180910390fd5b600061090a610c6e565b905080600001600081548092919061092190613db7565b91905055506000816000015490506000801b61093c81610c9b565b61094a3333878760006112af565b5081600001548114610991576040517f08c379a000000000000000000000000000000000000000000000000000000000815260040161098890613e71565b60405180910390fd5b50505050565b60006109a1610c36565b73ffffffffffffffffffffffffffffffffffffffff163073ffffffffffffffffffffffffffffffffffffffff1614610a0e576040517f08c379a0000000000000000000000000000000000000000000000000000000008152600401610a0590613d68565b60405180910390fd5b610a18838361164d565b905092915050565b610a28610c36565b73ffffffffffffffffffffffffffffffffffffffff163073ffffffffffffffffffffffffffffffffffffffff1614610a95576040517f08c379a0000000000000000000000000000000000000000000000000000000008152600401610a8c90613d68565b60405180910390fd5b6000610a9f610c6e565b9050806000016000815480929190610ab690613db7565b91905055506000816000015490506000801b610ad181610c9b565b610afb7f6d6775b5e502c1f5932b823e8901beec555ffec897aad6fd00846e01363884c833611667565b610b3a576040517f08c379a0000000000000000000000000000000000000000000000000000000008152600401610b3190613f03565b60405180910390fd5b610b667f6d6775b5e502c1f5932b823e8901beec555ffec897aad6fd00846e01363884c83360006116dd565b6000610b7633631dcd65006117a8565b905060008114610bbb576040517f08c379a0000000000000000000000000000000000000000000000000000000008152600401610bb290613f95565b60405180910390fd5b610bc6336000611877565b505081600001548114610c0e576040517f08c379a0000000000000000000000000000000000000000000000000000000008152600401610c0590613e71565b60405180910390fd5b5050565b600381565b600281565b600181565b6311e1a30081565b600181565b6305f5e10081565b600080610c41611a4b565b90508060000160009054906101000a900473ffffffffffffffffffffffffffffffffffffffff1691505090565b6000807f428e3b8892e2a2bc8574ce4723c321a1755cf7dc73aa1328e37a7b6996fe907f90508091505090565b610ca481611a78565b15610cdb576040517f2d0a436a00000000000000000000000000000000000000000000000000000000815260040160405180910390fd5b50565b6127108161ffff161115610d27576040517f08c379a0000000000000000000000000000000000000000000000000000000008152600401610d1e90614027565b60405180910390fd5b6000610d31611aab565b90506000610d45868563ffffffff16611ad8565b9050600a6005612710600a86612710610d5e9190614055565b61ffff1685610d6d919061408b565b610d77919061408b565b610d8191906140fc565b610d8b919061412d565b610d9591906140fc565b90506000610da1610c36565b90506000821115610ddd57610ddc8360020160009054906101000a900473ffffffffffffffffffffffffffffffffffffffff16878385611b72565b5b60006305f5e1008089610df091906140fc565b610dfa919061408b565b9050610e068184611c7d565b610e298283898b8a63ffffffff1660405180602001604052806000815250611db3565b5050505050505050565b600080610e3e611aab565b905080600501600084815260200190815260200160002054915050919050565b60008260ff161480610e73575060018260ff16145b610eb2576040517f08c379a0000000000000000000000000000000000000000000000000000000008152600401610ea9906141ad565b60405180910390fd5b6127108161ffff161115610efb576040517f08c379a0000000000000000000000000000000000000000000000000000000008152600401610ef290614027565b60405180910390fd5b6000610f05611aab565b905060008160020160009054906101000a900473ffffffffffffffffffffffffffffffffffffffff1673ffffffffffffffffffffffffffffffffffffffff1663313ce5676040518163ffffffff1660e01b8152600401602060405180830381865afa158015610f78573d6000803e3d6000fd5b505050506040513d601f19601f82011682018060405250810190610f9c91906141e2565b600a610fa89190614342565b90506000600a90506000600a60018385610fc2919061408b565b610fcc919061408b565b610fd691906140fc565b905060008060018860ff16036110a257600a60058585600a8d610ff9919061438d565b6fffffffffffffffffffffffffffffffff16611015919061408b565b61101f91906140fc565b611029919061412d565b61103391906140fc565b9150828483611042919061408b565b61104c91906140fc565b905060008211801561105e5750600081115b61109d576040517f08c379a00000000000000000000000000000000000000000000000000000000081526004016110949061443c565b60405180910390fd5b611136565b82848a6fffffffffffffffffffffffffffffffff166110c1919061408b565b6110cb91906140fc565b90508383826110da919061408b565b6110e491906140fc565b91506000821180156110f65750600081115b611135576040517f08c379a000000000000000000000000000000000000000000000000000000000815260040161112c906144ce565b60405180910390fd5b5b600a6005612710600a8a61271061114d9190614055565b61ffff168661115c919061408b565b611166919061408b565b61117091906140fc565b61117a919061412d565b61118491906140fc565b91506000866000016000600160ff1660ff168152602001908152602001600020905080600001548282600101546111bb919061412d565b11156111fc576040517f08c379a00000000000000000000000000000000000000000000000000000000081526004016111f39061453a565b60405180910390fd5b81816001015461120c919061412d565b8160010181905550600061121e610c36565b9050600084111561125a576112598860020160009054906101000a900473ffffffffffffffffffffffffffffffffffffffff168d8387611b72565b5b6112686317d7840085611c7d565b61128981828e6317d784008760405180602001604052806000815250611db3565b828860070154611299919061412d565b8860070181905550505050505050505050505050565b60008260ff1614806112c4575060018260ff16145b611303576040517f08c379a00000000000000000000000000000000000000000000000000000000081526004016112fa906141ad565b60405180910390fd5b6127108161ffff16111561134c576040517f08c379a000000000000000000000000000000000000000000000000000000000815260040161134390614027565b60405180910390fd5b6000611356611aab565b905060008160020160009054906101000a900473ffffffffffffffffffffffffffffffffffffffff1673ffffffffffffffffffffffffffffffffffffffff1663313ce5676040518163ffffffff1660e01b8152600401602060405180830381865afa1580156113c9573d6000803e3d6000fd5b505050506040513d601f19601f820116820180604052508101906113ed91906141e2565b600a6113f99190614342565b90506000600a9050600060018284611411919061408b565b61141b919061408b565b905060008060018860ff16036114e757600a60058585600a8d61143e919061438d565b6fffffffffffffffffffffffffffffffff1661145a919061408b565b61146491906140fc565b61146e919061412d565b61147891906140fc565b9150828483611487919061408b565b61149191906140fc565b90506000821180156114a35750600081115b6114e2576040517f08c379a00000000000000000000000000000000000000000000000000000000081526004016114d9906145cc565b60405180910390fd5b61157b565b82848a6fffffffffffffffffffffffffffffffff16611506919061408b565b61151091906140fc565b905083838261151f919061408b565b61152991906140fc565b915060008211801561153b5750600081115b61157a576040517f08c379a00000000000000000000000000000000000000000000000000000000081526004016115719061465e565b60405180910390fd5b5b600a6005612710600a8a6127106115929190614055565b61ffff16866115a1919061408b565b6115ab919061408b565b6115b591906140fc565b6115bf919061412d565b6115c991906140fc565b915060006115d5610c36565b90506000831115611611576116108760020160009054906101000a900473ffffffffffffffffffffffffffffffffffffffff168c8386611b72565b5b61161f6311e1a30084611c7d565b61163f8c8c6311e1a30085604051806020016040528060008152506121de565b505050505050505050505050565b600061165f838363ffffffff16612393565b905092915050565b6000806116726123cd565b905080600001600085815260200190815260200160002060008473ffffffffffffffffffffffffffffffffffffffff1673ffffffffffffffffffffffffffffffffffffffff16815260200190815260200160002060009054906101000a900460ff1691505092915050565b60006116e76123cd565b90508181600001600086815260200190815260200160002060008573ffffffffffffffffffffffffffffffffffffffff1673ffffffffffffffffffffffffffffffffffffffff16815260200190815260200160002060006101000a81548160ff0219169083151502179055508273ffffffffffffffffffffffffffffffffffffffff16847f696f1e09104a0bef7512faf461f1a6962c3c8151a4d5979d4fdfa5112fccc5198460405161179a9190614699565b60405180910390a350505050565b60008073ffffffffffffffffffffffffffffffffffffffff168373ffffffffffffffffffffffffffffffffffffffff160361180f576040517f4a772c2700000000000000000000000000000000000000000000000000000000815260040160405180910390fd5b60006118196123fa565b905080600001600084815260200190815260200160002060008573ffffffffffffffffffffffffffffffffffffffff1673ffffffffffffffffffffffffffffffffffffffff1681526020019081526020016000205491505092915050565b6127108161ffff1611156118c0576040517f08c379a00000000000000000000000000000000000000000000000000000000081526004016118b790614027565b60405180910390fd5b60006118ca611aab565b905060008160020160009054906101000a900473ffffffffffffffffffffffffffffffffffffffff1673ffffffffffffffffffffffffffffffffffffffff1663313ce5676040518163ffffffff1660e01b8152600401602060405180830381865afa15801561193d573d6000803e3d6000fd5b505050506040513d601f19601f8201168201806040525081019061196191906141e2565b600a61196d9190614342565b90506000600a6005612710600a876127106119889190614055565b61ffff16866064611999919061408b565b6119a3919061408b565b6119ad919061408b565b6119b791906140fc565b6119c1919061412d565b6119cb91906140fc565b905060006119d7610c36565b90506000821115611a1357611a128460020160009054906101000a900473ffffffffffffffffffffffffffffffffffffffff16878385611b72565b5b611a35818288631dcd6500600160405180602001604052806000815250611db3565b611a43631dcd650083611c7d565b505050505050565b6000807ff72346055b4d7224c7ec19860d22963ca622fbb313761bfba507c1a3aeedf37290508091505090565b6000611a82612427565b600001600083815260200190815260200160002060009054906101000a900460ff169050919050565b6000807f1a2f703e435318ee39feac62abda44020ca215505d5ba3284195182c842a2d3090508091505090565b600080611ae3612454565b9050600081600001600086815260200190815260200160002090506000611b0a8286612481565b9050848260010154611b1c91906146b4565b8260010181905550808260020154611b34919061412d565b82600201819055506000826001015403611b665760008260000160006101000a81548160ff0219169083151502179055505b80935050505092915050565b6000611c0f8573ffffffffffffffffffffffffffffffffffffffff166323b872dd868686604051602401611ba893929190614729565b604051602081830303815290604052915060e01b6020820180517bffffffffffffffffffffffffffffffffffffffffffffffffffffffff83818316178352505050508673ffffffffffffffffffffffffffffffffffffffff166125c290919063ffffffff16565b90506000815114158015611c34575080806020019051810190611c32919061478c565b155b15611c7657846040517f5274afe7000000000000000000000000000000000000000000000000000000008152600401611c6d91906147b9565b60405180910390fd5b5050505050565b6000611c87611aab565b9050600081600101600085815260200190815260200160002060000160049054906101000a900463ffffffff1682600101600086815260200190815260200160002060000160009054906101000a900463ffffffff16611ce791906147d4565b63ffffffff1682600101600086815260200190815260200160002060000160009054906101000a900463ffffffff1663ffffffff1684611d27919061408b565b611d3191906140fc565b905060008184611d4191906146b4565b9050611d768360020160009054906101000a900473ffffffffffffffffffffffffffffffffffffffff166317d78400846125ef565b81836003016000828254611d8a919061412d565b9250508190555080836004016000828254611da5919061412d565b925050819055505050505050565b600073ffffffffffffffffffffffffffffffffffffffff168473ffffffffffffffffffffffffffffffffffffffff1603611e19576040517fa25202b800000000000000000000000000000000000000000000000000000000815260040160405180910390fd5b6000611e24846126f0565b90506000611e31846126f0565b9050611e4188888885858861276a565b6000611e4b6123fa565b9050611e578187612a1b565b600081600001600088815260200190815260200160002060008a73ffffffffffffffffffffffffffffffffffffffff1673ffffffffffffffffffffffffffffffffffffffff16815260200190815260200160002054905080861115611ee8576040517fb38aedf300000000000000000000000000000000000000000000000000000000815260040160405180910390fd5b611ef48a8a8989612a8b565b85810382600001600089815260200190815260200160002060008b73ffffffffffffffffffffffffffffffffffffffff1673ffffffffffffffffffffffffffffffffffffffff168152602001908152602001600020819055508873ffffffffffffffffffffffffffffffffffffffff168a73ffffffffffffffffffffffffffffffffffffffff16146120cf5781600201600088815260200190815260200160002060009054906101000a900460ff16156120ce57858260030160008b73ffffffffffffffffffffffffffffffffffffffff1673ffffffffffffffffffffffffffffffffffffffff16815260200190815260200160002060008c73ffffffffffffffffffffffffffffffffffffffff1673ffffffffffffffffffffffffffffffffffffffff168152602001908152602001600020600089815260200190815260200160002054038260030160008b73ffffffffffffffffffffffffffffffffffffffff1673ffffffffffffffffffffffffffffffffffffffff16815260200190815260200160002060008c73ffffffffffffffffffffffffffffffffffffffff1673ffffffffffffffffffffffffffffffffffffffff1681526020019081526020016000206000898152602001908152602001600020819055505b5b8582600001600089815260200190815260200160002060008a73ffffffffffffffffffffffffffffffffffffffff1673ffffffffffffffffffffffffffffffffffffffff1681526020019081526020016000206000828254612131919061412d565b925050819055508773ffffffffffffffffffffffffffffffffffffffff168973ffffffffffffffffffffffffffffffffffffffff168b73ffffffffffffffffffffffffffffffffffffffff167fc3d58168c5ae7397731d063d5bbf3d657854427343f4c083240f7aacaa2d0f628a8a6040516121ae92919061480c565b60405180910390a46121c48a8a8a87878a612c88565b6121d28a8a8a8a8a8a612c9e565b50505050505050505050565b600073ffffffffffffffffffffffffffffffffffffffff168473ffffffffffffffffffffffffffffffffffffffff1603612244576040517fefac521700000000000000000000000000000000000000000000000000000000815260040160405180910390fd5b600061224f846126f0565b9050600061225c846126f0565b905061226d8760008885858861276a565b60006122776123fa565b90506122838187612a1b565b8481600001600088815260200190815260200160002060008973ffffffffffffffffffffffffffffffffffffffff1673ffffffffffffffffffffffffffffffffffffffff16815260200190815260200160002060008282546122e5919061412d565b925050819055508673ffffffffffffffffffffffffffffffffffffffff16600073ffffffffffffffffffffffffffffffffffffffff168973ffffffffffffffffffffffffffffffffffffffff167fc3d58168c5ae7397731d063d5bbf3d657854427343f4c083240f7aacaa2d0f62898960405161236392919061480c565b60405180910390a461237a88600089868689612c88565b61238988600089898989612c9e565b5050505050505050565b60008061239e612454565b9050600081600001600086815260200190815260200160002090506123c38185612481565b9250505092915050565b6000807f7fb8776fdb93079091f516133d7bb98c82f37f53f39f39f153c42a90e5e5891290508091505090565b6000807fe20f5a7f7e820e4505f9ef8ed1186e372d3490e37d8001618819927829be4e0590508091505090565b6000807fe8ceb94393aac3e803a9d4b376f7c5ffd7e8b6caab697212a5360c34a283caa190508091505090565b6000807f47b8e8b32475ba6530f41efddbadc333684d4f798e5f4689344334684c5f262590508091505090565b60008260000160009054906101000a900460ff166124d4576040517f08c379a00000000000000000000000000000000000000000000000000000000081526004016124cb906148a7565b60405180910390fd5b826001015482111561251b576040517f08c379a000000000000000000000000000000000000000000000000000000000815260040161251290614913565b60405180910390fd5b6000600a6005600185876001015461253391906146b4565b61253d919061412d565b866001015461254c919061408b565b866003015486600a61255e919061408b565b612568919061408b565b61257291906140fc565b61257c919061412d565b61258691906140fc565b90506125b984600501548461259b919061408b565b6125b48660040154866125ae919061408b565b84612e63565b612e7c565b91505092915050565b60606125e7838360405180606001604052806023815260200161514660239139612e95565b905092915050565b60006125f9612ead565b905060008160000160008673ffffffffffffffffffffffffffffffffffffffff1673ffffffffffffffffffffffffffffffffffffffff168152602001908152602001600020600085815260200190815260200160002090508060000160009054906101000a900460ff1661266e5750506126eb565b60008312156126b2576040517f08c379a00000000000000000000000000000000000000000000000000000000081526004016126a99061497f565b60405180910390fd5b828160020160008282546126c691906149a9565b92505081905550828160030160008282546126e191906149a9565b9250508190555050505b505050565b60606000600167ffffffffffffffff81111561270f5761270e6149ed565b5b60405190808252806020026020018201604052801561273d5781602001602082028036833780820191505090505b509050828160008151811061275557612754614a1c565b5b60200260200101818152505080915050919050565b8373ffffffffffffffffffffffffffffffffffffffff168573ffffffffffffffffffffffffffffffffffffffff1614612a055760006127a76123fa565b9050600081600501905060008260060160008973ffffffffffffffffffffffffffffffffffffffff1673ffffffffffffffffffffffffffffffffffffffff168152602001908152602001600020905060008360060160008973ffffffffffffffffffffffffffffffffffffffff1673ffffffffffffffffffffffffffffffffffffffff168152602001908152602001600020905060005b87518110156129ff57600087828151811061285c5761285b614a1c565b5b6020026020010151905060008111156129f157600089838151811061288457612883614a1c565b5b60200260200101519050600073ffffffffffffffffffffffffffffffffffffffff168c73ffffffffffffffffffffffffffffffffffffffff16036128f3578187600401600083815260200190815260200160002060008282546128e7919061412d565b9250508190555061293e565b816128fe8d836117a8565b0361293d576129278c876000848152602001908152602001600020612eda90919063ffffffff16565b5061293b8186612f0a90919063ffffffff16565b505b5b600073ffffffffffffffffffffffffffffffffffffffff168b73ffffffffffffffffffffffffffffffffffffffff16036129a35781876004016000838152602001908152602001600020600082825461299791906146b4565b925050819055506129ef565b60006129af8c836117a8565b036129ee576129d88b876000848152602001908152602001600020612f2490919063ffffffff16565b506129ec8185612f5490919063ffffffff16565b505b5b505b81806001019250505061283e565b50505050505b612a13868686868686612f6e565b505050505050565b612a2482612fb7565b81600b01600082815260200190815260200160002060009054906101000a900460ff1615612a87576040517f08c379a0000000000000000000000000000000000000000000000000000000008152600401612a7e90614a97565b60405180910390fd5b5050565b6000612a956123fa565b90508473ffffffffffffffffffffffffffffffffffffffff168473ffffffffffffffffffffffffffffffffffffffff1614612c81578060010160008573ffffffffffffffffffffffffffffffffffffffff1673ffffffffffffffffffffffffffffffffffffffff16815260200190815260200160002060008673ffffffffffffffffffffffffffffffffffffffff1673ffffffffffffffffffffffffffffffffffffffff16815260200190815260200160002060009054906101000a900460ff16612b8c576040517f3d2f0b3700000000000000000000000000000000000000000000000000000000815260040160405180910390fd5b80600201600084815260200190815260200160002060009054906101000a900460ff168015612c495750818160030160008673ffffffffffffffffffffffffffffffffffffffff1673ffffffffffffffffffffffffffffffffffffffff16815260200190815260200160002060008773ffffffffffffffffffffffffffffffffffffffff1673ffffffffffffffffffffffffffffffffffffffff168152602001908152602001600020600085815260200190815260200160002054105b15612c80576040517f32af163800000000000000000000000000000000000000000000000000000000815260040160405180910390fd5b5b5050505050565b612c9686868686868661300c565b505050505050565b612cbd8473ffffffffffffffffffffffffffffffffffffffff166130fa565b15612e5b578373ffffffffffffffffffffffffffffffffffffffff1663f23a6e6187878686866040518663ffffffff1660e01b8152600401612d03959493929190614b47565b6020604051808303816000875af1925050508015612d3f57506040513d601f19601f82011682018060405250810190612d3c9190614bf9565b60015b612ddb57612d4b614c33565b806308c379a003612da75750612d5f614c86565b80612d6a5750612da9565b806040517f08c379a0000000000000000000000000000000000000000000000000000000008152600401612d9e9190614d5a565b60405180910390fd5b505b6040517f4eebd08100000000000000000000000000000000000000000000000000000000815260040160405180910390fd5b63f23a6e6160e01b7bffffffffffffffffffffffffffffffffffffffffffffffffffffffff1916817bffffffffffffffffffffffffffffffffffffffffffffffffffffffff191614612e59576040517f542073e700000000000000000000000000000000000000000000000000000000815260040160405180910390fd5b505b505050505050565b6000818311612e725781612e74565b825b905092915050565b6000818311612e8b5782612e8d565b815b905092915050565b6060612ea4848460008561310d565b90509392505050565b6000807ff0375085caeab71645bf74d020ee2aa37bc7b653d9e55911c1084d8c88b3c05c90508091505090565b6000612f02836000018373ffffffffffffffffffffffffffffffffffffffff1660001b613226565b905092915050565b6000612f1c836000018360001b613226565b905092915050565b6000612f4c836000018373ffffffffffffffffffffffffffffffffffffffff1660001b61330a565b905092915050565b6000612f66836000018360001b61330a565b905092915050565b600073ffffffffffffffffffffffffffffffffffffffff168573ffffffffffffffffffffffffffffffffffffffff1614612faf57612fad858484613371565b505b505050505050565b80600a0160009054906101000a900460ff1615613009576040517f08c379a000000000000000000000000000000000000000000000000000000000815260040161300090614dc8565b60405180910390fd5b50565b600073ffffffffffffffffffffffffffffffffffffffff168573ffffffffffffffffffffffffffffffffffffffff161461304e5761304d8584846000613413565b5b600073ffffffffffffffffffffffffffffffffffffffff168473ffffffffffffffffffffffffffffffffffffffff16146130905761308f8484846001613413565b5b60005b83518110156130f1576130e46130a76134ae565b8583815181106130ba576130b9614a1c565b5b602002602001015188888786815181106130d7576130d6614a1c565b5b60200260200101516134e6565b8080600101915050613093565b50505050505050565b600080823b905060008111915050919050565b6060613118856130fa565b61314e576040517f89c35afc00000000000000000000000000000000000000000000000000000000815260040160405180910390fd5b6000808673ffffffffffffffffffffffffffffffffffffffff1685876040516131779190614e24565b60006040518083038185875af1925050503d80600081146131b4576040519150601f19603f3d011682016040523d82523d6000602084013e6131b9565b606091505b509150915081156131ce57809250505061321e565b6000815111156131e15780518082602001fd5b836040517f08c379a00000000000000000000000000000000000000000000000000000000081526004016132159190614d5a565b60405180910390fd5b949350505050565b600080836001016000848152602001908152602001600020549050600081146133035760008460000160018660000180549050038154811061326b5761326a614a1c565b5b906000526020600020015490508085600001600184038154811061329257613291614a1c565b5b9060005260206000200181905550818560010160008381526020019081526020016000208190555050836000018054806132cf576132ce614e3b565b5b6001900381819060005260206000200160009055905583600101600084815260200190815260200160002060009055600191505b5092915050565b6000613316838361361a565b61336b5782600001829080600181540180825580915050600190039060005260206000200160009091909190915055826000018054905083600101600084815260200190815260200160002081905550600190505b92915050565b600081518351146133ae576040517f583b4bea00000000000000000000000000000000000000000000000000000000815260040160405180910390fd5b60005b8351811015613407576133f9858583815181106133d1576133d0614a1c565b5b60200260200101518584815181106133ec576133eb614a1c565b5b602002602001015161363d565b5080806001019150506133b1565b50600190509392505050565b815183511461344e576040517f583b4bea00000000000000000000000000000000000000000000000000000000815260040160405180910390fd5b60005b83518110156134a75761349a8585838151811061347157613470614a1c565b5b602002602001015185848151811061348c5761348b614a1c565b5b60200260200101518561378f565b8080600101915050613451565b5050505050565b6000806134b9611aab565b90508060020160009054906101000a900473ffffffffffffffffffffffffffffffffffffffff1691505090565b60006134f0612ead565b905060008160000160008873ffffffffffffffffffffffffffffffffffffffff1673ffffffffffffffffffffffffffffffffffffffff168152602001908152602001600020600087815260200190815260200160002090508060000160009054906101000a900460ff16613565575050613613565b600073ffffffffffffffffffffffffffffffffffffffff168573ffffffffffffffffffffffffffffffffffffffff16146135d0576135cf8186857fffffffffffffffffffffffffffffffffffffffffffffffffffffffffffffffff6135ca9190614e6a565b61392d565b5b600073ffffffffffffffffffffffffffffffffffffffff168473ffffffffffffffffffffffffffffffffffffffff16146136105761360f81858561392d565b5b50505b5050505050565b600080836001016000848152602001908152602001600020541415905092915050565b600080613648613aae565b9050600081600001600086815260200190815260200160002090504381600101541161367957600192505050613788565b60008160030160008873ffffffffffffffffffffffffffffffffffffffff1673ffffffffffffffffffffffffffffffffffffffff16815260200190815260200160002090506000600c826003015483600001546136d691906146b4565b6136e091906140fc565b83600201548360020154436136f591906146b4565b6136ff91906140fc565b613709919061408b565b90506000826001015461372f838560030154613725919061412d565b8560000154612e7c565b61373991906146b4565b90508087111561377e576040517f08c379a000000000000000000000000000000000000000000000000000000000815260040161377590614f54565b60405180910390fd5b6001955050505050505b9392505050565b6000613799613aae565b905060008160000160008681526020019081526020016000209050438160010154116137c6575050613927565b60008160030160008873ffffffffffffffffffffffffffffffffffffffff1673ffffffffffffffffffffffffffffffffffffffff1681526020019081526020016000209050438260000154116138605760018460ff16036138585784816000016000828254613835919061412d565b9250508190555084816003016000828254613850919061412d565b925050819055505b505050613927565b6000600c8260030154836000015461387891906146b4565b61388291906140fc565b836002015483600201544361389791906146b4565b6138a191906140fc565b6138ab919061408b565b90506138ca8183600301546138c0919061412d565b8360000154612e7c565b826003018190555060018560ff16036138fd57858260000160008282546138f1919061412d565b92505081905550613919565b85826001016000828254613911919061412d565b925050819055505b438260020181905550505050505b50505050565b60008360040160008473ffffffffffffffffffffffffffffffffffffffff1673ffffffffffffffffffffffffffffffffffffffff1681526020019081526020016000209050600082856001015461398491906149a9565b12156139c5576040517f08c379a00000000000000000000000000000000000000000000000000000000081526004016139bc90614fe6565b60405180910390fd5b60008282600001546139d791906149a9565b1215613a18576040517f08c379a0000000000000000000000000000000000000000000000000000000008152600401613a0f90615078565b60405180910390fd5b600080856001015414613a47578460010154838660030154613a3a9190614e6a565b613a449190615098565b90505b828560010154613a5791906149a9565b8560010181905550808560030154613a6f91906149a9565b8560030181905550828260000154613a8791906149a9565b8260000181905550808260010154613a9f9190615102565b82600101819055505050505050565b6000807fb666c964c288db81fc3205a9feeb13cfebbde2a4a4664c45ea26ef9d3d8de79290508091505090565b6000604051905090565b600080fd5b6000819050919050565b613afd81613aea565b8114613b0857600080fd5b50565b600081359050613b1a81613af4565b92915050565b600063ffffffff82169050919050565b613b3981613b20565b8114613b4457600080fd5b50565b600081359050613b5681613b30565b92915050565b60008060408385031215613b7357613b72613ae5565b5b6000613b8185828601613b0b565b9250506020613b9285828601613b47565b9150509250929050565b600060ff82169050919050565b613bb281613b9c565b82525050565b6000602082019050613bcd6000830184613ba9565b92915050565b600060208284031215613be957613be8613ae5565b5b6000613bf784828501613b0b565b91505092915050565b613c0981613aea565b82525050565b6000602082019050613c246000830184613c00565b92915050565b600060208284031215613c4057613c3f613ae5565b5b6000613c4e84828501613b47565b91505092915050565b60006fffffffffffffffffffffffffffffffff82169050919050565b613c7c81613c57565b8114613c8757600080fd5b50565b600081359050613c9981613c73565b92915050565b613ca881613b9c565b8114613cb357600080fd5b50565b600081359050613cc581613c9f565b92915050565b60008060408385031215613ce257613ce1613ae5565b5b6000613cf085828601613c8a565b9250506020613d0185828601613cb6565b9150509250929050565b600082825260208201905092915050565b7f4e4f545f414c4c4f574544000000000000000000000000000000000000000000600082015250565b6000613d52600b83613d0b565b9150613d5d82613d1c565b602082019050919050565b60006020820190508181036000830152613d8181613d45565b9050919050565b7f4e487b7100000000000000000000000000000000000000000000000000000000600052601160045260246000fd5b6000613dc282613aea565b91507fffffffffffffffffffffffffffffffffffffffffffffffffffffffffffffffff8203613df457613df3613d88565b5b600182019050919050565b7f5265656e74727950726f74656374696f6e3a207265656e74727920646574656360008201527f7465642100000000000000000000000000000000000000000000000000000000602082015250565b6000613e5b602483613d0b565b9150613e6682613dff565b604082019050919050565b60006020820190508181036000830152613e8a81613e4e565b9050919050565b7f4f6e6c7920616e20617070726f766564206163636f756e742063616e2062757960008201527f20746865204d6167696320746f6b656e00000000000000000000000000000000602082015250565b6000613eed603083613d0b565b9150613ef882613e91565b604082019050919050565b60006020820190508181036000830152613f1c81613ee0565b9050919050565b7f4f6e6c792031204d6167696320746f6b656e2063616e20626520626f7567687460008201527f206e6f7721000000000000000000000000000000000000000000000000000000602082015250565b6000613f7f602583613d0b565b9150613f8a82613f23565b604082019050919050565b60006020820190508181036000830152613fae81613f72565b9050919050565b7f446973636f756e742070657263656e742063616e6e6f74206265206d6f72652060008201527f7468656e203130302c3030250000000000000000000000000000000000000000602082015250565b6000614011602c83613d0b565b915061401c82613fb5565b604082019050919050565b6000602082019050818103600083015261404081614004565b9050919050565b600061ffff82169050919050565b600061406082614047565b915061406b83614047565b9250828203905061ffff81111561408557614084613d88565b5b92915050565b600061409682613aea565b91506140a183613aea565b92508282026140af81613aea565b915082820484148315176140c6576140c5613d88565b5b5092915050565b7f4e487b7100000000000000000000000000000000000000000000000000000000600052601260045260246000fd5b600061410782613aea565b915061411283613aea565b925082614122576141216140cd565b5b828204905092915050565b600061413882613aea565b915061414383613aea565b925082820190508082111561415b5761415a613d88565b5b92915050565b7f76616c7565547970652063616e2062652030206f722031206f6e6c7921000000600082015250565b6000614197601d83613d0b565b91506141a282614161565b602082019050919050565b600060208201905081810360008301526141c68161418a565b9050919050565b6000815190506141dc81613c9f565b92915050565b6000602082840312156141f8576141f7613ae5565b5b6000614206848285016141cd565b91505092915050565b60008160011c9050919050565b6000808291508390505b60018511156142665780860481111561424257614241613d88565b5b60018516156142515780820291505b808102905061425f8561420f565b9450614226565b94509492505050565b60008261427f576001905061433b565b8161428d576000905061433b565b81600181146142a357600281146142ad576142dc565b600191505061433b565b60ff8411156142bf576142be613d88565b5b8360020a9150848211156142d6576142d5613d88565b5b5061433b565b5060208310610133831016604e8410600b84101617156143115782820a90508381111561430c5761430b613d88565b5b61433b565b61431e848484600161421c565b9250905081840481111561433557614334613d88565b5b81810290505b9392505050565b600061434d82613aea565b915061435883613b9c565b92506143857fffffffffffffffffffffffffffffffffffffffffffffffffffffffffffffffff848461426f565b905092915050565b600061439882613c57565b91506143a383613c57565b92508282026143b181613c57565b91508082146143c3576143c2613d88565b5b5092915050565b7f54686520696e707574207175616e7469747920697320746f6f20736d616c6c2060008201527f666f7220706179696e6720746f6b656e00000000000000000000000000000000602082015250565b6000614426603083613d0b565b9150614431826143ca565b604082019050919050565b6000602082019050818103600083015261445581614419565b9050919050565b7f54686520696e70757420616d6f756e7420697320746f6f20736d616c6c20666f60008201527f7220627579696e67206120746f6b656e00000000000000000000000000000000602082015250565b60006144b8603083613d0b565b91506144c38261445c565b604082019050919050565b600060208201905081810360008301526144e7816144ab565b9050919050565b7f4e6f7420656e6f75676820746f6b656e20746f2073656c6c0000000000000000600082015250565b6000614524601883613d0b565b915061452f826144ee565b602082019050919050565b6000602082019050818103600083015261455381614517565b9050919050565b7f54686520696e707574207175616e7469747920697320746f6f20736d616c6c2060008201527f666f7220706179696e6720746f6b656e21000000000000000000000000000000602082015250565b60006145b6603183613d0b565b91506145c18261455a565b604082019050919050565b600060208201905081810360008301526145e5816145a9565b9050919050565b7f54686520696e70757420616d6f756e7420697320746f6f20736d616c6c20666f60008201527f7220627579696e67206120746f6b656e21000000000000000000000000000000602082015250565b6000614648603183613d0b565b9150614653826145ec565b604082019050919050565b600060208201905081810360008301526146778161463b565b9050919050565b60008115159050919050565b6146938161467e565b82525050565b60006020820190506146ae600083018461468a565b92915050565b60006146bf82613aea565b91506146ca83613aea565b92508282039050818111156146e2576146e1613d88565b5b92915050565b600073ffffffffffffffffffffffffffffffffffffffff82169050919050565b6000614713826146e8565b9050919050565b61472381614708565b82525050565b600060608201905061473e600083018661471a565b61474b602083018561471a565b6147586040830184613c00565b949350505050565b6147698161467e565b811461477457600080fd5b50565b60008151905061478681614760565b92915050565b6000602082840312156147a2576147a1613ae5565b5b60006147b084828501614777565b91505092915050565b60006020820190506147ce600083018461471a565b92915050565b60006147df82613b20565b91506147ea83613b20565b9250828201905063ffffffff81111561480657614805613d88565b5b92915050565b60006040820190506148216000830185613c00565b61482e6020830184613c00565b9392505050565b7f43616c63756c6174696f6e206973206e6f7420656e61626c656420666f72207460008201527f686520746f6b656e210000000000000000000000000000000000000000000000602082015250565b6000614891602983613d0b565b915061489c82614835565b604082019050919050565b600060208201905081810360008301526148c081614884565b9050919050565b7f4e6f7420656e6f75676874207175616e74697479206c65667421000000000000600082015250565b60006148fd601a83613d0b565b9150614908826148c7565b602082019050919050565b6000602082019050818103600083015261492c816148f0565b9050919050565b7f506f6f6c2063616e206f6e6c7920696e63726561736521000000000000000000600082015250565b6000614969601783613d0b565b915061497482614933565b602082019050919050565b600060208201905081810360008301526149988161495c565b9050919050565b6000819050919050565b60006149b48261499f565b91506149bf8361499f565b9250828201905082811215600083121683821260008412151617156149e7576149e6613d88565b5b92915050565b7f4e487b7100000000000000000000000000000000000000000000000000000000600052604160045260246000fd5b7f4e487b7100000000000000000000000000000000000000000000000000000000600052603260045260246000fd5b7f546f6b656e206973207061757365642100000000000000000000000000000000600082015250565b6000614a81601083613d0b565b9150614a8c82614a4b565b602082019050919050565b60006020820190508181036000830152614ab081614a74565b9050919050565b600081519050919050565b600082825260208201905092915050565b60005b83811015614af1578082015181840152602081019050614ad6565b60008484015250505050565b6000601f19601f8301169050919050565b6000614b1982614ab7565b614b238185614ac2565b9350614b33818560208601614ad3565b614b3c81614afd565b840191505092915050565b600060a082019050614b5c600083018861471a565b614b69602083018761471a565b614b766040830186613c00565b614b836060830185613c00565b8181036080830152614b958184614b0e565b90509695505050505050565b60007fffffffff0000000000000000000000000000000000000000000000000000000082169050919050565b614bd681614ba1565b8114614be157600080fd5b50565b600081519050614bf381614bcd565b92915050565b600060208284031215614c0f57614c0e613ae5565b5b6000614c1d84828501614be4565b91505092915050565b60008160e01c9050919050565b600060033d1115614c525760046000803e614c4f600051614c26565b90505b90565b614c5e82614afd565b810181811067ffffffffffffffff82111715614c7d57614c7c6149ed565b5b80604052505050565b600060443d10614d1357614c98613adb565b60043d036004823e80513d602482011167ffffffffffffffff82111715614cc0575050614d13565b808201805167ffffffffffffffff811115614cde5750505050614d13565b80602083010160043d038501811115614cfb575050505050614d13565b614d0a82602001850186614c55565b82955050505050505b90565b600081519050919050565b6000614d2c82614d16565b614d368185613d0b565b9350614d46818560208601614ad3565b614d4f81614afd565b840191505092915050565b60006020820190508181036000830152614d748184614d21565b905092915050565b7f416c6c20746f6b656e2069732070617573656421000000000000000000000000600082015250565b6000614db2601483613d0b565b9150614dbd82614d7c565b602082019050919050565b60006020820190508181036000830152614de181614da5565b9050919050565b600081905092915050565b6000614dfe82614ab7565b614e088185614de8565b9350614e18818560208601614ad3565b80840191505092915050565b6000614e308284614df3565b915081905092915050565b7f4e487b7100000000000000000000000000000000000000000000000000000000600052603160045260246000fd5b6000614e758261499f565b9150614e808361499f565b9250828202614e8e8161499f565b91507f80000000000000000000000000000000000000000000000000000000000000008414600084121615614ec657614ec5613d88565b5b8282058414831517614edb57614eda613d88565b5b5092915050565b7f54686520616d6f756e7420697320677261746572207468656e2074686520616360008201527f63756d6c6174656420282773656c6c61626c65272920616d6f756e7421000000602082015250565b6000614f3e603d83613d0b565b9150614f4982614ee2565b604082019050919050565b60006020820190508181036000830152614f6d81614f31565b9050919050565b7f506f6f6c20746f6b656e207175616e6974792063616e2774206265206c65737360008201527f207468656e207a65726f21000000000000000000000000000000000000000000602082015250565b6000614fd0602b83613d0b565b9150614fdb82614f74565b604082019050919050565b60006020820190508181036000830152614fff81614fc3565b9050919050565b7f5573657220746f6b656e207175616e6974792063616e2774206265206c65737360008201527f207468656e207a65726f21000000000000000000000000000000000000000000602082015250565b6000615062602b83613d0b565b915061506d82615006565b604082019050919050565b6000602082019050818103600083015261509181615055565b9050919050565b60006150a38261499f565b91506150ae8361499f565b9250826150be576150bd6140cd565b5b600160000383147f8000000000000000000000000000000000000000000000000000000000000000831416156150f7576150f6613d88565b5b828205905092915050565b600061510d8261499f565b91506151188361499f565b925082820390508181126000841216828213600085121516171561513f5761513e613d88565b5b9291505056fe416464726573735574696c733a206661696c6564206c6f772d6c6576656c2063616c6ca2646970667358221220b600ebc5f86d559ecb36e9b3c64e9369cb7e59d5bd6f4b962aa21b472d3a533e64736f6c63430008110033",
  "devdoc": {
    "kind": "dev",
    "methods": {},
    "version": 1
  },
  "userdoc": {
    "kind": "user",
    "methods": {},
    "version": 1
  },
  "storageLayout": {
    "storage": [],
    "types": null
  }
}