{
  "address": "0x8f86403A4DE0BB5791fa46B8e795C547942fE4Cf",
  "abi": [
    {
      "inputs": [],
      "name": "AMOUNT_VALUE_TYPE",
      "outputs": [
        {
          "internalType": "uint8",
          "name": "",
          "type": "uint8"
        }
      ],
      "stateMutability": "view",
      "type": "function"
    },
    {
      "inputs": [],
      "name": "AREXA_ADMIN_ROLE",
      "outputs": [
        {
          "internalType": "bytes32",
          "name": "",
          "type": "bytes32"
        }
      ],
      "stateMutability": "view",
      "type": "function"
    },
    {
      "inputs": [],
      "name": "AREXA_TOKEN_ID",
      "outputs": [
        {
          "internalType": "uint256",
          "name": "",
          "type": "uint256"
        }
      ],
      "stateMutability": "view",
      "type": "function"
    },
    {
      "inputs": [],
      "name": "AREXA_TOKEN_POOL_AREXAINC",
      "outputs": [
        {
          "internalType": "uint8",
          "name": "",
          "type": "uint8"
        }
      ],
      "stateMutability": "view",
      "type": "function"
    },
    {
      "inputs": [],
      "name": "AREXA_TOKEN_POOL_DEVELOPMENT",
      "outputs": [
        {
          "internalType": "uint8",
          "name": "",
          "type": "uint8"
        }
      ],
      "stateMutability": "view",
      "type": "function"
    },
    {
      "inputs": [],
      "name": "AREXA_TOKEN_POOL_INVESTOR",
      "outputs": [
        {
          "internalType": "uint8",
          "name": "",
          "type": "uint8"
        }
      ],
      "stateMutability": "view",
      "type": "function"
    },
    {
      "inputs": [],
      "name": "AREXA_TOKEN_POOL_MARKETING",
      "outputs": [
        {
          "internalType": "uint8",
          "name": "",
          "type": "uint8"
        }
      ],
      "stateMutability": "view",
      "type": "function"
    },
    {
      "inputs": [],
      "name": "AREXA_TOKEN_POOL_RESERVED",
      "outputs": [
        {
          "internalType": "uint8",
          "name": "",
          "type": "uint8"
        }
      ],
      "stateMutability": "view",
      "type": "function"
    },
    {
      "inputs": [],
      "name": "MAGIC100_FIRST_BUYER",
      "outputs": [
        {
          "internalType": "bytes32",
          "name": "",
          "type": "bytes32"
        }
      ],
      "stateMutability": "view",
      "type": "function"
    },
    {
      "inputs": [],
      "name": "MAGIC_TOKEN_ID",
      "outputs": [
        {
          "internalType": "uint256",
          "name": "",
          "type": "uint256"
        }
      ],
      "stateMutability": "view",
      "type": "function"
    },
    {
      "inputs": [],
      "name": "PAUSABLE_AREXA_TOKEN",
      "outputs": [
        {
          "internalType": "bytes32",
          "name": "",
          "type": "bytes32"
        }
      ],
      "stateMutability": "view",
      "type": "function"
    },
    {
      "inputs": [],
      "name": "PAUSABLE_FULL",
      "outputs": [
        {
          "internalType": "bytes32",
          "name": "",
          "type": "bytes32"
        }
      ],
      "stateMutability": "view",
      "type": "function"
    },
    {
      "inputs": [],
      "name": "PAUSABLE_MAGIC_TOKEN",
      "outputs": [
        {
          "internalType": "bytes32",
          "name": "",
          "type": "bytes32"
        }
      ],
      "stateMutability": "view",
      "type": "function"
    },
    {
      "inputs": [],
      "name": "PAUSABLE_SUBSCR1_TOKEN",
      "outputs": [
        {
          "internalType": "bytes32",
          "name": "",
          "type": "bytes32"
        }
      ],
      "stateMutability": "view",
      "type": "function"
    },
    {
      "inputs": [],
      "name": "PAUSABLE_SUBSCR2_TOKEN",
      "outputs": [
        {
          "internalType": "bytes32",
          "name": "",
          "type": "bytes32"
        }
      ],
      "stateMutability": "view",
      "type": "function"
    },
    {
      "inputs": [],
      "name": "PAUSABLE_TRADER_TOKEN",
      "outputs": [
        {
          "internalType": "bytes32",
          "name": "",
          "type": "bytes32"
        }
      ],
      "stateMutability": "view",
      "type": "function"
    },
    {
      "inputs": [],
      "name": "QUANTITY_VALUE_TYPE",
      "outputs": [
        {
          "internalType": "uint8",
          "name": "",
          "type": "uint8"
        }
      ],
      "stateMutability": "view",
      "type": "function"
    },
    {
      "inputs": [],
      "name": "SUBSCR1_TOKEN_TYPE",
      "outputs": [
        {
          "internalType": "uint256",
          "name": "",
          "type": "uint256"
        }
      ],
      "stateMutability": "view",
      "type": "function"
    },
    {
      "inputs": [],
      "name": "SUBSCR2_TOKEN_TYPE",
      "outputs": [
        {
          "internalType": "uint256",
          "name": "",
          "type": "uint256"
        }
      ],
      "stateMutability": "view",
      "type": "function"
    },
    {
      "inputs": [],
      "name": "TRADER_TOKEN_ID",
      "outputs": [
        {
          "internalType": "uint256",
          "name": "",
          "type": "uint256"
        }
      ],
      "stateMutability": "view",
      "type": "function"
    },
    {
      "inputs": [
        {
          "internalType": "uint256",
          "name": "_id",
          "type": "uint256"
        }
      ],
      "name": "accountsByToken",
      "outputs": [
        {
          "internalType": "address[]",
          "name": "",
          "type": "address[]"
        }
      ],
      "stateMutability": "view",
      "type": "function"
    },
    {
      "inputs": [
        {
          "internalType": "address",
          "name": "_owner",
          "type": "address"
        },
        {
          "internalType": "address",
          "name": "_operator",
          "type": "address"
        },
        {
          "internalType": "uint256",
          "name": "_id",
          "type": "uint256"
        }
      ],
      "name": "allowance",
      "outputs": [
        {
          "internalType": "uint256",
          "name": "",
          "type": "uint256"
        }
      ],
      "stateMutability": "view",
      "type": "function"
    },
    {
      "inputs": [
        {
          "internalType": "address",
          "name": "_operator",
          "type": "address"
        },
        {
          "internalType": "uint256",
          "name": "_id",
          "type": "uint256"
        },
        {
          "internalType": "uint256",
          "name": "_currentValue",
          "type": "uint256"
        },
        {
          "internalType": "uint256",
          "name": "_newValue",
          "type": "uint256"
        }
      ],
      "name": "approve",
      "outputs": [],
      "stateMutability": "nonpayable",
      "type": "function"
    },
    {
      "inputs": [
        {
          "internalType": "address",
          "name": "_owner",
          "type": "address"
        },
        {
          "internalType": "uint256",
          "name": "_id",
          "type": "uint256"
        }
      ],
      "name": "balanceOf",
      "outputs": [
        {
          "internalType": "uint256",
          "name": "",
          "type": "uint256"
        }
      ],
      "stateMutability": "view",
      "type": "function"
    },
    {
      "inputs": [
        {
          "internalType": "address[]",
          "name": "_owners",
          "type": "address[]"
        },
        {
          "internalType": "uint256[]",
          "name": "_ids",
          "type": "uint256[]"
        }
      ],
      "name": "balanceOfBatch",
      "outputs": [
        {
          "internalType": "uint256[]",
          "name": "",
          "type": "uint256[]"
        }
      ],
      "stateMutability": "view",
      "type": "function"
    },
    {
      "inputs": [
        {
          "internalType": "uint128",
          "name": "value",
          "type": "uint128"
        },
        {
          "internalType": "uint8",
          "name": "valueType",
          "type": "uint8"
        }
      ],
      "name": "buyArexaToken",
      "outputs": [],
      "stateMutability": "nonpayable",
      "type": "function"
    },
    {
      "inputs": [
        {
          "internalType": "uint32",
          "name": "quantity",
          "type": "uint32"
        }
      ],
      "name": "buyEdgeSubscription",
      "outputs": [],
      "stateMutability": "nonpayable",
      "type": "function"
    },
    {
      "inputs": [],
      "name": "buyMagic100Token",
      "outputs": [],
      "stateMutability": "nonpayable",
      "type": "function"
    },
    {
      "inputs": [
        {
          "internalType": "address",
          "name": "toAccount",
          "type": "address"
        }
      ],
      "name": "buyMagic100TokenAdmin",
      "outputs": [],
      "stateMutability": "nonpayable",
      "type": "function"
    },
    {
      "inputs": [
        {
          "internalType": "uint32",
          "name": "quantity",
          "type": "uint32"
        }
      ],
      "name": "buyOracleSubscription",
      "outputs": [],
      "stateMutability": "nonpayable",
      "type": "function"
    },
    {
      "inputs": [
        {
          "internalType": "uint256",
          "name": "tokenId",
          "type": "uint256"
        },
        {
          "internalType": "uint32",
          "name": "quantity",
          "type": "uint32"
        }
      ],
      "name": "buySubscription",
      "outputs": [],
      "stateMutability": "nonpayable",
      "type": "function"
    },
    {
      "inputs": [
        {
          "internalType": "uint128",
          "name": "value",
          "type": "uint128"
        },
        {
          "internalType": "uint8",
          "name": "valueType",
          "type": "uint8"
        }
      ],
      "name": "buyTraderToken",
      "outputs": [],
      "stateMutability": "nonpayable",
      "type": "function"
    },
    {
      "inputs": [
        {
          "internalType": "address",
          "name": "account",
          "type": "address"
        }
      ],
      "name": "calcDivident",
      "outputs": [
        {
          "internalType": "int256",
          "name": "",
          "type": "int256"
        }
      ],
      "stateMutability": "view",
      "type": "function"
    },
    {
      "inputs": [
        {
          "internalType": "uint256",
          "name": "tokenId",
          "type": "uint256"
        },
        {
          "internalType": "uint32",
          "name": "quantity",
          "type": "uint32"
        }
      ],
      "name": "calcSubscriptionPrice",
      "outputs": [
        {
          "internalType": "uint256",
          "name": "",
          "type": "uint256"
        }
      ],
      "stateMutability": "view",
      "type": "function"
    },
    {
      "inputs": [
        {
          "internalType": "address",
          "name": "account",
          "type": "address"
        },
        {
          "internalType": "uint256",
          "name": "tokenId",
          "type": "uint256"
        },
        {
          "internalType": "uint256",
          "name": "amount",
          "type": "uint256"
        }
      ],
      "name": "calcUnrestrictedAmount",
      "outputs": [
        {
          "internalType": "uint256",
          "name": "",
          "type": "uint256"
        }
      ],
      "stateMutability": "view",
      "type": "function"
    },
    {
      "inputs": [
        {
          "internalType": "address",
          "name": "account",
          "type": "address"
        },
        {
          "internalType": "uint256",
          "name": "tokenId",
          "type": "uint256"
        },
        {
          "internalType": "uint256",
          "name": "amount",
          "type": "uint256"
        }
      ],
      "name": "checkRestriction",
      "outputs": [],
      "stateMutability": "view",
      "type": "function"
    },
    {
      "inputs": [
        {
          "internalType": "address",
          "name": "account",
          "type": "address"
        },
        {
          "internalType": "uint256[]",
          "name": "tokenIds",
          "type": "uint256[]"
        },
        {
          "internalType": "uint256[]",
          "name": "amounts",
          "type": "uint256[]"
        }
      ],
      "name": "checkRestrictions",
      "outputs": [],
      "stateMutability": "view",
      "type": "function"
    },
    {
      "inputs": [
        {
          "internalType": "uint256",
          "name": "tokenType",
          "type": "uint256"
        },
        {
          "internalType": "uint16",
          "name": "year",
          "type": "uint16"
        },
        {
          "internalType": "uint8",
          "name": "month",
          "type": "uint8"
        },
        {
          "internalType": "uint256",
          "name": "quantity",
          "type": "uint256"
        },
        {
          "internalType": "uint256",
          "name": "min",
          "type": "uint256"
        },
        {
          "internalType": "uint256",
          "name": "max",
          "type": "uint256"
        }
      ],
      "name": "createSubscription",
      "outputs": [
        {
          "internalType": "uint256",
          "name": "tokenId",
          "type": "uint256"
        }
      ],
      "stateMutability": "nonpayable",
      "type": "function"
    },
    {
      "inputs": [
        {
          "components": [
            {
              "internalType": "address",
              "name": "facetAddress",
              "type": "address"
            },
            {
              "internalType": "uint8",
              "name": "action",
              "type": "uint8"
            },
            {
              "internalType": "bytes4[]",
              "name": "functionSelectors",
              "type": "bytes4[]"
            }
          ],
          "internalType": "struct ArexaDiamondDummyImplementation.Tuple6871229[]",
          "name": "_diamondCut",
          "type": "tuple[]"
        },
        {
          "internalType": "address",
          "name": "_init",
          "type": "address"
        },
        {
          "internalType": "bytes",
          "name": "_calldata",
          "type": "bytes"
        }
      ],
      "name": "diamondCut",
      "outputs": [],
      "stateMutability": "nonpayable",
      "type": "function"
    },
    {
      "inputs": [
        {
          "internalType": "bytes4",
          "name": "_functionSelector",
          "type": "bytes4"
        }
      ],
      "name": "facetAddress",
      "outputs": [
        {
          "internalType": "address",
          "name": "facetAddress_",
          "type": "address"
        }
      ],
      "stateMutability": "view",
      "type": "function"
    },
    {
      "inputs": [],
      "name": "facetAddresses",
      "outputs": [
        {
          "internalType": "address[]",
          "name": "facetAddresses_",
          "type": "address[]"
        }
      ],
      "stateMutability": "view",
      "type": "function"
    },
    {
      "inputs": [
        {
          "internalType": "address",
          "name": "_facet",
          "type": "address"
        }
      ],
      "name": "facetFunctionSelectors",
      "outputs": [
        {
          "internalType": "bytes4[]",
          "name": "facetFunctionSelectors_",
          "type": "bytes4[]"
        }
      ],
      "stateMutability": "view",
      "type": "function"
    },
    {
      "inputs": [],
      "name": "facets",
      "outputs": [
        {
          "components": [
            {
              "internalType": "address",
              "name": "facetAddress",
              "type": "address"
            },
            {
              "internalType": "bytes4[]",
              "name": "functionSelectors",
              "type": "bytes4[]"
            }
          ],
          "internalType": "struct ArexaDiamondDummyImplementation.Tuple1236461[]",
          "name": "facets_",
          "type": "tuple[]"
        }
      ],
      "stateMutability": "view",
      "type": "function"
    },
    {
      "inputs": [
        {
          "internalType": "bytes32",
          "name": "_target",
          "type": "bytes32"
        },
        {
          "internalType": "address",
          "name": "_account",
          "type": "address"
        }
      ],
      "name": "getAccountBlackWhiteList",
      "outputs": [
        {
          "internalType": "bool",
          "name": "",
          "type": "bool"
        }
      ],
      "stateMutability": "view",
      "type": "function"
    },
    {
      "inputs": [],
      "name": "getArexaERC20Token",
      "outputs": [
        {
          "internalType": "address",
          "name": "",
          "type": "address"
        }
      ],
      "stateMutability": "view",
      "type": "function"
    },
    {
      "inputs": [
        {
          "internalType": "uint256",
          "name": "tokenId",
          "type": "uint256"
        }
      ],
      "name": "getArexaIncomeParameter",
      "outputs": [
        {
          "internalType": "uint32",
          "name": "pool_",
          "type": "uint32"
        },
        {
          "internalType": "uint32",
          "name": "arexa_",
          "type": "uint32"
        }
      ],
      "stateMutability": "view",
      "type": "function"
    },
    {
      "inputs": [
        {
          "internalType": "uint8",
          "name": "_tokenType",
          "type": "uint8"
        }
      ],
      "name": "getArexaTokenPool",
      "outputs": [
        {
          "components": [
            {
              "internalType": "uint256",
              "name": "total",
              "type": "uint256"
            },
            {
              "internalType": "uint256",
              "name": "sold",
              "type": "uint256"
            }
          ],
          "internalType": "struct ArexaDiamondDummyImplementation.Tuple4951158",
          "name": "",
          "type": "tuple"
        }
      ],
      "stateMutability": "view",
      "type": "function"
    },
    {
      "inputs": [
        {
          "internalType": "uint256",
          "name": "tokenType",
          "type": "uint256"
        }
      ],
      "name": "getCurrentSubscriptionTokenId",
      "outputs": [
        {
          "internalType": "uint256",
          "name": "",
          "type": "uint256"
        }
      ],
      "stateMutability": "view",
      "type": "function"
    },
    {
      "inputs": [],
      "name": "getInventory",
      "outputs": [
        {
          "internalType": "bool",
          "name": "isEnabled",
          "type": "bool"
        },
        {
          "internalType": "int256",
          "name": "sumQuantity",
          "type": "int256"
        },
        {
          "internalType": "int256",
          "name": "sumAmount",
          "type": "int256"
        },
        {
          "internalType": "int256",
          "name": "sumPnl",
          "type": "int256"
        }
      ],
      "stateMutability": "view",
      "type": "function"
    },
    {
      "inputs": [
        {
          "internalType": "address",
          "name": "account",
          "type": "address"
        }
      ],
      "name": "getInventoryItem",
      "outputs": [
        {
          "components": [
            {
              "internalType": "int256",
              "name": "quantity",
              "type": "int256"
            },
            {
              "internalType": "int256",
              "name": "deltaPnl",
              "type": "int256"
            },
            {
              "internalType": "int256",
              "name": "payedPnl",
              "type": "int256"
            }
          ],
          "internalType": "struct ArexaDiamondDummyImplementation.Tuple9951786",
          "name": "",
          "type": "tuple"
        }
      ],
      "stateMutability": "view",
      "type": "function"
    },
    {
      "inputs": [
        {
          "internalType": "address",
          "name": "_account",
          "type": "address"
        }
      ],
      "name": "getMagic100FirstBuyerWL",
      "outputs": [
        {
          "internalType": "bool",
          "name": "",
          "type": "bool"
        }
      ],
      "stateMutability": "view",
      "type": "function"
    },
    {
      "inputs": [],
      "name": "getPayingToken",
      "outputs": [
        {
          "internalType": "address",
          "name": "",
          "type": "address"
        }
      ],
      "stateMutability": "view",
      "type": "function"
    },
    {
      "inputs": [
        {
          "internalType": "bytes32",
          "name": "role",
          "type": "bytes32"
        }
      ],
      "name": "getRoleAdmin",
      "outputs": [
        {
          "internalType": "bytes32",
          "name": "",
          "type": "bytes32"
        }
      ],
      "stateMutability": "view",
      "type": "function"
    },
    {
      "inputs": [],
      "name": "getTokenBaseUri",
      "outputs": [
        {
          "internalType": "string",
          "name": "",
          "type": "string"
        }
      ],
      "stateMutability": "view",
      "type": "function"
    },
    {
      "inputs": [
        {
          "internalType": "uint256",
          "name": "_id",
          "type": "uint256"
        }
      ],
      "name": "getTokenUri",
      "outputs": [
        {
          "internalType": "string",
          "name": "",
          "type": "string"
        }
      ],
      "stateMutability": "view",
      "type": "function"
    },
    {
      "inputs": [],
      "name": "getUri",
      "outputs": [
        {
          "internalType": "string",
          "name": "",
          "type": "string"
        }
      ],
      "stateMutability": "view",
      "type": "function"
    },
    {
      "inputs": [
        {
          "internalType": "bytes32",
          "name": "role",
          "type": "bytes32"
        },
        {
          "internalType": "address",
          "name": "account",
          "type": "address"
        }
      ],
      "name": "grantRole",
      "outputs": [],
      "stateMutability": "nonpayable",
      "type": "function"
    },
    {
      "inputs": [
        {
          "internalType": "bytes32",
          "name": "role",
          "type": "bytes32"
        },
        {
          "internalType": "address",
          "name": "account",
          "type": "address"
        }
      ],
      "name": "hasRole",
      "outputs": [
        {
          "internalType": "bool",
          "name": "",
          "type": "bool"
        }
      ],
      "stateMutability": "view",
      "type": "function"
    },
    {
      "inputs": [],
      "name": "implementation",
      "outputs": [
        {
          "internalType": "address",
          "name": "",
          "type": "address"
        }
      ],
      "stateMutability": "view",
      "type": "function"
    },
    {
      "inputs": [
        {
          "internalType": "address",
          "name": "_owner",
          "type": "address"
        },
        {
          "internalType": "address",
          "name": "_operator",
          "type": "address"
        }
      ],
      "name": "isApprovedForAll",
      "outputs": [
        {
          "internalType": "bool",
          "name": "",
          "type": "bool"
        }
      ],
      "stateMutability": "view",
      "type": "function"
    },
    {
      "inputs": [
        {
          "internalType": "uint256",
          "name": "_tokenId",
          "type": "uint256"
        }
      ],
      "name": "isOperatorSpendingLimitEnabled",
      "outputs": [
        {
          "internalType": "bool",
          "name": "",
          "type": "bool"
        }
      ],
      "stateMutability": "view",
      "type": "function"
    },
    {
      "inputs": [],
      "name": "name",
      "outputs": [
        {
          "internalType": "string",
          "name": "",
          "type": "string"
        }
      ],
      "stateMutability": "view",
      "type": "function"
    },
    {
      "inputs": [
        {
          "internalType": "address",
          "name": "_operator",
          "type": "address"
        },
        {
          "internalType": "address",
          "name": "_from",
          "type": "address"
        },
        {
          "internalType": "uint256[]",
          "name": "_ids",
          "type": "uint256[]"
        },
        {
          "internalType": "uint256[]",
          "name": "_values",
          "type": "uint256[]"
        },
        {
          "internalType": "bytes",
          "name": "_data",
          "type": "bytes"
        }
      ],
      "name": "onERC1155BatchReceived",
      "outputs": [
        {
          "internalType": "bytes4",
          "name": "",
          "type": "bytes4"
        }
      ],
      "stateMutability": "nonpayable",
      "type": "function"
    },
    {
      "inputs": [
        {
          "internalType": "address",
          "name": "_operator",
          "type": "address"
        },
        {
          "internalType": "address",
          "name": "_from",
          "type": "address"
        },
        {
          "internalType": "uint256",
          "name": "_id",
          "type": "uint256"
        },
        {
          "internalType": "uint256",
          "name": "_value",
          "type": "uint256"
        },
        {
          "internalType": "bytes",
          "name": "_data",
          "type": "bytes"
        }
      ],
      "name": "onERC1155Received",
      "outputs": [
        {
          "internalType": "bytes4",
          "name": "",
          "type": "bytes4"
        }
      ],
      "stateMutability": "nonpayable",
      "type": "function"
    },
    {
      "inputs": [],
      "name": "owner",
      "outputs": [
        {
          "internalType": "address",
          "name": "",
          "type": "address"
        }
      ],
      "stateMutability": "view",
      "type": "function"
    },
    {
      "inputs": [
        {
          "internalType": "bytes32",
          "name": "target",
          "type": "bytes32"
        }
      ],
      "name": "pause",
      "outputs": [],
      "stateMutability": "nonpayable",
      "type": "function"
    },
    {
      "inputs": [],
      "name": "pauseAllToken",
      "outputs": [],
      "stateMutability": "nonpayable",
      "type": "function"
    },
    {
      "inputs": [
        {
          "internalType": "uint256",
          "name": "tokenId",
          "type": "uint256"
        }
      ],
      "name": "pauseToken",
      "outputs": [],
      "stateMutability": "nonpayable",
      "type": "function"
    },
    {
      "inputs": [
        {
          "internalType": "bytes32",
          "name": "target",
          "type": "bytes32"
        }
      ],
      "name": "paused",
      "outputs": [
        {
          "internalType": "bool",
          "name": "status_",
          "type": "bool"
        }
      ],
      "stateMutability": "view",
      "type": "function"
    },
    {
      "inputs": [
        {
          "internalType": "uint8",
          "name": "poolType",
          "type": "uint8"
        },
        {
          "internalType": "address",
          "name": "account",
          "type": "address"
        },
        {
          "internalType": "uint32",
          "name": "quantity",
          "type": "uint32"
        }
      ],
      "name": "payArexaTokenFromPool",
      "outputs": [],
      "stateMutability": "nonpayable",
      "type": "function"
    },
    {
      "inputs": [
        {
          "internalType": "address",
          "name": "toAccount",
          "type": "address"
        },
        {
          "internalType": "uint256",
          "name": "value",
          "type": "uint256"
        }
      ],
      "name": "payoutArexaDivident",
      "outputs": [],
      "stateMutability": "nonpayable",
      "type": "function"
    },
    {
      "inputs": [
        {
          "internalType": "address",
          "name": "toAccount",
          "type": "address"
        },
        {
          "internalType": "uint256",
          "name": "value",
          "type": "uint256"
        }
      ],
      "name": "payoutArexaIncome",
      "outputs": [],
      "stateMutability": "nonpayable",
      "type": "function"
    },
    {
      "inputs": [
        {
          "internalType": "uint256",
          "name": "value",
          "type": "uint256"
        }
      ],
      "name": "payoutDivident",
      "outputs": [],
      "stateMutability": "nonpayable",
      "type": "function"
    },
    {
      "inputs": [
        {
          "internalType": "bytes32",
          "name": "role",
          "type": "bytes32"
        }
      ],
      "name": "renounceRole",
      "outputs": [],
      "stateMutability": "nonpayable",
      "type": "function"
    },
    {
      "inputs": [
        {
          "internalType": "bytes32",
          "name": "role",
          "type": "bytes32"
        },
        {
          "internalType": "address",
          "name": "account",
          "type": "address"
        }
      ],
      "name": "revokeRole",
      "outputs": [],
      "stateMutability": "nonpayable",
      "type": "function"
    },
    {
      "inputs": [
        {
          "internalType": "address",
          "name": "_from",
          "type": "address"
        },
        {
          "internalType": "address",
          "name": "_to",
          "type": "address"
        },
        {
          "internalType": "uint256[]",
          "name": "_ids",
          "type": "uint256[]"
        },
        {
          "internalType": "uint256[]",
          "name": "_values",
          "type": "uint256[]"
        },
        {
          "internalType": "bytes",
          "name": "_data",
          "type": "bytes"
        }
      ],
      "name": "safeBatchTransferFrom",
      "outputs": [],
      "stateMutability": "nonpayable",
      "type": "function"
    },
    {
      "inputs": [
        {
          "internalType": "address",
          "name": "_from",
          "type": "address"
        },
        {
          "internalType": "address",
          "name": "_to",
          "type": "address"
        },
        {
          "internalType": "uint256",
          "name": "_id",
          "type": "uint256"
        },
        {
          "internalType": "uint256",
          "name": "_value",
          "type": "uint256"
        },
        {
          "internalType": "bytes",
          "name": "_data",
          "type": "bytes"
        }
      ],
      "name": "safeTransferFrom",
      "outputs": [],
      "stateMutability": "nonpayable",
      "type": "function"
    },
    {
      "inputs": [
        {
          "internalType": "bytes32",
          "name": "_target",
          "type": "bytes32"
        },
        {
          "internalType": "address",
          "name": "_account",
          "type": "address"
        },
        {
          "internalType": "bool",
          "name": "_lockValue",
          "type": "bool"
        }
      ],
      "name": "setAccountBlackWhiteList",
      "outputs": [],
      "stateMutability": "nonpayable",
      "type": "function"
    },
    {
      "inputs": [
        {
          "internalType": "address",
          "name": "_operator",
          "type": "address"
        },
        {
          "internalType": "bool",
          "name": "_approved",
          "type": "bool"
        }
      ],
      "name": "setApprovalForAll",
      "outputs": [],
      "stateMutability": "nonpayable",
      "type": "function"
    },
    {
      "inputs": [
        {
          "internalType": "uint256",
          "name": "tokenId",
          "type": "uint256"
        },
        {
          "internalType": "uint32",
          "name": "pool",
          "type": "uint32"
        },
        {
          "internalType": "uint32",
          "name": "arexa",
          "type": "uint32"
        }
      ],
      "name": "setArexaIncomeParameter",
      "outputs": [],
      "stateMutability": "nonpayable",
      "type": "function"
    },
    {
      "inputs": [
        {
          "internalType": "address[]",
          "name": "_addresses",
          "type": "address[]"
        },
        {
          "internalType": "bool",
          "name": "_lockValue",
          "type": "bool"
        }
      ],
      "name": "setBatchMagic100FirstBuyerWL",
      "outputs": [],
      "stateMutability": "nonpayable",
      "type": "function"
    },
    {
      "inputs": [
        {
          "internalType": "address",
          "name": "_implementation",
          "type": "address"
        }
      ],
      "name": "setDummyImplementation",
      "outputs": [],
      "stateMutability": "nonpayable",
      "type": "function"
    },
    {
      "inputs": [
        {
          "internalType": "address",
          "name": "_account",
          "type": "address"
        },
        {
          "internalType": "bool",
          "name": "_lockValue",
          "type": "bool"
        }
      ],
      "name": "setMagic100FirstBuyerWL",
      "outputs": [],
      "stateMutability": "nonpayable",
      "type": "function"
    },
    {
      "inputs": [
        {
          "internalType": "uint256",
          "name": "_tokenId",
          "type": "uint256"
        },
        {
          "internalType": "bool",
          "name": "_enabled",
          "type": "bool"
        }
      ],
      "name": "setOperatorSpendingLimitEnabled",
      "outputs": [],
      "stateMutability": "nonpayable",
      "type": "function"
    },
    {
      "inputs": [
        {
          "internalType": "address",
          "name": "_token",
          "type": "address"
        }
      ],
      "name": "setPayingToken",
      "outputs": [],
      "stateMutability": "nonpayable",
      "type": "function"
    },
    {
      "inputs": [
        {
          "internalType": "bytes32",
          "name": "role",
          "type": "bytes32"
        },
        {
          "internalType": "bytes32",
          "name": "adminRole",
          "type": "bytes32"
        }
      ],
      "name": "setRoleAdmin",
      "outputs": [],
      "stateMutability": "nonpayable",
      "type": "function"
    },
    {
      "inputs": [
        {
          "internalType": "string",
          "name": "newuri",
          "type": "string"
        }
      ],
      "name": "setTokenBaseURI",
      "outputs": [],
      "stateMutability": "nonpayable",
      "type": "function"
    },
    {
      "inputs": [
        {
          "internalType": "uint256",
          "name": "_id",
          "type": "uint256"
        },
        {
          "internalType": "string",
          "name": "newuri",
          "type": "string"
        }
      ],
      "name": "setTokenURI",
      "outputs": [],
      "stateMutability": "nonpayable",
      "type": "function"
    },
    {
      "inputs": [
        {
          "internalType": "string",
          "name": "newuri",
          "type": "string"
        }
      ],
      "name": "setURI",
      "outputs": [],
      "stateMutability": "nonpayable",
      "type": "function"
    },
    {
      "inputs": [
        {
          "internalType": "uint256",
          "name": "quantity",
          "type": "uint256"
        }
      ],
      "name": "stakeArexaToken",
      "outputs": [],
      "stateMutability": "nonpayable",
      "type": "function"
    },
    {
      "inputs": [
        {
          "internalType": "bytes4",
          "name": "_interfaceId",
          "type": "bytes4"
        }
      ],
      "name": "supportsInterface",
      "outputs": [
        {
          "internalType": "bool",
          "name": "",
          "type": "bool"
        }
      ],
      "stateMutability": "view",
      "type": "function"
    },
    {
      "inputs": [],
      "name": "symbol",
      "outputs": [
        {
          "internalType": "string",
          "name": "",
          "type": "string"
        }
      ],
      "stateMutability": "view",
      "type": "function"
    },
    {
      "inputs": [
        {
          "internalType": "address",
          "name": "_account",
          "type": "address"
        }
      ],
      "name": "tokensByAccount",
      "outputs": [
        {
          "internalType": "uint256[]",
          "name": "",
          "type": "uint256[]"
        }
      ],
      "stateMutability": "view",
      "type": "function"
    },
    {
      "inputs": [
        {
          "internalType": "uint256",
          "name": "_id",
          "type": "uint256"
        }
      ],
      "name": "totalHolders",
      "outputs": [
        {
          "internalType": "uint256",
          "name": "",
          "type": "uint256"
        }
      ],
      "stateMutability": "view",
      "type": "function"
    },
    {
      "inputs": [
        {
          "internalType": "uint256",
          "name": "_id",
          "type": "uint256"
        }
      ],
      "name": "totalSupply",
      "outputs": [
        {
          "internalType": "uint256",
          "name": "",
          "type": "uint256"
        }
      ],
      "stateMutability": "view",
      "type": "function"
    },
    {
      "inputs": [
        {
          "internalType": "address",
          "name": "_newOwner",
          "type": "address"
        }
      ],
      "name": "transferOwnership",
      "outputs": [],
      "stateMutability": "nonpayable",
      "type": "function"
    },
    {
      "inputs": [
        {
          "internalType": "bytes32",
          "name": "target",
          "type": "bytes32"
        }
      ],
      "name": "unpause",
      "outputs": [],
      "stateMutability": "nonpayable",
      "type": "function"
    },
    {
      "inputs": [],
      "name": "unpauseAllToken",
      "outputs": [],
      "stateMutability": "nonpayable",
      "type": "function"
    },
    {
      "inputs": [
        {
          "internalType": "uint256",
          "name": "tokenId",
          "type": "uint256"
        }
      ],
      "name": "unpauseToken",
      "outputs": [],
      "stateMutability": "nonpayable",
      "type": "function"
    },
    {
      "inputs": [
        {
          "internalType": "uint256",
          "name": "_id",
          "type": "uint256"
        }
      ],
      "name": "uri",
      "outputs": [
        {
          "internalType": "string",
          "name": "",
          "type": "string"
        }
      ],
      "stateMutability": "view",
      "type": "function"
    },
    {
      "inputs": [
        {
          "internalType": "address",
          "name": "fromAccount",
          "type": "address"
        },
        {
          "internalType": "address",
          "name": "toAccount",
          "type": "address"
        },
        {
          "internalType": "uint256",
          "name": "_quantity",
          "type": "uint256"
        }
      ],
      "name": "withdrawArexaToken",
      "outputs": [],
      "stateMutability": "nonpayable",
      "type": "function"
    }
  ],
  "transactionHash": "0x72260325ae073ef7079204129f05f17f0af2dd2dbf19f8505ebd8e19e14a7aaf",
  "args": [],
  "numDeployments": 1,
  "solcInputHash": "9c8273fcbae0c12a6f769fdfe4e4a9be",
  "bytecode": "0x608060405234801561001057600080fd5b50612e85806100206000396000f3fe608060405234801561001057600080fd5b50600436106105b65760003560e01c8063780ea57211610300578063bd85b039116101a8578063dbcc4d94116100f4578063f242432a116100ad578063f396f3d611610087578063f396f3d6146112a5578063fbd395f8146112c3578063fdb23101146112df578063ffc063b9146112fb576105b6565b8063f242432a1461124f578063f2fde38b1461126b578063f33b89e514611287576105b6565b8063dbcc4d9414611155578063dd5072b814611173578063e985e9c5146111a3578063ea2fbed0146111d3578063ed56531a14611203578063f23a6e611461121f576105b6565b8063cd30435511610161578063d547741f1161013b578063d547741f146110df578063d5ddea04146110fb578063da47320214611119578063dbc0b2ba14611137576105b6565b8063cd30435514611073578063cdffacc614611091578063d19bcdf3146110c1576105b6565b8063bd85b03914610fb3578063be679d7c14610fe3578063c1c64f0f14611013578063c39aa07d1461101d578063c676cdc114611039578063c8e5859c14611057576105b6565b806391d1485411610267578063a22cb46511610220578063adfca15e116101fa578063adfca15e14610f19578063b227956014610f49578063b762fcfc14610f65578063bc197c8114610f83576105b6565b8063a22cb46514610eaf578063a4e8f69914610ecb578063abc16e7714610ee9576105b6565b806391d1485414610dc4578063958e3ea814610df457806395d89b4114610e255780639de34b3b14610e435780639e9e466614610e61578063a0dcbb0314610e91576105b6565b806387ed85ac116102b957806387ed85ac14610d065780638ad9134514610d225780638b94028714610d525780638bb9c5bf14610d6e5780638da5cb5b14610d8a5780638ef79e9114610da8576105b6565b8063780ea57214610c585780637980d95714610c745780637a0ed62714610c7e5780637badc7c114610c9c5780637dd06ce214610ca657806385bff2e714610cd6576105b6565b80634793c498116104635780635d7f850c116103ca5780636a4600ad116103835780636dcfd8411161035d5780636dcfd84114610bc057806372b88f1b14610bf0578063775d832c14610c20578063776ab63414610c3c576105b6565b80636a4600ad14610b6c5780636a6128f414610b885780636c19e58814610ba4576105b6565b80635d7f850c14610aa55780635da9751c14610ac65780635ddb39de14610af65780635fc86ab914610b1457806361690b5014610b325780636442a5ed14610b4e576105b6565b806352ef6b2c1161041c57806352ef6b2c146109df578063550cb31d146109fd5780635953902514610a1b578063598af9e714610a395780635aecf18914610a695780635c60da1b14610a87576105b6565b80634793c4981461090b5780634ba6348b146109295780634e1273f4146109455780634e16fc8b146109755780634f4df442146109935780634f80ad25146109af576105b6565b80631791bf20116105225780632dc00434116104db5780632f4dae9f116104b55780632f4dae9f1461089957806336b01423146108b5578063384b2c62146108d357806340cf0ba1146108ef576105b6565b80632dc00434146108455780632eb2c2d6146108615780632f2ff15d1461087d576105b6565b80631791bf20146107735780631e4e0091146107a35780631e5da67c146107bf5780631f931c1c146107db578063248a9ca3146107f75780632db4e56914610827576105b6565b806306fdde031161057457806306fdde031461069f5780630848818b146106bd57806308e7f2c5146106d95780630e89341c146106f757806313ba55df14610727578063162094c414610757576105b6565b8062fdd58e146105bb57806301ffc9a7146105eb57806302fe53051461061b57806303d1229c1461063757806305acb13014610653578063065ab2ea1461066f575b600080fd5b6105d560048036038101906105d09190611628565b611317565b6040516105e29190611677565b60405180910390f35b610605600480360381019061060091906116ea565b61131f565b6040516106129190611732565b60405180910390f35b61063560048036038101906106309190611893565b611326565b005b610651600480360381019061064c9190611918565b611329565b005b61066d60048036038101906106689190611958565b61132d565b005b610689600480360381019061068491906119f8565b611330565b6040516106969190611677565b60405180910390f35b6106a761133c565b6040516106b49190611b04565b60405180910390f35b6106d760048036038101906106d29190611b26565b611341565b005b6106e1611344565b6040516106ee9190611b62565b60405180910390f35b610711600480360381019061070c9190611958565b611349565b60405161071e9190611b04565b60405180910390f35b610741600480360381019061073c9190611958565b611350565b60405161074e9190611677565b60405180910390f35b610771600480360381019061076c9190611b7d565b611357565b005b61078d60048036038101906107889190611958565b61135b565b60405161079a9190611677565b60405180910390f35b6107bd60048036038101906107b89190611c0f565b611362565b005b6107d960048036038101906107d49190611628565b611366565b005b6107f560048036038101906107f09190611f23565b61136a565b005b610811600480360381019061080c9190611fae565b61136f565b60405161081e9190611fea565b60405180910390f35b61082f611376565b60405161083c9190611677565b60405180910390f35b61085f600480360381019061085a9190612005565b61137b565b005b61087b600480360381019061087691906120f5565b61137e565b005b610897600480360381019061089291906121c4565b611385565b005b6108b360048036038101906108ae9190611fae565b611389565b005b6108bd61138c565b6040516108ca9190611677565b60405180910390f35b6108ed60048036038101906108e89190611628565b611391565b005b61090960048036038101906109049190612230565b611395565b005b610913611399565b6040516109209190611fea565b60405180910390f35b610943600480360381019061093e91906122b8565b61139e565b005b61095f600480360381019061095a91906123bb565b6113a2565b60405161096c91906124f1565b60405180910390f35b61097d6113aa565b60405161098a9190611b04565b60405180910390f35b6109ad60048036038101906109a89190612513565b6113af565b005b6109c960048036038101906109c491906121c4565b6113b5565b6040516109d69190611732565b60405180910390f35b6109e76113bd565b6040516109f49190612638565b60405180910390f35b610a056113c2565b604051610a129190611fea565b60405180910390f35b610a236113c7565b604051610a309190611fea565b60405180910390f35b610a536004803603810190610a4e919061265a565b6113cc565b604051610a609190611677565b60405180910390f35b610a716113d5565b604051610a7e9190611b62565b60405180910390f35b610a8f6113da565b604051610a9c91906126bc565b60405180910390f35b610aad6113df565b604051610abd94939291906126f0565b60405180910390f35b610ae06004803603810190610adb9190612735565b6113ea565b604051610aed9190611677565b60405180910390f35b610afe6113f3565b604051610b0b91906126bc565b60405180910390f35b610b1c6113f8565b604051610b299190611b62565b60405180910390f35b610b4c6004803603810190610b479190612005565b6113fd565b005b610b56611400565b604051610b639190611677565b60405180910390f35b610b866004803603810190610b819190612788565b611405565b005b610ba26004803603810190610b9d91906122b8565b61140a565b005b610bbe6004803603810190610bb991906127db565b61140e565b005b610bda6004803603810190610bd59190611958565b611413565b604051610be79190612638565b60405180910390f35b610c0a6004803603810190610c059190611918565b61141a565b604051610c179190611677565b60405180910390f35b610c3a6004803603810190610c35919061282e565b611422565b005b610c566004803603810190610c519190611958565b611426565b005b610c726004803603810190610c6d919061286e565b611429565b005b610c7c61142e565b005b610c86611430565b604051610c939190612a7e565b60405180910390f35b610ca4611435565b005b610cc06004803603810190610cbb9190611b26565b611437565b604051610ccd9190612aa0565b60405180910390f35b610cf06004803603810190610ceb9190611b26565b61143e565b604051610cfd91906124f1565b60405180910390f35b610d206004803603810190610d1b919061265a565b611445565b005b610d3c6004803603810190610d379190611958565b61144a565b604051610d499190611b04565b60405180910390f35b610d6c6004803603810190610d679190611958565b611451565b005b610d886004803603810190610d839190611fae565b611454565b005b610d92611457565b604051610d9f91906126bc565b60405180910390f35b610dc26004803603810190610dbd9190611893565b61145c565b005b610dde6004803603810190610dd991906121c4565b61145f565b604051610deb9190611732565b60405180910390f35b610e0e6004803603810190610e099190611958565b611467565b604051610e1c929190612aca565b60405180910390f35b610e2d61146f565b604051610e3a9190611b04565b60405180910390f35b610e4b611474565b604051610e5891906126bc565b60405180910390f35b610e7b6004803603810190610e769190611fae565b611479565b604051610e889190611732565b60405180910390f35b610e99611480565b604051610ea69190611fea565b60405180910390f35b610ec96004803603810190610ec4919061282e565b611485565b005b610ed3611489565b604051610ee09190611fea565b60405180910390f35b610f036004803603810190610efe9190611b26565b61148e565b604051610f109190612b44565b60405180910390f35b610f336004803603810190610f2e9190611b26565b61149b565b604051610f409190612bce565b60405180910390f35b610f636004803603810190610f5e9190612bf0565b6114a2565b005b610f6d6114a7565b604051610f7a9190611b04565b60405180910390f35b610f9d6004803603810190610f9891906120f5565b6114ac565b604051610faa9190612c8a565b60405180910390f35b610fcd6004803603810190610fc89190611958565b6114b7565b604051610fda9190611677565b60405180910390f35b610ffd6004803603810190610ff89190611b26565b6114be565b60405161100a9190611732565b60405180910390f35b61101b6114c5565b005b61103760048036038101906110329190611b26565b6114c7565b005b6110416114ca565b60405161104e9190611fea565b60405180910390f35b611071600480360381019061106c9190612735565b6114cf565b005b61107b6114d4565b6040516110889190611b62565b60405180910390f35b6110ab60048036038101906110a691906116ea565b6114d9565b6040516110b891906126bc565b60405180910390f35b6110c96114e0565b6040516110d69190611b62565b60405180910390f35b6110f960048036038101906110f491906121c4565b6114e5565b005b6111036114e9565b6040516111109190611b62565b60405180910390f35b6111216114ee565b60405161112e9190611677565b60405180910390f35b61113f6114f3565b60405161114c9190611fea565b60405180910390f35b61115d6114f8565b60405161116a9190611b62565b60405180910390f35b61118d60048036038101906111889190612ca5565b6114fd565b60405161119a9190612d01565b60405180910390f35b6111bd60048036038101906111b89190612d1c565b61150a565b6040516111ca9190611732565b60405180910390f35b6111ed60048036038101906111e89190611958565b611512565b6040516111fa9190611732565b60405180910390f35b61121d60048036038101906112189190611fae565b611519565b005b61123960048036038101906112349190612d5c565b61151c565b6040516112469190612c8a565b60405180910390f35b61126960048036038101906112649190612d5c565b611527565b005b61128560048036038101906112809190611b26565b61152e565b005b61128f611531565b60405161129c9190611fea565b60405180910390f35b6112ad611536565b6040516112ba9190611677565b60405180910390f35b6112dd60048036038101906112d89190611958565b61153b565b005b6112f960048036038101906112f49190611b26565b61153e565b005b61131560048036038101906113109190612df3565b611541565b005b600092915050565b6000919050565b50565b5050565b50565b60009695505050505050565b606090565b50565b600090565b6060919050565b6000919050565b5050565b6000919050565b5050565b5050565b505050565b6000919050565b600090565b50565b5050505050565b5050565b50565b600090565b5050565b5050565b600090565b5050565b606092915050565b606090565b50505050565b600092915050565b606090565b600090565b600090565b60009392505050565b600090565b600090565b600080600080919293565b60009392505050565b600090565b600090565b50565b600090565b505050565b5050565b505050565b6060919050565b600092915050565b5050565b50565b505050565b565b606090565b565b6000919050565b6060919050565b505050565b6060919050565b50565b50565b600090565b50565b600092915050565b600080915091565b606090565b600090565b6000919050565b600090565b5050565b600090565b611496611545565b919050565b6060919050565b505050565b606090565b600095945050505050565b6000919050565b6000919050565b565b50565b600090565b505050565b600090565b6000919050565b600090565b5050565b600090565b600090565b600090565b600090565b611505611566565b919050565b600092915050565b6000919050565b50565b600095945050505050565b5050505050565b50565b600090565b600090565b50565b50565b5050565b60405180606001604052806000815260200160008152602001600081525090565b604051806040016040528060008152602001600081525090565b6000604051905090565b600080fd5b600080fd5b600073ffffffffffffffffffffffffffffffffffffffff82169050919050565b60006115bf82611594565b9050919050565b6115cf816115b4565b81146115da57600080fd5b50565b6000813590506115ec816115c6565b92915050565b6000819050919050565b611605816115f2565b811461161057600080fd5b50565b600081359050611622816115fc565b92915050565b6000806040838503121561163f5761163e61158a565b5b600061164d858286016115dd565b925050602061165e85828601611613565b9150509250929050565b611671816115f2565b82525050565b600060208201905061168c6000830184611668565b92915050565b60007fffffffff0000000000000000000000000000000000000000000000000000000082169050919050565b6116c781611692565b81146116d257600080fd5b50565b6000813590506116e4816116be565b92915050565b600060208284031215611700576116ff61158a565b5b600061170e848285016116d5565b91505092915050565b60008115159050919050565b61172c81611717565b82525050565b60006020820190506117476000830184611723565b92915050565b600080fd5b600080fd5b6000601f19601f8301169050919050565b7f4e487b7100000000000000000000000000000000000000000000000000000000600052604160045260246000fd5b6117a082611757565b810181811067ffffffffffffffff821117156117bf576117be611768565b5b80604052505050565b60006117d2611580565b90506117de8282611797565b919050565b600067ffffffffffffffff8211156117fe576117fd611768565b5b61180782611757565b9050602081019050919050565b82818337600083830152505050565b6000611836611831846117e3565b6117c8565b90508281526020810184848401111561185257611851611752565b5b61185d848285611814565b509392505050565b600082601f83011261187a5761187961174d565b5b813561188a848260208601611823565b91505092915050565b6000602082840312156118a9576118a861158a565b5b600082013567ffffffffffffffff8111156118c7576118c661158f565b5b6118d384828501611865565b91505092915050565b600063ffffffff82169050919050565b6118f5816118dc565b811461190057600080fd5b50565b600081359050611912816118ec565b92915050565b6000806040838503121561192f5761192e61158a565b5b600061193d85828601611613565b925050602061194e85828601611903565b9150509250929050565b60006020828403121561196e5761196d61158a565b5b600061197c84828501611613565b91505092915050565b600061ffff82169050919050565b61199c81611985565b81146119a757600080fd5b50565b6000813590506119b981611993565b92915050565b600060ff82169050919050565b6119d5816119bf565b81146119e057600080fd5b50565b6000813590506119f2816119cc565b92915050565b60008060008060008060c08789031215611a1557611a1461158a565b5b6000611a2389828a01611613565b9650506020611a3489828a016119aa565b9550506040611a4589828a016119e3565b9450506060611a5689828a01611613565b9350506080611a6789828a01611613565b92505060a0611a7889828a01611613565b9150509295509295509295565b600081519050919050565b600082825260208201905092915050565b60005b83811015611abf578082015181840152602081019050611aa4565b60008484015250505050565b6000611ad682611a85565b611ae08185611a90565b9350611af0818560208601611aa1565b611af981611757565b840191505092915050565b60006020820190508181036000830152611b1e8184611acb565b905092915050565b600060208284031215611b3c57611b3b61158a565b5b6000611b4a848285016115dd565b91505092915050565b611b5c816119bf565b82525050565b6000602082019050611b776000830184611b53565b92915050565b60008060408385031215611b9457611b9361158a565b5b6000611ba285828601611613565b925050602083013567ffffffffffffffff811115611bc357611bc261158f565b5b611bcf85828601611865565b9150509250929050565b6000819050919050565b611bec81611bd9565b8114611bf757600080fd5b50565b600081359050611c0981611be3565b92915050565b60008060408385031215611c2657611c2561158a565b5b6000611c3485828601611bfa565b9250506020611c4585828601611bfa565b9150509250929050565b600067ffffffffffffffff821115611c6a57611c69611768565b5b602082029050602081019050919050565b600080fd5b600080fd5b600080fd5b600067ffffffffffffffff821115611ca557611ca4611768565b5b602082029050602081019050919050565b6000611cc9611cc484611c8a565b6117c8565b90508083825260208201905060208402830185811115611cec57611ceb611c7b565b5b835b81811015611d155780611d0188826116d5565b845260208401935050602081019050611cee565b5050509392505050565b600082601f830112611d3457611d3361174d565b5b8135611d44848260208601611cb6565b91505092915050565b600060608284031215611d6357611d62611c80565b5b611d6d60606117c8565b90506000611d7d848285016115dd565b6000830152506020611d91848285016119e3565b602083015250604082013567ffffffffffffffff811115611db557611db4611c85565b5b611dc184828501611d1f565b60408301525092915050565b6000611de0611ddb84611c4f565b6117c8565b90508083825260208201905060208402830185811115611e0357611e02611c7b565b5b835b81811015611e4a57803567ffffffffffffffff811115611e2857611e2761174d565b5b808601611e358982611d4d565b85526020850194505050602081019050611e05565b5050509392505050565b600082601f830112611e6957611e6861174d565b5b8135611e79848260208601611dcd565b91505092915050565b600067ffffffffffffffff821115611e9d57611e9c611768565b5b611ea682611757565b9050602081019050919050565b6000611ec6611ec184611e82565b6117c8565b905082815260208101848484011115611ee257611ee1611752565b5b611eed848285611814565b509392505050565b600082601f830112611f0a57611f0961174d565b5b8135611f1a848260208601611eb3565b91505092915050565b600080600060608486031215611f3c57611f3b61158a565b5b600084013567ffffffffffffffff811115611f5a57611f5961158f565b5b611f6686828701611e54565b9350506020611f77868287016115dd565b925050604084013567ffffffffffffffff811115611f9857611f9761158f565b5b611fa486828701611ef5565b9150509250925092565b600060208284031215611fc457611fc361158a565b5b6000611fd284828501611bfa565b91505092915050565b611fe481611bd9565b82525050565b6000602082019050611fff6000830184611fdb565b92915050565b60006020828403121561201b5761201a61158a565b5b600061202984828501611903565b91505092915050565b600067ffffffffffffffff82111561204d5761204c611768565b5b602082029050602081019050919050565b600061207161206c84612032565b6117c8565b9050808382526020820190506020840283018581111561209457612093611c7b565b5b835b818110156120bd57806120a98882611613565b845260208401935050602081019050612096565b5050509392505050565b600082601f8301126120dc576120db61174d565b5b81356120ec84826020860161205e565b91505092915050565b600080600080600060a086880312156121115761211061158a565b5b600061211f888289016115dd565b9550506020612130888289016115dd565b945050604086013567ffffffffffffffff8111156121515761215061158f565b5b61215d888289016120c7565b935050606086013567ffffffffffffffff81111561217e5761217d61158f565b5b61218a888289016120c7565b925050608086013567ffffffffffffffff8111156121ab576121aa61158f565b5b6121b788828901611ef5565b9150509295509295909350565b600080604083850312156121db576121da61158a565b5b60006121e985828601611bfa565b92505060206121fa858286016115dd565b9150509250929050565b61220d81611717565b811461221857600080fd5b50565b60008135905061222a81612204565b92915050565b600080604083850312156122475761224661158a565b5b600061225585828601611613565b92505060206122668582860161221b565b9150509250929050565b60006fffffffffffffffffffffffffffffffff82169050919050565b61229581612270565b81146122a057600080fd5b50565b6000813590506122b28161228c565b92915050565b600080604083850312156122cf576122ce61158a565b5b60006122dd858286016122a3565b92505060206122ee858286016119e3565b9150509250929050565b600067ffffffffffffffff82111561231357612312611768565b5b602082029050602081019050919050565b6000612337612332846122f8565b6117c8565b9050808382526020820190506020840283018581111561235a57612359611c7b565b5b835b81811015612383578061236f88826115dd565b84526020840193505060208101905061235c565b5050509392505050565b600082601f8301126123a2576123a161174d565b5b81356123b2848260208601612324565b91505092915050565b600080604083850312156123d2576123d161158a565b5b600083013567ffffffffffffffff8111156123f0576123ef61158f565b5b6123fc8582860161238d565b925050602083013567ffffffffffffffff81111561241d5761241c61158f565b5b612429858286016120c7565b9150509250929050565b600081519050919050565b600082825260208201905092915050565b6000819050602082019050919050565b612468816115f2565b82525050565b600061247a838361245f565b60208301905092915050565b6000602082019050919050565b600061249e82612433565b6124a8818561243e565b93506124b38361244f565b8060005b838110156124e45781516124cb888261246e565b97506124d683612486565b9250506001810190506124b7565b5085935050505092915050565b6000602082019050818103600083015261250b8184612493565b905092915050565b6000806000806080858703121561252d5761252c61158a565b5b600061253b878288016115dd565b945050602061254c87828801611613565b935050604061255d87828801611613565b925050606061256e87828801611613565b91505092959194509250565b600081519050919050565b600082825260208201905092915050565b6000819050602082019050919050565b6125af816115b4565b82525050565b60006125c183836125a6565b60208301905092915050565b6000602082019050919050565b60006125e58261257a565b6125ef8185612585565b93506125fa83612596565b8060005b8381101561262b57815161261288826125b5565b975061261d836125cd565b9250506001810190506125fe565b5085935050505092915050565b6000602082019050818103600083015261265281846125da565b905092915050565b6000806000606084860312156126735761267261158a565b5b6000612681868287016115dd565b9350506020612692868287016115dd565b92505060406126a386828701611613565b9150509250925092565b6126b6816115b4565b82525050565b60006020820190506126d160008301846126ad565b92915050565b6000819050919050565b6126ea816126d7565b82525050565b60006080820190506127056000830187611723565b61271260208301866126e1565b61271f60408301856126e1565b61272c60608301846126e1565b95945050505050565b60008060006060848603121561274e5761274d61158a565b5b600061275c868287016115dd565b935050602061276d86828701611613565b925050604061277e86828701611613565b9150509250925092565b6000806000606084860312156127a1576127a061158a565b5b60006127af86828701611613565b93505060206127c086828701611903565b92505060406127d186828701611903565b9150509250925092565b6000806000606084860312156127f4576127f361158a565b5b600061280286828701611bfa565b9350506020612813868287016115dd565b92505060406128248682870161221b565b9150509250925092565b600080604083850312156128455761284461158a565b5b6000612853858286016115dd565b92505060206128648582860161221b565b9150509250929050565b6000806000606084860312156128875761288661158a565b5b6000612895868287016119e3565b93505060206128a6868287016115dd565b92505060406128b786828701611903565b9150509250925092565b600081519050919050565b600082825260208201905092915050565b6000819050602082019050919050565b600081519050919050565b600082825260208201905092915050565b6000819050602082019050919050565b61292281611692565b82525050565b60006129348383612919565b60208301905092915050565b6000602082019050919050565b6000612958826128ed565b61296281856128f8565b935061296d83612909565b8060005b8381101561299e5781516129858882612928565b975061299083612940565b925050600181019050612971565b5085935050505092915050565b60006040830160008301516129c360008601826125a6565b50602083015184820360208601526129db828261294d565b9150508091505092915050565b60006129f483836129ab565b905092915050565b6000602082019050919050565b6000612a14826128c1565b612a1e81856128cc565b935083602082028501612a30856128dd565b8060005b85811015612a6c5784840389528151612a4d85826129e8565b9450612a58836129fc565b925060208a01995050600181019050612a34565b50829750879550505050505092915050565b60006020820190508181036000830152612a988184612a09565b905092915050565b6000602082019050612ab560008301846126e1565b92915050565b612ac4816118dc565b82525050565b6000604082019050612adf6000830185612abb565b612aec6020830184612abb565b9392505050565b612afc816126d7565b82525050565b606082016000820151612b186000850182612af3565b506020820151612b2b6020850182612af3565b506040820151612b3e6040850182612af3565b50505050565b6000606082019050612b596000830184612b02565b92915050565b600082825260208201905092915050565b6000612b7b826128ed565b612b858185612b5f565b9350612b9083612909565b8060005b83811015612bc1578151612ba88882612928565b9750612bb383612940565b925050600181019050612b94565b5085935050505092915050565b60006020820190508181036000830152612be88184612b70565b905092915050565b600080600060608486031215612c0957612c0861158a565b5b6000612c17868287016115dd565b935050602084013567ffffffffffffffff811115612c3857612c3761158f565b5b612c44868287016120c7565b925050604084013567ffffffffffffffff811115612c6557612c6461158f565b5b612c71868287016120c7565b9150509250925092565b612c8481611692565b82525050565b6000602082019050612c9f6000830184612c7b565b92915050565b600060208284031215612cbb57612cba61158a565b5b6000612cc9848285016119e3565b91505092915050565b604082016000820151612ce8600085018261245f565b506020820151612cfb602085018261245f565b50505050565b6000604082019050612d166000830184612cd2565b92915050565b60008060408385031215612d3357612d3261158a565b5b6000612d41858286016115dd565b9250506020612d52858286016115dd565b9150509250929050565b600080600080600060a08688031215612d7857612d7761158a565b5b6000612d86888289016115dd565b9550506020612d97888289016115dd565b9450506040612da888828901611613565b9350506060612db988828901611613565b925050608086013567ffffffffffffffff811115612dda57612dd961158f565b5b612de688828901611ef5565b9150509295509295909350565b60008060408385031215612e0a57612e0961158a565b5b600083013567ffffffffffffffff811115612e2857612e2761158f565b5b612e348582860161238d565b9250506020612e458582860161221b565b915050925092905056fea2646970667358221220a4de85cf5832441acc2774c7427b7d639b73d9befca6ee05c428f7776e100d8764736f6c63430008110033",
  "devdoc": {
    "kind": "dev",
    "methods": {},
    "version": 1
  },
  "userdoc": {
    "kind": "user",
    "methods": {},
    "notice": "This is a generated dummy diamond implementation for compatibility with etherscan. For full contract implementation, check out the diamond on https://louper.dev",
    "version": 1
  },
  "storageLayout": {
    "storage": [],
    "types": null
  }
}