{
  "address": "0x998abeb3E57409262aE5b751f60747921B33613E",
  "abi": [
    {
      "inputs": [],
      "name": "LibERC1155__ArrayLengthMismatch",
      "type": "error"
    },
    {
      "inputs": [],
      "name": "LibERC1155__BalanceQueryZeroAddress",
      "type": "error"
    },
    {
      "inputs": [],
      "name": "LibERC1155__ERC1155ReceiverNotImplemented",
      "type": "error"
    },
    {
      "inputs": [],
      "name": "LibERC1155__ERC1155ReceiverRejected",
      "type": "error"
    },
    {
      "inputs": [],
      "name": "LibERC1155__NotOwnerOrApproved",
      "type": "error"
    },
    {
      "inputs": [],
      "name": "LibERC1155__NotOwnerOrApprovedLimit",
      "type": "error"
    },
    {
      "inputs": [],
      "name": "LibERC1155__SelfApproval",
      "type": "error"
    },
    {
      "inputs": [],
      "name": "LibERC1155__TransferExceedsBalance",
      "type": "error"
    },
    {
      "inputs": [],
      "name": "LibERC1155__TransferToZeroAddress",
      "type": "error"
    },
    {
      "inputs": [],
      "name": "TargetedPausable__TargetedPaused",
      "type": "error"
    },
    {
      "anonymous": false,
      "inputs": [
        {
          "indexed": true,
          "internalType": "address",
          "name": "_owner",
          "type": "address"
        },
        {
          "indexed": true,
          "internalType": "address",
          "name": "_operator",
          "type": "address"
        },
        {
          "indexed": false,
          "internalType": "bool",
          "name": "_approved",
          "type": "bool"
        }
      ],
      "name": "ApprovalForAll",
      "type": "event"
    },
    {
      "anonymous": false,
      "inputs": [
        {
          "indexed": true,
          "internalType": "address",
          "name": "_operator",
          "type": "address"
        },
        {
          "indexed": true,
          "internalType": "address",
          "name": "_from",
          "type": "address"
        },
        {
          "indexed": true,
          "internalType": "address",
          "name": "_to",
          "type": "address"
        },
        {
          "indexed": false,
          "internalType": "uint256[]",
          "name": "_ids",
          "type": "uint256[]"
        },
        {
          "indexed": false,
          "internalType": "uint256[]",
          "name": "_values",
          "type": "uint256[]"
        }
      ],
      "name": "TransferBatch",
      "type": "event"
    },
    {
      "anonymous": false,
      "inputs": [
        {
          "indexed": true,
          "internalType": "address",
          "name": "_operator",
          "type": "address"
        },
        {
          "indexed": true,
          "internalType": "address",
          "name": "_from",
          "type": "address"
        },
        {
          "indexed": true,
          "internalType": "address",
          "name": "_to",
          "type": "address"
        },
        {
          "indexed": false,
          "internalType": "uint256",
          "name": "_id",
          "type": "uint256"
        },
        {
          "indexed": false,
          "internalType": "uint256",
          "name": "_value",
          "type": "uint256"
        }
      ],
      "name": "TransferSingle",
      "type": "event"
    },
    {
      "anonymous": false,
      "inputs": [
        {
          "indexed": false,
          "internalType": "string",
          "name": "_value",
          "type": "string"
        },
        {
          "indexed": true,
          "internalType": "uint256",
          "name": "_id",
          "type": "uint256"
        }
      ],
      "name": "URI",
      "type": "event"
    },
    {
      "inputs": [
        {
          "internalType": "address",
          "name": "owner_",
          "type": "address"
        },
        {
          "internalType": "uint256",
          "name": "id",
          "type": "uint256"
        }
      ],
      "name": "balanceOf",
      "outputs": [
        {
          "internalType": "uint256",
          "name": "",
          "type": "uint256"
        }
      ],
      "stateMutability": "view",
      "type": "function"
    },
    {
      "inputs": [
        {
          "internalType": "address[]",
          "name": "owners",
          "type": "address[]"
        },
        {
          "internalType": "uint256[]",
          "name": "ids",
          "type": "uint256[]"
        }
      ],
      "name": "balanceOfBatch",
      "outputs": [
        {
          "internalType": "uint256[]",
          "name": "",
          "type": "uint256[]"
        }
      ],
      "stateMutability": "view",
      "type": "function"
    },
    {
      "inputs": [
        {
          "internalType": "address",
          "name": "owner_",
          "type": "address"
        },
        {
          "internalType": "address",
          "name": "operator",
          "type": "address"
        }
      ],
      "name": "isApprovedForAll",
      "outputs": [
        {
          "internalType": "bool",
          "name": "",
          "type": "bool"
        }
      ],
      "stateMutability": "view",
      "type": "function"
    },
    {
      "inputs": [],
      "name": "name",
      "outputs": [
        {
          "internalType": "string",
          "name": "",
          "type": "string"
        }
      ],
      "stateMutability": "view",
      "type": "function"
    },
    {
      "inputs": [
        {
          "internalType": "address",
          "name": "from",
          "type": "address"
        },
        {
          "internalType": "address",
          "name": "to",
          "type": "address"
        },
        {
          "internalType": "uint256[]",
          "name": "ids",
          "type": "uint256[]"
        },
        {
          "internalType": "uint256[]",
          "name": "values",
          "type": "uint256[]"
        },
        {
          "internalType": "bytes",
          "name": "data",
          "type": "bytes"
        }
      ],
      "name": "safeBatchTransferFrom",
      "outputs": [],
      "stateMutability": "nonpayable",
      "type": "function"
    },
    {
      "inputs": [
        {
          "internalType": "address",
          "name": "from",
          "type": "address"
        },
        {
          "internalType": "address",
          "name": "to",
          "type": "address"
        },
        {
          "internalType": "uint256",
          "name": "id",
          "type": "uint256"
        },
        {
          "internalType": "uint256",
          "name": "value",
          "type": "uint256"
        },
        {
          "internalType": "bytes",
          "name": "data",
          "type": "bytes"
        }
      ],
      "name": "safeTransferFrom",
      "outputs": [],
      "stateMutability": "nonpayable",
      "type": "function"
    },
    {
      "inputs": [
        {
          "internalType": "address",
          "name": "operator",
          "type": "address"
        },
        {
          "internalType": "bool",
          "name": "approved",
          "type": "bool"
        }
      ],
      "name": "setApprovalForAll",
      "outputs": [],
      "stateMutability": "nonpayable",
      "type": "function"
    },
    {
      "inputs": [],
      "name": "symbol",
      "outputs": [
        {
          "internalType": "string",
          "name": "",
          "type": "string"
        }
      ],
      "stateMutability": "view",
      "type": "function"
    }
  ],
  "transactionHash": "0x92b47c9706c2552d802441bbc7595c857f02e75faebb1a4503f180061a4e96b3",
  "args": [],
  "numDeployments": 1,
  "solcInputHash": "fc16a9ae7444b9d94b4f8a593e68c905",
  "bytecode": "0x608060405234801561001057600080fd5b50613d39806100206000396000f3fe608060405234801561001057600080fd5b50600436106100875760003560e01c806395d89b411161005b57806395d89b4114610126578063a22cb46514610144578063e985e9c514610160578063f242432a1461019057610087565b8062fdd58e1461008c57806306fdde03146100bc5780632eb2c2d6146100da5780634e1273f4146100f6575b600080fd5b6100a660048036038101906100a19190612d15565b6101ac565b6040516100b39190612d64565b60405180910390f35b6100c4610235565b6040516100d19190612e0f565b60405180910390f35b6100f460048036038101906100ef9190612eec565b61026e565b005b610110600480360381019061010b919061301e565b6103cf565b60405161011d919061315d565b60405180910390f35b61012e6104dc565b60405161013b9190612e0f565b60405180910390f35b61015e600480360381019061015991906131b7565b610515565b005b61017a600480360381019061017591906131f7565b6105a7565b6040516101879190613246565b60405180910390f35b6101aa60048036038101906101a59190613261565b610630565b005b60006101b661070d565b73ffffffffffffffffffffffffffffffffffffffff163073ffffffffffffffffffffffffffffffffffffffff1614610223576040517f08c379a000000000000000000000000000000000000000000000000000000000815260040161021a90613347565b60405180910390fd5b61022d8383610745565b905092915050565b6040518060400160405280601181526020017f417265786120414920506c6174666f726d00000000000000000000000000000081525081565b61027661070d565b73ffffffffffffffffffffffffffffffffffffffff163073ffffffffffffffffffffffffffffffffffffffff16146102e3576040517f08c379a00000000000000000000000000000000000000000000000000000000081526004016102da90613347565b60405180910390fd5b6000801b6102f081610814565b6103c4338a8a8a8a80806020026020016040519081016040528093929190818152602001838360200280828437600081840152601f19601f82011690508083019250505050505050898980806020026020016040519081016040528093929190818152602001838360200280828437600081840152601f19601f8201169050808301925050505050505088888080601f016020809104026020016040519081016040528093929190818152602001838380828437600081840152601f19601f82011690508083019250505050505050610857565b505050505050505050565b60606103d961070d565b73ffffffffffffffffffffffffffffffffffffffff163073ffffffffffffffffffffffffffffffffffffffff1614610446576040517f08c379a000000000000000000000000000000000000000000000000000000000815260040161043d90613347565b60405180910390fd5b6104d2858580806020026020016040519081016040528093929190818152602001838360200280828437600081840152601f19601f82011690508083019250505050505050848480806020026020016040519081016040528093929190818152602001838360200280828437600081840152601f19601f82011690508083019250505050505050610cfb565b9050949350505050565b6040518060400160405280600581526020017f415245584100000000000000000000000000000000000000000000000000000081525081565b61051d61070d565b73ffffffffffffffffffffffffffffffffffffffff163073ffffffffffffffffffffffffffffffffffffffff161461058a576040517f08c379a000000000000000000000000000000000000000000000000000000000815260040161058190613347565b60405180910390fd5b6000801b61059781610814565b6105a2338484610e4f565b505050565b60006105b161070d565b73ffffffffffffffffffffffffffffffffffffffff163073ffffffffffffffffffffffffffffffffffffffff161461061e576040517f08c379a000000000000000000000000000000000000000000000000000000000815260040161061590613347565b60405180910390fd5b6106288383610fc1565b905092915050565b61063861070d565b73ffffffffffffffffffffffffffffffffffffffff163073ffffffffffffffffffffffffffffffffffffffff16146106a5576040517f08c379a000000000000000000000000000000000000000000000000000000000815260040161069c90613347565b60405180910390fd5b6000801b6106b281610814565b610704338888888888888080601f016020809104026020016040519081016040528093929190818152602001838380828437600081840152601f19601f82011690508083019250505050505050611063565b50505050505050565b60008061071861148e565b90508060000160009054906101000a900473ffffffffffffffffffffffffffffffffffffffff1691505090565b60008073ffffffffffffffffffffffffffffffffffffffff168373ffffffffffffffffffffffffffffffffffffffff16036107ac576040517f4a772c2700000000000000000000000000000000000000000000000000000000815260040160405180910390fd5b60006107b66114bb565b905080600001600084815260200190815260200160002060008573ffffffffffffffffffffffffffffffffffffffff1673ffffffffffffffffffffffffffffffffffffffff1681526020019081526020016000205491505092915050565b61081d816114e8565b15610854576040517f2d0a436a00000000000000000000000000000000000000000000000000000000815260040160405180910390fd5b50565b600073ffffffffffffffffffffffffffffffffffffffff168473ffffffffffffffffffffffffffffffffffffffff16036108bd576040517fa25202b800000000000000000000000000000000000000000000000000000000815260040160405180910390fd5b81518351146108f8576040517f583b4bea00000000000000000000000000000000000000000000000000000000815260040160405180910390fd5b61090686868686868661151b565b60006109106114bb565b905061091e878786866117cc565b60005b8451811015610c5757600085828151811061093f5761093e613367565b5b60200260200101519050600085838151811061095e5761095d613367565b5b602002602001015190506109728483611a5e565b600084600001600084815260200190815260200160002060008b73ffffffffffffffffffffffffffffffffffffffff1673ffffffffffffffffffffffffffffffffffffffff16815260200190815260200160002054905080821115610a03576040517fb38aedf300000000000000000000000000000000000000000000000000000000815260040160405180910390fd5b81810385600001600085815260200190815260200160002060008c73ffffffffffffffffffffffffffffffffffffffff1673ffffffffffffffffffffffffffffffffffffffff168152602001908152602001600020819055508973ffffffffffffffffffffffffffffffffffffffff168b73ffffffffffffffffffffffffffffffffffffffff1614610bde5784600201600084815260200190815260200160002060009054906101000a900460ff1615610bdd57818560030160008c73ffffffffffffffffffffffffffffffffffffffff1673ffffffffffffffffffffffffffffffffffffffff16815260200190815260200160002060008d73ffffffffffffffffffffffffffffffffffffffff1673ffffffffffffffffffffffffffffffffffffffff168152602001908152602001600020600085815260200190815260200160002054038560030160008c73ffffffffffffffffffffffffffffffffffffffff1673ffffffffffffffffffffffffffffffffffffffff16815260200190815260200160002060008d73ffffffffffffffffffffffffffffffffffffffff1673ffffffffffffffffffffffffffffffffffffffff1681526020019081526020016000206000858152602001908152602001600020819055505b5b8380600101945050508084600001600084815260200190815260200160002060008a73ffffffffffffffffffffffffffffffffffffffff1673ffffffffffffffffffffffffffffffffffffffff1681526020019081526020016000206000828254610c4991906133c5565b925050819055505050610921565b508473ffffffffffffffffffffffffffffffffffffffff168673ffffffffffffffffffffffffffffffffffffffff168873ffffffffffffffffffffffffffffffffffffffff167f4a39dc06d4c0dbc64b70af90fd698a233a518aa5d07e595d983b8c0526c8f7fb8787604051610cce9291906133f9565b60405180910390a4610ce4878787878787611ace565b610cf2878787878787611ae4565b50505050505050565b60608151835114610d41576040517f08c379a0000000000000000000000000000000000000000000000000000000008152600401610d38906134a2565b60405180910390fd5b8251825114610d7c576040517f583b4bea00000000000000000000000000000000000000000000000000000000815260040160405180910390fd5b6000835167ffffffffffffffff811115610d9957610d986134c2565b5b604051908082528060200260200182016040528015610dc75781602001602082028036833780820191505090505b50905060005b8451811015610e4457610e14858281518110610dec57610deb613367565b5b6020026020010151858381518110610e0757610e06613367565b5b6020026020010151610745565b828281518110610e2757610e26613367565b5b60200260200101818152505080610e3d906134f1565b9050610dcd565b508091505092915050565b8173ffffffffffffffffffffffffffffffffffffffff168373ffffffffffffffffffffffffffffffffffffffff1603610eb4576040517f1f46a43700000000000000000000000000000000000000000000000000000000815260040160405180910390fd5b6000610ebe6114bb565b9050818160010160008673ffffffffffffffffffffffffffffffffffffffff1673ffffffffffffffffffffffffffffffffffffffff16815260200190815260200160002060008573ffffffffffffffffffffffffffffffffffffffff1673ffffffffffffffffffffffffffffffffffffffff16815260200190815260200160002060006101000a81548160ff0219169083151502179055508273ffffffffffffffffffffffffffffffffffffffff168473ffffffffffffffffffffffffffffffffffffffff167f17307eab39ab6107e8899845ad3d59bd9653f200f220920489ca2b5937696c3184604051610fb39190613246565b60405180910390a350505050565b600080610fcc6114bb565b90508060010160008573ffffffffffffffffffffffffffffffffffffffff1673ffffffffffffffffffffffffffffffffffffffff16815260200190815260200160002060008473ffffffffffffffffffffffffffffffffffffffff1673ffffffffffffffffffffffffffffffffffffffff16815260200190815260200160002060009054906101000a900460ff1691505092915050565b600073ffffffffffffffffffffffffffffffffffffffff168473ffffffffffffffffffffffffffffffffffffffff16036110c9576040517fa25202b800000000000000000000000000000000000000000000000000000000815260040160405180910390fd5b60006110d484611ca9565b905060006110e184611ca9565b90506110f188888885858861151b565b60006110fb6114bb565b90506111078187611a5e565b600081600001600088815260200190815260200160002060008a73ffffffffffffffffffffffffffffffffffffffff1673ffffffffffffffffffffffffffffffffffffffff16815260200190815260200160002054905080861115611198576040517fb38aedf300000000000000000000000000000000000000000000000000000000815260040160405180910390fd5b6111a48a8a8989611d23565b85810382600001600089815260200190815260200160002060008b73ffffffffffffffffffffffffffffffffffffffff1673ffffffffffffffffffffffffffffffffffffffff168152602001908152602001600020819055508873ffffffffffffffffffffffffffffffffffffffff168a73ffffffffffffffffffffffffffffffffffffffff161461137f5781600201600088815260200190815260200160002060009054906101000a900460ff161561137e57858260030160008b73ffffffffffffffffffffffffffffffffffffffff1673ffffffffffffffffffffffffffffffffffffffff16815260200190815260200160002060008c73ffffffffffffffffffffffffffffffffffffffff1673ffffffffffffffffffffffffffffffffffffffff168152602001908152602001600020600089815260200190815260200160002054038260030160008b73ffffffffffffffffffffffffffffffffffffffff1673ffffffffffffffffffffffffffffffffffffffff16815260200190815260200160002060008c73ffffffffffffffffffffffffffffffffffffffff1673ffffffffffffffffffffffffffffffffffffffff1681526020019081526020016000206000898152602001908152602001600020819055505b5b8582600001600089815260200190815260200160002060008a73ffffffffffffffffffffffffffffffffffffffff1673ffffffffffffffffffffffffffffffffffffffff16815260200190815260200160002060008282546113e191906133c5565b925050819055508773ffffffffffffffffffffffffffffffffffffffff168973ffffffffffffffffffffffffffffffffffffffff168b73ffffffffffffffffffffffffffffffffffffffff167fc3d58168c5ae7397731d063d5bbf3d657854427343f4c083240f7aacaa2d0f628a8a60405161145e929190613539565b60405180910390a46114748a8a8a87878a611ace565b6114828a8a8a8a8a8a611f20565b50505050505050505050565b6000807ff72346055b4d7224c7ec19860d22963ca622fbb313761bfba507c1a3aeedf37290508091505090565b6000807fe20f5a7f7e820e4505f9ef8ed1186e372d3490e37d8001618819927829be4e0590508091505090565b60006114f26120e5565b600001600083815260200190815260200160002060009054906101000a900460ff169050919050565b8373ffffffffffffffffffffffffffffffffffffffff168573ffffffffffffffffffffffffffffffffffffffff16146117b65760006115586114bb565b9050600081600501905060008260060160008973ffffffffffffffffffffffffffffffffffffffff1673ffffffffffffffffffffffffffffffffffffffff168152602001908152602001600020905060008360060160008973ffffffffffffffffffffffffffffffffffffffff1673ffffffffffffffffffffffffffffffffffffffff168152602001908152602001600020905060005b87518110156117b057600087828151811061160d5761160c613367565b5b6020026020010151905060008111156117a257600089838151811061163557611634613367565b5b60200260200101519050600073ffffffffffffffffffffffffffffffffffffffff168c73ffffffffffffffffffffffffffffffffffffffff16036116a45781876004016000838152602001908152602001600020600082825461169891906133c5565b925050819055506116ef565b816116af8d83610745565b036116ee576116d88c87600084815260200190815260200160002061211290919063ffffffff16565b506116ec818661214290919063ffffffff16565b505b5b600073ffffffffffffffffffffffffffffffffffffffff168b73ffffffffffffffffffffffffffffffffffffffff1603611754578187600401600083815260200190815260200160002060008282546117489190613562565b925050819055506117a0565b60006117608c83610745565b0361179f576117898b87600084815260200190815260200160002061215c90919063ffffffff16565b5061179d818561218c90919063ffffffff16565b505b5b505b8180600101925050506115ef565b50505050505b6117c48686868686866121a6565b505050505050565b60006117d66114bb565b90508473ffffffffffffffffffffffffffffffffffffffff168473ffffffffffffffffffffffffffffffffffffffff1614611a57578060010160008573ffffffffffffffffffffffffffffffffffffffff1673ffffffffffffffffffffffffffffffffffffffff16815260200190815260200160002060008673ffffffffffffffffffffffffffffffffffffffff1673ffffffffffffffffffffffffffffffffffffffff16815260200190815260200160002060009054906101000a900460ff166118cd576040517f3d2f0b3700000000000000000000000000000000000000000000000000000000815260040160405180910390fd5b8151835114611908576040517f583b4bea00000000000000000000000000000000000000000000000000000000815260040160405180910390fd5b60005b8351811015611a5557600084828151811061192957611928613367565b5b60200260200101519050600084838151811061194857611947613367565b5b6020026020010151905083600201600083815260200190815260200160002060009054906101000a900460ff168015611a0f5750808460030160008973ffffffffffffffffffffffffffffffffffffffff1673ffffffffffffffffffffffffffffffffffffffff16815260200190815260200160002060008a73ffffffffffffffffffffffffffffffffffffffff1673ffffffffffffffffffffffffffffffffffffffff168152602001908152602001600020600084815260200190815260200160002054105b15611a46576040517f32af163800000000000000000000000000000000000000000000000000000000815260040160405180910390fd5b8280600101935050505061190b565b505b5050505050565b611a67826121ef565b81600b01600082815260200190815260200160002060009054906101000a900460ff1615611aca576040517f08c379a0000000000000000000000000000000000000000000000000000000008152600401611ac1906135e2565b60405180910390fd5b5050565b611adc868686868686612244565b505050505050565b611b038473ffffffffffffffffffffffffffffffffffffffff16612332565b15611ca1578373ffffffffffffffffffffffffffffffffffffffff1663bc197c8187878686866040518663ffffffff1660e01b8152600401611b49959493929190613666565b6020604051808303816000875af1925050508015611b8557506040513d601f19601f82011682018060405250810190611b829190613726565b60015b611c2157611b91613760565b806308c379a003611bed5750611ba56137b3565b80611bb05750611bef565b806040517f08c379a0000000000000000000000000000000000000000000000000000000008152600401611be49190612e0f565b60405180910390fd5b505b6040517f4eebd08100000000000000000000000000000000000000000000000000000000815260040160405180910390fd5b63bc197c8160e01b7bffffffffffffffffffffffffffffffffffffffffffffffffffffffff1916817bffffffffffffffffffffffffffffffffffffffffffffffffffffffff191614611c9f576040517f542073e700000000000000000000000000000000000000000000000000000000815260040160405180910390fd5b505b505050505050565b60606000600167ffffffffffffffff811115611cc857611cc76134c2565b5b604051908082528060200260200182016040528015611cf65781602001602082028036833780820191505090505b5090508281600081518110611d0e57611d0d613367565b5b60200260200101818152505080915050919050565b6000611d2d6114bb565b90508473ffffffffffffffffffffffffffffffffffffffff168473ffffffffffffffffffffffffffffffffffffffff1614611f19578060010160008573ffffffffffffffffffffffffffffffffffffffff1673ffffffffffffffffffffffffffffffffffffffff16815260200190815260200160002060008673ffffffffffffffffffffffffffffffffffffffff1673ffffffffffffffffffffffffffffffffffffffff16815260200190815260200160002060009054906101000a900460ff16611e24576040517f3d2f0b3700000000000000000000000000000000000000000000000000000000815260040160405180910390fd5b80600201600084815260200190815260200160002060009054906101000a900460ff168015611ee15750818160030160008673ffffffffffffffffffffffffffffffffffffffff1673ffffffffffffffffffffffffffffffffffffffff16815260200190815260200160002060008773ffffffffffffffffffffffffffffffffffffffff1673ffffffffffffffffffffffffffffffffffffffff168152602001908152602001600020600085815260200190815260200160002054105b15611f18576040517f32af163800000000000000000000000000000000000000000000000000000000815260040160405180910390fd5b5b5050505050565b611f3f8473ffffffffffffffffffffffffffffffffffffffff16612332565b156120dd578373ffffffffffffffffffffffffffffffffffffffff1663f23a6e6187878686866040518663ffffffff1660e01b8152600401611f85959493929190613843565b6020604051808303816000875af1925050508015611fc157506040513d601f19601f82011682018060405250810190611fbe9190613726565b60015b61205d57611fcd613760565b806308c379a0036120295750611fe16137b3565b80611fec575061202b565b806040517f08c379a00000000000000000000000000000000000000000000000000000000081526004016120209190612e0f565b60405180910390fd5b505b6040517f4eebd08100000000000000000000000000000000000000000000000000000000815260040160405180910390fd5b63f23a6e6160e01b7bffffffffffffffffffffffffffffffffffffffffffffffffffffffff1916817bffffffffffffffffffffffffffffffffffffffffffffffffffffffff1916146120db576040517f542073e700000000000000000000000000000000000000000000000000000000815260040160405180910390fd5b505b505050505050565b6000807fe8ceb94393aac3e803a9d4b376f7c5ffd7e8b6caab697212a5360c34a283caa190508091505090565b600061213a836000018373ffffffffffffffffffffffffffffffffffffffff1660001b612345565b905092915050565b6000612154836000018360001b612345565b905092915050565b6000612184836000018373ffffffffffffffffffffffffffffffffffffffff1660001b612429565b905092915050565b600061219e836000018360001b612429565b905092915050565b600073ffffffffffffffffffffffffffffffffffffffff168573ffffffffffffffffffffffffffffffffffffffff16146121e7576121e5858484612490565b505b505050505050565b80600a0160009054906101000a900460ff1615612241576040517f08c379a0000000000000000000000000000000000000000000000000000000008152600401612238906138e9565b60405180910390fd5b50565b600073ffffffffffffffffffffffffffffffffffffffff168573ffffffffffffffffffffffffffffffffffffffff1614612286576122858584846000612532565b5b600073ffffffffffffffffffffffffffffffffffffffff168473ffffffffffffffffffffffffffffffffffffffff16146122c8576122c78484846001612532565b5b60005b83518110156123295761231c6122df6125cd565b8583815181106122f2576122f1613367565b5b6020026020010151888887868151811061230f5761230e613367565b5b6020026020010151612605565b80806001019150506122cb565b50505050505050565b600080823b905060008111915050919050565b600080836001016000848152602001908152602001600020549050600081146124225760008460000160018660000180549050038154811061238a57612389613367565b5b90600052602060002001549050808560000160018403815481106123b1576123b0613367565b5b9060005260206000200181905550818560010160008381526020019081526020016000208190555050836000018054806123ee576123ed613909565b5b6001900381819060005260206000200160009055905583600101600084815260200190815260200160002060009055600191505b5092915050565b60006124358383612739565b61248a5782600001829080600181540180825580915050600190039060005260206000200160009091909190915055826000018054905083600101600084815260200190815260200160002081905550600190505b92915050565b600081518351146124cd576040517f583b4bea00000000000000000000000000000000000000000000000000000000815260040160405180910390fd5b60005b835181101561252657612518858583815181106124f0576124ef613367565b5b602002602001015185848151811061250b5761250a613367565b5b602002602001015161275c565b5080806001019150506124d0565b50600190509392505050565b815183511461256d576040517f583b4bea00000000000000000000000000000000000000000000000000000000815260040160405180910390fd5b60005b83518110156125c6576125b9858583815181106125905761258f613367565b5b60200260200101518584815181106125ab576125aa613367565b5b6020026020010151856128ae565b8080600101915050612570565b5050505050565b6000806125d8612a4c565b90508060020160009054906101000a900473ffffffffffffffffffffffffffffffffffffffff1691505090565b600061260f612a79565b905060008160000160008873ffffffffffffffffffffffffffffffffffffffff1673ffffffffffffffffffffffffffffffffffffffff168152602001908152602001600020600087815260200190815260200160002090508060000160009054906101000a900460ff16612684575050612732565b600073ffffffffffffffffffffffffffffffffffffffff168573ffffffffffffffffffffffffffffffffffffffff16146126ef576126ee8186857fffffffffffffffffffffffffffffffffffffffffffffffffffffffffffffffff6126e99190613942565b612aa6565b5b600073ffffffffffffffffffffffffffffffffffffffff168473ffffffffffffffffffffffffffffffffffffffff161461272f5761272e818585612aa6565b5b50505b5050505050565b600080836001016000848152602001908152602001600020541415905092915050565b600080612767612c27565b90506000816000016000868152602001908152602001600020905043816001015411612798576001925050506128a7565b60008160030160008873ffffffffffffffffffffffffffffffffffffffff1673ffffffffffffffffffffffffffffffffffffffff16815260200190815260200160002090506000600c826003015483600001546127f59190613562565b6127ff91906139e9565b83600201548360020154436128149190613562565b61281e91906139e9565b6128289190613a1a565b90506000826001015461284e83856003015461284491906133c5565b8560000154612c54565b6128589190613562565b90508087111561289d576040517f08c379a000000000000000000000000000000000000000000000000000000000815260040161289490613ace565b60405180910390fd5b6001955050505050505b9392505050565b60006128b8612c27565b905060008160000160008681526020019081526020016000209050438160010154116128e5575050612a46565b60008160030160008873ffffffffffffffffffffffffffffffffffffffff1673ffffffffffffffffffffffffffffffffffffffff16815260200190815260200160002090504382600001541161297f5760018460ff1603612977578481600001600082825461295491906133c5565b925050819055508481600301600082825461296f91906133c5565b925050819055505b505050612a46565b6000600c826003015483600001546129979190613562565b6129a191906139e9565b83600201548360020154436129b69190613562565b6129c091906139e9565b6129ca9190613a1a565b90506129e98183600301546129df91906133c5565b8360000154612c54565b826003018190555060018560ff1603612a1c5785826000016000828254612a1091906133c5565b92505081905550612a38565b85826001016000828254612a3091906133c5565b925050819055505b438260020181905550505050505b50505050565b6000807f1a2f703e435318ee39feac62abda44020ca215505d5ba3284195182c842a2d3090508091505090565b6000807ff0375085caeab71645bf74d020ee2aa37bc7b653d9e55911c1084d8c88b3c05c90508091505090565b60008360040160008473ffffffffffffffffffffffffffffffffffffffff1673ffffffffffffffffffffffffffffffffffffffff16815260200190815260200160002090506000828560010154612afd9190613aee565b1215612b3e576040517f08c379a0000000000000000000000000000000000000000000000000000000008152600401612b3590613ba4565b60405180910390fd5b6000828260000154612b509190613aee565b1215612b91576040517f08c379a0000000000000000000000000000000000000000000000000000000008152600401612b8890613c36565b60405180910390fd5b600080856001015414612bc0578460010154838660030154612bb39190613942565b612bbd9190613c56565b90505b828560010154612bd09190613aee565b8560010181905550808560030154612be89190613aee565b8560030181905550828260000154612c009190613aee565b8260000181905550808260010154612c189190613cc0565b82600101819055505050505050565b6000807fb666c964c288db81fc3205a9feeb13cfebbde2a4a4664c45ea26ef9d3d8de79290508091505090565b6000818311612c635782612c65565b815b905092915050565b6000604051905090565b600080fd5b600080fd5b600073ffffffffffffffffffffffffffffffffffffffff82169050919050565b6000612cac82612c81565b9050919050565b612cbc81612ca1565b8114612cc757600080fd5b50565b600081359050612cd981612cb3565b92915050565b6000819050919050565b612cf281612cdf565b8114612cfd57600080fd5b50565b600081359050612d0f81612ce9565b92915050565b60008060408385031215612d2c57612d2b612c77565b5b6000612d3a85828601612cca565b9250506020612d4b85828601612d00565b9150509250929050565b612d5e81612cdf565b82525050565b6000602082019050612d796000830184612d55565b92915050565b600081519050919050565b600082825260208201905092915050565b60005b83811015612db9578082015181840152602081019050612d9e565b60008484015250505050565b6000601f19601f8301169050919050565b6000612de182612d7f565b612deb8185612d8a565b9350612dfb818560208601612d9b565b612e0481612dc5565b840191505092915050565b60006020820190508181036000830152612e298184612dd6565b905092915050565b600080fd5b600080fd5b600080fd5b60008083601f840112612e5657612e55612e31565b5b8235905067ffffffffffffffff811115612e7357612e72612e36565b5b602083019150836020820283011115612e8f57612e8e612e3b565b5b9250929050565b60008083601f840112612eac57612eab612e31565b5b8235905067ffffffffffffffff811115612ec957612ec8612e36565b5b602083019150836001820283011115612ee557612ee4612e3b565b5b9250929050565b60008060008060008060008060a0898b031215612f0c57612f0b612c77565b5b6000612f1a8b828c01612cca565b9850506020612f2b8b828c01612cca565b975050604089013567ffffffffffffffff811115612f4c57612f4b612c7c565b5b612f588b828c01612e40565b9650965050606089013567ffffffffffffffff811115612f7b57612f7a612c7c565b5b612f878b828c01612e40565b9450945050608089013567ffffffffffffffff811115612faa57612fa9612c7c565b5b612fb68b828c01612e96565b92509250509295985092959890939650565b60008083601f840112612fde57612fdd612e31565b5b8235905067ffffffffffffffff811115612ffb57612ffa612e36565b5b60208301915083602082028301111561301757613016612e3b565b5b9250929050565b6000806000806040858703121561303857613037612c77565b5b600085013567ffffffffffffffff81111561305657613055612c7c565b5b61306287828801612fc8565b9450945050602085013567ffffffffffffffff81111561308557613084612c7c565b5b61309187828801612e40565b925092505092959194509250565b600081519050919050565b600082825260208201905092915050565b6000819050602082019050919050565b6130d481612cdf565b82525050565b60006130e683836130cb565b60208301905092915050565b6000602082019050919050565b600061310a8261309f565b61311481856130aa565b935061311f836130bb565b8060005b8381101561315057815161313788826130da565b9750613142836130f2565b925050600181019050613123565b5085935050505092915050565b6000602082019050818103600083015261317781846130ff565b905092915050565b60008115159050919050565b6131948161317f565b811461319f57600080fd5b50565b6000813590506131b18161318b565b92915050565b600080604083850312156131ce576131cd612c77565b5b60006131dc85828601612cca565b92505060206131ed858286016131a2565b9150509250929050565b6000806040838503121561320e5761320d612c77565b5b600061321c85828601612cca565b925050602061322d85828601612cca565b9150509250929050565b6132408161317f565b82525050565b600060208201905061325b6000830184613237565b92915050565b60008060008060008060a0878903121561327e5761327d612c77565b5b600061328c89828a01612cca565b965050602061329d89828a01612cca565b95505060406132ae89828a01612d00565b94505060606132bf89828a01612d00565b935050608087013567ffffffffffffffff8111156132e0576132df612c7c565b5b6132ec89828a01612e96565b92509250509295509295509295565b7f4e4f545f414c4c4f574544000000000000000000000000000000000000000000600082015250565b6000613331600b83612d8a565b915061333c826132fb565b602082019050919050565b6000602082019050818103600083015261336081613324565b9050919050565b7f4e487b7100000000000000000000000000000000000000000000000000000000600052603260045260246000fd5b7f4e487b7100000000000000000000000000000000000000000000000000000000600052601160045260246000fd5b60006133d082612cdf565b91506133db83612cdf565b92508282019050808211156133f3576133f2613396565b5b92915050565b6000604082019050818103600083015261341381856130ff565b9050818103602083015261342781846130ff565b90509392505050565b7f455243313135353a206163636f756e747320616e6420696473206c656e67746860008201527f206d69736d617463680000000000000000000000000000000000000000000000602082015250565b600061348c602983612d8a565b915061349782613430565b604082019050919050565b600060208201905081810360008301526134bb8161347f565b9050919050565b7f4e487b7100000000000000000000000000000000000000000000000000000000600052604160045260246000fd5b60006134fc82612cdf565b91507fffffffffffffffffffffffffffffffffffffffffffffffffffffffffffffffff820361352e5761352d613396565b5b600182019050919050565b600060408201905061354e6000830185612d55565b61355b6020830184612d55565b9392505050565b600061356d82612cdf565b915061357883612cdf565b92508282039050818111156135905761358f613396565b5b92915050565b7f546f6b656e206973207061757365642100000000000000000000000000000000600082015250565b60006135cc601083612d8a565b91506135d782613596565b602082019050919050565b600060208201905081810360008301526135fb816135bf565b9050919050565b61360b81612ca1565b82525050565b600081519050919050565b600082825260208201905092915050565b600061363882613611565b613642818561361c565b9350613652818560208601612d9b565b61365b81612dc5565b840191505092915050565b600060a08201905061367b6000830188613602565b6136886020830187613602565b818103604083015261369a81866130ff565b905081810360608301526136ae81856130ff565b905081810360808301526136c2818461362d565b90509695505050505050565b60007fffffffff0000000000000000000000000000000000000000000000000000000082169050919050565b613703816136ce565b811461370e57600080fd5b50565b600081519050613720816136fa565b92915050565b60006020828403121561373c5761373b612c77565b5b600061374a84828501613711565b91505092915050565b60008160e01c9050919050565b600060033d111561377f5760046000803e61377c600051613753565b90505b90565b61378b82612dc5565b810181811067ffffffffffffffff821117156137aa576137a96134c2565b5b80604052505050565b600060443d10613840576137c5612c6d565b60043d036004823e80513d602482011167ffffffffffffffff821117156137ed575050613840565b808201805167ffffffffffffffff81111561380b5750505050613840565b80602083010160043d038501811115613828575050505050613840565b61383782602001850186613782565b82955050505050505b90565b600060a0820190506138586000830188613602565b6138656020830187613602565b6138726040830186612d55565b61387f6060830185612d55565b8181036080830152613891818461362d565b90509695505050505050565b7f416c6c20746f6b656e2069732070617573656421000000000000000000000000600082015250565b60006138d3601483612d8a565b91506138de8261389d565b602082019050919050565b60006020820190508181036000830152613902816138c6565b9050919050565b7f4e487b7100000000000000000000000000000000000000000000000000000000600052603160045260246000fd5b6000819050919050565b600061394d82613938565b915061395883613938565b925082820261396681613938565b91507f8000000000000000000000000000000000000000000000000000000000000000841460008412161561399e5761399d613396565b5b82820584148315176139b3576139b2613396565b5b5092915050565b7f4e487b7100000000000000000000000000000000000000000000000000000000600052601260045260246000fd5b60006139f482612cdf565b91506139ff83612cdf565b925082613a0f57613a0e6139ba565b5b828204905092915050565b6000613a2582612cdf565b9150613a3083612cdf565b9250828202613a3e81612cdf565b91508282048414831517613a5557613a54613396565b5b5092915050565b7f54686520616d6f756e7420697320677261746572207468656e2074686520616360008201527f63756d6c6174656420282773656c6c61626c65272920616d6f756e7421000000602082015250565b6000613ab8603d83612d8a565b9150613ac382613a5c565b604082019050919050565b60006020820190508181036000830152613ae781613aab565b9050919050565b6000613af982613938565b9150613b0483613938565b925082820190508281121560008312168382126000841215161715613b2c57613b2b613396565b5b92915050565b7f506f6f6c20746f6b656e207175616e6974792063616e2774206265206c65737360008201527f207468656e207a65726f21000000000000000000000000000000000000000000602082015250565b6000613b8e602b83612d8a565b9150613b9982613b32565b604082019050919050565b60006020820190508181036000830152613bbd81613b81565b9050919050565b7f5573657220746f6b656e207175616e6974792063616e2774206265206c65737360008201527f207468656e207a65726f21000000000000000000000000000000000000000000602082015250565b6000613c20602b83612d8a565b9150613c2b82613bc4565b604082019050919050565b60006020820190508181036000830152613c4f81613c13565b9050919050565b6000613c6182613938565b9150613c6c83613938565b925082613c7c57613c7b6139ba565b5b600160000383147f800000000000000000000000000000000000000000000000000000000000000083141615613cb557613cb4613396565b5b828205905092915050565b6000613ccb82613938565b9150613cd683613938565b9250828203905081811260008412168282136000851215161715613cfd57613cfc613396565b5b9291505056fea26469706673582212204ffc3aa7111f59a56b68835d4cbe638e8677512665625734601c44adb0282e4564736f6c63430008110033",
  "devdoc": {
    "kind": "dev",
    "methods": {},
    "version": 1
  },
  "userdoc": {
    "kind": "user",
    "methods": {},
    "version": 1
  },
  "storageLayout": {
    "storage": [],
    "types": null
  }
}