{
  "address": "0xa513E6E4b8f2a923D98304ec87F64353C4D5C853",
  "abi": [
    {
      "inputs": [],
      "stateMutability": "nonpayable",
      "type": "constructor"
    },
    {
      "inputs": [
        {
          "internalType": "bytes32",
          "name": "role",
          "type": "bytes32"
        },
        {
          "internalType": "address",
          "name": "account",
          "type": "address"
        }
      ],
      "name": "AccessDenied",
      "type": "error"
    },
    {
      "inputs": [],
      "name": "Ownable__NotOwner",
      "type": "error"
    },
    {
      "inputs": [],
      "name": "AML_ROLE",
      "outputs": [
        {
          "internalType": "bytes32",
          "name": "",
          "type": "bytes32"
        }
      ],
      "stateMutability": "view",
      "type": "function"
    },
    {
      "inputs": [],
      "name": "COMPLIANCE_ROLE",
      "outputs": [
        {
          "internalType": "bytes32",
          "name": "",
          "type": "bytes32"
        }
      ],
      "stateMutability": "view",
      "type": "function"
    },
    {
      "inputs": [],
      "name": "TOKEN_ADMIN_ROLE",
      "outputs": [
        {
          "internalType": "bytes32",
          "name": "",
          "type": "bytes32"
        }
      ],
      "stateMutability": "view",
      "type": "function"
    },
    {
      "inputs": [],
      "name": "TREASURY_ROLE",
      "outputs": [
        {
          "internalType": "bytes32",
          "name": "",
          "type": "bytes32"
        }
      ],
      "stateMutability": "view",
      "type": "function"
    },
    {
      "inputs": [
        {
          "internalType": "bytes32",
          "name": "role",
          "type": "bytes32"
        }
      ],
      "name": "getRoleAdmin",
      "outputs": [
        {
          "internalType": "bytes32",
          "name": "",
          "type": "bytes32"
        }
      ],
      "stateMutability": "view",
      "type": "function"
    },
    {
      "inputs": [
        {
          "internalType": "bytes32",
          "name": "role",
          "type": "bytes32"
        },
        {
          "internalType": "address",
          "name": "account",
          "type": "address"
        }
      ],
      "name": "grantRole",
      "outputs": [],
      "stateMutability": "nonpayable",
      "type": "function"
    },
    {
      "inputs": [
        {
          "internalType": "bytes32",
          "name": "role",
          "type": "bytes32"
        },
        {
          "internalType": "address",
          "name": "account",
          "type": "address"
        }
      ],
      "name": "hasRole",
      "outputs": [
        {
          "internalType": "bool",
          "name": "",
          "type": "bool"
        }
      ],
      "stateMutability": "view",
      "type": "function"
    },
    {
      "inputs": [
        {
          "internalType": "bytes32",
          "name": "role",
          "type": "bytes32"
        }
      ],
      "name": "renounceRole",
      "outputs": [],
      "stateMutability": "nonpayable",
      "type": "function"
    },
    {
      "inputs": [
        {
          "internalType": "bytes32",
          "name": "role",
          "type": "bytes32"
        },
        {
          "internalType": "address",
          "name": "account",
          "type": "address"
        }
      ],
      "name": "revokeRole",
      "outputs": [],
      "stateMutability": "nonpayable",
      "type": "function"
    },
    {
      "inputs": [
        {
          "internalType": "bytes32",
          "name": "role",
          "type": "bytes32"
        },
        {
          "internalType": "bytes32",
          "name": "adminRole",
          "type": "bytes32"
        }
      ],
      "name": "setRoleAdmin",
      "outputs": [],
      "stateMutability": "nonpayable",
      "type": "function"
    }
  ],
  "transactionHash": "0xb0b35a785df032d2983a3180cbd9ba9da59ede676ca430a6eaca414b62ec509e",
  "args": [],
  "numDeployments": 1,
  "solcInputHash": "9c8273fcbae0c12a6f769fdfe4e4a9be",
  "bytecode": "0x608060405234801561001057600080fd5b50611434806100206000396000f3fe608060405234801561001057600080fd5b506004361061009e5760003560e01c80638bb9c5bf116100665780638bb9c5bf1461014757806391d1485414610163578063d11a57ec14610193578063d547741f146101b1578063d75a9def146101cd5761009e565b8063062d3bd7146100a35780631d338704146100c15780631e4e0091146100df578063248a9ca3146100fb5780632f2ff15d1461012b575b600080fd5b6100ab6101eb565b6040516100b891906110f2565b60405180910390f35b6100c961020f565b6040516100d691906110f2565b60405180910390f35b6100f960048036038101906100f4919061113e565b610233565b005b6101156004803603810190610110919061117e565b6102be565b60405161012291906110f2565b60405180910390f35b61014560048036038101906101409190611209565b610345565b005b610161600480360381019061015c919061117e565b6103db565b005b61017d60048036038101906101789190611209565b61045c565b60405161018a9190611264565b60405180910390f35b61019b6104e5565b6040516101a891906110f2565b60405180910390f35b6101cb60048036038101906101c69190611209565b610509565b005b6101d5610640565b6040516101e291906110f2565b60405180910390f35b7f442a94f1a1fac79af32856af2a64f63648cfa2ef3b98610a5bb7cbec4cee698581565b7f17a5b61e4b0039a783f3595ae6d0f558a99530d7aec98ec66e68de70cfe9853981565b61023b610664565b73ffffffffffffffffffffffffffffffffffffffff163073ffffffffffffffffffffffffffffffffffffffff16146102a8576040517f08c379a000000000000000000000000000000000000000000000000000000000815260040161029f906112dc565b60405180910390fd5b6102b061069c565b6102ba828261070a565b5050565b60006102c8610664565b73ffffffffffffffffffffffffffffffffffffffff163073ffffffffffffffffffffffffffffffffffffffff1614610335576040517f08c379a000000000000000000000000000000000000000000000000000000000815260040161032c906112dc565b60405180910390fd5b61033e8261078d565b9050919050565b61034d610664565b73ffffffffffffffffffffffffffffffffffffffff163073ffffffffffffffffffffffffffffffffffffffff16146103ba576040517f08c379a00000000000000000000000000000000000000000000000000000000081526004016103b1906112dc565b60405180910390fd5b816103cc6103c78261078d565b61081c565b6103d68383610829565b505050565b6103e3610664565b73ffffffffffffffffffffffffffffffffffffffff163073ffffffffffffffffffffffffffffffffffffffff1614610450576040517f08c379a0000000000000000000000000000000000000000000000000000000008152600401610447906112dc565b60405180910390fd5b610459816108ac565b50565b6000610466610664565b73ffffffffffffffffffffffffffffffffffffffff163073ffffffffffffffffffffffffffffffffffffffff16146104d3576040517f08c379a00000000000000000000000000000000000000000000000000000000081526004016104ca906112dc565b60405180910390fd5b6104dd838361092d565b905092915050565b7fe1dcbdb91df27212a29bc27177c840cf2f819ecf2187432e1fac86c2dd5dfca981565b610511610664565b73ffffffffffffffffffffffffffffffffffffffff163073ffffffffffffffffffffffffffffffffffffffff161461057e576040517f08c379a0000000000000000000000000000000000000000000000000000000008152600401610575906112dc565b60405180910390fd5b8161059061058b8261078d565b61081c565b7f9e262e26e9d5bf97da5c389e15529a31bb2b13d89967a4f6eab01792567d5fd6831480156105f157506105c26109ce565b73ffffffffffffffffffffffffffffffffffffffff168273ffffffffffffffffffffffffffffffffffffffff16145b15610631576040517f08c379a000000000000000000000000000000000000000000000000000000000815260040161062890611348565b60405180910390fd5b61063b8383610a06565b505050565b7f9e262e26e9d5bf97da5c389e15529a31bb2b13d89967a4f6eab01792567d5fd681565b60008061066f610a89565b90508060000160009054906101000a900473ffffffffffffffffffffffffffffffffffffffff1691505090565b6106a46109ce565b73ffffffffffffffffffffffffffffffffffffffff163373ffffffffffffffffffffffffffffffffffffffff1614610708576040517f2f7a8ee100000000000000000000000000000000000000000000000000000000815260040160405180910390fd5b565b610712610664565b73ffffffffffffffffffffffffffffffffffffffff163073ffffffffffffffffffffffffffffffffffffffff161461077f576040517f08c379a0000000000000000000000000000000000000000000000000000000008152600401610776906112dc565b60405180910390fd5b6107898282610ab6565b5050565b600080610798610bc7565b90508060010160008260000160009054906101000a900473ffffffffffffffffffffffffffffffffffffffff1673ffffffffffffffffffffffffffffffffffffffff1673ffffffffffffffffffffffffffffffffffffffff168152602001908152602001600020600084815260200190815260200160002060000154915050919050565b6108268133610bf4565b50565b610831610664565b73ffffffffffffffffffffffffffffffffffffffff163073ffffffffffffffffffffffffffffffffffffffff161461089e576040517f08c379a0000000000000000000000000000000000000000000000000000000008152600401610895906112dc565b60405180910390fd5b6108a88282610c45565b5050565b6108b4610664565b73ffffffffffffffffffffffffffffffffffffffff163073ffffffffffffffffffffffffffffffffffffffff1614610921576040517f08c379a0000000000000000000000000000000000000000000000000000000008152600401610918906112dc565b60405180910390fd5b61092a81610d91565b50565b600080610938610bc7565b90506109c5838260010160008460000160009054906101000a900473ffffffffffffffffffffffffffffffffffffffff1673ffffffffffffffffffffffffffffffffffffffff1673ffffffffffffffffffffffffffffffffffffffff1681526020019081526020016000206000878152602001908152602001600020600101610d9e90919063ffffffff16565b91505092915050565b6000806109d9610bc7565b90508060000160009054906101000a900473ffffffffffffffffffffffffffffffffffffffff1691505090565b610a0e610664565b73ffffffffffffffffffffffffffffffffffffffff163073ffffffffffffffffffffffffffffffffffffffff1614610a7b576040517f08c379a0000000000000000000000000000000000000000000000000000000008152600401610a72906112dc565b60405180910390fd5b610a858282610dce565b5050565b6000807ff72346055b4d7224c7ec19860d22963ca622fbb313761bfba507c1a3aeedf37290508091505090565b6000610ac0610bc7565b90506000610acd8461078d565b9050828260010160008460000160009054906101000a900473ffffffffffffffffffffffffffffffffffffffff1673ffffffffffffffffffffffffffffffffffffffff1673ffffffffffffffffffffffffffffffffffffffff16815260200190815260200160002060008681526020019081526020016000206000018190555082818360000160009054906101000a900473ffffffffffffffffffffffffffffffffffffffff1673ffffffffffffffffffffffffffffffffffffffff167f723017596f662d5bad698223ec9b9d90c19cd1ebc637a2ad7ef27b3d9f85f79c87604051610bb991906110f2565b60405180910390a450505050565b6000807f746c6723185dc95a8925081faed89cbd4670299390e2ebfb0b9c3e755e204ef490508091505090565b610bfe828261092d565b610c415781816040517f521dcf0d000000000000000000000000000000000000000000000000000000008152600401610c38929190611377565b60405180910390fd5b5050565b6000610c4f610bc7565b9050610c5b838361092d565b610d8c57610cea828260010160008460000160009054906101000a900473ffffffffffffffffffffffffffffffffffffffff1673ffffffffffffffffffffffffffffffffffffffff1673ffffffffffffffffffffffffffffffffffffffff1681526020019081526020016000206000868152602001908152602001600020600101610f0b90919063ffffffff16565b503373ffffffffffffffffffffffffffffffffffffffff168273ffffffffffffffffffffffffffffffffffffffff168260000160009054906101000a900473ffffffffffffffffffffffffffffffffffffffff1673ffffffffffffffffffffffffffffffffffffffff167fc1ddb807f72f9e732ef6f32805c68a3b77ca377c0e141fe3bcaf19fe667f353486604051610d8391906110f2565b60405180910390a45b505050565b610d9b8133610dce565b50565b6000610dc6836000018373ffffffffffffffffffffffffffffffffffffffff1660001b610f3b565b905092915050565b6000610dd8610bc7565b9050610e65828260010160008460000160009054906101000a900473ffffffffffffffffffffffffffffffffffffffff1673ffffffffffffffffffffffffffffffffffffffff1673ffffffffffffffffffffffffffffffffffffffff1681526020019081526020016000206000868152602001908152602001600020600101610f5e90919063ffffffff16565b503373ffffffffffffffffffffffffffffffffffffffff168273ffffffffffffffffffffffffffffffffffffffff168260000160009054906101000a900473ffffffffffffffffffffffffffffffffffffffff1673ffffffffffffffffffffffffffffffffffffffff167f9a8e8d2c9cb2929fca3c36174571942b3c7bda511d1dfa8d8551899db8dad58486604051610efe91906110f2565b60405180910390a4505050565b6000610f33836000018373ffffffffffffffffffffffffffffffffffffffff1660001b610f8e565b905092915050565b600080836001016000848152602001908152602001600020541415905092915050565b6000610f86836000018373ffffffffffffffffffffffffffffffffffffffff1660001b610ff5565b905092915050565b6000610f9a8383610f3b565b610fef5782600001829080600181540180825580915050600190039060005260206000200160009091909190915055826000018054905083600101600084815260200190815260200160002081905550600190505b92915050565b600080836001016000848152602001908152602001600020549050600081146110d25760008460000160018660000180549050038154811061103a576110396113a0565b5b9060005260206000200154905080856000016001840381548110611061576110606113a0565b5b90600052602060002001819055508185600101600083815260200190815260200160002081905550508360000180548061109e5761109d6113cf565b5b6001900381819060005260206000200160009055905583600101600084815260200190815260200160002060009055600191505b5092915050565b6000819050919050565b6110ec816110d9565b82525050565b600060208201905061110760008301846110e3565b92915050565b600080fd5b61111b816110d9565b811461112657600080fd5b50565b60008135905061113881611112565b92915050565b600080604083850312156111555761115461110d565b5b600061116385828601611129565b925050602061117485828601611129565b9150509250929050565b6000602082840312156111945761119361110d565b5b60006111a284828501611129565b91505092915050565b600073ffffffffffffffffffffffffffffffffffffffff82169050919050565b60006111d6826111ab565b9050919050565b6111e6816111cb565b81146111f157600080fd5b50565b600081359050611203816111dd565b92915050565b600080604083850312156112205761121f61110d565b5b600061122e85828601611129565b925050602061123f858286016111f4565b9150509250929050565b60008115159050919050565b61125e81611249565b82525050565b60006020820190506112796000830184611255565b92915050565b600082825260208201905092915050565b7f4e4f545f414c4c4f574544000000000000000000000000000000000000000000600082015250565b60006112c6600b8361127f565b91506112d182611290565b602082019050919050565b600060208201905081810360008301526112f5816112b9565b9050919050565b7f526f6c652063616e6e6f74207265766f6b652066726f6d206f776e6572210000600082015250565b6000611332601e8361127f565b915061133d826112fc565b602082019050919050565b6000602082019050818103600083015261136181611325565b9050919050565b611371816111cb565b82525050565b600060408201905061138c60008301856110e3565b6113996020830184611368565b9392505050565b7f4e487b7100000000000000000000000000000000000000000000000000000000600052603260045260246000fd5b7f4e487b7100000000000000000000000000000000000000000000000000000000600052603160045260246000fdfea264697066735822122005b876d53bac0a5f8367cf00ffae992502435598432df2fad1e27643f8c008a164736f6c63430008110033",
  "devdoc": {
    "kind": "dev",
    "methods": {},
    "version": 1
  },
  "userdoc": {
    "kind": "user",
    "methods": {},
    "version": 1
  },
  "storageLayout": {
    "storage": [],
    "types": null
  }
}