{
  "address": "0xB7f8BC63BbcaD18155201308C8f3540b07f84F5e",
  "abi": [
    {
      "inputs": [],
      "name": "AML_ROLE",
      "outputs": [
        {
          "internalType": "bytes32",
          "name": "",
          "type": "bytes32"
        }
      ],
      "stateMutability": "view",
      "type": "function"
    },
    {
      "inputs": [],
      "name": "COMPLIANCE_ROLE",
      "outputs": [
        {
          "internalType": "bytes32",
          "name": "",
          "type": "bytes32"
        }
      ],
      "stateMutability": "view",
      "type": "function"
    },
    {
      "inputs": [],
      "name": "PAUSABLE_FULL",
      "outputs": [
        {
          "internalType": "bytes32",
          "name": "",
          "type": "bytes32"
        }
      ],
      "stateMutability": "view",
      "type": "function"
    },
    {
      "inputs": [],
      "name": "RECIPIENT_BLACKLIST",
      "outputs": [
        {
          "internalType": "bytes32",
          "name": "",
          "type": "bytes32"
        }
      ],
      "stateMutability": "view",
      "type": "function"
    },
    {
      "inputs": [],
      "name": "SENDER_BLACKLIST",
      "outputs": [
        {
          "internalType": "bytes32",
          "name": "",
          "type": "bytes32"
        }
      ],
      "stateMutability": "view",
      "type": "function"
    },
    {
      "inputs": [],
      "name": "TOKEN_ADMIN_ROLE",
      "outputs": [
        {
          "internalType": "bytes32",
          "name": "",
          "type": "bytes32"
        }
      ],
      "stateMutability": "view",
      "type": "function"
    },
    {
      "inputs": [],
      "name": "TREASURY_ROLE",
      "outputs": [
        {
          "internalType": "bytes32",
          "name": "",
          "type": "bytes32"
        }
      ],
      "stateMutability": "view",
      "type": "function"
    },
    {
      "inputs": [
        {
          "internalType": "address",
          "name": "holder",
          "type": "address"
        },
        {
          "internalType": "address",
          "name": "spender",
          "type": "address"
        }
      ],
      "name": "allowance",
      "outputs": [
        {
          "internalType": "uint256",
          "name": "allowance_",
          "type": "uint256"
        }
      ],
      "stateMutability": "view",
      "type": "function"
    },
    {
      "inputs": [
        {
          "internalType": "address",
          "name": "spender",
          "type": "address"
        },
        {
          "internalType": "uint256",
          "name": "amount",
          "type": "uint256"
        }
      ],
      "name": "approve",
      "outputs": [
        {
          "internalType": "bool",
          "name": "status_",
          "type": "bool"
        }
      ],
      "stateMutability": "nonpayable",
      "type": "function"
    },
    {
      "inputs": [
        {
          "internalType": "address",
          "name": "account",
          "type": "address"
        }
      ],
      "name": "balanceOf",
      "outputs": [
        {
          "internalType": "uint256",
          "name": "balance_",
          "type": "uint256"
        }
      ],
      "stateMutability": "view",
      "type": "function"
    },
    {
      "inputs": [
        {
          "internalType": "uint256",
          "name": "amount",
          "type": "uint256"
        }
      ],
      "name": "burn",
      "outputs": [],
      "stateMutability": "nonpayable",
      "type": "function"
    },
    {
      "inputs": [
        {
          "internalType": "address",
          "name": "account",
          "type": "address"
        },
        {
          "internalType": "uint256",
          "name": "amount",
          "type": "uint256"
        }
      ],
      "name": "burnFrom",
      "outputs": [],
      "stateMutability": "nonpayable",
      "type": "function"
    },
    {
      "inputs": [],
      "name": "decimals",
      "outputs": [
        {
          "internalType": "uint8",
          "name": "",
          "type": "uint8"
        }
      ],
      "stateMutability": "view",
      "type": "function"
    },
    {
      "inputs": [
        {
          "internalType": "address",
          "name": "spender",
          "type": "address"
        },
        {
          "internalType": "uint256",
          "name": "amount",
          "type": "uint256"
        }
      ],
      "name": "decreaseAllowance",
      "outputs": [
        {
          "internalType": "bool",
          "name": "",
          "type": "bool"
        }
      ],
      "stateMutability": "nonpayable",
      "type": "function"
    },
    {
      "inputs": [
        {
          "components": [
            {
              "internalType": "address",
              "name": "facetAddress",
              "type": "address"
            },
            {
              "internalType": "uint8",
              "name": "action",
              "type": "uint8"
            },
            {
              "internalType": "bytes4[]",
              "name": "functionSelectors",
              "type": "bytes4[]"
            }
          ],
          "internalType": "struct TokenDiamondDummyImplementation.Tuple6871229[]",
          "name": "_diamondCut",
          "type": "tuple[]"
        },
        {
          "internalType": "address",
          "name": "_init",
          "type": "address"
        },
        {
          "internalType": "bytes",
          "name": "_calldata",
          "type": "bytes"
        }
      ],
      "name": "diamondCut",
      "outputs": [],
      "stateMutability": "nonpayable",
      "type": "function"
    },
    {
      "inputs": [
        {
          "internalType": "bytes4",
          "name": "_functionSelector",
          "type": "bytes4"
        }
      ],
      "name": "facetAddress",
      "outputs": [
        {
          "internalType": "address",
          "name": "facetAddress_",
          "type": "address"
        }
      ],
      "stateMutability": "view",
      "type": "function"
    },
    {
      "inputs": [],
      "name": "facetAddresses",
      "outputs": [
        {
          "internalType": "address[]",
          "name": "facetAddresses_",
          "type": "address[]"
        }
      ],
      "stateMutability": "view",
      "type": "function"
    },
    {
      "inputs": [
        {
          "internalType": "address",
          "name": "_facet",
          "type": "address"
        }
      ],
      "name": "facetFunctionSelectors",
      "outputs": [
        {
          "internalType": "bytes4[]",
          "name": "facetFunctionSelectors_",
          "type": "bytes4[]"
        }
      ],
      "stateMutability": "view",
      "type": "function"
    },
    {
      "inputs": [],
      "name": "facets",
      "outputs": [
        {
          "components": [
            {
              "internalType": "address",
              "name": "facetAddress",
              "type": "address"
            },
            {
              "internalType": "bytes4[]",
              "name": "functionSelectors",
              "type": "bytes4[]"
            }
          ],
          "internalType": "struct TokenDiamondDummyImplementation.Tuple1236461[]",
          "name": "facets_",
          "type": "tuple[]"
        }
      ],
      "stateMutability": "view",
      "type": "function"
    },
    {
      "inputs": [
        {
          "internalType": "bytes32",
          "name": "target",
          "type": "bytes32"
        },
        {
          "internalType": "address",
          "name": "account",
          "type": "address"
        }
      ],
      "name": "getAccountBlackWhiteList",
      "outputs": [
        {
          "internalType": "bool",
          "name": "",
          "type": "bool"
        }
      ],
      "stateMutability": "view",
      "type": "function"
    },
    {
      "inputs": [
        {
          "internalType": "address",
          "name": "account",
          "type": "address"
        }
      ],
      "name": "getDestinationAccountBL",
      "outputs": [
        {
          "internalType": "bool",
          "name": "",
          "type": "bool"
        }
      ],
      "stateMutability": "view",
      "type": "function"
    },
    {
      "inputs": [],
      "name": "getGeneralFee",
      "outputs": [
        {
          "internalType": "uint16",
          "name": "",
          "type": "uint16"
        }
      ],
      "stateMutability": "view",
      "type": "function"
    },
    {
      "inputs": [],
      "name": "getGeneralFeeAddress",
      "outputs": [
        {
          "internalType": "address",
          "name": "",
          "type": "address"
        }
      ],
      "stateMutability": "view",
      "type": "function"
    },
    {
      "inputs": [],
      "name": "getPoolFee",
      "outputs": [
        {
          "internalType": "uint16",
          "name": "",
          "type": "uint16"
        }
      ],
      "stateMutability": "view",
      "type": "function"
    },
    {
      "inputs": [],
      "name": "getPoolFeeAddress",
      "outputs": [
        {
          "internalType": "address",
          "name": "",
          "type": "address"
        }
      ],
      "stateMutability": "view",
      "type": "function"
    },
    {
      "inputs": [
        {
          "internalType": "bytes32",
          "name": "role",
          "type": "bytes32"
        }
      ],
      "name": "getRoleAdmin",
      "outputs": [
        {
          "internalType": "bytes32",
          "name": "",
          "type": "bytes32"
        }
      ],
      "stateMutability": "view",
      "type": "function"
    },
    {
      "inputs": [
        {
          "internalType": "address",
          "name": "account",
          "type": "address"
        }
      ],
      "name": "getSourceAccountBL",
      "outputs": [
        {
          "internalType": "bool",
          "name": "",
          "type": "bool"
        }
      ],
      "stateMutability": "view",
      "type": "function"
    },
    {
      "inputs": [],
      "name": "getTreasuryAddress",
      "outputs": [
        {
          "internalType": "address",
          "name": "",
          "type": "address"
        }
      ],
      "stateMutability": "view",
      "type": "function"
    },
    {
      "inputs": [],
      "name": "getURL",
      "outputs": [
        {
          "internalType": "string",
          "name": "",
          "type": "string"
        }
      ],
      "stateMutability": "view",
      "type": "function"
    },
    {
      "inputs": [
        {
          "internalType": "bytes32",
          "name": "role",
          "type": "bytes32"
        },
        {
          "internalType": "address",
          "name": "account",
          "type": "address"
        }
      ],
      "name": "grantRole",
      "outputs": [],
      "stateMutability": "nonpayable",
      "type": "function"
    },
    {
      "inputs": [
        {
          "internalType": "bytes32",
          "name": "role",
          "type": "bytes32"
        },
        {
          "internalType": "address",
          "name": "account",
          "type": "address"
        }
      ],
      "name": "hasRole",
      "outputs": [
        {
          "internalType": "bool",
          "name": "",
          "type": "bool"
        }
      ],
      "stateMutability": "view",
      "type": "function"
    },
    {
      "inputs": [],
      "name": "implementation",
      "outputs": [
        {
          "internalType": "address",
          "name": "",
          "type": "address"
        }
      ],
      "stateMutability": "view",
      "type": "function"
    },
    {
      "inputs": [
        {
          "internalType": "address",
          "name": "spender",
          "type": "address"
        },
        {
          "internalType": "uint256",
          "name": "amount",
          "type": "uint256"
        }
      ],
      "name": "increaseAllowance",
      "outputs": [
        {
          "internalType": "bool",
          "name": "",
          "type": "bool"
        }
      ],
      "stateMutability": "nonpayable",
      "type": "function"
    },
    {
      "inputs": [
        {
          "internalType": "address",
          "name": "account",
          "type": "address"
        },
        {
          "internalType": "uint256",
          "name": "amount",
          "type": "uint256"
        }
      ],
      "name": "mint",
      "outputs": [],
      "stateMutability": "nonpayable",
      "type": "function"
    },
    {
      "inputs": [],
      "name": "name",
      "outputs": [
        {
          "internalType": "string",
          "name": "",
          "type": "string"
        }
      ],
      "stateMutability": "view",
      "type": "function"
    },
    {
      "inputs": [],
      "name": "owner",
      "outputs": [
        {
          "internalType": "address",
          "name": "",
          "type": "address"
        }
      ],
      "stateMutability": "view",
      "type": "function"
    },
    {
      "inputs": [
        {
          "internalType": "bytes32",
          "name": "target",
          "type": "bytes32"
        }
      ],
      "name": "pause",
      "outputs": [],
      "stateMutability": "nonpayable",
      "type": "function"
    },
    {
      "inputs": [
        {
          "internalType": "bytes32",
          "name": "target",
          "type": "bytes32"
        }
      ],
      "name": "paused",
      "outputs": [
        {
          "internalType": "bool",
          "name": "status_",
          "type": "bool"
        }
      ],
      "stateMutability": "view",
      "type": "function"
    },
    {
      "inputs": [
        {
          "internalType": "bytes32",
          "name": "role",
          "type": "bytes32"
        }
      ],
      "name": "renounceRole",
      "outputs": [],
      "stateMutability": "nonpayable",
      "type": "function"
    },
    {
      "inputs": [
        {
          "internalType": "bytes32",
          "name": "role",
          "type": "bytes32"
        },
        {
          "internalType": "address",
          "name": "account",
          "type": "address"
        }
      ],
      "name": "revokeRole",
      "outputs": [],
      "stateMutability": "nonpayable",
      "type": "function"
    },
    {
      "inputs": [
        {
          "internalType": "bytes32",
          "name": "target",
          "type": "bytes32"
        },
        {
          "internalType": "address",
          "name": "account",
          "type": "address"
        },
        {
          "internalType": "bool",
          "name": "lockValue",
          "type": "bool"
        }
      ],
      "name": "setAccountBlackWhiteList",
      "outputs": [],
      "stateMutability": "nonpayable",
      "type": "function"
    },
    {
      "inputs": [
        {
          "internalType": "address[]",
          "name": "addresses",
          "type": "address[]"
        },
        {
          "internalType": "bool",
          "name": "lockValue",
          "type": "bool"
        }
      ],
      "name": "setBatchDestinationAccountBL",
      "outputs": [],
      "stateMutability": "nonpayable",
      "type": "function"
    },
    {
      "inputs": [
        {
          "internalType": "address[]",
          "name": "addresses",
          "type": "address[]"
        },
        {
          "internalType": "bool",
          "name": "lockValue",
          "type": "bool"
        }
      ],
      "name": "setBatchSourceAccountBL",
      "outputs": [],
      "stateMutability": "nonpayable",
      "type": "function"
    },
    {
      "inputs": [
        {
          "internalType": "address",
          "name": "account",
          "type": "address"
        },
        {
          "internalType": "bool",
          "name": "lockValue",
          "type": "bool"
        }
      ],
      "name": "setDestinationAccountBL",
      "outputs": [],
      "stateMutability": "nonpayable",
      "type": "function"
    },
    {
      "inputs": [
        {
          "internalType": "address",
          "name": "_implementation",
          "type": "address"
        }
      ],
      "name": "setDummyImplementation",
      "outputs": [],
      "stateMutability": "nonpayable",
      "type": "function"
    },
    {
      "inputs": [
        {
          "internalType": "uint16",
          "name": "generalFee",
          "type": "uint16"
        }
      ],
      "name": "setGeneralFee",
      "outputs": [],
      "stateMutability": "nonpayable",
      "type": "function"
    },
    {
      "inputs": [
        {
          "internalType": "address",
          "name": "generalFeeAddress",
          "type": "address"
        }
      ],
      "name": "setGeneralFeeAddress",
      "outputs": [],
      "stateMutability": "nonpayable",
      "type": "function"
    },
    {
      "inputs": [
        {
          "internalType": "uint16",
          "name": "poolFee",
          "type": "uint16"
        }
      ],
      "name": "setPoolFee",
      "outputs": [],
      "stateMutability": "nonpayable",
      "type": "function"
    },
    {
      "inputs": [
        {
          "internalType": "address",
          "name": "poolFeeAddress",
          "type": "address"
        }
      ],
      "name": "setPoolFeeAddress",
      "outputs": [],
      "stateMutability": "nonpayable",
      "type": "function"
    },
    {
      "inputs": [
        {
          "internalType": "bytes32",
          "name": "role",
          "type": "bytes32"
        },
        {
          "internalType": "bytes32",
          "name": "adminRole",
          "type": "bytes32"
        }
      ],
      "name": "setRoleAdmin",
      "outputs": [],
      "stateMutability": "nonpayable",
      "type": "function"
    },
    {
      "inputs": [
        {
          "internalType": "address",
          "name": "account",
          "type": "address"
        },
        {
          "internalType": "bool",
          "name": "lockValue",
          "type": "bool"
        }
      ],
      "name": "setSourceAccountBL",
      "outputs": [],
      "stateMutability": "nonpayable",
      "type": "function"
    },
    {
      "inputs": [
        {
          "internalType": "address",
          "name": "treasuryAddress",
          "type": "address"
        }
      ],
      "name": "setTreasuryAddress",
      "outputs": [],
      "stateMutability": "nonpayable",
      "type": "function"
    },
    {
      "inputs": [
        {
          "internalType": "string",
          "name": "url",
          "type": "string"
        }
      ],
      "name": "setURL",
      "outputs": [],
      "stateMutability": "nonpayable",
      "type": "function"
    },
    {
      "inputs": [
        {
          "internalType": "bytes4",
          "name": "_interfaceId",
          "type": "bytes4"
        }
      ],
      "name": "supportsInterface",
      "outputs": [
        {
          "internalType": "bool",
          "name": "",
          "type": "bool"
        }
      ],
      "stateMutability": "view",
      "type": "function"
    },
    {
      "inputs": [],
      "name": "symbol",
      "outputs": [
        {
          "internalType": "string",
          "name": "",
          "type": "string"
        }
      ],
      "stateMutability": "view",
      "type": "function"
    },
    {
      "inputs": [],
      "name": "totalSupply",
      "outputs": [
        {
          "internalType": "uint256",
          "name": "totalSupply_",
          "type": "uint256"
        }
      ],
      "stateMutability": "view",
      "type": "function"
    },
    {
      "inputs": [
        {
          "internalType": "address",
          "name": "recipient",
          "type": "address"
        },
        {
          "internalType": "uint256",
          "name": "amount",
          "type": "uint256"
        }
      ],
      "name": "transfer",
      "outputs": [
        {
          "internalType": "bool",
          "name": "status_",
          "type": "bool"
        }
      ],
      "stateMutability": "nonpayable",
      "type": "function"
    },
    {
      "inputs": [
        {
          "internalType": "address",
          "name": "holder",
          "type": "address"
        },
        {
          "internalType": "address",
          "name": "recipient",
          "type": "address"
        },
        {
          "internalType": "uint256",
          "name": "amount",
          "type": "uint256"
        }
      ],
      "name": "transferFrom",
      "outputs": [
        {
          "internalType": "bool",
          "name": "status_",
          "type": "bool"
        }
      ],
      "stateMutability": "nonpayable",
      "type": "function"
    },
    {
      "inputs": [
        {
          "internalType": "address",
          "name": "_newOwner",
          "type": "address"
        }
      ],
      "name": "transferOwnership",
      "outputs": [],
      "stateMutability": "nonpayable",
      "type": "function"
    },
    {
      "inputs": [
        {
          "internalType": "bytes32",
          "name": "target",
          "type": "bytes32"
        }
      ],
      "name": "unpause",
      "outputs": [],
      "stateMutability": "nonpayable",
      "type": "function"
    },
    {
      "inputs": [
        {
          "internalType": "address",
          "name": "account",
          "type": "address"
        }
      ],
      "name": "withdrawUserTokenByCompliance",
      "outputs": [],
      "stateMutability": "nonpayable",
      "type": "function"
    }
  ],
  "transactionHash": "0xd1d49910d9c1567d9fbeefa62e02b96cdecdfebef877419e14d0b8c6b0766f06",
  "args": [],
  "numDeployments": 1,
  "solcInputHash": "fc16a9ae7444b9d94b4f8a593e68c905",
  "bytecode": "0x608060405234801561001057600080fd5b50611cd9806100206000396000f3fe608060405234801561001057600080fd5b50600436106103af5760003560e01c80636741fad2116101f4578063a9059cbb1161011a578063d75a9def116100ad578063ed56531a1161007c578063ed56531a14610b58578063f011a75614610b74578063f2fde38b14610b92578063f9916d3914610bae576103af565b8063d75a9def14610abc578063d8427cce14610ada578063dd62ed3e14610b0a578063e002460414610b3a576103af565b8063c39aa07d116100e9578063c39aa07d14610a36578063cdffacc614610a52578063d11a57ec14610a82578063d547741f14610aa0576103af565b8063a9059cbb1461099e578063adc557d4146109ce578063adfca15e146109ea578063bc949df814610a1a576103af565b80638da5cb5b116101925780639e9e4666116101615780639e9e4666146109045780639f4e14b014610934578063a457c2d714610950578063a4e8f69914610980576103af565b80638da5cb5b1461087a5780638dc822971461089857806391d14854146108b657806395d89b41146108e6576103af565b806377343408116101ce578063773434081461080857806379cc6790146108245780637a0ed627146108405780638bb9c5bf1461085e576103af565b80636741fad21461079e5780636c19e588146107bc57806370a08231146107d8576103af565b80632b7ea538116102d957806342966c681161027757806352ef6b2c1161024657806352ef6b2c146107285780635c60da1b1461074657806361a1698e146107645780636605bfda14610782576103af565b806342966c681461069057806345d4dc68146106ac5780634c67fedd146106c85780634f80ad25146106f8576103af565b8063313ce567116102b3578063313ce5671461060857806338bcdc1c14610626578063395093511461064457806340c10f1914610674576103af565b80632b7ea538146105b25780632f2ff15d146105d05780632f4dae9f146105ec576103af565b80631a2b81501161035157806323b872dd1161032057806323b872dd1461051a578063248a9ca31461054a57806325daa8f91461057a5780632901277714610596576103af565b80631a2b8150146104a85780631d338704146104c45780631e4e0091146104e25780631f931c1c146104fe576103af565b8063095ea7b31161038d578063095ea7b3146104205780630dfe43f8146104505780630e5a06b61461046e57806318160ddd1461048a576103af565b806301ffc9a7146103b4578063062d3bd7146103e457806306fdde0314610402575b600080fd5b6103ce60048036038101906103c99190610d6d565b610bca565b6040516103db9190610db5565b60405180910390f35b6103ec610bd1565b6040516103f99190610de9565b60405180910390f35b61040a610bd6565b6040516104179190610e94565b60405180910390f35b61043a60048036038101906104359190610f4a565b610bdb565b6040516104479190610db5565b60405180910390f35b610458610be3565b6040516104659190610f99565b60405180910390f35b61048860048036038101906104839190610fb4565b610be8565b005b610492610beb565b60405161049f9190610ff0565b60405180910390f35b6104c260048036038101906104bd9190611045565b610bf0565b005b6104cc610bf3565b6040516104d99190610de9565b60405180910390f35b6104fc60048036038101906104f7919061109e565b610bf8565b005b6105186004803603810190610513919061147f565b610bfc565b005b610534600480360381019061052f919061150a565b610c01565b6040516105419190610db5565b60405180910390f35b610564600480360381019061055f919061155d565b610c0a565b6040516105719190610de9565b60405180910390f35b610594600480360381019061058f9190611045565b610c11565b005b6105b060048036038101906105ab9190611679565b610c14565b005b6105ba610c18565b6040516105c79190610de9565b60405180910390f35b6105ea60048036038101906105e591906116d5565b610c1d565b005b6106066004803603810190610601919061155d565b610c21565b005b610610610c24565b60405161061d9190611724565b60405180910390f35b61062e610c29565b60405161063b9190610e94565b60405180910390f35b61065e60048036038101906106599190610f4a565b610c2e565b60405161066b9190610db5565b60405180910390f35b61068e60048036038101906106899190610f4a565b610c36565b005b6106aa60048036038101906106a5919061173f565b610c3a565b005b6106c660048036038101906106c19190610fb4565b610c3d565b005b6106e260048036038101906106dd9190610fb4565b610c40565b6040516106ef9190610db5565b60405180910390f35b610712600480360381019061070d91906116d5565b610c47565b60405161071f9190610db5565b60405180910390f35b610730610c4f565b60405161073d919061182a565b60405180910390f35b61074e610c54565b60405161075b9190610f99565b60405180910390f35b61076c610c59565b6040516107799190610f99565b60405180910390f35b61079c60048036038101906107979190610fb4565b610c5e565b005b6107a6610c61565b6040516107b3919061185b565b60405180910390f35b6107d660048036038101906107d19190611876565b610c66565b005b6107f260048036038101906107ed9190610fb4565b610c6b565b6040516107ff9190610ff0565b60405180910390f35b610822600480360381019061081d919061196a565b610c72565b005b61083e60048036038101906108399190610f4a565b610c75565b005b610848610c79565b6040516108559190611b70565b60405180910390f35b6108786004803603810190610873919061155d565b610c7e565b005b610882610c81565b60405161088f9190610f99565b60405180910390f35b6108a0610c86565b6040516108ad9190610de9565b60405180910390f35b6108d060048036038101906108cb91906116d5565b610c8b565b6040516108dd9190610db5565b60405180910390f35b6108ee610c93565b6040516108fb9190610e94565b60405180910390f35b61091e6004803603810190610919919061155d565b610c98565b60405161092b9190610db5565b60405180910390f35b61094e60048036038101906109499190611679565b610c9f565b005b61096a60048036038101906109659190610f4a565b610ca3565b6040516109779190610db5565b60405180910390f35b610988610cab565b6040516109959190610de9565b60405180910390f35b6109b860048036038101906109b39190610f4a565b610cb0565b6040516109c59190610db5565b60405180910390f35b6109e860048036038101906109e39190611b92565b610cb8565b005b610a0460048036038101906109ff9190610fb4565b610cbc565b604051610a119190611c41565b60405180910390f35b610a346004803603810190610a2f9190611b92565b610cc3565b005b610a506004803603810190610a4b9190610fb4565b610cc7565b005b610a6c6004803603810190610a679190610d6d565b610cca565b604051610a799190610f99565b60405180910390f35b610a8a610cd1565b604051610a979190610de9565b60405180910390f35b610aba6004803603810190610ab591906116d5565b610cd6565b005b610ac4610cda565b604051610ad19190610de9565b60405180910390f35b610af46004803603810190610aef9190610fb4565b610cdf565b604051610b019190610db5565b60405180910390f35b610b246004803603810190610b1f9190611c63565b610ce6565b604051610b319190610ff0565b60405180910390f35b610b42610cee565b604051610b4f9190610f99565b60405180910390f35b610b726004803603810190610b6d919061155d565b610cf3565b005b610b7c610cf6565b604051610b89919061185b565b60405180910390f35b610bac6004803603810190610ba79190610fb4565b610cfb565b005b610bc86004803603810190610bc39190610fb4565b610cfe565b005b6000919050565b600090565b606090565b600092915050565b600090565b50565b600090565b50565b600090565b5050565b505050565b60009392505050565b6000919050565b50565b5050565b600090565b5050565b50565b600090565b606090565b600092915050565b5050565b50565b50565b6000919050565b600092915050565b606090565b600090565b600090565b50565b600090565b505050565b6000919050565b50565b5050565b606090565b50565b600090565b600090565b600092915050565b606090565b6000919050565b5050565b600092915050565b600090565b600092915050565b5050565b6060919050565b5050565b50565b6000919050565b600090565b5050565b600090565b6000919050565b600092915050565b600090565b50565b600090565b50565b50565b6000604051905090565b600080fd5b600080fd5b60007fffffffff0000000000000000000000000000000000000000000000000000000082169050919050565b610d4a81610d15565b8114610d5557600080fd5b50565b600081359050610d6781610d41565b92915050565b600060208284031215610d8357610d82610d0b565b5b6000610d9184828501610d58565b91505092915050565b60008115159050919050565b610daf81610d9a565b82525050565b6000602082019050610dca6000830184610da6565b92915050565b6000819050919050565b610de381610dd0565b82525050565b6000602082019050610dfe6000830184610dda565b92915050565b600081519050919050565b600082825260208201905092915050565b60005b83811015610e3e578082015181840152602081019050610e23565b60008484015250505050565b6000601f19601f8301169050919050565b6000610e6682610e04565b610e708185610e0f565b9350610e80818560208601610e20565b610e8981610e4a565b840191505092915050565b60006020820190508181036000830152610eae8184610e5b565b905092915050565b600073ffffffffffffffffffffffffffffffffffffffff82169050919050565b6000610ee182610eb6565b9050919050565b610ef181610ed6565b8114610efc57600080fd5b50565b600081359050610f0e81610ee8565b92915050565b6000819050919050565b610f2781610f14565b8114610f3257600080fd5b50565b600081359050610f4481610f1e565b92915050565b60008060408385031215610f6157610f60610d0b565b5b6000610f6f85828601610eff565b9250506020610f8085828601610f35565b9150509250929050565b610f9381610ed6565b82525050565b6000602082019050610fae6000830184610f8a565b92915050565b600060208284031215610fca57610fc9610d0b565b5b6000610fd884828501610eff565b91505092915050565b610fea81610f14565b82525050565b60006020820190506110056000830184610fe1565b92915050565b600061ffff82169050919050565b6110228161100b565b811461102d57600080fd5b50565b60008135905061103f81611019565b92915050565b60006020828403121561105b5761105a610d0b565b5b600061106984828501611030565b91505092915050565b61107b81610dd0565b811461108657600080fd5b50565b60008135905061109881611072565b92915050565b600080604083850312156110b5576110b4610d0b565b5b60006110c385828601611089565b92505060206110d485828601611089565b9150509250929050565b600080fd5b7f4e487b7100000000000000000000000000000000000000000000000000000000600052604160045260246000fd5b61111b82610e4a565b810181811067ffffffffffffffff8211171561113a576111396110e3565b5b80604052505050565b600061114d610d01565b90506111598282611112565b919050565b600067ffffffffffffffff821115611179576111786110e3565b5b602082029050602081019050919050565b600080fd5b600080fd5b600080fd5b600060ff82169050919050565b6111af81611199565b81146111ba57600080fd5b50565b6000813590506111cc816111a6565b92915050565b600067ffffffffffffffff8211156111ed576111ec6110e3565b5b602082029050602081019050919050565b600061121161120c846111d2565b611143565b905080838252602082019050602084028301858111156112345761123361118a565b5b835b8181101561125d57806112498882610d58565b845260208401935050602081019050611236565b5050509392505050565b600082601f83011261127c5761127b6110de565b5b813561128c8482602086016111fe565b91505092915050565b6000606082840312156112ab576112aa61118f565b5b6112b56060611143565b905060006112c584828501610eff565b60008301525060206112d9848285016111bd565b602083015250604082013567ffffffffffffffff8111156112fd576112fc611194565b5b61130984828501611267565b60408301525092915050565b60006113286113238461115e565b611143565b9050808382526020820190506020840283018581111561134b5761134a61118a565b5b835b8181101561139257803567ffffffffffffffff8111156113705761136f6110de565b5b80860161137d8982611295565b8552602085019450505060208101905061134d565b5050509392505050565b600082601f8301126113b1576113b06110de565b5b81356113c1848260208601611315565b91505092915050565b600080fd5b600067ffffffffffffffff8211156113ea576113e96110e3565b5b6113f382610e4a565b9050602081019050919050565b82818337600083830152505050565b600061142261141d846113cf565b611143565b90508281526020810184848401111561143e5761143d6113ca565b5b611449848285611400565b509392505050565b600082601f830112611466576114656110de565b5b813561147684826020860161140f565b91505092915050565b60008060006060848603121561149857611497610d0b565b5b600084013567ffffffffffffffff8111156114b6576114b5610d10565b5b6114c28682870161139c565b93505060206114d386828701610eff565b925050604084013567ffffffffffffffff8111156114f4576114f3610d10565b5b61150086828701611451565b9150509250925092565b60008060006060848603121561152357611522610d0b565b5b600061153186828701610eff565b935050602061154286828701610eff565b925050604061155386828701610f35565b9150509250925092565b60006020828403121561157357611572610d0b565b5b600061158184828501611089565b91505092915050565b600067ffffffffffffffff8211156115a5576115a46110e3565b5b602082029050602081019050919050565b60006115c96115c48461158a565b611143565b905080838252602082019050602084028301858111156115ec576115eb61118a565b5b835b8181101561161557806116018882610eff565b8452602084019350506020810190506115ee565b5050509392505050565b600082601f830112611634576116336110de565b5b81356116448482602086016115b6565b91505092915050565b61165681610d9a565b811461166157600080fd5b50565b6000813590506116738161164d565b92915050565b600080604083850312156116905761168f610d0b565b5b600083013567ffffffffffffffff8111156116ae576116ad610d10565b5b6116ba8582860161161f565b92505060206116cb85828601611664565b9150509250929050565b600080604083850312156116ec576116eb610d0b565b5b60006116fa85828601611089565b925050602061170b85828601610eff565b9150509250929050565b61171e81611199565b82525050565b60006020820190506117396000830184611715565b92915050565b60006020828403121561175557611754610d0b565b5b600061176384828501610f35565b91505092915050565b600081519050919050565b600082825260208201905092915050565b6000819050602082019050919050565b6117a181610ed6565b82525050565b60006117b38383611798565b60208301905092915050565b6000602082019050919050565b60006117d78261176c565b6117e18185611777565b93506117ec83611788565b8060005b8381101561181d57815161180488826117a7565b975061180f836117bf565b9250506001810190506117f0565b5085935050505092915050565b6000602082019050818103600083015261184481846117cc565b905092915050565b6118558161100b565b82525050565b6000602082019050611870600083018461184c565b92915050565b60008060006060848603121561188f5761188e610d0b565b5b600061189d86828701611089565b93505060206118ae86828701610eff565b92505060406118bf86828701611664565b9150509250925092565b600067ffffffffffffffff8211156118e4576118e36110e3565b5b6118ed82610e4a565b9050602081019050919050565b600061190d611908846118c9565b611143565b905082815260208101848484011115611929576119286113ca565b5b611934848285611400565b509392505050565b600082601f830112611951576119506110de565b5b81356119618482602086016118fa565b91505092915050565b6000602082840312156119805761197f610d0b565b5b600082013567ffffffffffffffff81111561199e5761199d610d10565b5b6119aa8482850161193c565b91505092915050565b600081519050919050565b600082825260208201905092915050565b6000819050602082019050919050565b600081519050919050565b600082825260208201905092915050565b6000819050602082019050919050565b611a1481610d15565b82525050565b6000611a268383611a0b565b60208301905092915050565b6000602082019050919050565b6000611a4a826119df565b611a5481856119ea565b9350611a5f836119fb565b8060005b83811015611a90578151611a778882611a1a565b9750611a8283611a32565b925050600181019050611a63565b5085935050505092915050565b6000604083016000830151611ab56000860182611798565b5060208301518482036020860152611acd8282611a3f565b9150508091505092915050565b6000611ae68383611a9d565b905092915050565b6000602082019050919050565b6000611b06826119b3565b611b1081856119be565b935083602082028501611b22856119cf565b8060005b85811015611b5e5784840389528151611b3f8582611ada565b9450611b4a83611aee565b925060208a01995050600181019050611b26565b50829750879550505050505092915050565b60006020820190508181036000830152611b8a8184611afb565b905092915050565b60008060408385031215611ba957611ba8610d0b565b5b6000611bb785828601610eff565b9250506020611bc885828601611664565b9150509250929050565b600082825260208201905092915050565b6000611bee826119df565b611bf88185611bd2565b9350611c03836119fb565b8060005b83811015611c34578151611c1b8882611a1a565b9750611c2683611a32565b925050600181019050611c07565b5085935050505092915050565b60006020820190508181036000830152611c5b8184611be3565b905092915050565b60008060408385031215611c7a57611c79610d0b565b5b6000611c8885828601610eff565b9250506020611c9985828601610eff565b915050925092905056fea264697066735822122046a6173af4e0840938e243bcdf1b372cb82b28d486b6026cf6aa2459027512ae64736f6c63430008110033",
  "devdoc": {
    "kind": "dev",
    "methods": {},
    "version": 1
  },
  "userdoc": {
    "kind": "user",
    "methods": {},
    "notice": "This is a generated dummy diamond implementation for compatibility with etherscan. For full contract implementation, check out the diamond on https://louper.dev",
    "version": 1
  },
  "storageLayout": {
    "storage": [],
    "types": null
  }
}