{
  "address": "0x16e68c5004a877B9E9d0f742AB5d0c2176beD930",
  "abi": [
    {
      "inputs": [],
      "name": "Ownable__NotOwner",
      "type": "error"
    },
    {
      "inputs": [
        {
          "internalType": "string",
          "name": "name",
          "type": "string"
        },
        {
          "internalType": "string",
          "name": "symbol",
          "type": "string"
        },
        {
          "internalType": "uint8",
          "name": "decimals",
          "type": "uint8"
        },
        {
          "internalType": "uint256",
          "name": "initialSupply",
          "type": "uint256"
        }
      ],
      "name": "init",
      "outputs": [],
      "stateMutability": "nonpayable",
      "type": "function"
    }
  ],
  "transactionHash": "0x14d6fc30b9a301ac96d8018c37c4bb93b04777cb184074afdef7a933132123ba",
  "args": [],
  "numDeployments": 1,
  "solcInputHash": "993af39e4bb45cfb2fcbd9cec3fc8b13",
  "bytecode": "0x608060405234801561001057600080fd5b50611644806100206000396000f3fe608060405234801561001057600080fd5b506004361061002b5760003560e01c8063f8f5faa214610030575b600080fd5b61004a60048036038101906100459190611039565b61004c565b005b6100546106d3565b73ffffffffffffffffffffffffffffffffffffffff163073ffffffffffffffffffffffffffffffffffffffff16146100c1576040517f08c379a00000000000000000000000000000000000000000000000000000000081526004016100b89061113d565b60405180910390fd5b6100c961070b565b60006100d3610779565b511480156100e9575060006100e6610814565b51145b610128576040517f08c379a000000000000000000000000000000000000000000000000000000000815260040161011f906111a9565b60405180910390fd5b60008686905014158015610140575060008484905014155b61017f576040517f08c379a000000000000000000000000000000000000000000000000000000000815260040161017690611215565b60405180910390fd5b60006101896108af565b905060018160040160007f01ffc9a7000000000000000000000000000000000000000000000000000000007bffffffffffffffffffffffffffffffffffffffffffffffffffffffff19167bffffffffffffffffffffffffffffffffffffffffffffffffffffffff1916815260200190815260200160002060006101000a81548160ff02191690831515021790555060018160040160007f1f931c1c000000000000000000000000000000000000000000000000000000007bffffffffffffffffffffffffffffffffffffffffffffffffffffffff19167bffffffffffffffffffffffffffffffffffffffffffffffffffffffff1916815260200190815260200160002060006101000a81548160ff02191690831515021790555060018160040160007f48e2b093000000000000000000000000000000000000000000000000000000007bffffffffffffffffffffffffffffffffffffffffffffffffffffffff19167bffffffffffffffffffffffffffffffffffffffffffffffffffffffff1916815260200190815260200160002060006101000a81548160ff02191690831515021790555060018160040160007f7f5828d0000000000000000000000000000000000000000000000000000000007bffffffffffffffffffffffffffffffffffffffffffffffffffffffff19167bffffffffffffffffffffffffffffffffffffffffffffffffffffffff1916815260200190815260200160002060006101000a81548160ff02191690831515021790555060008160040160007f36372b07000000000000000000000000000000000000000000000000000000007bffffffffffffffffffffffffffffffffffffffffffffffffffffffff19167bffffffffffffffffffffffffffffffffffffffffffffffffffffffff1916815260200190815260200160002060006101000a81548160ff02191690831515021790555061049487878080601f016020809104026020016040519081016040528093929190818152602001838380828437600081840152601f19601f820116905080830192505050505050506108dc565b6104e185858080601f016020809104026020016040519081016040528093929190818152602001838380828437600081840152601f19601f820116905080830192505050505050506108f8565b6104ea83610914565b6105147f9e262e26e9d5bf97da5c389e15529a31bb2b13d89967a4f6eab01792567d5fd68061093b565b61055e7fe1dcbdb91df27212a29bc27177c840cf2f819ecf2187432e1fac86c2dd5dfca97f9e262e26e9d5bf97da5c389e15529a31bb2b13d89967a4f6eab01792567d5fd661093b565b6105a87f17a5b61e4b0039a783f3595ae6d0f558a99530d7aec98ec66e68de70cfe985397f9e262e26e9d5bf97da5c389e15529a31bb2b13d89967a4f6eab01792567d5fd661093b565b6105f27f442a94f1a1fac79af32856af2a64f63648cfa2ef3b98610a5bb7cbec4cee69857f9e262e26e9d5bf97da5c389e15529a31bb2b13d89967a4f6eab01792567d5fd661093b565b6106237f9e262e26e9d5bf97da5c389e15529a31bb2b13d89967a4f6eab01792567d5fd661061e610a4c565b610a84565b6106547fe1dcbdb91df27212a29bc27177c840cf2f819ecf2187432e1fac86c2dd5dfca961064f610a4c565b610a84565b6106857f17a5b61e4b0039a783f3595ae6d0f558a99530d7aec98ec66e68de70cfe98539610680610a4c565b610a84565b6106b67f442a94f1a1fac79af32856af2a64f63648cfa2ef3b98610a5bb7cbec4cee69856106b1610a4c565b610a84565b60008211156106ca576106c93383610bd0565b5b50505050505050565b6000806106de6108af565b90508060000160009054906101000a900473ffffffffffffffffffffffffffffffffffffffff1691505090565b610713610a4c565b73ffffffffffffffffffffffffffffffffffffffff163373ffffffffffffffffffffffffffffffffffffffff1614610777576040517f2f7a8ee100000000000000000000000000000000000000000000000000000000815260040160405180910390fd5b565b6060610783610cba565b600001805461079190611264565b80601f01602080910402602001604051908101604052809291908181526020018280546107bd90611264565b801561080a5780601f106107df5761010080835404028352916020019161080a565b820191906000526020600020905b8154815290600101906020018083116107ed57829003601f168201915b5050505050905090565b606061081e610cba565b600101805461082c90611264565b80601f016020809104026020016040519081016040528092919081815260200182805461085890611264565b80156108a55780601f1061087a576101008083540402835291602001916108a5565b820191906000526020600020905b81548152906001019060200180831161088857829003601f168201915b5050505050905090565b6000807ff72346055b4d7224c7ec19860d22963ca622fbb313761bfba507c1a3aeedf37290508091505090565b806108e5610cba565b60000190816108f4919061147b565b5050565b80610901610cba565b6001019081610910919061147b565b5050565b8061091d610cba565b60020160006101000a81548160ff021916908360ff16021790555050565b6000610945610ce7565b9050600061095284610d14565b9050828260010160008460000160009054906101000a900473ffffffffffffffffffffffffffffffffffffffff1673ffffffffffffffffffffffffffffffffffffffff1673ffffffffffffffffffffffffffffffffffffffff16815260200190815260200160002060008681526020019081526020016000206000018190555082818360000160009054906101000a900473ffffffffffffffffffffffffffffffffffffffff1673ffffffffffffffffffffffffffffffffffffffff167f723017596f662d5bad698223ec9b9d90c19cd1ebc637a2ad7ef27b3d9f85f79c87604051610a3e9190611566565b60405180910390a450505050565b600080610a57610ce7565b90508060000160009054906101000a900473ffffffffffffffffffffffffffffffffffffffff1691505090565b6000610a8e610ce7565b9050610a9a8383610da3565b610bcb57610b29828260010160008460000160009054906101000a900473ffffffffffffffffffffffffffffffffffffffff1673ffffffffffffffffffffffffffffffffffffffff1673ffffffffffffffffffffffffffffffffffffffff1681526020019081526020016000206000868152602001908152602001600020600101610e4490919063ffffffff16565b503373ffffffffffffffffffffffffffffffffffffffff168273ffffffffffffffffffffffffffffffffffffffff168260000160009054906101000a900473ffffffffffffffffffffffffffffffffffffffff1673ffffffffffffffffffffffffffffffffffffffff167fc1ddb807f72f9e732ef6f32805c68a3b77ca377c0e141fe3bcaf19fe667f353486604051610bc29190611566565b60405180910390a45b505050565b6000610bda610e74565b905081816002016000828254610bf091906115b0565b92505081905550818160000160008573ffffffffffffffffffffffffffffffffffffffff1673ffffffffffffffffffffffffffffffffffffffff1681526020019081526020016000206000828254610c4891906115b0565b925050819055508273ffffffffffffffffffffffffffffffffffffffff16600073ffffffffffffffffffffffffffffffffffffffff167fddf252ad1be2c89b69c2b068fc378daa952ba7f163c4a11628f55a4df523b3ef84604051610cad91906115f3565b60405180910390a3505050565b6000807f08f0a4c6d91dd69feb0d369e358138ae9e369f563f1cc74f7107ce442013481590508091505090565b6000807f746c6723185dc95a8925081faed89cbd4670299390e2ebfb0b9c3e755e204ef490508091505090565b600080610d1f610ce7565b90508060010160008260000160009054906101000a900473ffffffffffffffffffffffffffffffffffffffff1673ffffffffffffffffffffffffffffffffffffffff1673ffffffffffffffffffffffffffffffffffffffff168152602001908152602001600020600084815260200190815260200160002060000154915050919050565b600080610dae610ce7565b9050610e3b838260010160008460000160009054906101000a900473ffffffffffffffffffffffffffffffffffffffff1673ffffffffffffffffffffffffffffffffffffffff1673ffffffffffffffffffffffffffffffffffffffff1681526020019081526020016000206000878152602001908152602001600020600101610ea190919063ffffffff16565b91505092915050565b6000610e6c836000018373ffffffffffffffffffffffffffffffffffffffff1660001b610ed1565b905092915050565b6000807fe9a7f3ff2959ae3f6e4713ab171289ebc2fa74daee48b6806f4ee628214ba41890508091505090565b6000610ec9836000018373ffffffffffffffffffffffffffffffffffffffff1660001b610f38565b905092915050565b6000610edd8383610f38565b610f325782600001829080600181540180825580915050600190039060005260206000200160009091909190915055826000018054905083600101600084815260200190815260200160002081905550600190505b92915050565b600080836001016000848152602001908152602001600020541415905092915050565b600080fd5b600080fd5b600080fd5b600080fd5b600080fd5b60008083601f840112610f8a57610f89610f65565b5b8235905067ffffffffffffffff811115610fa757610fa6610f6a565b5b602083019150836001820283011115610fc357610fc2610f6f565b5b9250929050565b600060ff82169050919050565b610fe081610fca565b8114610feb57600080fd5b50565b600081359050610ffd81610fd7565b92915050565b6000819050919050565b61101681611003565b811461102157600080fd5b50565b6000813590506110338161100d565b92915050565b6000806000806000806080878903121561105657611055610f5b565b5b600087013567ffffffffffffffff81111561107457611073610f60565b5b61108089828a01610f74565b9650965050602087013567ffffffffffffffff8111156110a3576110a2610f60565b5b6110af89828a01610f74565b945094505060406110c289828a01610fee565b92505060606110d389828a01611024565b9150509295509295509295565b600082825260208201905092915050565b7f4e4f545f414c4c4f574544000000000000000000000000000000000000000000600082015250565b6000611127600b836110e0565b9150611132826110f1565b602082019050919050565b600060208201905081810360008301526111568161111a565b9050919050565b7f414c52454144595f494e495449414c495a454400000000000000000000000000600082015250565b60006111936013836110e0565b915061119e8261115d565b602082019050919050565b600060208201905081810360008301526111c281611186565b9050919050565b7f494e56414c49445f504152414d53000000000000000000000000000000000000600082015250565b60006111ff600e836110e0565b915061120a826111c9565b602082019050919050565b6000602082019050818103600083015261122e816111f2565b9050919050565b7f4e487b7100000000000000000000000000000000000000000000000000000000600052602260045260246000fd5b6000600282049050600182168061127c57607f821691505b60208210810361128f5761128e611235565b5b50919050565b600081519050919050565b7f4e487b7100000000000000000000000000000000000000000000000000000000600052604160045260246000fd5b60008190508160005260206000209050919050565b60006020601f8301049050919050565b600082821b905092915050565b6000600883026113317fffffffffffffffffffffffffffffffffffffffffffffffffffffffffffffffff826112f4565b61133b86836112f4565b95508019841693508086168417925050509392505050565b6000819050919050565b600061137861137361136e84611003565b611353565b611003565b9050919050565b6000819050919050565b6113928361135d565b6113a661139e8261137f565b848454611301565b825550505050565b600090565b6113bb6113ae565b6113c6818484611389565b505050565b5b818110156113ea576113df6000826113b3565b6001810190506113cc565b5050565b601f82111561142f57611400816112cf565b611409846112e4565b81016020851015611418578190505b61142c611424856112e4565b8301826113cb565b50505b505050565b600082821c905092915050565b600061145260001984600802611434565b1980831691505092915050565b600061146b8383611441565b9150826002028217905092915050565b61148482611295565b67ffffffffffffffff81111561149d5761149c6112a0565b5b6114a78254611264565b6114b28282856113ee565b600060209050601f8311600181146114e557600084156114d3578287015190505b6114dd858261145f565b865550611545565b601f1984166114f3866112cf565b60005b8281101561151b578489015182556001820191506020850194506020810190506114f6565b868310156115385784890151611534601f891682611441565b8355505b6001600288020188555050505b505050505050565b6000819050919050565b6115608161154d565b82525050565b600060208201905061157b6000830184611557565b92915050565b7f4e487b7100000000000000000000000000000000000000000000000000000000600052601160045260246000fd5b60006115bb82611003565b91506115c683611003565b92508282019050808211156115de576115dd611581565b5b92915050565b6115ed81611003565b82525050565b600060208201905061160860008301846115e4565b9291505056fea2646970667358221220a19dadc01b42774b314bc163d921fc70592b94ef00eacee2f7622de724e5655e64736f6c63430008110033",
  "devdoc": {
    "kind": "dev",
    "methods": {},
    "version": 1
  },
  "userdoc": {
    "kind": "user",
    "methods": {},
    "version": 1
  },
  "storageLayout": {
    "storage": [],
    "types": null
  }
}