{
  "_format": "hh-sol-artifact-1",
  "contractName": "ArexaRestrictionFacet",
  "sourceName": "contracts/ArexaPlatform/ArexaRestrictionFacet.sol",
  "abi": [
    {
      "inputs": [],
      "name": "LibERC1155__ArrayLengthMismatch",
      "type": "error"
    },
    {
      "inputs": [
        {
          "internalType": "address",
          "name": "account",
          "type": "address"
        },
        {
          "internalType": "uint256",
          "name": "tokenId",
          "type": "uint256"
        },
        {
          "internalType": "uint256",
          "name": "amount",
          "type": "uint256"
        }
      ],
      "name": "calcUnrestrictedAmount",
      "outputs": [
        {
          "internalType": "uint256",
          "name": "",
          "type": "uint256"
        }
      ],
      "stateMutability": "view",
      "type": "function"
    },
    {
      "inputs": [
        {
          "internalType": "address",
          "name": "account",
          "type": "address"
        },
        {
          "internalType": "uint256",
          "name": "tokenId",
          "type": "uint256"
        },
        {
          "internalType": "uint256",
          "name": "amount",
          "type": "uint256"
        }
      ],
      "name": "checkRestriction",
      "outputs": [
        {
          "internalType": "bool",
          "name": "",
          "type": "bool"
        }
      ],
      "stateMutability": "view",
      "type": "function"
    },
    {
      "inputs": [
        {
          "internalType": "address",
          "name": "account",
          "type": "address"
        },
        {
          "internalType": "uint256[]",
          "name": "tokenIds",
          "type": "uint256[]"
        },
        {
          "internalType": "uint256[]",
          "name": "amounts",
          "type": "uint256[]"
        }
      ],
      "name": "checkRestrictions",
      "outputs": [
        {
          "internalType": "bool",
          "name": "",
          "type": "bool"
        }
      ],
      "stateMutability": "view",
      "type": "function"
    }
  ],
  "bytecode": "0x608060405234801561001057600080fd5b50610ba0806100206000396000f3fe608060405234801561001057600080fd5b50600436106100415760003560e01c80635da9751c14610046578063b227956014610076578063c8e5859c146100a6575b600080fd5b610060600480360381019061005b9190610746565b6100d6565b60405161006d91906107a8565b60405180910390f35b610090600480360381019061008b9190610828565b610161565b60405161009d91906108d8565b60405180910390f35b6100c060048036038101906100bb9190610746565b610270565b6040516100cd91906108d8565b60405180910390f35b60006100e06102fb565b73ffffffffffffffffffffffffffffffffffffffff163073ffffffffffffffffffffffffffffffffffffffff161461014d576040517f08c379a000000000000000000000000000000000000000000000000000000000815260040161014490610950565b60405180910390fd5b610158848484610333565b90509392505050565b600061016b6102fb565b73ffffffffffffffffffffffffffffffffffffffff163073ffffffffffffffffffffffffffffffffffffffff16146101d8576040517f08c379a00000000000000000000000000000000000000000000000000000000081526004016101cf90610950565b60405180910390fd5b61026586868680806020026020016040519081016040528093929190818152602001838360200280828437600081840152601f19601f82011690508083019250505050505050858580806020026020016040519081016040528093929190818152602001838360200280828437600081840152601f19601f82011690508083019250505050505050610441565b905095945050505050565b600061027a6102fb565b73ffffffffffffffffffffffffffffffffffffffff163073ffffffffffffffffffffffffffffffffffffffff16146102e7576040517f08c379a00000000000000000000000000000000000000000000000000000000081526004016102de90610950565b60405180910390fd5b6102f28484846104e3565b90509392505050565b600080610306610635565b90508060000160009054906101000a900473ffffffffffffffffffffffffffffffffffffffff1691505090565b60008061033e610662565b905060008160000160008681526020019081526020016000209050438160010154101561036f57839250505061043a565b60008160030160008873ffffffffffffffffffffffffffffffffffffffff1673ffffffffffffffffffffffffffffffffffffffff16815260200190815260200160002090506000600c826003015483600001546103cc919061099f565b6103d69190610a02565b83600201548360020154436103eb919061099f565b6103f59190610a02565b6103ff9190610a33565b90506000826001015461042583856003015461041b9190610a75565b856000015461068f565b61042f919061099f565b905080955050505050505b9392505050565b6000815183511461047e576040517f583b4bea00000000000000000000000000000000000000000000000000000000815260040160405180910390fd5b60005b83518110156104d7576104c9858583815181106104a1576104a0610aa9565b5b60200260200101518584815181106104bc576104bb610aa9565b5b60200260200101516104e3565b508080600101915050610481565b50600190509392505050565b6000806104ee610662565b9050600081600001600086815260200190815260200160002090504381600101541161051f5760019250505061062e565b60008160030160008873ffffffffffffffffffffffffffffffffffffffff1673ffffffffffffffffffffffffffffffffffffffff16815260200190815260200160002090506000600c8260030154836000015461057c919061099f565b6105869190610a02565b836002015483600201544361059b919061099f565b6105a59190610a02565b6105af9190610a33565b9050600082600101546105d58385600301546105cb9190610a75565b856000015461068f565b6105df919061099f565b905080871115610624576040517f08c379a000000000000000000000000000000000000000000000000000000000815260040161061b90610b4a565b60405180910390fd5b6001955050505050505b9392505050565b6000807ff72346055b4d7224c7ec19860d22963ca622fbb313761bfba507c1a3aeedf37290508091505090565b6000807fb666c964c288db81fc3205a9feeb13cfebbde2a4a4664c45ea26ef9d3d8de79290508091505090565b600081831161069e57826106a0565b815b905092915050565b600080fd5b600080fd5b600073ffffffffffffffffffffffffffffffffffffffff82169050919050565b60006106dd826106b2565b9050919050565b6106ed816106d2565b81146106f857600080fd5b50565b60008135905061070a816106e4565b92915050565b6000819050919050565b61072381610710565b811461072e57600080fd5b50565b6000813590506107408161071a565b92915050565b60008060006060848603121561075f5761075e6106a8565b5b600061076d868287016106fb565b935050602061077e86828701610731565b925050604061078f86828701610731565b9150509250925092565b6107a281610710565b82525050565b60006020820190506107bd6000830184610799565b92915050565b600080fd5b600080fd5b600080fd5b60008083601f8401126107e8576107e76107c3565b5b8235905067ffffffffffffffff811115610805576108046107c8565b5b602083019150836020820283011115610821576108206107cd565b5b9250929050565b600080600080600060608688031215610844576108436106a8565b5b6000610852888289016106fb565b955050602086013567ffffffffffffffff811115610873576108726106ad565b5b61087f888289016107d2565b9450945050604086013567ffffffffffffffff8111156108a2576108a16106ad565b5b6108ae888289016107d2565b92509250509295509295909350565b60008115159050919050565b6108d2816108bd565b82525050565b60006020820190506108ed60008301846108c9565b92915050565b600082825260208201905092915050565b7f4e4f545f414c4c4f574544000000000000000000000000000000000000000000600082015250565b600061093a600b836108f3565b915061094582610904565b602082019050919050565b600060208201905081810360008301526109698161092d565b9050919050565b7f4e487b7100000000000000000000000000000000000000000000000000000000600052601160045260246000fd5b60006109aa82610710565b91506109b583610710565b92508282039050818111156109cd576109cc610970565b5b92915050565b7f4e487b7100000000000000000000000000000000000000000000000000000000600052601260045260246000fd5b6000610a0d82610710565b9150610a1883610710565b925082610a2857610a276109d3565b5b828204905092915050565b6000610a3e82610710565b9150610a4983610710565b9250828202610a5781610710565b91508282048414831517610a6e57610a6d610970565b5b5092915050565b6000610a8082610710565b9150610a8b83610710565b9250828201905080821115610aa357610aa2610970565b5b92915050565b7f4e487b7100000000000000000000000000000000000000000000000000000000600052603260045260246000fd5b7f54686520616d6f756e7420697320677261746572207468656e2074686520616360008201527f63756d6c6174656420282773656c6c61626c65272920616d6f756e7421000000602082015250565b6000610b34603d836108f3565b9150610b3f82610ad8565b604082019050919050565b60006020820190508181036000830152610b6381610b27565b905091905056fea2646970667358221220bca0a10a130c1792edeb1893b131e9d5b2f86e6293c15009baa36b080807781164736f6c63430008110033",
  "linkReferences": {},
  "deployedLinkReferences": {}
}