{
  "_format": "hh-sol-artifact-1",
  "contractName": "ArexaTokenPausableFacet",
  "sourceName": "contracts/ArexaToken/ArexaTokenPausableFacet.sol",
  "abi": [
    {
      "inputs": [
        {
          "internalType": "bytes32",
          "name": "role",
          "type": "bytes32"
        },
        {
          "internalType": "address",
          "name": "account",
          "type": "address"
        }
      ],
      "name": "AccessDenied",
      "type": "error"
    },
    {
      "inputs": [],
      "name": "TargetedPausable__NotTargetedPaused",
      "type": "error"
    },
    {
      "inputs": [],
      "name": "TargetedPausable__TargetedPaused",
      "type": "error"
    },
    {
      "inputs": [],
      "name": "PAUSABLE_FULL",
      "outputs": [
        {
          "internalType": "bytes32",
          "name": "",
          "type": "bytes32"
        }
      ],
      "stateMutability": "view",
      "type": "function"
    },
    {
      "inputs": [
        {
          "internalType": "bytes32",
          "name": "target",
          "type": "bytes32"
        }
      ],
      "name": "pause",
      "outputs": [],
      "stateMutability": "nonpayable",
      "type": "function"
    },
    {
      "inputs": [
        {
          "internalType": "bytes32",
          "name": "target",
          "type": "bytes32"
        }
      ],
      "name": "paused",
      "outputs": [
        {
          "internalType": "bool",
          "name": "status_",
          "type": "bool"
        }
      ],
      "stateMutability": "view",
      "type": "function"
    },
    {
      "inputs": [
        {
          "internalType": "bytes32",
          "name": "target",
          "type": "bytes32"
        }
      ],
      "name": "unpause",
      "outputs": [],
      "stateMutability": "nonpayable",
      "type": "function"
    }
  ],
  "bytecode": "0x608060405234801561001057600080fd5b5061072a806100206000396000f3fe608060405234801561001057600080fd5b506004361061004c5760003560e01c80632f4dae9f146100515780639e9e46661461006d578063a4e8f6991461009d578063ed56531a146100bb575b600080fd5b61006b600480360381019061006691906105fd565b6100d7565b005b610087600480360381019061008291906105fd565b61011a565b6040516100949190610645565b60405180910390f35b6100a561012c565b6040516100b2919061066f565b60405180910390f35b6100d560048036038101906100d091906105fd565b610133565b005b806100e181610176565b7f9e262e26e9d5bf97da5c389e15529a31bb2b13d89967a4f6eab01792567d5fd661010b816101b8565b61011583336101c5565b505050565b6000610125826102d0565b9050919050565b6000801b81565b8061013d81610303565b7f9e262e26e9d5bf97da5c389e15529a31bb2b13d89967a4f6eab01792567d5fd6610167816101b8565b6101718333610346565b505050565b61017f816102d0565b6101b5576040517f2ff32e2400000000000000000000000000000000000000000000000000000000815260040160405180910390fd5b50565b6101c28133610423565b50565b60006101cf610474565b905080600001600084815260200190815260200160002060009054906101000a900460ff1661022a576040517f2ff32e2400000000000000000000000000000000000000000000000000000000815260040160405180910390fd5b600081600001600085815260200190815260200160002060006101000a81548160ff02191690831515021790555080600001600084815260200190815260200160002060006101000a81549060ff02191690558173ffffffffffffffffffffffffffffffffffffffff167f586bd8e235751dfbced6dca3e1bf08b2d68cf19c2f502b0c4abf61280a1793aa846040516102c3919061066f565b60405180910390a2505050565b60006102da610474565b600001600083815260200190815260200160002060009054906101000a900460ff169050919050565b61030c816102d0565b15610343576040517f2d0a436a00000000000000000000000000000000000000000000000000000000815260040160405180910390fd5b50565b6000610350610474565b905080600001600084815260200190815260200160002060009054906101000a900460ff16156103ac576040517f2d0a436a00000000000000000000000000000000000000000000000000000000815260040160405180910390fd5b600181600001600085815260200190815260200160002060006101000a81548160ff0219169083151502179055508173ffffffffffffffffffffffffffffffffffffffff16837fa4ee980acf45d6dea10fa511fd580be7a6ec548bfd60e2dfba4f318fd40b4eff60405160405180910390a3505050565b61042d82826104a1565b6104705781816040517f521dcf0d0000000000000000000000000000000000000000000000000000000081526004016104679291906106cb565b60405180910390fd5b5050565b6000807fe8ceb94393aac3e803a9d4b376f7c5ffd7e8b6caab697212a5360c34a283caa190508091505090565b6000806104ac610542565b9050610539838260010160008460000160009054906101000a900473ffffffffffffffffffffffffffffffffffffffff1673ffffffffffffffffffffffffffffffffffffffff1673ffffffffffffffffffffffffffffffffffffffff168152602001908152602001600020600087815260200190815260200160002060010161056f90919063ffffffff16565b91505092915050565b6000807f746c6723185dc95a8925081faed89cbd4670299390e2ebfb0b9c3e755e204ef490508091505090565b6000610597836000018373ffffffffffffffffffffffffffffffffffffffff1660001b61059f565b905092915050565b600080836001016000848152602001908152602001600020541415905092915050565b600080fd5b6000819050919050565b6105da816105c7565b81146105e557600080fd5b50565b6000813590506105f7816105d1565b92915050565b600060208284031215610613576106126105c2565b5b6000610621848285016105e8565b91505092915050565b60008115159050919050565b61063f8161062a565b82525050565b600060208201905061065a6000830184610636565b92915050565b610669816105c7565b82525050565b60006020820190506106846000830184610660565b92915050565b600073ffffffffffffffffffffffffffffffffffffffff82169050919050565b60006106b58261068a565b9050919050565b6106c5816106aa565b82525050565b60006040820190506106e06000830185610660565b6106ed60208301846106bc565b939250505056fea264697066735822122054ed2708f633e071eb17eabe57156ece6ddae96b6545ae820869f58e25faa44b64736f6c63430008110033",
  "linkReferences": {},
  "deployedLinkReferences": {}
}