{
  "_format": "hh-sol-artifact-1",
  "contractName": "ArexaDiamondDummyImplementation",
  "sourceName": "contracts/_dummy/ArexaDiamondDummyImplementation.sol",
  "abi": [
    {
      "inputs": [],
      "name": "AMOUNT_VALUE_TYPE",
      "outputs": [
        {
          "internalType": "uint8",
          "name": "",
          "type": "uint8"
        }
      ],
      "stateMutability": "view",
      "type": "function"
    },
    {
      "inputs": [],
      "name": "AREXA_ADMIN_ROLE",
      "outputs": [
        {
          "internalType": "bytes32",
          "name": "",
          "type": "bytes32"
        }
      ],
      "stateMutability": "view",
      "type": "function"
    },
    {
      "inputs": [],
      "name": "AREXA_TOKEN_ID",
      "outputs": [
        {
          "internalType": "uint256",
          "name": "",
          "type": "uint256"
        }
      ],
      "stateMutability": "view",
      "type": "function"
    },
    {
      "inputs": [],
      "name": "AREXA_TOKEN_POOL_AREXAINC",
      "outputs": [
        {
          "internalType": "uint8",
          "name": "",
          "type": "uint8"
        }
      ],
      "stateMutability": "view",
      "type": "function"
    },
    {
      "inputs": [],
      "name": "AREXA_TOKEN_POOL_DEVELOPMENT",
      "outputs": [
        {
          "internalType": "uint8",
          "name": "",
          "type": "uint8"
        }
      ],
      "stateMutability": "view",
      "type": "function"
    },
    {
      "inputs": [],
      "name": "AREXA_TOKEN_POOL_INVESTOR",
      "outputs": [
        {
          "internalType": "uint8",
          "name": "",
          "type": "uint8"
        }
      ],
      "stateMutability": "view",
      "type": "function"
    },
    {
      "inputs": [],
      "name": "AREXA_TOKEN_POOL_MARKETING",
      "outputs": [
        {
          "internalType": "uint8",
          "name": "",
          "type": "uint8"
        }
      ],
      "stateMutability": "view",
      "type": "function"
    },
    {
      "inputs": [],
      "name": "AREXA_TOKEN_POOL_RESERVED",
      "outputs": [
        {
          "internalType": "uint8",
          "name": "",
          "type": "uint8"
        }
      ],
      "stateMutability": "view",
      "type": "function"
    },
    {
      "inputs": [],
      "name": "MAGIC100_FIRST_BUYER",
      "outputs": [
        {
          "internalType": "bytes32",
          "name": "",
          "type": "bytes32"
        }
      ],
      "stateMutability": "view",
      "type": "function"
    },
    {
      "inputs": [],
      "name": "MAGIC_TOKEN_ID",
      "outputs": [
        {
          "internalType": "uint256",
          "name": "",
          "type": "uint256"
        }
      ],
      "stateMutability": "view",
      "type": "function"
    },
    {
      "inputs": [],
      "name": "PAUSABLE_AREXA_TOKEN",
      "outputs": [
        {
          "internalType": "bytes32",
          "name": "",
          "type": "bytes32"
        }
      ],
      "stateMutability": "view",
      "type": "function"
    },
    {
      "inputs": [],
      "name": "PAUSABLE_FULL",
      "outputs": [
        {
          "internalType": "bytes32",
          "name": "",
          "type": "bytes32"
        }
      ],
      "stateMutability": "view",
      "type": "function"
    },
    {
      "inputs": [],
      "name": "PAUSABLE_MAGIC_TOKEN",
      "outputs": [
        {
          "internalType": "bytes32",
          "name": "",
          "type": "bytes32"
        }
      ],
      "stateMutability": "view",
      "type": "function"
    },
    {
      "inputs": [],
      "name": "PAUSABLE_SUBSCR1_TOKEN",
      "outputs": [
        {
          "internalType": "bytes32",
          "name": "",
          "type": "bytes32"
        }
      ],
      "stateMutability": "view",
      "type": "function"
    },
    {
      "inputs": [],
      "name": "PAUSABLE_SUBSCR2_TOKEN",
      "outputs": [
        {
          "internalType": "bytes32",
          "name": "",
          "type": "bytes32"
        }
      ],
      "stateMutability": "view",
      "type": "function"
    },
    {
      "inputs": [],
      "name": "PAUSABLE_TRADER_TOKEN",
      "outputs": [
        {
          "internalType": "bytes32",
          "name": "",
          "type": "bytes32"
        }
      ],
      "stateMutability": "view",
      "type": "function"
    },
    {
      "inputs": [],
      "name": "QUANTITY_VALUE_TYPE",
      "outputs": [
        {
          "internalType": "uint8",
          "name": "",
          "type": "uint8"
        }
      ],
      "stateMutability": "view",
      "type": "function"
    },
    {
      "inputs": [],
      "name": "SUBSCR1_TOKEN_TYPE",
      "outputs": [
        {
          "internalType": "uint256",
          "name": "",
          "type": "uint256"
        }
      ],
      "stateMutability": "view",
      "type": "function"
    },
    {
      "inputs": [],
      "name": "SUBSCR2_TOKEN_TYPE",
      "outputs": [
        {
          "internalType": "uint256",
          "name": "",
          "type": "uint256"
        }
      ],
      "stateMutability": "view",
      "type": "function"
    },
    {
      "inputs": [],
      "name": "TRADER_TOKEN_ID",
      "outputs": [
        {
          "internalType": "uint256",
          "name": "",
          "type": "uint256"
        }
      ],
      "stateMutability": "view",
      "type": "function"
    },
    {
      "inputs": [
        {
          "internalType": "uint256",
          "name": "id",
          "type": "uint256"
        }
      ],
      "name": "accountsByToken",
      "outputs": [
        {
          "internalType": "address[]",
          "name": "",
          "type": "address[]"
        }
      ],
      "stateMutability": "view",
      "type": "function"
    },
    {
      "inputs": [
        {
          "internalType": "address",
          "name": "owner_",
          "type": "address"
        },
        {
          "internalType": "address",
          "name": "operator",
          "type": "address"
        },
        {
          "internalType": "uint256",
          "name": "id",
          "type": "uint256"
        }
      ],
      "name": "allowance",
      "outputs": [
        {
          "internalType": "uint256",
          "name": "",
          "type": "uint256"
        }
      ],
      "stateMutability": "view",
      "type": "function"
    },
    {
      "inputs": [
        {
          "internalType": "address",
          "name": "operator",
          "type": "address"
        },
        {
          "internalType": "uint256",
          "name": "id",
          "type": "uint256"
        },
        {
          "internalType": "uint256",
          "name": "currentValue",
          "type": "uint256"
        },
        {
          "internalType": "uint256",
          "name": "newValue",
          "type": "uint256"
        }
      ],
      "name": "approve",
      "outputs": [],
      "stateMutability": "nonpayable",
      "type": "function"
    },
    {
      "inputs": [
        {
          "internalType": "address",
          "name": "owner_",
          "type": "address"
        },
        {
          "internalType": "uint256",
          "name": "id",
          "type": "uint256"
        }
      ],
      "name": "balanceOf",
      "outputs": [
        {
          "internalType": "uint256",
          "name": "",
          "type": "uint256"
        }
      ],
      "stateMutability": "view",
      "type": "function"
    },
    {
      "inputs": [
        {
          "internalType": "address[]",
          "name": "owners",
          "type": "address[]"
        },
        {
          "internalType": "uint256[]",
          "name": "ids",
          "type": "uint256[]"
        }
      ],
      "name": "balanceOfBatch",
      "outputs": [
        {
          "internalType": "uint256[]",
          "name": "",
          "type": "uint256[]"
        }
      ],
      "stateMutability": "view",
      "type": "function"
    },
    {
      "inputs": [
        {
          "internalType": "uint128",
          "name": "value",
          "type": "uint128"
        },
        {
          "internalType": "uint8",
          "name": "valueType",
          "type": "uint8"
        }
      ],
      "name": "buyArexaToken",
      "outputs": [],
      "stateMutability": "nonpayable",
      "type": "function"
    },
    {
      "inputs": [
        {
          "internalType": "address",
          "name": "toAccount",
          "type": "address"
        },
        {
          "internalType": "uint128",
          "name": "value",
          "type": "uint128"
        },
        {
          "internalType": "uint8",
          "name": "valueType",
          "type": "uint8"
        },
        {
          "internalType": "uint16",
          "name": "discountPercent",
          "type": "uint16"
        }
      ],
      "name": "buyArexaTokenAdmin",
      "outputs": [],
      "stateMutability": "nonpayable",
      "type": "function"
    },
    {
      "inputs": [
        {
          "internalType": "uint32",
          "name": "quantity",
          "type": "uint32"
        }
      ],
      "name": "buyEdgeSubscription",
      "outputs": [],
      "stateMutability": "nonpayable",
      "type": "function"
    },
    {
      "inputs": [
        {
          "internalType": "address",
          "name": "toAccount",
          "type": "address"
        },
        {
          "internalType": "uint32",
          "name": "quantity",
          "type": "uint32"
        },
        {
          "internalType": "uint16",
          "name": "discountPercent",
          "type": "uint16"
        }
      ],
      "name": "buyEdgeSubscriptionAdmin",
      "outputs": [],
      "stateMutability": "nonpayable",
      "type": "function"
    },
    {
      "inputs": [],
      "name": "buyMagic100Token",
      "outputs": [],
      "stateMutability": "nonpayable",
      "type": "function"
    },
    {
      "inputs": [
        {
          "internalType": "address",
          "name": "toAccount",
          "type": "address"
        },
        {
          "internalType": "uint16",
          "name": "discountPercent",
          "type": "uint16"
        }
      ],
      "name": "buyMagic100TokenAdmin",
      "outputs": [],
      "stateMutability": "nonpayable",
      "type": "function"
    },
    {
      "inputs": [
        {
          "internalType": "uint32",
          "name": "quantity",
          "type": "uint32"
        }
      ],
      "name": "buyOracleSubscription",
      "outputs": [],
      "stateMutability": "nonpayable",
      "type": "function"
    },
    {
      "inputs": [
        {
          "internalType": "address",
          "name": "toAccount",
          "type": "address"
        },
        {
          "internalType": "uint32",
          "name": "quantity",
          "type": "uint32"
        },
        {
          "internalType": "uint16",
          "name": "discountPercent",
          "type": "uint16"
        }
      ],
      "name": "buyOracleSubscriptionAdmin",
      "outputs": [],
      "stateMutability": "nonpayable",
      "type": "function"
    },
    {
      "inputs": [
        {
          "internalType": "uint256",
          "name": "tokenId",
          "type": "uint256"
        },
        {
          "internalType": "uint32",
          "name": "quantity",
          "type": "uint32"
        }
      ],
      "name": "buySubscription",
      "outputs": [],
      "stateMutability": "nonpayable",
      "type": "function"
    },
    {
      "inputs": [
        {
          "internalType": "address",
          "name": "toAccount",
          "type": "address"
        },
        {
          "internalType": "uint256",
          "name": "tokenId",
          "type": "uint256"
        },
        {
          "internalType": "uint32",
          "name": "quantity",
          "type": "uint32"
        },
        {
          "internalType": "uint16",
          "name": "discountPercent",
          "type": "uint16"
        }
      ],
      "name": "buySubscriptionAdmin",
      "outputs": [],
      "stateMutability": "nonpayable",
      "type": "function"
    },
    {
      "inputs": [
        {
          "internalType": "uint128",
          "name": "value",
          "type": "uint128"
        },
        {
          "internalType": "uint8",
          "name": "valueType",
          "type": "uint8"
        }
      ],
      "name": "buyTraderToken",
      "outputs": [],
      "stateMutability": "nonpayable",
      "type": "function"
    },
    {
      "inputs": [
        {
          "internalType": "address",
          "name": "toAccount",
          "type": "address"
        },
        {
          "internalType": "uint128",
          "name": "value",
          "type": "uint128"
        },
        {
          "internalType": "uint8",
          "name": "valueType",
          "type": "uint8"
        },
        {
          "internalType": "uint16",
          "name": "discountPercent",
          "type": "uint16"
        }
      ],
      "name": "buyTraderTokenAdmin",
      "outputs": [],
      "stateMutability": "nonpayable",
      "type": "function"
    },
    {
      "inputs": [
        {
          "internalType": "address",
          "name": "account",
          "type": "address"
        }
      ],
      "name": "calcDivident",
      "outputs": [
        {
          "internalType": "int256",
          "name": "",
          "type": "int256"
        }
      ],
      "stateMutability": "view",
      "type": "function"
    },
    {
      "inputs": [
        {
          "internalType": "uint256",
          "name": "tokenId",
          "type": "uint256"
        },
        {
          "internalType": "uint32",
          "name": "quantity",
          "type": "uint32"
        }
      ],
      "name": "calcSubscriptionPrice",
      "outputs": [
        {
          "internalType": "uint256",
          "name": "",
          "type": "uint256"
        }
      ],
      "stateMutability": "view",
      "type": "function"
    },
    {
      "inputs": [
        {
          "internalType": "address",
          "name": "account",
          "type": "address"
        },
        {
          "internalType": "uint256",
          "name": "tokenId",
          "type": "uint256"
        },
        {
          "internalType": "uint256",
          "name": "amount",
          "type": "uint256"
        }
      ],
      "name": "calcUnrestrictedAmount",
      "outputs": [
        {
          "internalType": "uint256",
          "name": "",
          "type": "uint256"
        }
      ],
      "stateMutability": "view",
      "type": "function"
    },
    {
      "inputs": [
        {
          "internalType": "address",
          "name": "account",
          "type": "address"
        },
        {
          "internalType": "uint256",
          "name": "tokenId",
          "type": "uint256"
        },
        {
          "internalType": "uint256",
          "name": "amount",
          "type": "uint256"
        }
      ],
      "name": "checkRestriction",
      "outputs": [
        {
          "internalType": "bool",
          "name": "",
          "type": "bool"
        }
      ],
      "stateMutability": "view",
      "type": "function"
    },
    {
      "inputs": [
        {
          "internalType": "address",
          "name": "account",
          "type": "address"
        },
        {
          "internalType": "uint256[]",
          "name": "tokenIds",
          "type": "uint256[]"
        },
        {
          "internalType": "uint256[]",
          "name": "amounts",
          "type": "uint256[]"
        }
      ],
      "name": "checkRestrictions",
      "outputs": [
        {
          "internalType": "bool",
          "name": "",
          "type": "bool"
        }
      ],
      "stateMutability": "view",
      "type": "function"
    },
    {
      "inputs": [
        {
          "internalType": "uint256",
          "name": "tokenType",
          "type": "uint256"
        },
        {
          "internalType": "uint16",
          "name": "year",
          "type": "uint16"
        },
        {
          "internalType": "uint8",
          "name": "month",
          "type": "uint8"
        },
        {
          "internalType": "uint256",
          "name": "quantity",
          "type": "uint256"
        },
        {
          "internalType": "uint256",
          "name": "min",
          "type": "uint256"
        },
        {
          "internalType": "uint256",
          "name": "max",
          "type": "uint256"
        }
      ],
      "name": "createSubscription",
      "outputs": [
        {
          "internalType": "uint256",
          "name": "tokenId",
          "type": "uint256"
        }
      ],
      "stateMutability": "nonpayable",
      "type": "function"
    },
    {
      "inputs": [
        {
          "components": [
            {
              "internalType": "address",
              "name": "facetAddress",
              "type": "address"
            },
            {
              "internalType": "uint8",
              "name": "action",
              "type": "uint8"
            },
            {
              "internalType": "bytes4[]",
              "name": "functionSelectors",
              "type": "bytes4[]"
            }
          ],
          "internalType": "struct ArexaDiamondDummyImplementation.Tuple6871229[]",
          "name": "_diamondCut",
          "type": "tuple[]"
        },
        {
          "internalType": "address",
          "name": "_init",
          "type": "address"
        },
        {
          "internalType": "bytes",
          "name": "_calldata",
          "type": "bytes"
        }
      ],
      "name": "diamondCut",
      "outputs": [],
      "stateMutability": "nonpayable",
      "type": "function"
    },
    {
      "inputs": [
        {
          "internalType": "bytes4",
          "name": "_functionSelector",
          "type": "bytes4"
        }
      ],
      "name": "facetAddress",
      "outputs": [
        {
          "internalType": "address",
          "name": "facetAddress_",
          "type": "address"
        }
      ],
      "stateMutability": "view",
      "type": "function"
    },
    {
      "inputs": [],
      "name": "facetAddresses",
      "outputs": [
        {
          "internalType": "address[]",
          "name": "facetAddresses_",
          "type": "address[]"
        }
      ],
      "stateMutability": "view",
      "type": "function"
    },
    {
      "inputs": [
        {
          "internalType": "address",
          "name": "_facet",
          "type": "address"
        }
      ],
      "name": "facetFunctionSelectors",
      "outputs": [
        {
          "internalType": "bytes4[]",
          "name": "facetFunctionSelectors_",
          "type": "bytes4[]"
        }
      ],
      "stateMutability": "view",
      "type": "function"
    },
    {
      "inputs": [],
      "name": "facets",
      "outputs": [
        {
          "components": [
            {
              "internalType": "address",
              "name": "facetAddress",
              "type": "address"
            },
            {
              "internalType": "bytes4[]",
              "name": "functionSelectors",
              "type": "bytes4[]"
            }
          ],
          "internalType": "struct ArexaDiamondDummyImplementation.Tuple1236461[]",
          "name": "facets_",
          "type": "tuple[]"
        }
      ],
      "stateMutability": "view",
      "type": "function"
    },
    {
      "inputs": [
        {
          "internalType": "bytes32",
          "name": "target",
          "type": "bytes32"
        },
        {
          "internalType": "address",
          "name": "account",
          "type": "address"
        }
      ],
      "name": "getAccountBlackWhiteList",
      "outputs": [
        {
          "internalType": "bool",
          "name": "",
          "type": "bool"
        }
      ],
      "stateMutability": "view",
      "type": "function"
    },
    {
      "inputs": [],
      "name": "getArexaERC20Token",
      "outputs": [
        {
          "internalType": "address",
          "name": "",
          "type": "address"
        }
      ],
      "stateMutability": "view",
      "type": "function"
    },
    {
      "inputs": [
        {
          "internalType": "uint256",
          "name": "tokenId",
          "type": "uint256"
        }
      ],
      "name": "getArexaIncomeParameter",
      "outputs": [
        {
          "internalType": "uint32",
          "name": "pool",
          "type": "uint32"
        },
        {
          "internalType": "uint32",
          "name": "arexa",
          "type": "uint32"
        }
      ],
      "stateMutability": "view",
      "type": "function"
    },
    {
      "inputs": [
        {
          "internalType": "uint8",
          "name": "tokenType",
          "type": "uint8"
        }
      ],
      "name": "getArexaTokenPool",
      "outputs": [
        {
          "internalType": "uint256",
          "name": "total",
          "type": "uint256"
        },
        {
          "internalType": "uint256",
          "name": "sold",
          "type": "uint256"
        }
      ],
      "stateMutability": "view",
      "type": "function"
    },
    {
      "inputs": [
        {
          "internalType": "uint256",
          "name": "tokenType",
          "type": "uint256"
        }
      ],
      "name": "getCurrentSubscriptionTokenId",
      "outputs": [
        {
          "internalType": "uint256",
          "name": "",
          "type": "uint256"
        }
      ],
      "stateMutability": "view",
      "type": "function"
    },
    {
      "inputs": [],
      "name": "getInventory",
      "outputs": [
        {
          "internalType": "bool",
          "name": "isEnabled",
          "type": "bool"
        },
        {
          "internalType": "int256",
          "name": "sumQuantity",
          "type": "int256"
        },
        {
          "internalType": "int256",
          "name": "sumAmount",
          "type": "int256"
        },
        {
          "internalType": "int256",
          "name": "sumPnl",
          "type": "int256"
        }
      ],
      "stateMutability": "view",
      "type": "function"
    },
    {
      "inputs": [
        {
          "internalType": "address",
          "name": "account",
          "type": "address"
        }
      ],
      "name": "getInventoryItem",
      "outputs": [
        {
          "internalType": "int256",
          "name": "quantity",
          "type": "int256"
        },
        {
          "internalType": "int256",
          "name": "deltaPnl",
          "type": "int256"
        },
        {
          "internalType": "int256",
          "name": "payedPnl",
          "type": "int256"
        }
      ],
      "stateMutability": "view",
      "type": "function"
    },
    {
      "inputs": [
        {
          "internalType": "address",
          "name": "account",
          "type": "address"
        }
      ],
      "name": "getMagic100FirstBuyerWL",
      "outputs": [
        {
          "internalType": "bool",
          "name": "",
          "type": "bool"
        }
      ],
      "stateMutability": "view",
      "type": "function"
    },
    {
      "inputs": [],
      "name": "getPayingToken",
      "outputs": [
        {
          "internalType": "address",
          "name": "",
          "type": "address"
        }
      ],
      "stateMutability": "view",
      "type": "function"
    },
    {
      "inputs": [],
      "name": "getPoolAndArexaIncomeBalances",
      "outputs": [
        {
          "internalType": "uint256",
          "name": "pool",
          "type": "uint256"
        },
        {
          "internalType": "uint256",
          "name": "poolPaidOut",
          "type": "uint256"
        },
        {
          "internalType": "uint256",
          "name": "arexa",
          "type": "uint256"
        },
        {
          "internalType": "uint256",
          "name": "arexaPaidOut",
          "type": "uint256"
        }
      ],
      "stateMutability": "view",
      "type": "function"
    },
    {
      "inputs": [
        {
          "internalType": "bytes32",
          "name": "role",
          "type": "bytes32"
        }
      ],
      "name": "getRoleAdmin",
      "outputs": [
        {
          "internalType": "bytes32",
          "name": "",
          "type": "bytes32"
        }
      ],
      "stateMutability": "view",
      "type": "function"
    },
    {
      "inputs": [],
      "name": "getTokenBaseUri",
      "outputs": [
        {
          "internalType": "string",
          "name": "",
          "type": "string"
        }
      ],
      "stateMutability": "view",
      "type": "function"
    },
    {
      "inputs": [
        {
          "internalType": "uint256",
          "name": "id",
          "type": "uint256"
        }
      ],
      "name": "getTokenUri",
      "outputs": [
        {
          "internalType": "string",
          "name": "",
          "type": "string"
        }
      ],
      "stateMutability": "view",
      "type": "function"
    },
    {
      "inputs": [],
      "name": "getUri",
      "outputs": [
        {
          "internalType": "string",
          "name": "",
          "type": "string"
        }
      ],
      "stateMutability": "view",
      "type": "function"
    },
    {
      "inputs": [
        {
          "internalType": "bytes32",
          "name": "role",
          "type": "bytes32"
        },
        {
          "internalType": "address",
          "name": "account",
          "type": "address"
        }
      ],
      "name": "grantRole",
      "outputs": [],
      "stateMutability": "nonpayable",
      "type": "function"
    },
    {
      "inputs": [
        {
          "internalType": "bytes32",
          "name": "role",
          "type": "bytes32"
        },
        {
          "internalType": "address",
          "name": "account",
          "type": "address"
        }
      ],
      "name": "hasRole",
      "outputs": [
        {
          "internalType": "bool",
          "name": "",
          "type": "bool"
        }
      ],
      "stateMutability": "view",
      "type": "function"
    },
    {
      "inputs": [],
      "name": "implementation",
      "outputs": [
        {
          "internalType": "address",
          "name": "",
          "type": "address"
        }
      ],
      "stateMutability": "view",
      "type": "function"
    },
    {
      "inputs": [
        {
          "internalType": "address",
          "name": "owner_",
          "type": "address"
        },
        {
          "internalType": "address",
          "name": "operator",
          "type": "address"
        }
      ],
      "name": "isApprovedForAll",
      "outputs": [
        {
          "internalType": "bool",
          "name": "",
          "type": "bool"
        }
      ],
      "stateMutability": "view",
      "type": "function"
    },
    {
      "inputs": [
        {
          "internalType": "uint256",
          "name": "tokenId",
          "type": "uint256"
        }
      ],
      "name": "isOperatorSpendingLimitEnabled",
      "outputs": [
        {
          "internalType": "bool",
          "name": "",
          "type": "bool"
        }
      ],
      "stateMutability": "view",
      "type": "function"
    },
    {
      "inputs": [],
      "name": "name",
      "outputs": [
        {
          "internalType": "string",
          "name": "",
          "type": "string"
        }
      ],
      "stateMutability": "view",
      "type": "function"
    },
    {
      "inputs": [
        {
          "internalType": "address",
          "name": "operator",
          "type": "address"
        },
        {
          "internalType": "address",
          "name": "from",
          "type": "address"
        },
        {
          "internalType": "uint256[]",
          "name": "ids",
          "type": "uint256[]"
        },
        {
          "internalType": "uint256[]",
          "name": "values",
          "type": "uint256[]"
        },
        {
          "internalType": "bytes",
          "name": "data",
          "type": "bytes"
        }
      ],
      "name": "onERC1155BatchReceived",
      "outputs": [
        {
          "internalType": "bytes4",
          "name": "",
          "type": "bytes4"
        }
      ],
      "stateMutability": "nonpayable",
      "type": "function"
    },
    {
      "inputs": [
        {
          "internalType": "address",
          "name": "operator",
          "type": "address"
        },
        {
          "internalType": "address",
          "name": "from",
          "type": "address"
        },
        {
          "internalType": "uint256",
          "name": "id",
          "type": "uint256"
        },
        {
          "internalType": "uint256",
          "name": "value",
          "type": "uint256"
        },
        {
          "internalType": "bytes",
          "name": "data",
          "type": "bytes"
        }
      ],
      "name": "onERC1155Received",
      "outputs": [
        {
          "internalType": "bytes4",
          "name": "",
          "type": "bytes4"
        }
      ],
      "stateMutability": "nonpayable",
      "type": "function"
    },
    {
      "inputs": [],
      "name": "owner",
      "outputs": [
        {
          "internalType": "address",
          "name": "",
          "type": "address"
        }
      ],
      "stateMutability": "view",
      "type": "function"
    },
    {
      "inputs": [
        {
          "internalType": "bytes32",
          "name": "target",
          "type": "bytes32"
        }
      ],
      "name": "pause",
      "outputs": [],
      "stateMutability": "nonpayable",
      "type": "function"
    },
    {
      "inputs": [],
      "name": "pauseAllToken",
      "outputs": [],
      "stateMutability": "nonpayable",
      "type": "function"
    },
    {
      "inputs": [
        {
          "internalType": "uint256",
          "name": "tokenId",
          "type": "uint256"
        }
      ],
      "name": "pauseToken",
      "outputs": [],
      "stateMutability": "nonpayable",
      "type": "function"
    },
    {
      "inputs": [
        {
          "internalType": "bytes32",
          "name": "target",
          "type": "bytes32"
        }
      ],
      "name": "paused",
      "outputs": [
        {
          "internalType": "bool",
          "name": "",
          "type": "bool"
        }
      ],
      "stateMutability": "view",
      "type": "function"
    },
    {
      "inputs": [
        {
          "internalType": "uint8",
          "name": "poolType",
          "type": "uint8"
        },
        {
          "internalType": "address",
          "name": "account",
          "type": "address"
        },
        {
          "internalType": "uint32",
          "name": "quantity",
          "type": "uint32"
        }
      ],
      "name": "payArexaTokenFromPool",
      "outputs": [],
      "stateMutability": "nonpayable",
      "type": "function"
    },
    {
      "inputs": [
        {
          "internalType": "address",
          "name": "toAccount",
          "type": "address"
        },
        {
          "internalType": "uint256",
          "name": "value",
          "type": "uint256"
        }
      ],
      "name": "payoutArexaDivident",
      "outputs": [],
      "stateMutability": "nonpayable",
      "type": "function"
    },
    {
      "inputs": [
        {
          "internalType": "address",
          "name": "toAccount",
          "type": "address"
        },
        {
          "internalType": "uint256",
          "name": "value",
          "type": "uint256"
        }
      ],
      "name": "payoutArexaIncome",
      "outputs": [],
      "stateMutability": "nonpayable",
      "type": "function"
    },
    {
      "inputs": [
        {
          "internalType": "uint256",
          "name": "value",
          "type": "uint256"
        }
      ],
      "name": "payoutDivident",
      "outputs": [],
      "stateMutability": "nonpayable",
      "type": "function"
    },
    {
      "inputs": [
        {
          "internalType": "bytes32",
          "name": "role",
          "type": "bytes32"
        }
      ],
      "name": "renounceRole",
      "outputs": [],
      "stateMutability": "nonpayable",
      "type": "function"
    },
    {
      "inputs": [
        {
          "internalType": "bytes32",
          "name": "role",
          "type": "bytes32"
        },
        {
          "internalType": "address",
          "name": "account",
          "type": "address"
        }
      ],
      "name": "revokeRole",
      "outputs": [],
      "stateMutability": "nonpayable",
      "type": "function"
    },
    {
      "inputs": [
        {
          "internalType": "address",
          "name": "from",
          "type": "address"
        },
        {
          "internalType": "address",
          "name": "to",
          "type": "address"
        },
        {
          "internalType": "uint256[]",
          "name": "ids",
          "type": "uint256[]"
        },
        {
          "internalType": "uint256[]",
          "name": "values",
          "type": "uint256[]"
        },
        {
          "internalType": "bytes",
          "name": "data",
          "type": "bytes"
        }
      ],
      "name": "safeBatchTransferFrom",
      "outputs": [],
      "stateMutability": "nonpayable",
      "type": "function"
    },
    {
      "inputs": [
        {
          "internalType": "address",
          "name": "from",
          "type": "address"
        },
        {
          "internalType": "address",
          "name": "to",
          "type": "address"
        },
        {
          "internalType": "uint256",
          "name": "id",
          "type": "uint256"
        },
        {
          "internalType": "uint256",
          "name": "value",
          "type": "uint256"
        },
        {
          "internalType": "bytes",
          "name": "data",
          "type": "bytes"
        }
      ],
      "name": "safeTransferFrom",
      "outputs": [],
      "stateMutability": "nonpayable",
      "type": "function"
    },
    {
      "inputs": [
        {
          "internalType": "bytes32",
          "name": "target",
          "type": "bytes32"
        },
        {
          "internalType": "address",
          "name": "account",
          "type": "address"
        },
        {
          "internalType": "bool",
          "name": "lockValue",
          "type": "bool"
        }
      ],
      "name": "setAccountBlackWhiteList",
      "outputs": [],
      "stateMutability": "nonpayable",
      "type": "function"
    },
    {
      "inputs": [
        {
          "internalType": "address",
          "name": "operator",
          "type": "address"
        },
        {
          "internalType": "bool",
          "name": "approved",
          "type": "bool"
        }
      ],
      "name": "setApprovalForAll",
      "outputs": [],
      "stateMutability": "nonpayable",
      "type": "function"
    },
    {
      "inputs": [
        {
          "internalType": "uint256",
          "name": "tokenId",
          "type": "uint256"
        },
        {
          "internalType": "uint32",
          "name": "pool",
          "type": "uint32"
        },
        {
          "internalType": "uint32",
          "name": "arexa",
          "type": "uint32"
        }
      ],
      "name": "setArexaIncomeParameter",
      "outputs": [],
      "stateMutability": "nonpayable",
      "type": "function"
    },
    {
      "inputs": [
        {
          "internalType": "address[]",
          "name": "addresses",
          "type": "address[]"
        },
        {
          "internalType": "bool",
          "name": "lockValue",
          "type": "bool"
        }
      ],
      "name": "setBatchMagic100FirstBuyerWL",
      "outputs": [],
      "stateMutability": "nonpayable",
      "type": "function"
    },
    {
      "inputs": [
        {
          "internalType": "address",
          "name": "_implementation",
          "type": "address"
        }
      ],
      "name": "setDummyImplementation",
      "outputs": [],
      "stateMutability": "nonpayable",
      "type": "function"
    },
    {
      "inputs": [
        {
          "internalType": "address",
          "name": "account",
          "type": "address"
        },
        {
          "internalType": "bool",
          "name": "lockValue",
          "type": "bool"
        }
      ],
      "name": "setMagic100FirstBuyerWL",
      "outputs": [],
      "stateMutability": "nonpayable",
      "type": "function"
    },
    {
      "inputs": [
        {
          "internalType": "uint256",
          "name": "tokenId",
          "type": "uint256"
        },
        {
          "internalType": "bool",
          "name": "enabled",
          "type": "bool"
        }
      ],
      "name": "setOperatorSpendingLimitEnabled",
      "outputs": [],
      "stateMutability": "nonpayable",
      "type": "function"
    },
    {
      "inputs": [
        {
          "internalType": "address",
          "name": "token",
          "type": "address"
        }
      ],
      "name": "setPayingToken",
      "outputs": [],
      "stateMutability": "nonpayable",
      "type": "function"
    },
    {
      "inputs": [
        {
          "internalType": "bytes32",
          "name": "role",
          "type": "bytes32"
        },
        {
          "internalType": "bytes32",
          "name": "adminRole",
          "type": "bytes32"
        }
      ],
      "name": "setRoleAdmin",
      "outputs": [],
      "stateMutability": "nonpayable",
      "type": "function"
    },
    {
      "inputs": [
        {
          "internalType": "string",
          "name": "newuri",
          "type": "string"
        }
      ],
      "name": "setTokenBaseURI",
      "outputs": [],
      "stateMutability": "nonpayable",
      "type": "function"
    },
    {
      "inputs": [
        {
          "internalType": "uint256",
          "name": "id",
          "type": "uint256"
        },
        {
          "internalType": "string",
          "name": "newuri",
          "type": "string"
        }
      ],
      "name": "setTokenURI",
      "outputs": [],
      "stateMutability": "nonpayable",
      "type": "function"
    },
    {
      "inputs": [
        {
          "internalType": "string",
          "name": "newuri",
          "type": "string"
        }
      ],
      "name": "setURI",
      "outputs": [],
      "stateMutability": "nonpayable",
      "type": "function"
    },
    {
      "inputs": [
        {
          "internalType": "uint256",
          "name": "quantity",
          "type": "uint256"
        }
      ],
      "name": "stakeArexaToken",
      "outputs": [],
      "stateMutability": "nonpayable",
      "type": "function"
    },
    {
      "inputs": [
        {
          "internalType": "bytes4",
          "name": "_interfaceId",
          "type": "bytes4"
        }
      ],
      "name": "supportsInterface",
      "outputs": [
        {
          "internalType": "bool",
          "name": "",
          "type": "bool"
        }
      ],
      "stateMutability": "view",
      "type": "function"
    },
    {
      "inputs": [],
      "name": "symbol",
      "outputs": [
        {
          "internalType": "string",
          "name": "",
          "type": "string"
        }
      ],
      "stateMutability": "view",
      "type": "function"
    },
    {
      "inputs": [
        {
          "internalType": "address",
          "name": "account",
          "type": "address"
        }
      ],
      "name": "tokensByAccount",
      "outputs": [
        {
          "internalType": "uint256[]",
          "name": "",
          "type": "uint256[]"
        }
      ],
      "stateMutability": "view",
      "type": "function"
    },
    {
      "inputs": [
        {
          "internalType": "uint256",
          "name": "id",
          "type": "uint256"
        }
      ],
      "name": "totalHolders",
      "outputs": [
        {
          "internalType": "uint256",
          "name": "",
          "type": "uint256"
        }
      ],
      "stateMutability": "view",
      "type": "function"
    },
    {
      "inputs": [
        {
          "internalType": "uint256",
          "name": "id",
          "type": "uint256"
        }
      ],
      "name": "totalSupply",
      "outputs": [
        {
          "internalType": "uint256",
          "name": "",
          "type": "uint256"
        }
      ],
      "stateMutability": "view",
      "type": "function"
    },
    {
      "inputs": [
        {
          "internalType": "address",
          "name": "newOwner",
          "type": "address"
        }
      ],
      "name": "transferOwnership",
      "outputs": [],
      "stateMutability": "nonpayable",
      "type": "function"
    },
    {
      "inputs": [
        {
          "internalType": "bytes32",
          "name": "target",
          "type": "bytes32"
        }
      ],
      "name": "unpause",
      "outputs": [],
      "stateMutability": "nonpayable",
      "type": "function"
    },
    {
      "inputs": [],
      "name": "unpauseAllToken",
      "outputs": [],
      "stateMutability": "nonpayable",
      "type": "function"
    },
    {
      "inputs": [
        {
          "internalType": "uint256",
          "name": "tokenId",
          "type": "uint256"
        }
      ],
      "name": "unpauseToken",
      "outputs": [],
      "stateMutability": "nonpayable",
      "type": "function"
    },
    {
      "inputs": [
        {
          "internalType": "uint256",
          "name": "id",
          "type": "uint256"
        }
      ],
      "name": "uri",
      "outputs": [
        {
          "internalType": "string",
          "name": "",
          "type": "string"
        }
      ],
      "stateMutability": "view",
      "type": "function"
    },
    {
      "inputs": [
        {
          "internalType": "address",
          "name": "fromAccount",
          "type": "address"
        },
        {
          "internalType": "address",
          "name": "toAccount",
          "type": "address"
        },
        {
          "internalType": "uint256",
          "name": "quantity",
          "type": "uint256"
        }
      ],
      "name": "withdrawArexaToken",
      "outputs": [],
      "stateMutability": "nonpayable",
      "type": "function"
    }
  ],
  "bytecode": "0x608060405234801561001057600080fd5b5061313e806100206000396000f3fe608060405234801561001057600080fd5b50600436106106585760003560e01c8063776ab63411610351578063bc197c81116101c3578063dbc0b2ba1161010f578063f242432a116100ad578063f396f3d611610087578063f396f3d61461141f578063fbd395f81461143d578063fc4cffaa14611459578063ffc063b91461147557610658565b8063f242432a146113c9578063f2fde38b146113e5578063f33b89e51461140157610658565b8063e985e9c5116100e9578063e985e9c51461131d578063ea2fbed01461134d578063ed56531a1461137d578063f23a6e611461139957610658565b8063dbc0b2ba146112b0578063dbcc4d94146112ce578063dd5072b8146112ec57610658565b8063c8e5859c1161017c578063d19bcdf311610156578063d19bcdf31461123a578063d547741f14611258578063d5ddea0414611274578063da4732021461129257610658565b8063c8e5859c146111bc578063cd304355146111ec578063cdffacc61461120a57610658565b8063bc197c81146110e8578063bd85b03914611118578063be679d7c14611148578063c1c64f0f14611178578063c39aa07d14611182578063c676cdc11461119e57610658565b806391d148541161029d578063a4e8f6991161023b578063adfca15e11610215578063adfca15e14611049578063b227956014611079578063b762fcfc146110a9578063bb28a839146110c757610658565b8063a4e8f69914610fdd578063a87e458414610ffb578063abc16e771461101757610658565b80639de34b3b116102775780639de34b3b14610f555780639e9e466614610f73578063a0dcbb0314610fa3578063a22cb46514610fc157610658565b806391d1485414610ed6578063958e3ea814610f0657806395d89b4114610f3757610658565b806385bff2e71161030a5780638b940287116102e45780638b94028714610e645780638bb9c5bf14610e805780638da5cb5b14610e9c5780638ef79e9114610eba57610658565b806385bff2e714610de857806387ed85ac14610e185780638ad9134514610e3457610658565b8063776ab63414610d4e578063780ea57214610d6a5780637980d95714610d865780637a0ed62714610d905780637badc7c114610dae5780637dd06ce214610db857610658565b8063384b2c62116104ea5780635c60da1b116104365780636a4600ad116103d45780636dcfd841116103ae5780636dcfd84114610cb65780636f32f58614610ce657806372b88f1b14610d02578063775d832c14610d3257610658565b80636a4600ad14610c625780636a6128f414610c7e5780636c19e58814610c9a57610658565b80635ddb39de116104105780635ddb39de14610bec5780635fc86ab914610c0a57806361690b5014610c285780636442a5ed14610c4457610658565b80635c60da1b14610b7d5780635d7f850c14610b9b5780635da9751c14610bbc57610658565b80634f4df442116104a3578063550cb31d1161047d578063550cb31d14610af35780635953902514610b11578063598af9e714610b2f5780635aecf18914610b5f57610658565b80634f4df44214610a895780634f80ad2514610aa557806352ef6b2c14610ad557610658565b8063384b2c62146109c957806340cf0ba1146109e55780634793c49814610a015780634ba6348b14610a1f5780634e1273f414610a3b5780634e16fc8b14610a6b57610658565b80631791bf20116105a95780632db4e569116105625780632f2ff15d1161053c5780632f2ff15d146109575780632f4dae9f146109735780632f555d781461098f57806336b01423146109ab57610658565b80632db4e569146109015780632dc004341461091f5780632eb2c2d61461093b57610658565b80631791bf20146108315780631e4e0091146108615780631e5da67c1461087d5780631f931c1c1461089957806320cd9ae3146108b5578063248a9ca3146108d157610658565b8063065ab2ea1161061657806308e7f2c5116105f057806308e7f2c5146107975780630e89341c146107b557806313ba55df146107e5578063162094c41461081557610658565b8063065ab2ea1461072d57806306fdde031461075d5780630848818b1461077b57610658565b8062fdd58e1461065d57806301ffc9a71461068d57806302fe5305146106bd57806303d1229c146106d957806304526a17146106f557806305acb13014610711575b600080fd5b61067760048036038101906106729190611791565b611491565b60405161068491906117e0565b60405180910390f35b6106a760048036038101906106a29190611853565b611499565b6040516106b4919061189b565b60405180910390f35b6106d760048036038101906106d291906119fc565b6114a0565b005b6106f360048036038101906106ee9190611a81565b6114a3565b005b61070f600480360381019061070a9190611afb565b6114a7565b005b61072b60048036038101906107269190611b62565b6114ad565b005b61074760048036038101906107429190611bc8565b6114b0565b60405161075491906117e0565b60405180910390f35b6107656114bc565b6040516107729190611cd4565b60405180910390f35b61079560048036038101906107909190611cf6565b6114c1565b005b61079f6114c4565b6040516107ac9190611d32565b60405180910390f35b6107cf60048036038101906107ca9190611b62565b6114c9565b6040516107dc9190611cd4565b60405180910390f35b6107ff60048036038101906107fa9190611b62565b6114d0565b60405161080c91906117e0565b60405180910390f35b61082f600480360381019061082a9190611d4d565b6114d7565b005b61084b60048036038101906108469190611b62565b6114db565b60405161085891906117e0565b60405180910390f35b61087b60048036038101906108769190611ddf565b6114e2565b005b61089760048036038101906108929190611791565b6114e6565b005b6108b360048036038101906108ae91906120f3565b6114ea565b005b6108cf60048036038101906108ca91906121c6565b6114ef565b005b6108eb60048036038101906108e6919061222d565b6114f5565b6040516108f89190612269565b60405180910390f35b6109096114fc565b60405161091691906117e0565b60405180910390f35b61093960048036038101906109349190612284565b611501565b005b61095560048036038101906109509190612374565b611504565b005b610971600480360381019061096c9190612443565b61150b565b005b61098d6004803603810190610988919061222d565b61150f565b005b6109a960048036038101906109a49190612483565b611512565b005b6109b3611517565b6040516109c091906117e0565b60405180910390f35b6109e360048036038101906109de9190611791565b61151c565b005b6109ff60048036038101906109fa9190612502565b611520565b005b610a09611524565b604051610a169190612269565b60405180910390f35b610a396004803603810190610a349190612542565b611529565b005b610a556004803603810190610a509190612645565b61152d565b604051610a62919061277b565b60405180910390f35b610a73611535565b604051610a809190611cd4565b60405180910390f35b610aa36004803603810190610a9e919061279d565b61153a565b005b610abf6004803603810190610aba9190612443565b611540565b604051610acc919061189b565b60405180910390f35b610add611548565b604051610aea91906128c2565b60405180910390f35b610afb61154d565b604051610b089190612269565b60405180910390f35b610b19611552565b604051610b269190612269565b60405180910390f35b610b496004803603810190610b4491906128e4565b611557565b604051610b5691906117e0565b60405180910390f35b610b67611560565b604051610b749190611d32565b60405180910390f35b610b85611565565b604051610b929190612946565b60405180910390f35b610ba361156a565b604051610bb3949392919061297a565b60405180910390f35b610bd66004803603810190610bd191906129bf565b611575565b604051610be391906117e0565b60405180910390f35b610bf461157e565b604051610c019190612946565b60405180910390f35b610c12611583565b604051610c1f9190611d32565b60405180910390f35b610c426004803603810190610c3d9190612284565b611588565b005b610c4c61158b565b604051610c5991906117e0565b60405180910390f35b610c7c6004803603810190610c779190612a12565b611590565b005b610c986004803603810190610c939190612542565b611595565b005b610cb46004803603810190610caf9190612a65565b611599565b005b610cd06004803603810190610ccb9190611b62565b61159e565b604051610cdd91906128c2565b60405180910390f35b610d006004803603810190610cfb9190612483565b6115a5565b005b610d1c6004803603810190610d179190611a81565b6115aa565b604051610d2991906117e0565b60405180910390f35b610d4c6004803603810190610d479190612ab8565b6115b2565b005b610d686004803603810190610d639190611b62565b6115b6565b005b610d846004803603810190610d7f9190612af8565b6115b9565b005b610d8e6115be565b005b610d986115c0565b604051610da59190612d08565b60405180910390f35b610db66115c5565b005b610dd26004803603810190610dcd9190611cf6565b6115c7565b604051610ddf9190612d2a565b60405180910390f35b610e026004803603810190610dfd9190611cf6565b6115ce565b604051610e0f919061277b565b60405180910390f35b610e326004803603810190610e2d91906128e4565b6115d5565b005b610e4e6004803603810190610e499190611b62565b6115da565b604051610e5b9190611cd4565b60405180910390f35b610e7e6004803603810190610e799190611b62565b6115e1565b005b610e9a6004803603810190610e95919061222d565b6115e4565b005b610ea46115e7565b604051610eb19190612946565b60405180910390f35b610ed46004803603810190610ecf91906119fc565b6115ec565b005b610ef06004803603810190610eeb9190612443565b6115ef565b604051610efd919061189b565b60405180910390f35b610f206004803603810190610f1b9190611b62565b6115f7565b604051610f2e929190612d54565b60405180910390f35b610f3f6115ff565b604051610f4c9190611cd4565b60405180910390f35b610f5d611604565b604051610f6a9190612946565b60405180910390f35b610f8d6004803603810190610f88919061222d565b611609565b604051610f9a919061189b565b60405180910390f35b610fab611610565b604051610fb89190612269565b60405180910390f35b610fdb6004803603810190610fd69190612ab8565b611615565b005b610fe5611619565b604051610ff29190612269565b60405180910390f35b61101560048036038101906110109190612d7d565b61161e565b005b611031600480360381019061102c9190611cf6565b611622565b60405161104093929190612dbd565b60405180910390f35b611063600480360381019061105e9190611cf6565b61162e565b6040516110709190612e63565b60405180910390f35b611093600480360381019061108e9190612e85565b611635565b6040516110a0919061189b565b60405180910390f35b6110b161163e565b6040516110be9190611cd4565b60405180910390f35b6110cf611643565b6040516110df9493929190612f10565b60405180910390f35b61110260048036038101906110fd9190612374565b61164e565b60405161110f9190612f64565b60405180910390f35b611132600480360381019061112d9190611b62565b611659565b60405161113f91906117e0565b60405180910390f35b611162600480360381019061115d9190611cf6565b611660565b60405161116f919061189b565b60405180910390f35b611180611667565b005b61119c60048036038101906111979190611cf6565b611669565b005b6111a661166c565b6040516111b39190612269565b60405180910390f35b6111d660048036038101906111d191906129bf565b611671565b6040516111e3919061189b565b60405180910390f35b6111f461167a565b6040516112019190611d32565b60405180910390f35b611224600480360381019061121f9190611853565b61167f565b6040516112319190612946565b60405180910390f35b611242611686565b60405161124f9190611d32565b60405180910390f35b611272600480360381019061126d9190612443565b61168b565b005b61127c61168f565b6040516112899190611d32565b60405180910390f35b61129a611694565b6040516112a791906117e0565b60405180910390f35b6112b8611699565b6040516112c59190612269565b60405180910390f35b6112d661169e565b6040516112e39190611d32565b60405180910390f35b61130660048036038101906113019190612f7f565b6116a3565b604051611314929190612fac565b60405180910390f35b61133760048036038101906113329190612fd5565b6116ab565b604051611344919061189b565b60405180910390f35b61136760048036038101906113629190611b62565b6116b3565b604051611374919061189b565b60405180910390f35b6113976004803603810190611392919061222d565b6116ba565b005b6113b360048036038101906113ae9190613015565b6116bd565b6040516113c09190612f64565b60405180910390f35b6113e360048036038101906113de9190613015565b6116c8565b005b6113ff60048036038101906113fa9190611cf6565b6116cf565b005b6114096116d2565b6040516114169190612269565b60405180910390f35b6114276116d7565b60405161143491906117e0565b60405180910390f35b61145760048036038101906114529190611b62565b6116dc565b005b611473600480360381019061146e91906121c6565b6116df565b005b61148f600480360381019061148a91906130ac565b6116e5565b005b600092915050565b6000919050565b50565b5050565b50505050565b50565b60009695505050505050565b606090565b50565b600090565b6060919050565b6000919050565b5050565b6000919050565b5050565b5050565b505050565b50505050565b6000919050565b600090565b50565b5050505050565b5050565b50565b505050565b600090565b5050565b5050565b600090565b5050565b606092915050565b606090565b50505050565b600092915050565b606090565b600090565b600090565b60009392505050565b600090565b600090565b600080600080919293565b60009392505050565b600090565b600090565b50565b600090565b505050565b5050565b505050565b6060919050565b505050565b600092915050565b5050565b50565b505050565b565b606090565b565b6000919050565b6060919050565b505050565b6060919050565b50565b50565b600090565b50565b600092915050565b600080915091565b606090565b600090565b6000919050565b600090565b5050565b600090565b5050565b60008060009193909250565b6060919050565b60009392505050565b606090565b600080600080919293565b600095945050505050565b6000919050565b6000919050565b565b50565b600090565b60009392505050565b600090565b6000919050565b600090565b5050565b600090565b600090565b600090565b600090565b600080915091565b600092915050565b6000919050565b50565b600095945050505050565b5050505050565b50565b600090565b600090565b50565b50505050565b5050565b6000604051905090565b600080fd5b600080fd5b600073ffffffffffffffffffffffffffffffffffffffff82169050919050565b6000611728826116fd565b9050919050565b6117388161171d565b811461174357600080fd5b50565b6000813590506117558161172f565b92915050565b6000819050919050565b61176e8161175b565b811461177957600080fd5b50565b60008135905061178b81611765565b92915050565b600080604083850312156117a8576117a76116f3565b5b60006117b685828601611746565b92505060206117c78582860161177c565b9150509250929050565b6117da8161175b565b82525050565b60006020820190506117f560008301846117d1565b92915050565b60007fffffffff0000000000000000000000000000000000000000000000000000000082169050919050565b611830816117fb565b811461183b57600080fd5b50565b60008135905061184d81611827565b92915050565b600060208284031215611869576118686116f3565b5b60006118778482850161183e565b91505092915050565b60008115159050919050565b61189581611880565b82525050565b60006020820190506118b0600083018461188c565b92915050565b600080fd5b600080fd5b6000601f19601f8301169050919050565b7f4e487b7100000000000000000000000000000000000000000000000000000000600052604160045260246000fd5b611909826118c0565b810181811067ffffffffffffffff82111715611928576119276118d1565b5b80604052505050565b600061193b6116e9565b90506119478282611900565b919050565b600067ffffffffffffffff821115611967576119666118d1565b5b611970826118c0565b9050602081019050919050565b82818337600083830152505050565b600061199f61199a8461194c565b611931565b9050828152602081018484840111156119bb576119ba6118bb565b5b6119c684828561197d565b509392505050565b600082601f8301126119e3576119e26118b6565b5b81356119f384826020860161198c565b91505092915050565b600060208284031215611a1257611a116116f3565b5b600082013567ffffffffffffffff811115611a3057611a2f6116f8565b5b611a3c848285016119ce565b91505092915050565b600063ffffffff82169050919050565b611a5e81611a45565b8114611a6957600080fd5b50565b600081359050611a7b81611a55565b92915050565b60008060408385031215611a9857611a976116f3565b5b6000611aa68582860161177c565b9250506020611ab785828601611a6c565b9150509250929050565b600061ffff82169050919050565b611ad881611ac1565b8114611ae357600080fd5b50565b600081359050611af581611acf565b92915050565b60008060008060808587031215611b1557611b146116f3565b5b6000611b2387828801611746565b9450506020611b348782880161177c565b9350506040611b4587828801611a6c565b9250506060611b5687828801611ae6565b91505092959194509250565b600060208284031215611b7857611b776116f3565b5b6000611b868482850161177c565b91505092915050565b600060ff82169050919050565b611ba581611b8f565b8114611bb057600080fd5b50565b600081359050611bc281611b9c565b92915050565b60008060008060008060c08789031215611be557611be46116f3565b5b6000611bf389828a0161177c565b9650506020611c0489828a01611ae6565b9550506040611c1589828a01611bb3565b9450506060611c2689828a0161177c565b9350506080611c3789828a0161177c565b92505060a0611c4889828a0161177c565b9150509295509295509295565b600081519050919050565b600082825260208201905092915050565b60005b83811015611c8f578082015181840152602081019050611c74565b60008484015250505050565b6000611ca682611c55565b611cb08185611c60565b9350611cc0818560208601611c71565b611cc9816118c0565b840191505092915050565b60006020820190508181036000830152611cee8184611c9b565b905092915050565b600060208284031215611d0c57611d0b6116f3565b5b6000611d1a84828501611746565b91505092915050565b611d2c81611b8f565b82525050565b6000602082019050611d476000830184611d23565b92915050565b60008060408385031215611d6457611d636116f3565b5b6000611d728582860161177c565b925050602083013567ffffffffffffffff811115611d9357611d926116f8565b5b611d9f858286016119ce565b9150509250929050565b6000819050919050565b611dbc81611da9565b8114611dc757600080fd5b50565b600081359050611dd981611db3565b92915050565b60008060408385031215611df657611df56116f3565b5b6000611e0485828601611dca565b9250506020611e1585828601611dca565b9150509250929050565b600067ffffffffffffffff821115611e3a57611e396118d1565b5b602082029050602081019050919050565b600080fd5b600080fd5b600080fd5b600067ffffffffffffffff821115611e7557611e746118d1565b5b602082029050602081019050919050565b6000611e99611e9484611e5a565b611931565b90508083825260208201905060208402830185811115611ebc57611ebb611e4b565b5b835b81811015611ee55780611ed1888261183e565b845260208401935050602081019050611ebe565b5050509392505050565b600082601f830112611f0457611f036118b6565b5b8135611f14848260208601611e86565b91505092915050565b600060608284031215611f3357611f32611e50565b5b611f3d6060611931565b90506000611f4d84828501611746565b6000830152506020611f6184828501611bb3565b602083015250604082013567ffffffffffffffff811115611f8557611f84611e55565b5b611f9184828501611eef565b60408301525092915050565b6000611fb0611fab84611e1f565b611931565b90508083825260208201905060208402830185811115611fd357611fd2611e4b565b5b835b8181101561201a57803567ffffffffffffffff811115611ff857611ff76118b6565b5b8086016120058982611f1d565b85526020850194505050602081019050611fd5565b5050509392505050565b600082601f830112612039576120386118b6565b5b8135612049848260208601611f9d565b91505092915050565b600067ffffffffffffffff82111561206d5761206c6118d1565b5b612076826118c0565b9050602081019050919050565b600061209661209184612052565b611931565b9050828152602081018484840111156120b2576120b16118bb565b5b6120bd84828561197d565b509392505050565b600082601f8301126120da576120d96118b6565b5b81356120ea848260208601612083565b91505092915050565b60008060006060848603121561210c5761210b6116f3565b5b600084013567ffffffffffffffff81111561212a576121296116f8565b5b61213686828701612024565b935050602061214786828701611746565b925050604084013567ffffffffffffffff811115612168576121676116f8565b5b612174868287016120c5565b9150509250925092565b60006fffffffffffffffffffffffffffffffff82169050919050565b6121a38161217e565b81146121ae57600080fd5b50565b6000813590506121c08161219a565b92915050565b600080600080608085870312156121e0576121df6116f3565b5b60006121ee87828801611746565b94505060206121ff878288016121b1565b935050604061221087828801611bb3565b925050606061222187828801611ae6565b91505092959194509250565b600060208284031215612243576122426116f3565b5b600061225184828501611dca565b91505092915050565b61226381611da9565b82525050565b600060208201905061227e600083018461225a565b92915050565b60006020828403121561229a576122996116f3565b5b60006122a884828501611a6c565b91505092915050565b600067ffffffffffffffff8211156122cc576122cb6118d1565b5b602082029050602081019050919050565b60006122f06122eb846122b1565b611931565b9050808382526020820190506020840283018581111561231357612312611e4b565b5b835b8181101561233c5780612328888261177c565b845260208401935050602081019050612315565b5050509392505050565b600082601f83011261235b5761235a6118b6565b5b813561236b8482602086016122dd565b91505092915050565b600080600080600060a086880312156123905761238f6116f3565b5b600061239e88828901611746565b95505060206123af88828901611746565b945050604086013567ffffffffffffffff8111156123d0576123cf6116f8565b5b6123dc88828901612346565b935050606086013567ffffffffffffffff8111156123fd576123fc6116f8565b5b61240988828901612346565b925050608086013567ffffffffffffffff81111561242a576124296116f8565b5b612436888289016120c5565b9150509295509295909350565b6000806040838503121561245a576124596116f3565b5b600061246885828601611dca565b925050602061247985828601611746565b9150509250929050565b60008060006060848603121561249c5761249b6116f3565b5b60006124aa86828701611746565b93505060206124bb86828701611a6c565b92505060406124cc86828701611ae6565b9150509250925092565b6124df81611880565b81146124ea57600080fd5b50565b6000813590506124fc816124d6565b92915050565b60008060408385031215612519576125186116f3565b5b60006125278582860161177c565b9250506020612538858286016124ed565b9150509250929050565b60008060408385031215612559576125586116f3565b5b6000612567858286016121b1565b925050602061257885828601611bb3565b9150509250929050565b600067ffffffffffffffff82111561259d5761259c6118d1565b5b602082029050602081019050919050565b60006125c16125bc84612582565b611931565b905080838252602082019050602084028301858111156125e4576125e3611e4b565b5b835b8181101561260d57806125f98882611746565b8452602084019350506020810190506125e6565b5050509392505050565b600082601f83011261262c5761262b6118b6565b5b813561263c8482602086016125ae565b91505092915050565b6000806040838503121561265c5761265b6116f3565b5b600083013567ffffffffffffffff81111561267a576126796116f8565b5b61268685828601612617565b925050602083013567ffffffffffffffff8111156126a7576126a66116f8565b5b6126b385828601612346565b9150509250929050565b600081519050919050565b600082825260208201905092915050565b6000819050602082019050919050565b6126f28161175b565b82525050565b600061270483836126e9565b60208301905092915050565b6000602082019050919050565b6000612728826126bd565b61273281856126c8565b935061273d836126d9565b8060005b8381101561276e57815161275588826126f8565b975061276083612710565b925050600181019050612741565b5085935050505092915050565b60006020820190508181036000830152612795818461271d565b905092915050565b600080600080608085870312156127b7576127b66116f3565b5b60006127c587828801611746565b94505060206127d68782880161177c565b93505060406127e78782880161177c565b92505060606127f88782880161177c565b91505092959194509250565b600081519050919050565b600082825260208201905092915050565b6000819050602082019050919050565b6128398161171d565b82525050565b600061284b8383612830565b60208301905092915050565b6000602082019050919050565b600061286f82612804565b612879818561280f565b935061288483612820565b8060005b838110156128b557815161289c888261283f565b97506128a783612857565b925050600181019050612888565b5085935050505092915050565b600060208201905081810360008301526128dc8184612864565b905092915050565b6000806000606084860312156128fd576128fc6116f3565b5b600061290b86828701611746565b935050602061291c86828701611746565b925050604061292d8682870161177c565b9150509250925092565b6129408161171d565b82525050565b600060208201905061295b6000830184612937565b92915050565b6000819050919050565b61297481612961565b82525050565b600060808201905061298f600083018761188c565b61299c602083018661296b565b6129a9604083018561296b565b6129b6606083018461296b565b95945050505050565b6000806000606084860312156129d8576129d76116f3565b5b60006129e686828701611746565b93505060206129f78682870161177c565b9250506040612a088682870161177c565b9150509250925092565b600080600060608486031215612a2b57612a2a6116f3565b5b6000612a398682870161177c565b9350506020612a4a86828701611a6c565b9250506040612a5b86828701611a6c565b9150509250925092565b600080600060608486031215612a7e57612a7d6116f3565b5b6000612a8c86828701611dca565b9350506020612a9d86828701611746565b9250506040612aae868287016124ed565b9150509250925092565b60008060408385031215612acf57612ace6116f3565b5b6000612add85828601611746565b9250506020612aee858286016124ed565b9150509250929050565b600080600060608486031215612b1157612b106116f3565b5b6000612b1f86828701611bb3565b9350506020612b3086828701611746565b9250506040612b4186828701611a6c565b9150509250925092565b600081519050919050565b600082825260208201905092915050565b6000819050602082019050919050565b600081519050919050565b600082825260208201905092915050565b6000819050602082019050919050565b612bac816117fb565b82525050565b6000612bbe8383612ba3565b60208301905092915050565b6000602082019050919050565b6000612be282612b77565b612bec8185612b82565b9350612bf783612b93565b8060005b83811015612c28578151612c0f8882612bb2565b9750612c1a83612bca565b925050600181019050612bfb565b5085935050505092915050565b6000604083016000830151612c4d6000860182612830565b5060208301518482036020860152612c658282612bd7565b9150508091505092915050565b6000612c7e8383612c35565b905092915050565b6000602082019050919050565b6000612c9e82612b4b565b612ca88185612b56565b935083602082028501612cba85612b67565b8060005b85811015612cf65784840389528151612cd78582612c72565b9450612ce283612c86565b925060208a01995050600181019050612cbe565b50829750879550505050505092915050565b60006020820190508181036000830152612d228184612c93565b905092915050565b6000602082019050612d3f600083018461296b565b92915050565b612d4e81611a45565b82525050565b6000604082019050612d696000830185612d45565b612d766020830184612d45565b9392505050565b60008060408385031215612d9457612d936116f3565b5b6000612da285828601611746565b9250506020612db385828601611ae6565b9150509250929050565b6000606082019050612dd2600083018661296b565b612ddf602083018561296b565b612dec604083018461296b565b949350505050565b600082825260208201905092915050565b6000612e1082612b77565b612e1a8185612df4565b9350612e2583612b93565b8060005b83811015612e56578151612e3d8882612bb2565b9750612e4883612bca565b925050600181019050612e29565b5085935050505092915050565b60006020820190508181036000830152612e7d8184612e05565b905092915050565b600080600060608486031215612e9e57612e9d6116f3565b5b6000612eac86828701611746565b935050602084013567ffffffffffffffff811115612ecd57612ecc6116f8565b5b612ed986828701612346565b925050604084013567ffffffffffffffff811115612efa57612ef96116f8565b5b612f0686828701612346565b9150509250925092565b6000608082019050612f2560008301876117d1565b612f3260208301866117d1565b612f3f60408301856117d1565b612f4c60608301846117d1565b95945050505050565b612f5e816117fb565b82525050565b6000602082019050612f796000830184612f55565b92915050565b600060208284031215612f9557612f946116f3565b5b6000612fa384828501611bb3565b91505092915050565b6000604082019050612fc160008301856117d1565b612fce60208301846117d1565b9392505050565b60008060408385031215612fec57612feb6116f3565b5b6000612ffa85828601611746565b925050602061300b85828601611746565b9150509250929050565b600080600080600060a08688031215613031576130306116f3565b5b600061303f88828901611746565b955050602061305088828901611746565b94505060406130618882890161177c565b93505060606130728882890161177c565b925050608086013567ffffffffffffffff811115613093576130926116f8565b5b61309f888289016120c5565b9150509295509295909350565b600080604083850312156130c3576130c26116f3565b5b600083013567ffffffffffffffff8111156130e1576130e06116f8565b5b6130ed85828601612617565b92505060206130fe858286016124ed565b915050925092905056fea264697066735822122089af879e0fa59629405ffc42b06a062c1fb03bab06a9712e0696ef5b348d8cae64736f6c63430008110033",
  "linkReferences": {},
  "deployedLinkReferences": {}
}