{
  "address": "0xa5b55BEDd61C7426463d9587F8eC967570273920",
  "abi": [
    {
      "inputs": [],
      "stateMutability": "nonpayable",
      "type": "constructor"
    },
    {
      "inputs": [],
      "name": "AddressUtils__NotContract",
      "type": "error"
    },
    {
      "inputs": [],
      "name": "LibERC1155__ArrayLengthMismatch",
      "type": "error"
    },
    {
      "inputs": [],
      "name": "LibERC1155__BalanceQueryZeroAddress",
      "type": "error"
    },
    {
      "inputs": [],
      "name": "LibERC1155__ERC1155ReceiverNotImplemented",
      "type": "error"
    },
    {
      "inputs": [],
      "name": "LibERC1155__ERC1155ReceiverRejected",
      "type": "error"
    },
    {
      "inputs": [],
      "name": "LibERC1155__MintToZeroAddress",
      "type": "error"
    },
    {
      "inputs": [],
      "name": "LibERC1155__NotOwnerOrApproved",
      "type": "error"
    },
    {
      "inputs": [],
      "name": "LibERC1155__NotOwnerOrApprovedLimit",
      "type": "error"
    },
    {
      "inputs": [],
      "name": "LibERC1155__TransferExceedsBalance",
      "type": "error"
    },
    {
      "inputs": [],
      "name": "LibERC1155__TransferToZeroAddress",
      "type": "error"
    },
    {
      "inputs": [
        {
          "internalType": "address",
          "name": "token",
          "type": "address"
        }
      ],
      "name": "SafeERC20FailedOperation",
      "type": "error"
    },
    {
      "inputs": [],
      "name": "TargetedPausable__TargetedPaused",
      "type": "error"
    },
    {
      "inputs": [],
      "name": "AMOUNT_VALUE_TYPE",
      "outputs": [
        {
          "internalType": "uint8",
          "name": "",
          "type": "uint8"
        }
      ],
      "stateMutability": "view",
      "type": "function"
    },
    {
      "inputs": [],
      "name": "AREXA_TOKEN_ID",
      "outputs": [
        {
          "internalType": "uint256",
          "name": "",
          "type": "uint256"
        }
      ],
      "stateMutability": "view",
      "type": "function"
    },
    {
      "inputs": [],
      "name": "AREXA_TOKEN_POOL_AREXAINC",
      "outputs": [
        {
          "internalType": "uint8",
          "name": "",
          "type": "uint8"
        }
      ],
      "stateMutability": "view",
      "type": "function"
    },
    {
      "inputs": [],
      "name": "AREXA_TOKEN_POOL_DEVELOPMENT",
      "outputs": [
        {
          "internalType": "uint8",
          "name": "",
          "type": "uint8"
        }
      ],
      "stateMutability": "view",
      "type": "function"
    },
    {
      "inputs": [],
      "name": "AREXA_TOKEN_POOL_INVESTOR",
      "outputs": [
        {
          "internalType": "uint8",
          "name": "",
          "type": "uint8"
        }
      ],
      "stateMutability": "view",
      "type": "function"
    },
    {
      "inputs": [],
      "name": "AREXA_TOKEN_POOL_MARKETING",
      "outputs": [
        {
          "internalType": "uint8",
          "name": "",
          "type": "uint8"
        }
      ],
      "stateMutability": "view",
      "type": "function"
    },
    {
      "inputs": [],
      "name": "AREXA_TOKEN_POOL_RESERVED",
      "outputs": [
        {
          "internalType": "uint8",
          "name": "",
          "type": "uint8"
        }
      ],
      "stateMutability": "view",
      "type": "function"
    },
    {
      "inputs": [],
      "name": "MAGIC_TOKEN_ID",
      "outputs": [
        {
          "internalType": "uint256",
          "name": "",
          "type": "uint256"
        }
      ],
      "stateMutability": "view",
      "type": "function"
    },
    {
      "inputs": [],
      "name": "QUANTITY_VALUE_TYPE",
      "outputs": [
        {
          "internalType": "uint8",
          "name": "",
          "type": "uint8"
        }
      ],
      "stateMutability": "view",
      "type": "function"
    },
    {
      "inputs": [],
      "name": "SUBSCR1_TOKEN_TYPE",
      "outputs": [
        {
          "internalType": "uint256",
          "name": "",
          "type": "uint256"
        }
      ],
      "stateMutability": "view",
      "type": "function"
    },
    {
      "inputs": [],
      "name": "SUBSCR2_TOKEN_TYPE",
      "outputs": [
        {
          "internalType": "uint256",
          "name": "",
          "type": "uint256"
        }
      ],
      "stateMutability": "view",
      "type": "function"
    },
    {
      "inputs": [],
      "name": "TRADER_TOKEN_ID",
      "outputs": [
        {
          "internalType": "uint256",
          "name": "",
          "type": "uint256"
        }
      ],
      "stateMutability": "view",
      "type": "function"
    },
    {
      "inputs": [
        {
          "internalType": "uint128",
          "name": "value",
          "type": "uint128"
        },
        {
          "internalType": "uint8",
          "name": "valueType",
          "type": "uint8"
        }
      ],
      "name": "buyArexaToken",
      "outputs": [],
      "stateMutability": "nonpayable",
      "type": "function"
    },
    {
      "inputs": [
        {
          "internalType": "uint32",
          "name": "quantity",
          "type": "uint32"
        }
      ],
      "name": "buyEdgeSubscription",
      "outputs": [],
      "stateMutability": "nonpayable",
      "type": "function"
    },
    {
      "inputs": [],
      "name": "buyMagic100Token",
      "outputs": [],
      "stateMutability": "nonpayable",
      "type": "function"
    },
    {
      "inputs": [
        {
          "internalType": "uint32",
          "name": "quantity",
          "type": "uint32"
        }
      ],
      "name": "buyOracleSubscription",
      "outputs": [],
      "stateMutability": "nonpayable",
      "type": "function"
    },
    {
      "inputs": [
        {
          "internalType": "uint256",
          "name": "tokenId",
          "type": "uint256"
        },
        {
          "internalType": "uint32",
          "name": "quantity",
          "type": "uint32"
        }
      ],
      "name": "buySubscription",
      "outputs": [],
      "stateMutability": "nonpayable",
      "type": "function"
    },
    {
      "inputs": [
        {
          "internalType": "uint128",
          "name": "value",
          "type": "uint128"
        },
        {
          "internalType": "uint8",
          "name": "valueType",
          "type": "uint8"
        }
      ],
      "name": "buyTraderToken",
      "outputs": [],
      "stateMutability": "nonpayable",
      "type": "function"
    },
    {
      "inputs": [
        {
          "internalType": "uint256",
          "name": "tokenId",
          "type": "uint256"
        },
        {
          "internalType": "uint32",
          "name": "quantity",
          "type": "uint32"
        }
      ],
      "name": "calcSubscriptionPrice",
      "outputs": [
        {
          "internalType": "uint256",
          "name": "",
          "type": "uint256"
        }
      ],
      "stateMutability": "view",
      "type": "function"
    },
    {
      "inputs": [
        {
          "internalType": "uint256",
          "name": "tokenType",
          "type": "uint256"
        }
      ],
      "name": "getCurrentSubscriptionTokenId",
      "outputs": [
        {
          "internalType": "uint256",
          "name": "",
          "type": "uint256"
        }
      ],
      "stateMutability": "view",
      "type": "function"
    }
  ],
  "transactionHash": "0xb782477022268de29a78a8e4ba71c1e03de46934b9ba277ff452d97e0925a944",
  "args": [],
  "numDeployments": 1,
  "solcInputHash": "9c8273fcbae0c12a6f769fdfe4e4a9be",
  "bytecode": "0x608060405234801561001057600080fd5b50614a49806100206000396000f3fe608060405234801561001057600080fd5b506004361061012c5760003560e01c80636442a5ed116100ad578063d19bcdf311610071578063d19bcdf3146102f9578063d5ddea0414610317578063da47320214610335578063dbcc4d9414610353578063f396f3d6146103715761012c565b80636442a5ed146102675780636a6128f41461028557806372b88f1b146102a1578063c1c64f0f146102d1578063cd304355146102db5761012c565b806336b01423116100f457806336b01423146101d55780634ba6348b146101f35780635aecf1891461020f5780635fc86ab91461022d57806361690b501461024b5761012c565b806303d1229c1461013157806308e7f2c51461014d5780631791bf201461016b5780632db4e5691461019b5780632dc00434146101b9575b600080fd5b61014b600480360381019061014691906135b7565b61038f565b005b610155610421565b6040516101629190613613565b60405180910390f35b6101856004803603810190610180919061362e565b610426565b604051610192919061366a565b60405180910390f35b6101a36104ad565b6040516101b0919061366a565b60405180910390f35b6101d360048036038101906101ce9190613685565b6104b5565b005b6101dd610558565b6040516101ea919061366a565b60405180910390f35b61020d60048036038101906102089190613726565b610560565b005b6102176105f2565b6040516102249190613613565b60405180910390f35b6102356105f7565b6040516102429190613613565b60405180910390f35b61026560048036038101906102609190613685565b6105fc565b005b61026f61069f565b60405161027c919061366a565b60405180910390f35b61029f600480360381019061029a9190613726565b6106a7565b005b6102bb60048036038101906102b691906135b7565b61073a565b6040516102c8919061366a565b60405180910390f35b6102d96107c3565b005b6102e361093c565b6040516102f09190613613565b60405180910390f35b610301610941565b60405161030e9190613613565b60405180910390f35b61031f610946565b60405161032c9190613613565b60405180910390f35b61033d61094b565b60405161034a919061366a565b60405180910390f35b61035b610953565b6040516103689190613613565b60405180910390f35b610379610958565b604051610386919061366a565b60405180910390f35b610397610960565b73ffffffffffffffffffffffffffffffffffffffff163073ffffffffffffffffffffffffffffffffffffffff1614610404576040517f08c379a00000000000000000000000000000000000000000000000000000000081526004016103fb906137c3565b60405180910390fd5b6000801b61041181610998565b61041c8333846109db565b505050565b600581565b6000610430610960565b73ffffffffffffffffffffffffffffffffffffffff163073ffffffffffffffffffffffffffffffffffffffff161461049d576040517f08c379a0000000000000000000000000000000000000000000000000000000008152600401610494906137c3565b60405180910390fd5b6104a682610a8c565b9050919050565b631dcd650081565b6104bd610960565b73ffffffffffffffffffffffffffffffffffffffff163073ffffffffffffffffffffffffffffffffffffffff161461052a576040517f08c379a0000000000000000000000000000000000000000000000000000000008152600401610521906137c3565b60405180910390fd5b6000801b61053781610998565b6000610546630bebc200610a8c565b90506105538133856109db565b505050565b6317d7840081565b610568610960565b73ffffffffffffffffffffffffffffffffffffffff163073ffffffffffffffffffffffffffffffffffffffff16146105d5576040517f08c379a00000000000000000000000000000000000000000000000000000000081526004016105cc906137c3565b60405180910390fd5b6000801b6105e281610998565b6105ed338484610ab7565b505050565b600081565b600481565b610604610960565b73ffffffffffffffffffffffffffffffffffffffff163073ffffffffffffffffffffffffffffffffffffffff1614610671576040517f08c379a0000000000000000000000000000000000000000000000000000000008152600401610668906137c3565b60405180910390fd5b6000801b61067e81610998565b600061068d6305f5e100610a8c565b905061069a8133856109db565b505050565b630bebc20081565b6106af610960565b73ffffffffffffffffffffffffffffffffffffffff163073ffffffffffffffffffffffffffffffffffffffff161461071c576040517f08c379a0000000000000000000000000000000000000000000000000000000008152600401610713906137c3565b60405180910390fd5b6000801b61072981610998565b61073533338585610e64565b505050565b6000610744610960565b73ffffffffffffffffffffffffffffffffffffffff163073ffffffffffffffffffffffffffffffffffffffff16146107b1576040517f08c379a00000000000000000000000000000000000000000000000000000000081526004016107a8906137c3565b60405180910390fd5b6107bb838361115e565b905092915050565b6107cb610960565b73ffffffffffffffffffffffffffffffffffffffff163073ffffffffffffffffffffffffffffffffffffffff1614610838576040517f08c379a000000000000000000000000000000000000000000000000000000000815260040161082f906137c3565b60405180910390fd5b6000801b61084581610998565b61086f7f6d6775b5e502c1f5932b823e8901beec555ffec897aad6fd00846e01363884c833611178565b6108ae576040517f08c379a00000000000000000000000000000000000000000000000000000000081526004016108a590613855565b60405180910390fd5b6108da7f6d6775b5e502c1f5932b823e8901beec555ffec897aad6fd00846e01363884c83360006111ee565b60006108ea33631dcd65006112b9565b90506000811461092f576040517f08c379a0000000000000000000000000000000000000000000000000000000008152600401610926906138e7565b60405180910390fd5b61093833611388565b5050565b600381565b600281565b600181565b6311e1a30081565b600181565b6305f5e10081565b60008061096b6114bb565b90508060000160009054906101000a900473ffffffffffffffffffffffffffffffffffffffff1691505090565b6109a1816114e8565b156109d8576040517f2d0a436a00000000000000000000000000000000000000000000000000000000815260040160405180910390fd5b50565b60006109e561151b565b905060006109f9858463ffffffff16611548565b90506000610a05610960565b9050610a378360020160009054906101000a900473ffffffffffffffffffffffffffffffffffffffff168683856115e2565b60006305f5e1008088610a4a9190613965565b610a549190613996565b9050610a6081846116ed565b610a838283888a8963ffffffff1660405180602001604052806000815250611823565b50505050505050565b600080610a9761151b565b905080600501600084815260200190815260200160002054915050919050565b60008160ff161480610acc575060018160ff16145b610b0b576040517f08c379a0000000000000000000000000000000000000000000000000000000008152600401610b0290613a24565b60405180910390fd5b6000610b1561151b565b905060008160020160009054906101000a900473ffffffffffffffffffffffffffffffffffffffff1673ffffffffffffffffffffffffffffffffffffffff1663313ce5676040518163ffffffff1660e01b8152600401602060405180830381865afa158015610b88573d6000803e3d6000fd5b505050506040513d601f19601f82011682018060405250810190610bac9190613a59565b600a610bb89190613bb9565b90506000600a90506000600a60018385610bd29190613996565b610bdc9190613996565b610be69190613965565b905060008060018760ff1603610cb257600a60058585600a8c610c099190613c04565b6fffffffffffffffffffffffffffffffff16610c259190613996565b610c2f9190613965565b610c399190613c41565b610c439190613965565b9150828483610c529190613996565b610c5c9190613965565b9050600082118015610c6e5750600081115b610cad576040517f08c379a0000000000000000000000000000000000000000000000000000000008152600401610ca490613ce7565b60405180910390fd5b610d46565b8284896fffffffffffffffffffffffffffffffff16610cd19190613996565b610cdb9190613965565b9050838382610cea9190613996565b610cf49190613965565b9150600082118015610d065750600081115b610d45576040517f08c379a0000000000000000000000000000000000000000000000000000000008152600401610d3c90613d79565b60405180910390fd5b5b6000866000016000600160ff1660ff16815260200190815260200160002090508060000154828260010154610d7b9190613c41565b1115610dbc576040517f08c379a0000000000000000000000000000000000000000000000000000000008152600401610db390613de5565b60405180910390fd5b818160010154610dcc9190613c41565b81600101819055506000610dde610960565b9050610e108860020160009054906101000a900473ffffffffffffffffffffffffffffffffffffffff168c83876115e2565b610e1e6317d78400856116ed565b610e3f81828d6317d784008760405180602001604052806000815250611823565b828860070154610e4f9190613c41565b88600701819055505050505050505050505050565b60008160ff161480610e79575060018160ff16145b610eb8576040517f08c379a0000000000000000000000000000000000000000000000000000000008152600401610eaf90613a24565b60405180910390fd5b6000610ec261151b565b905060008160020160009054906101000a900473ffffffffffffffffffffffffffffffffffffffff1673ffffffffffffffffffffffffffffffffffffffff1663313ce5676040518163ffffffff1660e01b8152600401602060405180830381865afa158015610f35573d6000803e3d6000fd5b505050506040513d601f19601f82011682018060405250810190610f599190613a59565b600a610f659190613bb9565b90506000600a9050600060018284610f7d9190613996565b610f879190613996565b905060008060018760ff160361105357600a60058585600a8c610faa9190613c04565b6fffffffffffffffffffffffffffffffff16610fc69190613996565b610fd09190613965565b610fda9190613c41565b610fe49190613965565b9150828483610ff39190613996565b610ffd9190613965565b905060008211801561100f5750600081115b61104e576040517f08c379a000000000000000000000000000000000000000000000000000000000815260040161104590613e77565b60405180910390fd5b6110e7565b8284896fffffffffffffffffffffffffffffffff166110729190613996565b61107c9190613965565b905083838261108b9190613996565b6110959190613965565b91506000821180156110a75750600081115b6110e6576040517f08c379a00000000000000000000000000000000000000000000000000000000081526004016110dd90613f09565b60405180910390fd5b5b60006110f1610960565b90506111238760020160009054906101000a900473ffffffffffffffffffffffffffffffffffffffff168b83866115e2565b6111316311e1a300846116ed565b6111518b8b6311e1a3008560405180602001604052806000815250611c4e565b5050505050505050505050565b6000611170838363ffffffff16611e03565b905092915050565b600080611183611e3d565b905080600001600085815260200190815260200160002060008473ffffffffffffffffffffffffffffffffffffffff1673ffffffffffffffffffffffffffffffffffffffff16815260200190815260200160002060009054906101000a900460ff1691505092915050565b60006111f8611e3d565b90508181600001600086815260200190815260200160002060008573ffffffffffffffffffffffffffffffffffffffff1673ffffffffffffffffffffffffffffffffffffffff16815260200190815260200160002060006101000a81548160ff0219169083151502179055508273ffffffffffffffffffffffffffffffffffffffff16847f696f1e09104a0bef7512faf461f1a6962c3c8151a4d5979d4fdfa5112fccc519846040516112ab9190613f44565b60405180910390a350505050565b60008073ffffffffffffffffffffffffffffffffffffffff168373ffffffffffffffffffffffffffffffffffffffff1603611320576040517f4a772c2700000000000000000000000000000000000000000000000000000000815260040160405180910390fd5b600061132a611e6a565b905080600001600084815260200190815260200160002060008573ffffffffffffffffffffffffffffffffffffffff1673ffffffffffffffffffffffffffffffffffffffff1681526020019081526020016000205491505092915050565b600061139261151b565b905060008160020160009054906101000a900473ffffffffffffffffffffffffffffffffffffffff1673ffffffffffffffffffffffffffffffffffffffff1663313ce5676040518163ffffffff1660e01b8152600401602060405180830381865afa158015611405573d6000803e3d6000fd5b505050506040513d601f19601f820116820180604052508101906114299190613a59565b600a6114359190613bb9565b905060008160646114469190613996565b90506000611452610960565b90506114848460020160009054906101000a900473ffffffffffffffffffffffffffffffffffffffff168683856115e2565b6114a6818287631dcd6500600160405180602001604052806000815250611823565b6114b4631dcd6500836116ed565b5050505050565b6000807ff72346055b4d7224c7ec19860d22963ca622fbb313761bfba507c1a3aeedf37290508091505090565b60006114f2611e97565b600001600083815260200190815260200160002060009054906101000a900460ff169050919050565b6000807f1a2f703e435318ee39feac62abda44020ca215505d5ba3284195182c842a2d3090508091505090565b600080611553611ec4565b905060008160000160008681526020019081526020016000209050600061157a8286611ef1565b905084826001015461158c9190613f5f565b82600101819055508082600201546115a49190613c41565b826002018190555060008260010154036115d65760008260000160006101000a81548160ff0219169083151502179055505b80935050505092915050565b600061167f8573ffffffffffffffffffffffffffffffffffffffff166323b872dd86868660405160240161161893929190613fd4565b604051602081830303815290604052915060e01b6020820180517bffffffffffffffffffffffffffffffffffffffffffffffffffffffff83818316178352505050508673ffffffffffffffffffffffffffffffffffffffff1661203290919063ffffffff16565b905060008151141580156116a45750808060200190518101906116a29190614037565b155b156116e657846040517f5274afe70000000000000000000000000000000000000000000000000000000081526004016116dd9190614064565b60405180910390fd5b5050505050565b60006116f761151b565b9050600081600101600085815260200190815260200160002060000160049054906101000a900463ffffffff1682600101600086815260200190815260200160002060000160009054906101000a900463ffffffff16611757919061407f565b63ffffffff1682600101600086815260200190815260200160002060000160009054906101000a900463ffffffff1663ffffffff16846117979190613996565b6117a19190613965565b9050600081846117b19190613f5f565b90506117e68360020160009054906101000a900473ffffffffffffffffffffffffffffffffffffffff166317d784008461205f565b818360030160008282546117fa9190613c41565b92505081905550808360040160008282546118159190613c41565b925050819055505050505050565b600073ffffffffffffffffffffffffffffffffffffffff168473ffffffffffffffffffffffffffffffffffffffff1603611889576040517fa25202b800000000000000000000000000000000000000000000000000000000815260040160405180910390fd5b600061189484612160565b905060006118a184612160565b90506118b18888888585886121da565b60006118bb611e6a565b90506118c7818761248b565b600081600001600088815260200190815260200160002060008a73ffffffffffffffffffffffffffffffffffffffff1673ffffffffffffffffffffffffffffffffffffffff16815260200190815260200160002054905080861115611958576040517fb38aedf300000000000000000000000000000000000000000000000000000000815260040160405180910390fd5b6119648a8a89896124fb565b85810382600001600089815260200190815260200160002060008b73ffffffffffffffffffffffffffffffffffffffff1673ffffffffffffffffffffffffffffffffffffffff168152602001908152602001600020819055508873ffffffffffffffffffffffffffffffffffffffff168a73ffffffffffffffffffffffffffffffffffffffff1614611b3f5781600201600088815260200190815260200160002060009054906101000a900460ff1615611b3e57858260030160008b73ffffffffffffffffffffffffffffffffffffffff1673ffffffffffffffffffffffffffffffffffffffff16815260200190815260200160002060008c73ffffffffffffffffffffffffffffffffffffffff1673ffffffffffffffffffffffffffffffffffffffff168152602001908152602001600020600089815260200190815260200160002054038260030160008b73ffffffffffffffffffffffffffffffffffffffff1673ffffffffffffffffffffffffffffffffffffffff16815260200190815260200160002060008c73ffffffffffffffffffffffffffffffffffffffff1673ffffffffffffffffffffffffffffffffffffffff1681526020019081526020016000206000898152602001908152602001600020819055505b5b8582600001600089815260200190815260200160002060008a73ffffffffffffffffffffffffffffffffffffffff1673ffffffffffffffffffffffffffffffffffffffff1681526020019081526020016000206000828254611ba19190613c41565b925050819055508773ffffffffffffffffffffffffffffffffffffffff168973ffffffffffffffffffffffffffffffffffffffff168b73ffffffffffffffffffffffffffffffffffffffff167fc3d58168c5ae7397731d063d5bbf3d657854427343f4c083240f7aacaa2d0f628a8a604051611c1e9291906140b7565b60405180910390a4611c348a8a8a87878a6126f8565b611c428a8a8a8a8a8a61270e565b50505050505050505050565b600073ffffffffffffffffffffffffffffffffffffffff168473ffffffffffffffffffffffffffffffffffffffff1603611cb4576040517fefac521700000000000000000000000000000000000000000000000000000000815260040160405180910390fd5b6000611cbf84612160565b90506000611ccc84612160565b9050611cdd876000888585886121da565b6000611ce7611e6a565b9050611cf3818761248b565b8481600001600088815260200190815260200160002060008973ffffffffffffffffffffffffffffffffffffffff1673ffffffffffffffffffffffffffffffffffffffff1681526020019081526020016000206000828254611d559190613c41565b925050819055508673ffffffffffffffffffffffffffffffffffffffff16600073ffffffffffffffffffffffffffffffffffffffff168973ffffffffffffffffffffffffffffffffffffffff167fc3d58168c5ae7397731d063d5bbf3d657854427343f4c083240f7aacaa2d0f628989604051611dd39291906140b7565b60405180910390a4611dea886000898686896126f8565b611df98860008989898961270e565b5050505050505050565b600080611e0e611ec4565b905060008160000160008681526020019081526020016000209050611e338185611ef1565b9250505092915050565b6000807f7fb8776fdb93079091f516133d7bb98c82f37f53f39f39f153c42a90e5e5891290508091505090565b6000807fe20f5a7f7e820e4505f9ef8ed1186e372d3490e37d8001618819927829be4e0590508091505090565b6000807fe8ceb94393aac3e803a9d4b376f7c5ffd7e8b6caab697212a5360c34a283caa190508091505090565b6000807f47b8e8b32475ba6530f41efddbadc333684d4f798e5f4689344334684c5f262590508091505090565b60008260000160009054906101000a900460ff16611f44576040517f08c379a0000000000000000000000000000000000000000000000000000000008152600401611f3b90614152565b60405180910390fd5b8260010154821115611f8b576040517f08c379a0000000000000000000000000000000000000000000000000000000008152600401611f82906141be565b60405180910390fd5b6000600a60056001858760010154611fa39190613f5f565b611fad9190613c41565b8660010154611fbc9190613996565b866003015486600a611fce9190613996565b611fd89190613996565b611fe29190613965565b611fec9190613c41565b611ff69190613965565b905061202984600501548461200b9190613996565b61202486600401548661201e9190613996565b846128d3565b6128ec565b91505092915050565b606061205783836040518060600160405280602381526020016149f160239139612905565b905092915050565b600061206961291d565b905060008160000160008673ffffffffffffffffffffffffffffffffffffffff1673ffffffffffffffffffffffffffffffffffffffff168152602001908152602001600020600085815260200190815260200160002090508060000160009054906101000a900460ff166120de57505061215b565b6000831215612122576040517f08c379a00000000000000000000000000000000000000000000000000000000081526004016121199061422a565b60405180910390fd5b828160020160008282546121369190614254565b92505081905550828160030160008282546121519190614254565b9250508190555050505b505050565b60606000600167ffffffffffffffff81111561217f5761217e614298565b5b6040519080825280602002602001820160405280156121ad5781602001602082028036833780820191505090505b50905082816000815181106121c5576121c46142c7565b5b60200260200101818152505080915050919050565b8373ffffffffffffffffffffffffffffffffffffffff168573ffffffffffffffffffffffffffffffffffffffff1614612475576000612217611e6a565b9050600081600501905060008260060160008973ffffffffffffffffffffffffffffffffffffffff1673ffffffffffffffffffffffffffffffffffffffff168152602001908152602001600020905060008360060160008973ffffffffffffffffffffffffffffffffffffffff1673ffffffffffffffffffffffffffffffffffffffff168152602001908152602001600020905060005b875181101561246f5760008782815181106122cc576122cb6142c7565b5b6020026020010151905060008111156124615760008983815181106122f4576122f36142c7565b5b60200260200101519050600073ffffffffffffffffffffffffffffffffffffffff168c73ffffffffffffffffffffffffffffffffffffffff1603612363578187600401600083815260200190815260200160002060008282546123579190613c41565b925050819055506123ae565b8161236e8d836112b9565b036123ad576123978c87600084815260200190815260200160002061294a90919063ffffffff16565b506123ab818661297a90919063ffffffff16565b505b5b600073ffffffffffffffffffffffffffffffffffffffff168b73ffffffffffffffffffffffffffffffffffffffff1603612413578187600401600083815260200190815260200160002060008282546124079190613f5f565b9250508190555061245f565b600061241f8c836112b9565b0361245e576124488b87600084815260200190815260200160002061299490919063ffffffff16565b5061245c81856129c490919063ffffffff16565b505b5b505b8180600101925050506122ae565b50505050505b6124838686868686866129de565b505050505050565b61249482612a26565b81600b01600082815260200190815260200160002060009054906101000a900460ff16156124f7576040517f08c379a00000000000000000000000000000000000000000000000000000000081526004016124ee90614342565b60405180910390fd5b5050565b6000612505611e6a565b90508473ffffffffffffffffffffffffffffffffffffffff168473ffffffffffffffffffffffffffffffffffffffff16146126f1578060010160008573ffffffffffffffffffffffffffffffffffffffff1673ffffffffffffffffffffffffffffffffffffffff16815260200190815260200160002060008673ffffffffffffffffffffffffffffffffffffffff1673ffffffffffffffffffffffffffffffffffffffff16815260200190815260200160002060009054906101000a900460ff166125fc576040517f3d2f0b3700000000000000000000000000000000000000000000000000000000815260040160405180910390fd5b80600201600084815260200190815260200160002060009054906101000a900460ff1680156126b95750818160030160008673ffffffffffffffffffffffffffffffffffffffff1673ffffffffffffffffffffffffffffffffffffffff16815260200190815260200160002060008773ffffffffffffffffffffffffffffffffffffffff1673ffffffffffffffffffffffffffffffffffffffff168152602001908152602001600020600085815260200190815260200160002054105b156126f0576040517f32af163800000000000000000000000000000000000000000000000000000000815260040160405180910390fd5b5b5050505050565b612706868686868686612a7b565b505050505050565b61272d8473ffffffffffffffffffffffffffffffffffffffff16612b69565b156128cb578373ffffffffffffffffffffffffffffffffffffffff1663f23a6e6187878686866040518663ffffffff1660e01b81526004016127739594939291906143f2565b6020604051808303816000875af19250505080156127af57506040513d601f19601f820116820180604052508101906127ac91906144a4565b60015b61284b576127bb6144de565b806308c379a00361281757506127cf614531565b806127da5750612819565b806040517f08c379a000000000000000000000000000000000000000000000000000000000815260040161280e9190614605565b60405180910390fd5b505b6040517f4eebd08100000000000000000000000000000000000000000000000000000000815260040160405180910390fd5b63f23a6e6160e01b7bffffffffffffffffffffffffffffffffffffffffffffffffffffffff1916817bffffffffffffffffffffffffffffffffffffffffffffffffffffffff1916146128c9576040517f542073e700000000000000000000000000000000000000000000000000000000815260040160405180910390fd5b505b505050505050565b60008183116128e257816128e4565b825b905092915050565b60008183116128fb57826128fd565b815b905092915050565b60606129148484600085612b7c565b90509392505050565b6000807ff0375085caeab71645bf74d020ee2aa37bc7b653d9e55911c1084d8c88b3c05c90508091505090565b6000612972836000018373ffffffffffffffffffffffffffffffffffffffff1660001b612c95565b905092915050565b600061298c836000018360001b612c95565b905092915050565b60006129bc836000018373ffffffffffffffffffffffffffffffffffffffff1660001b612d79565b905092915050565b60006129d6836000018360001b612d79565b905092915050565b600073ffffffffffffffffffffffffffffffffffffffff168573ffffffffffffffffffffffffffffffffffffffff1614612a1e57612a1d858484612de0565b5b505050505050565b80600a0160009054906101000a900460ff1615612a78576040517f08c379a0000000000000000000000000000000000000000000000000000000008152600401612a6f90614673565b60405180910390fd5b50565b600073ffffffffffffffffffffffffffffffffffffffff168573ffffffffffffffffffffffffffffffffffffffff1614612abd57612abc8584846000612e79565b5b600073ffffffffffffffffffffffffffffffffffffffff168473ffffffffffffffffffffffffffffffffffffffff1614612aff57612afe8484846001612e79565b5b60005b8351811015612b6057612b53612b16612f14565b858381518110612b2957612b286142c7565b5b60200260200101518888878681518110612b4657612b456142c7565b5b6020026020010151612f4c565b8080600101915050612b02565b50505050505050565b600080823b905060008111915050919050565b6060612b8785612b69565b612bbd576040517f89c35afc00000000000000000000000000000000000000000000000000000000815260040160405180910390fd5b6000808673ffffffffffffffffffffffffffffffffffffffff168587604051612be691906146cf565b60006040518083038185875af1925050503d8060008114612c23576040519150601f19603f3d011682016040523d82523d6000602084013e612c28565b606091505b50915091508115612c3d578092505050612c8d565b600081511115612c505780518082602001fd5b836040517f08c379a0000000000000000000000000000000000000000000000000000000008152600401612c849190614605565b60405180910390fd5b949350505050565b60008083600101600084815260200190815260200160002054905060008114612d7257600084600001600186600001805490500381548110612cda57612cd96142c7565b5b9060005260206000200154905080856000016001840381548110612d0157612d006142c7565b5b906000526020600020018190555081856001016000838152602001908152602001600020819055505083600001805480612d3e57612d3d6146e6565b5b6001900381819060005260206000200160009055905583600101600084815260200190815260200160002060009055600191505b5092915050565b6000612d858383613080565b612dda5782600001829080600181540180825580915050600190039060005260206000200160009091909190915055826000018054905083600101600084815260200190815260200160002081905550600190505b92915050565b8051825114612e1b576040517f583b4bea00000000000000000000000000000000000000000000000000000000815260040160405180910390fd5b60005b8251811015612e7357612e6684848381518110612e3e57612e3d6142c7565b5b6020026020010151848481518110612e5957612e586142c7565b5b60200260200101516130a3565b8080600101915050612e1e565b50505050565b8151835114612eb4576040517f583b4bea00000000000000000000000000000000000000000000000000000000815260040160405180910390fd5b60005b8351811015612f0d57612f0085858381518110612ed757612ed66142c7565b5b6020026020010151858481518110612ef257612ef16142c7565b5b6020026020010151856131ea565b8080600101915050612eb7565b5050505050565b600080612f1f61151b565b90508060020160009054906101000a900473ffffffffffffffffffffffffffffffffffffffff1691505090565b6000612f5661291d565b905060008160000160008873ffffffffffffffffffffffffffffffffffffffff1673ffffffffffffffffffffffffffffffffffffffff168152602001908152602001600020600087815260200190815260200160002090508060000160009054906101000a900460ff16612fcb575050613079565b600073ffffffffffffffffffffffffffffffffffffffff168573ffffffffffffffffffffffffffffffffffffffff1614613036576130358186857fffffffffffffffffffffffffffffffffffffffffffffffffffffffffffffffff6130309190614715565b613388565b5b600073ffffffffffffffffffffffffffffffffffffffff168473ffffffffffffffffffffffffffffffffffffffff161461307657613075818585613388565b5b50505b5050505050565b600080836001016000848152602001908152602001600020541415905092915050565b60006130ad613509565b905060008160000160008581526020019081526020016000209050438160010154116130da5750506131e5565b60008160030160008773ffffffffffffffffffffffffffffffffffffffff1673ffffffffffffffffffffffffffffffffffffffff16815260200190815260200160002090506000600c826003015483600001546131379190613f5f565b6131419190613965565b83600201548360020154436131569190613f5f565b6131609190613965565b61316a9190613996565b9050600082600101546131908385600301546131869190613c41565b85600001546128ec565b61319a9190613f5f565b9050808611156131df576040517f08c379a00000000000000000000000000000000000000000000000000000000081526004016131d6906147ff565b60405180910390fd5b50505050505b505050565b60006131f4613509565b90506000816000016000868152602001908152602001600020905043816001015411613221575050613382565b60008160030160008873ffffffffffffffffffffffffffffffffffffffff1673ffffffffffffffffffffffffffffffffffffffff1681526020019081526020016000209050438260000154116132bb5760018460ff16036132b357848160000160008282546132909190613c41565b92505081905550848160030160008282546132ab9190613c41565b925050819055505b505050613382565b6000600c826003015483600001546132d39190613f5f565b6132dd9190613965565b83600201548360020154436132f29190613f5f565b6132fc9190613965565b6133069190613996565b905061332581836003015461331b9190613c41565b83600001546128ec565b826003018190555060018560ff1603613358578582600001600082825461334c9190613c41565b92505081905550613374565b8582600101600082825461336c9190613c41565b925050819055505b438260020181905550505050505b50505050565b60008360040160008473ffffffffffffffffffffffffffffffffffffffff1673ffffffffffffffffffffffffffffffffffffffff168152602001908152602001600020905060008285600101546133df9190614254565b1215613420576040517f08c379a000000000000000000000000000000000000000000000000000000000815260040161341790614891565b60405180910390fd5b60008282600001546134329190614254565b1215613473576040517f08c379a000000000000000000000000000000000000000000000000000000000815260040161346a90614923565b60405180910390fd5b6000808560010154146134a25784600101548386600301546134959190614715565b61349f9190614943565b90505b8285600101546134b29190614254565b85600101819055508085600301546134ca9190614254565b85600301819055508282600001546134e29190614254565b82600001819055508082600101546134fa91906149ad565b82600101819055505050505050565b6000807fb666c964c288db81fc3205a9feeb13cfebbde2a4a4664c45ea26ef9d3d8de79290508091505090565b6000604051905090565b600080fd5b6000819050919050565b61355881613545565b811461356357600080fd5b50565b6000813590506135758161354f565b92915050565b600063ffffffff82169050919050565b6135948161357b565b811461359f57600080fd5b50565b6000813590506135b18161358b565b92915050565b600080604083850312156135ce576135cd613540565b5b60006135dc85828601613566565b92505060206135ed858286016135a2565b9150509250929050565b600060ff82169050919050565b61360d816135f7565b82525050565b60006020820190506136286000830184613604565b92915050565b60006020828403121561364457613643613540565b5b600061365284828501613566565b91505092915050565b61366481613545565b82525050565b600060208201905061367f600083018461365b565b92915050565b60006020828403121561369b5761369a613540565b5b60006136a9848285016135a2565b91505092915050565b60006fffffffffffffffffffffffffffffffff82169050919050565b6136d7816136b2565b81146136e257600080fd5b50565b6000813590506136f4816136ce565b92915050565b613703816135f7565b811461370e57600080fd5b50565b600081359050613720816136fa565b92915050565b6000806040838503121561373d5761373c613540565b5b600061374b858286016136e5565b925050602061375c85828601613711565b9150509250929050565b600082825260208201905092915050565b7f4e4f545f414c4c4f574544000000000000000000000000000000000000000000600082015250565b60006137ad600b83613766565b91506137b882613777565b602082019050919050565b600060208201905081810360008301526137dc816137a0565b9050919050565b7f4f6e6c7920616e20617070726f766564206163636f756e742063616e2062757960008201527f20746865204d6167696320746f6b656e00000000000000000000000000000000602082015250565b600061383f603083613766565b915061384a826137e3565b604082019050919050565b6000602082019050818103600083015261386e81613832565b9050919050565b7f4f6e6c792031204d6167696320746f6b656e2063616e20626520626f7567687460008201527f206e6f7721000000000000000000000000000000000000000000000000000000602082015250565b60006138d1602583613766565b91506138dc82613875565b604082019050919050565b60006020820190508181036000830152613900816138c4565b9050919050565b7f4e487b7100000000000000000000000000000000000000000000000000000000600052601260045260246000fd5b7f4e487b7100000000000000000000000000000000000000000000000000000000600052601160045260246000fd5b600061397082613545565b915061397b83613545565b92508261398b5761398a613907565b5b828204905092915050565b60006139a182613545565b91506139ac83613545565b92508282026139ba81613545565b915082820484148315176139d1576139d0613936565b5b5092915050565b7f76616c7565547970652063616e2062652030206f722031206f6e6c7921000000600082015250565b6000613a0e601d83613766565b9150613a19826139d8565b602082019050919050565b60006020820190508181036000830152613a3d81613a01565b9050919050565b600081519050613a53816136fa565b92915050565b600060208284031215613a6f57613a6e613540565b5b6000613a7d84828501613a44565b91505092915050565b60008160011c9050919050565b6000808291508390505b6001851115613add57808604811115613ab957613ab8613936565b5b6001851615613ac85780820291505b8081029050613ad685613a86565b9450613a9d565b94509492505050565b600082613af65760019050613bb2565b81613b045760009050613bb2565b8160018114613b1a5760028114613b2457613b53565b6001915050613bb2565b60ff841115613b3657613b35613936565b5b8360020a915084821115613b4d57613b4c613936565b5b50613bb2565b5060208310610133831016604e8410600b8410161715613b885782820a905083811115613b8357613b82613936565b5b613bb2565b613b958484846001613a93565b92509050818404811115613bac57613bab613936565b5b81810290505b9392505050565b6000613bc482613545565b9150613bcf836135f7565b9250613bfc7fffffffffffffffffffffffffffffffffffffffffffffffffffffffffffffffff8484613ae6565b905092915050565b6000613c0f826136b2565b9150613c1a836136b2565b9250828202613c28816136b2565b9150808214613c3a57613c39613936565b5b5092915050565b6000613c4c82613545565b9150613c5783613545565b9250828201905080821115613c6f57613c6e613936565b5b92915050565b7f54686520696e707574207175616e7469747920697320746f6f20736d616c6c2060008201527f666f7220706179696e6720746f6b656e00000000000000000000000000000000602082015250565b6000613cd1603083613766565b9150613cdc82613c75565b604082019050919050565b60006020820190508181036000830152613d0081613cc4565b9050919050565b7f54686520696e70757420616d6f756e7420697320746f6f20736d616c6c20666f60008201527f7220627579696e67206120746f6b656e00000000000000000000000000000000602082015250565b6000613d63603083613766565b9150613d6e82613d07565b604082019050919050565b60006020820190508181036000830152613d9281613d56565b9050919050565b7f4e6f7420656e6f75676820746f6b656e20746f2073656c6c0000000000000000600082015250565b6000613dcf601883613766565b9150613dda82613d99565b602082019050919050565b60006020820190508181036000830152613dfe81613dc2565b9050919050565b7f54686520696e707574207175616e7469747920697320746f6f20736d616c6c2060008201527f666f7220706179696e6720746f6b656e21000000000000000000000000000000602082015250565b6000613e61603183613766565b9150613e6c82613e05565b604082019050919050565b60006020820190508181036000830152613e9081613e54565b9050919050565b7f54686520696e70757420616d6f756e7420697320746f6f20736d616c6c20666f60008201527f7220627579696e67206120746f6b656e21000000000000000000000000000000602082015250565b6000613ef3603183613766565b9150613efe82613e97565b604082019050919050565b60006020820190508181036000830152613f2281613ee6565b9050919050565b60008115159050919050565b613f3e81613f29565b82525050565b6000602082019050613f596000830184613f35565b92915050565b6000613f6a82613545565b9150613f7583613545565b9250828203905081811115613f8d57613f8c613936565b5b92915050565b600073ffffffffffffffffffffffffffffffffffffffff82169050919050565b6000613fbe82613f93565b9050919050565b613fce81613fb3565b82525050565b6000606082019050613fe96000830186613fc5565b613ff66020830185613fc5565b614003604083018461365b565b949350505050565b61401481613f29565b811461401f57600080fd5b50565b6000815190506140318161400b565b92915050565b60006020828403121561404d5761404c613540565b5b600061405b84828501614022565b91505092915050565b60006020820190506140796000830184613fc5565b92915050565b600061408a8261357b565b91506140958361357b565b9250828201905063ffffffff8111156140b1576140b0613936565b5b92915050565b60006040820190506140cc600083018561365b565b6140d9602083018461365b565b9392505050565b7f43616c63756c6174696f6e206973206e6f7420656e61626c656420666f72207460008201527f686520746f6b656e210000000000000000000000000000000000000000000000602082015250565b600061413c602983613766565b9150614147826140e0565b604082019050919050565b6000602082019050818103600083015261416b8161412f565b9050919050565b7f4e6f7420656e6f75676874207175616e74697479206c65667421000000000000600082015250565b60006141a8601a83613766565b91506141b382614172565b602082019050919050565b600060208201905081810360008301526141d78161419b565b9050919050565b7f506f6f6c2063616e206f6e6c7920696e63726561736521000000000000000000600082015250565b6000614214601783613766565b915061421f826141de565b602082019050919050565b6000602082019050818103600083015261424381614207565b9050919050565b6000819050919050565b600061425f8261424a565b915061426a8361424a565b92508282019050828112156000831216838212600084121516171561429257614291613936565b5b92915050565b7f4e487b7100000000000000000000000000000000000000000000000000000000600052604160045260246000fd5b7f4e487b7100000000000000000000000000000000000000000000000000000000600052603260045260246000fd5b7f546f6b656e206973207061757365642100000000000000000000000000000000600082015250565b600061432c601083613766565b9150614337826142f6565b602082019050919050565b6000602082019050818103600083015261435b8161431f565b9050919050565b600081519050919050565b600082825260208201905092915050565b60005b8381101561439c578082015181840152602081019050614381565b60008484015250505050565b6000601f19601f8301169050919050565b60006143c482614362565b6143ce818561436d565b93506143de81856020860161437e565b6143e7816143a8565b840191505092915050565b600060a0820190506144076000830188613fc5565b6144146020830187613fc5565b614421604083018661365b565b61442e606083018561365b565b818103608083015261444081846143b9565b90509695505050505050565b60007fffffffff0000000000000000000000000000000000000000000000000000000082169050919050565b6144818161444c565b811461448c57600080fd5b50565b60008151905061449e81614478565b92915050565b6000602082840312156144ba576144b9613540565b5b60006144c88482850161448f565b91505092915050565b60008160e01c9050919050565b600060033d11156144fd5760046000803e6144fa6000516144d1565b90505b90565b614509826143a8565b810181811067ffffffffffffffff8211171561452857614527614298565b5b80604052505050565b600060443d106145be57614543613536565b60043d036004823e80513d602482011167ffffffffffffffff8211171561456b5750506145be565b808201805167ffffffffffffffff81111561458957505050506145be565b80602083010160043d0385018111156145a65750505050506145be565b6145b582602001850186614500565b82955050505050505b90565b600081519050919050565b60006145d7826145c1565b6145e18185613766565b93506145f181856020860161437e565b6145fa816143a8565b840191505092915050565b6000602082019050818103600083015261461f81846145cc565b905092915050565b7f416c6c20746f6b656e2069732070617573656421000000000000000000000000600082015250565b600061465d601483613766565b915061466882614627565b602082019050919050565b6000602082019050818103600083015261468c81614650565b9050919050565b600081905092915050565b60006146a982614362565b6146b38185614693565b93506146c381856020860161437e565b80840191505092915050565b60006146db828461469e565b915081905092915050565b7f4e487b7100000000000000000000000000000000000000000000000000000000600052603160045260246000fd5b60006147208261424a565b915061472b8361424a565b92508282026147398161424a565b91507f8000000000000000000000000000000000000000000000000000000000000000841460008412161561477157614770613936565b5b828205841483151761478657614785613936565b5b5092915050565b7f54686520616d6f756e7420697320677261746572207468656e2074686520616360008201527f63756d6c6174656420282773656c6c61626c65272920616d6f756e7421000000602082015250565b60006147e9603d83613766565b91506147f48261478d565b604082019050919050565b60006020820190508181036000830152614818816147dc565b9050919050565b7f506f6f6c20746f6b656e207175616e6974792063616e2774206265206c65737360008201527f207468656e207a65726f21000000000000000000000000000000000000000000602082015250565b600061487b602b83613766565b91506148868261481f565b604082019050919050565b600060208201905081810360008301526148aa8161486e565b9050919050565b7f5573657220746f6b656e207175616e6974792063616e2774206265206c65737360008201527f207468656e207a65726f21000000000000000000000000000000000000000000602082015250565b600061490d602b83613766565b9150614918826148b1565b604082019050919050565b6000602082019050818103600083015261493c81614900565b9050919050565b600061494e8261424a565b91506149598361424a565b92508261496957614968613907565b5b600160000383147f8000000000000000000000000000000000000000000000000000000000000000831416156149a2576149a1613936565b5b828205905092915050565b60006149b88261424a565b91506149c38361424a565b92508282039050818112600084121682821360008512151617156149ea576149e9613936565b5b9291505056fe416464726573735574696c733a206661696c6564206c6f772d6c6576656c2063616c6ca2646970667358221220055eb80e6124ad0a7699dcd1d1bbff712ded9921b3338ba7733923715d12d1a664736f6c63430008110033",
  "devdoc": {
    "kind": "dev",
    "methods": {},
    "version": 1
  },
  "userdoc": {
    "kind": "user",
    "methods": {},
    "version": 1
  },
  "storageLayout": {
    "storage": [],
    "types": null
  }
}