{
  "_format": "hh-sol-artifact-1",
  "contractName": "LibArexaPlatformShared",
  "sourceName": "contracts/ArexaPlatform/Platform/LibArexaPlatformShared.sol",
  "abi": [
    {
      "inputs": [],
      "name": "AMOUNT_VALUE_TYPE",
      "outputs": [
        {
          "internalType": "uint8",
          "name": "",
          "type": "uint8"
        }
      ],
      "stateMutability": "view",
      "type": "function"
    },
    {
      "inputs": [],
      "name": "QUANTITY_VALUE_TYPE",
      "outputs": [
        {
          "internalType": "uint8",
          "name": "",
          "type": "uint8"
        }
      ],
      "stateMutability": "view",
      "type": "function"
    }
  ],
  "bytecode": "0x60e9610052600b82828239805160001a607314610045577f4e487b7100000000000000000000000000000000000000000000000000000000600052600060045260246000fd5b30600052607381538281f3fe7300000000000000000000000000000000000000003014608060405260043610603d5760003560e01c80635aecf189146042578063d5ddea0414605c575b600080fd5b60486076565b60405160539190609a565b60405180910390f35b6062607b565b604051606d9190609a565b60405180910390f35b600081565b600181565b600060ff82169050919050565b6094816080565b82525050565b600060208201905060ad6000830184608d565b9291505056fea26469706673582212202cec27d088933d8040abed8081630c5c9c9bc1f0ac3361b3464119bccf08f0a064736f6c63430008110033",
  "linkReferences": {},
  "deployedLinkReferences": {}
}