{
  "_format": "hh-sol-artifact-1",
  "contractName": "ArexaACLFacet",
  "sourceName": "contracts/ArexaPlatform/ArexaACLFacet.sol",
  "abi": [
    {
      "inputs": [
        {
          "internalType": "bytes32",
          "name": "role",
          "type": "bytes32"
        },
        {
          "internalType": "address",
          "name": "account",
          "type": "address"
        }
      ],
      "name": "AccessDenied",
      "type": "error"
    },
    {
      "inputs": [],
      "name": "Ownable__NotOwner",
      "type": "error"
    },
    {
      "inputs": [],
      "name": "AREXA_ADMIN_ROLE",
      "outputs": [
        {
          "internalType": "bytes32",
          "name": "",
          "type": "bytes32"
        }
      ],
      "stateMutability": "view",
      "type": "function"
    },
    {
      "inputs": [
        {
          "internalType": "bytes32",
          "name": "role",
          "type": "bytes32"
        }
      ],
      "name": "getRoleAdmin",
      "outputs": [
        {
          "internalType": "bytes32",
          "name": "",
          "type": "bytes32"
        }
      ],
      "stateMutability": "view",
      "type": "function"
    },
    {
      "inputs": [
        {
          "internalType": "bytes32",
          "name": "role",
          "type": "bytes32"
        },
        {
          "internalType": "address",
          "name": "account",
          "type": "address"
        }
      ],
      "name": "grantRole",
      "outputs": [],
      "stateMutability": "nonpayable",
      "type": "function"
    },
    {
      "inputs": [
        {
          "internalType": "bytes32",
          "name": "role",
          "type": "bytes32"
        },
        {
          "internalType": "address",
          "name": "account",
          "type": "address"
        }
      ],
      "name": "hasRole",
      "outputs": [
        {
          "internalType": "bool",
          "name": "",
          "type": "bool"
        }
      ],
      "stateMutability": "view",
      "type": "function"
    },
    {
      "inputs": [
        {
          "internalType": "bytes32",
          "name": "role",
          "type": "bytes32"
        }
      ],
      "name": "renounceRole",
      "outputs": [],
      "stateMutability": "nonpayable",
      "type": "function"
    },
    {
      "inputs": [
        {
          "internalType": "bytes32",
          "name": "role",
          "type": "bytes32"
        },
        {
          "internalType": "address",
          "name": "account",
          "type": "address"
        }
      ],
      "name": "revokeRole",
      "outputs": [],
      "stateMutability": "nonpayable",
      "type": "function"
    },
    {
      "inputs": [
        {
          "internalType": "bytes32",
          "name": "role",
          "type": "bytes32"
        },
        {
          "internalType": "bytes32",
          "name": "adminRole",
          "type": "bytes32"
        }
      ],
      "name": "setRoleAdmin",
      "outputs": [],
      "stateMutability": "nonpayable",
      "type": "function"
    }
  ],
  "bytecode": "0x608060405234801561001057600080fd5b5061134d806100206000396000f3fe608060405234801561001057600080fd5b506004361061007d5760003560e01c8063550cb31d1161005b578063550cb31d146100ea5780638bb9c5bf1461010857806391d1485414610124578063d547741f146101545761007d565b80631e4e009114610082578063248a9ca31461009e5780632f2ff15d146100ce575b600080fd5b61009c6004803603810190610097919061102d565b610170565b005b6100b860048036038101906100b3919061106d565b6101fb565b6040516100c591906110a9565b60405180910390f35b6100e860048036038101906100e39190611122565b610282565b005b6100f2610318565b6040516100ff91906110a9565b60405180910390f35b610122600480360381019061011d919061106d565b61033c565b005b61013e60048036038101906101399190611122565b6103bd565b60405161014b919061117d565b60405180910390f35b61016e60048036038101906101699190611122565b610446565b005b61017861057d565b73ffffffffffffffffffffffffffffffffffffffff163073ffffffffffffffffffffffffffffffffffffffff16146101e5576040517f08c379a00000000000000000000000000000000000000000000000000000000081526004016101dc906111f5565b60405180910390fd5b6101ed6105b5565b6101f78282610623565b5050565b600061020561057d565b73ffffffffffffffffffffffffffffffffffffffff163073ffffffffffffffffffffffffffffffffffffffff1614610272576040517f08c379a0000000000000000000000000000000000000000000000000000000008152600401610269906111f5565b60405180910390fd5b61027b826106a6565b9050919050565b61028a61057d565b73ffffffffffffffffffffffffffffffffffffffff163073ffffffffffffffffffffffffffffffffffffffff16146102f7576040517f08c379a00000000000000000000000000000000000000000000000000000000081526004016102ee906111f5565b60405180910390fd5b81610309610304826106a6565b610735565b6103138383610742565b505050565b7f72a415ccbbed7752b009b01c3fad0a1694ff64e2a51c65a309c0517cd732d2d181565b61034461057d565b73ffffffffffffffffffffffffffffffffffffffff163073ffffffffffffffffffffffffffffffffffffffff16146103b1576040517f08c379a00000000000000000000000000000000000000000000000000000000081526004016103a8906111f5565b60405180910390fd5b6103ba816107c5565b50565b60006103c761057d565b73ffffffffffffffffffffffffffffffffffffffff163073ffffffffffffffffffffffffffffffffffffffff1614610434576040517f08c379a000000000000000000000000000000000000000000000000000000000815260040161042b906111f5565b60405180910390fd5b61043e8383610846565b905092915050565b61044e61057d565b73ffffffffffffffffffffffffffffffffffffffff163073ffffffffffffffffffffffffffffffffffffffff16146104bb576040517f08c379a00000000000000000000000000000000000000000000000000000000081526004016104b2906111f5565b60405180910390fd5b816104cd6104c8826106a6565b610735565b7f72a415ccbbed7752b009b01c3fad0a1694ff64e2a51c65a309c0517cd732d2d18314801561052e57506104ff6108e7565b73ffffffffffffffffffffffffffffffffffffffff168273ffffffffffffffffffffffffffffffffffffffff16145b1561056e576040517f08c379a000000000000000000000000000000000000000000000000000000000815260040161056590611261565b60405180910390fd5b610578838361091f565b505050565b6000806105886109a2565b90508060000160009054906101000a900473ffffffffffffffffffffffffffffffffffffffff1691505090565b6105bd6108e7565b73ffffffffffffffffffffffffffffffffffffffff163373ffffffffffffffffffffffffffffffffffffffff1614610621576040517f2f7a8ee100000000000000000000000000000000000000000000000000000000815260040160405180910390fd5b565b61062b61057d565b73ffffffffffffffffffffffffffffffffffffffff163073ffffffffffffffffffffffffffffffffffffffff1614610698576040517f08c379a000000000000000000000000000000000000000000000000000000000815260040161068f906111f5565b60405180910390fd5b6106a282826109cf565b5050565b6000806106b1610ae0565b90508060010160008260000160009054906101000a900473ffffffffffffffffffffffffffffffffffffffff1673ffffffffffffffffffffffffffffffffffffffff1673ffffffffffffffffffffffffffffffffffffffff168152602001908152602001600020600084815260200190815260200160002060000154915050919050565b61073f8133610b0d565b50565b61074a61057d565b73ffffffffffffffffffffffffffffffffffffffff163073ffffffffffffffffffffffffffffffffffffffff16146107b7576040517f08c379a00000000000000000000000000000000000000000000000000000000081526004016107ae906111f5565b60405180910390fd5b6107c18282610b5e565b5050565b6107cd61057d565b73ffffffffffffffffffffffffffffffffffffffff163073ffffffffffffffffffffffffffffffffffffffff161461083a576040517f08c379a0000000000000000000000000000000000000000000000000000000008152600401610831906111f5565b60405180910390fd5b61084381610caa565b50565b600080610851610ae0565b90506108de838260010160008460000160009054906101000a900473ffffffffffffffffffffffffffffffffffffffff1673ffffffffffffffffffffffffffffffffffffffff1673ffffffffffffffffffffffffffffffffffffffff1681526020019081526020016000206000878152602001908152602001600020600101610cb790919063ffffffff16565b91505092915050565b6000806108f2610ae0565b90508060000160009054906101000a900473ffffffffffffffffffffffffffffffffffffffff1691505090565b61092761057d565b73ffffffffffffffffffffffffffffffffffffffff163073ffffffffffffffffffffffffffffffffffffffff1614610994576040517f08c379a000000000000000000000000000000000000000000000000000000000815260040161098b906111f5565b60405180910390fd5b61099e8282610ce7565b5050565b6000807ff72346055b4d7224c7ec19860d22963ca622fbb313761bfba507c1a3aeedf37290508091505090565b60006109d9610ae0565b905060006109e6846106a6565b9050828260010160008460000160009054906101000a900473ffffffffffffffffffffffffffffffffffffffff1673ffffffffffffffffffffffffffffffffffffffff1673ffffffffffffffffffffffffffffffffffffffff16815260200190815260200160002060008681526020019081526020016000206000018190555082818360000160009054906101000a900473ffffffffffffffffffffffffffffffffffffffff1673ffffffffffffffffffffffffffffffffffffffff167f723017596f662d5bad698223ec9b9d90c19cd1ebc637a2ad7ef27b3d9f85f79c87604051610ad291906110a9565b60405180910390a450505050565b6000807f746c6723185dc95a8925081faed89cbd4670299390e2ebfb0b9c3e755e204ef490508091505090565b610b178282610846565b610b5a5781816040517f521dcf0d000000000000000000000000000000000000000000000000000000008152600401610b51929190611290565b60405180910390fd5b5050565b6000610b68610ae0565b9050610b748383610846565b610ca557610c03828260010160008460000160009054906101000a900473ffffffffffffffffffffffffffffffffffffffff1673ffffffffffffffffffffffffffffffffffffffff1673ffffffffffffffffffffffffffffffffffffffff1681526020019081526020016000206000868152602001908152602001600020600101610e2490919063ffffffff16565b503373ffffffffffffffffffffffffffffffffffffffff168273ffffffffffffffffffffffffffffffffffffffff168260000160009054906101000a900473ffffffffffffffffffffffffffffffffffffffff1673ffffffffffffffffffffffffffffffffffffffff167fc1ddb807f72f9e732ef6f32805c68a3b77ca377c0e141fe3bcaf19fe667f353486604051610c9c91906110a9565b60405180910390a45b505050565b610cb48133610ce7565b50565b6000610cdf836000018373ffffffffffffffffffffffffffffffffffffffff1660001b610e54565b905092915050565b6000610cf1610ae0565b9050610d7e828260010160008460000160009054906101000a900473ffffffffffffffffffffffffffffffffffffffff1673ffffffffffffffffffffffffffffffffffffffff1673ffffffffffffffffffffffffffffffffffffffff1681526020019081526020016000206000868152602001908152602001600020600101610e7790919063ffffffff16565b503373ffffffffffffffffffffffffffffffffffffffff168273ffffffffffffffffffffffffffffffffffffffff168260000160009054906101000a900473ffffffffffffffffffffffffffffffffffffffff1673ffffffffffffffffffffffffffffffffffffffff167f9a8e8d2c9cb2929fca3c36174571942b3c7bda511d1dfa8d8551899db8dad58486604051610e1791906110a9565b60405180910390a4505050565b6000610e4c836000018373ffffffffffffffffffffffffffffffffffffffff1660001b610ea7565b905092915050565b600080836001016000848152602001908152602001600020541415905092915050565b6000610e9f836000018373ffffffffffffffffffffffffffffffffffffffff1660001b610f0e565b905092915050565b6000610eb38383610e54565b610f085782600001829080600181540180825580915050600190039060005260206000200160009091909190915055826000018054905083600101600084815260200190815260200160002081905550600190505b92915050565b60008083600101600084815260200190815260200160002054905060008114610feb57600084600001600186600001805490500381548110610f5357610f526112b9565b5b9060005260206000200154905080856000016001840381548110610f7a57610f796112b9565b5b906000526020600020018190555081856001016000838152602001908152602001600020819055505083600001805480610fb757610fb66112e8565b5b6001900381819060005260206000200160009055905583600101600084815260200190815260200160002060009055600191505b5092915050565b600080fd5b6000819050919050565b61100a81610ff7565b811461101557600080fd5b50565b60008135905061102781611001565b92915050565b6000806040838503121561104457611043610ff2565b5b600061105285828601611018565b925050602061106385828601611018565b9150509250929050565b60006020828403121561108357611082610ff2565b5b600061109184828501611018565b91505092915050565b6110a381610ff7565b82525050565b60006020820190506110be600083018461109a565b92915050565b600073ffffffffffffffffffffffffffffffffffffffff82169050919050565b60006110ef826110c4565b9050919050565b6110ff816110e4565b811461110a57600080fd5b50565b60008135905061111c816110f6565b92915050565b6000806040838503121561113957611138610ff2565b5b600061114785828601611018565b92505060206111588582860161110d565b9150509250929050565b60008115159050919050565b61117781611162565b82525050565b6000602082019050611192600083018461116e565b92915050565b600082825260208201905092915050565b7f4e4f545f414c4c4f574544000000000000000000000000000000000000000000600082015250565b60006111df600b83611198565b91506111ea826111a9565b602082019050919050565b6000602082019050818103600083015261120e816111d2565b9050919050565b7f526f6c652063616e6e6f74207265766f6b652066726f6d206f776e6572210000600082015250565b600061124b601e83611198565b915061125682611215565b602082019050919050565b6000602082019050818103600083015261127a8161123e565b9050919050565b61128a816110e4565b82525050565b60006040820190506112a5600083018561109a565b6112b26020830184611281565b9392505050565b7f4e487b7100000000000000000000000000000000000000000000000000000000600052603260045260246000fd5b7f4e487b7100000000000000000000000000000000000000000000000000000000600052603160045260246000fdfea2646970667358221220d68e07ad2b9388e566e51ae97014e3e75405bb90ef6f4d181fc9bea8d504291b64736f6c63430008110033",
  "linkReferences": {},
  "deployedLinkReferences": {}
}