{
  "address": "0x175d3e4De7f247426ea7fD4e76FF3898c9aE0B8E",
  "abi": [
    {
      "inputs": [
        {
          "internalType": "bytes32",
          "name": "role",
          "type": "bytes32"
        },
        {
          "internalType": "address",
          "name": "account",
          "type": "address"
        }
      ],
      "name": "AccessDenied",
      "type": "error"
    },
    {
      "inputs": [],
      "name": "AddressUtils__NotContract",
      "type": "error"
    },
    {
      "inputs": [],
      "name": "LibERC1155__ArrayLengthMismatch",
      "type": "error"
    },
    {
      "inputs": [],
      "name": "LibERC1155__BalanceQueryZeroAddress",
      "type": "error"
    },
    {
      "inputs": [],
      "name": "LibERC1155__ERC1155ReceiverNotImplemented",
      "type": "error"
    },
    {
      "inputs": [],
      "name": "LibERC1155__ERC1155ReceiverRejected",
      "type": "error"
    },
    {
      "inputs": [],
      "name": "LibERC1155__MintToZeroAddress",
      "type": "error"
    },
    {
      "inputs": [],
      "name": "LibERC1155__NotOwnerOrApproved",
      "type": "error"
    },
    {
      "inputs": [],
      "name": "LibERC1155__NotOwnerOrApprovedLimit",
      "type": "error"
    },
    {
      "inputs": [],
      "name": "LibERC1155__TransferExceedsBalance",
      "type": "error"
    },
    {
      "inputs": [],
      "name": "LibERC1155__TransferToZeroAddress",
      "type": "error"
    },
    {
      "inputs": [
        {
          "internalType": "address",
          "name": "token",
          "type": "address"
        }
      ],
      "name": "SafeERC20FailedOperation",
      "type": "error"
    },
    {
      "inputs": [],
      "name": "TargetedPausable__TargetedPaused",
      "type": "error"
    },
    {
      "inputs": [
        {
          "internalType": "address",
          "name": "toAccount",
          "type": "address"
        },
        {
          "internalType": "uint128",
          "name": "value",
          "type": "uint128"
        },
        {
          "internalType": "uint8",
          "name": "valueType",
          "type": "uint8"
        },
        {
          "internalType": "uint16",
          "name": "discountPercent",
          "type": "uint16"
        }
      ],
      "name": "buyArexaTokenAdmin",
      "outputs": [],
      "stateMutability": "nonpayable",
      "type": "function"
    },
    {
      "inputs": [
        {
          "internalType": "address",
          "name": "toAccount",
          "type": "address"
        },
        {
          "internalType": "uint32",
          "name": "quantity",
          "type": "uint32"
        },
        {
          "internalType": "uint16",
          "name": "discountPercent",
          "type": "uint16"
        }
      ],
      "name": "buyEdgeSubscriptionAdmin",
      "outputs": [],
      "stateMutability": "nonpayable",
      "type": "function"
    },
    {
      "inputs": [
        {
          "internalType": "address",
          "name": "toAccount",
          "type": "address"
        },
        {
          "internalType": "uint16",
          "name": "discountPercent",
          "type": "uint16"
        }
      ],
      "name": "buyMagic100TokenAdmin",
      "outputs": [],
      "stateMutability": "nonpayable",
      "type": "function"
    },
    {
      "inputs": [
        {
          "internalType": "address",
          "name": "toAccount",
          "type": "address"
        },
        {
          "internalType": "uint32",
          "name": "quantity",
          "type": "uint32"
        },
        {
          "internalType": "uint16",
          "name": "discountPercent",
          "type": "uint16"
        }
      ],
      "name": "buyOracleSubscriptionAdmin",
      "outputs": [],
      "stateMutability": "nonpayable",
      "type": "function"
    },
    {
      "inputs": [
        {
          "internalType": "address",
          "name": "toAccount",
          "type": "address"
        },
        {
          "internalType": "uint256",
          "name": "tokenId",
          "type": "uint256"
        },
        {
          "internalType": "uint32",
          "name": "quantity",
          "type": "uint32"
        },
        {
          "internalType": "uint16",
          "name": "discountPercent",
          "type": "uint16"
        }
      ],
      "name": "buySubscriptionAdmin",
      "outputs": [],
      "stateMutability": "nonpayable",
      "type": "function"
    },
    {
      "inputs": [
        {
          "internalType": "address",
          "name": "toAccount",
          "type": "address"
        },
        {
          "internalType": "uint128",
          "name": "value",
          "type": "uint128"
        },
        {
          "internalType": "uint8",
          "name": "valueType",
          "type": "uint8"
        },
        {
          "internalType": "uint16",
          "name": "discountPercent",
          "type": "uint16"
        }
      ],
      "name": "buyTraderTokenAdmin",
      "outputs": [],
      "stateMutability": "nonpayable",
      "type": "function"
    },
    {
      "inputs": [
        {
          "internalType": "uint256",
          "name": "tokenType",
          "type": "uint256"
        },
        {
          "internalType": "uint16",
          "name": "year",
          "type": "uint16"
        },
        {
          "internalType": "uint8",
          "name": "month",
          "type": "uint8"
        },
        {
          "internalType": "uint256",
          "name": "quantity",
          "type": "uint256"
        },
        {
          "internalType": "uint256",
          "name": "min",
          "type": "uint256"
        },
        {
          "internalType": "uint256",
          "name": "max",
          "type": "uint256"
        }
      ],
      "name": "createSubscription",
      "outputs": [
        {
          "internalType": "uint256",
          "name": "tokenId",
          "type": "uint256"
        }
      ],
      "stateMutability": "nonpayable",
      "type": "function"
    },
    {
      "inputs": [
        {
          "internalType": "uint8",
          "name": "tokenType",
          "type": "uint8"
        }
      ],
      "name": "getArexaTokenPool",
      "outputs": [
        {
          "internalType": "uint256",
          "name": "total",
          "type": "uint256"
        },
        {
          "internalType": "uint256",
          "name": "sold",
          "type": "uint256"
        }
      ],
      "stateMutability": "view",
      "type": "function"
    },
    {
      "inputs": [
        {
          "internalType": "uint8",
          "name": "poolType",
          "type": "uint8"
        },
        {
          "internalType": "address",
          "name": "account",
          "type": "address"
        },
        {
          "internalType": "uint32",
          "name": "quantity",
          "type": "uint32"
        }
      ],
      "name": "payArexaTokenFromPool",
      "outputs": [],
      "stateMutability": "nonpayable",
      "type": "function"
    }
  ],
  "transactionHash": "0x0a1e3e98a494fee39ad2809c130053692fb7fc30b5b4923c9039de3a50151475",
  "args": [],
  "numDeployments": 7,
  "solcInputHash": "25456762afbb335c7bf52b327b7b18f5",
  "bytecode": "0x608060405234801561001057600080fd5b50615ba980620000216000396000f3fe608060405234801561001057600080fd5b50600436106100935760003560e01c80636f32f586116100665780636f32f5861461011c578063780ea57214610138578063a87e458414610154578063dd5072b814610170578063fc4cffaa146101a157610093565b806304526a1714610098578063065ab2ea146100b457806320cd9ae3146100e45780632f555d7814610100575b600080fd5b6100b260048036038101906100ad919061406f565b6101bd565b005b6100ce60048036038101906100c9919061410f565b6102f4565b6040516100db91906141ab565b60405180910390f35b6100fe60048036038101906100f9919061420e565b610425565b005b61011a60048036038101906101159190614275565b61055c565b005b61013660048036038101906101319190614275565b6106a4565b005b610152600480360381019061014d91906142c8565b6107ec565b005b61016e6004803603810190610169919061431b565b61098c565b005b61018a6004803603810190610185919061435b565b610abf565b604051610198929190614388565b60405180910390f35b6101bb60048036038101906101b6919061420e565b610b4d565b005b6101c5610c85565b73ffffffffffffffffffffffffffffffffffffffff163073ffffffffffffffffffffffffffffffffffffffff1614610232576040517f08c379a00000000000000000000000000000000000000000000000000000000081526004016102299061440e565b60405180910390fd5b600061023c610cbd565b90508060000160008154809291906102539061445d565b91905055506000816000015490507f72a415ccbbed7752b009b01c3fad0a1694ff64e2a51c65a309c0517cd732d2d161028b81610cea565b6000801b61029881610cf7565b6102a487898888610d3a565b5050816000015481146102ec576040517f08c379a00000000000000000000000000000000000000000000000000000000081526004016102e390614517565b60405180910390fd5b505050505050565b60006102fe610c85565b73ffffffffffffffffffffffffffffffffffffffff163073ffffffffffffffffffffffffffffffffffffffff161461036b576040517f08c379a00000000000000000000000000000000000000000000000000000000081526004016103629061440e565b60405180910390fd5b7f72a415ccbbed7752b009b01c3fad0a1694ff64e2a51c65a309c0517cd732d2d161039581610cea565b6000801b6103a281610cf7565b6305f5e1008914806103b75750630bebc20089145b6103f6576040517f08c379a00000000000000000000000000000000000000000000000000000000081526004016103ed906145a9565b60405180910390fd5b610405338a8a8a8a8a8a610e8f565b9250610419836104148b610ff1565b6110a5565b50509695505050505050565b61042d610c85565b73ffffffffffffffffffffffffffffffffffffffff163073ffffffffffffffffffffffffffffffffffffffff161461049a576040517f08c379a00000000000000000000000000000000000000000000000000000000081526004016104919061440e565b60405180910390fd5b60006104a4610cbd565b90508060000160008154809291906104bb9061445d565b91905055506000816000015490507f72a415ccbbed7752b009b01c3fad0a1694ff64e2a51c65a309c0517cd732d2d16104f381610cea565b6000801b61050081610cf7565b61050c88888888611111565b505081600001548114610554576040517f08c379a000000000000000000000000000000000000000000000000000000000815260040161054b90614517565b60405180910390fd5b505050505050565b610564610c85565b73ffffffffffffffffffffffffffffffffffffffff163073ffffffffffffffffffffffffffffffffffffffff16146105d1576040517f08c379a00000000000000000000000000000000000000000000000000000000081526004016105c89061440e565b60405180910390fd5b60006105db610cbd565b90508060000160008154809291906105f29061445d565b91905055506000816000015490507f72a415ccbbed7752b009b01c3fad0a1694ff64e2a51c65a309c0517cd732d2d161062a81610cea565b6000801b61063781610cf7565b6000610646630bebc200611562565b905061065481898989610d3a565b5050508160000154811461069d576040517f08c379a000000000000000000000000000000000000000000000000000000000815260040161069490614517565b60405180910390fd5b5050505050565b6106ac610c85565b73ffffffffffffffffffffffffffffffffffffffff163073ffffffffffffffffffffffffffffffffffffffff1614610719576040517f08c379a00000000000000000000000000000000000000000000000000000000081526004016107109061440e565b60405180910390fd5b6000610723610cbd565b905080600001600081548092919061073a9061445d565b91905055506000816000015490507f72a415ccbbed7752b009b01c3fad0a1694ff64e2a51c65a309c0517cd732d2d161077281610cea565b6000801b61077f81610cf7565b600061078e6305f5e100611562565b905061079c81898989610d3a565b505050816000015481146107e5576040517f08c379a00000000000000000000000000000000000000000000000000000000081526004016107dc90614517565b60405180910390fd5b5050505050565b6107f4610c85565b73ffffffffffffffffffffffffffffffffffffffff163073ffffffffffffffffffffffffffffffffffffffff1614610861576040517f08c379a00000000000000000000000000000000000000000000000000000000081526004016108589061440e565b60405180910390fd5b600061086b610cbd565b90508060000160008154809291906108829061445d565b91905055506000816000015490507f72a415ccbbed7752b009b01c3fad0a1694ff64e2a51c65a309c0517cd732d2d16108ba81610cea565b6000801b6108c781610cf7565b600260ff168760ff1614806108e25750600360ff168760ff16145b806108f35750600460ff168760ff16145b610932576040517f08c379a00000000000000000000000000000000000000000000000000000000081526004016109299061463b565b60405180910390fd5b61093d87878761158d565b505081600001548114610985576040517f08c379a000000000000000000000000000000000000000000000000000000000815260040161097c90614517565b60405180910390fd5b5050505050565b610994610c85565b73ffffffffffffffffffffffffffffffffffffffff163073ffffffffffffffffffffffffffffffffffffffff1614610a01576040517f08c379a00000000000000000000000000000000000000000000000000000000081526004016109f89061440e565b60405180910390fd5b6000610a0b610cbd565b9050806000016000815480929190610a229061445d565b91905055506000816000015490507f72a415ccbbed7752b009b01c3fad0a1694ff64e2a51c65a309c0517cd732d2d1610a5a81610cea565b6000801b610a6781610cf7565b610a71868661168b565b505081600001548114610ab9576040517f08c379a0000000000000000000000000000000000000000000000000000000008152600401610ab090614517565b60405180910390fd5b50505050565b600080610aca610c85565b73ffffffffffffffffffffffffffffffffffffffff163073ffffffffffffffffffffffffffffffffffffffff1614610b37576040517f08c379a0000000000000000000000000000000000000000000000000000000008152600401610b2e9061440e565b60405180910390fd5b610b408361185f565b8092508193505050915091565b610b55610c85565b73ffffffffffffffffffffffffffffffffffffffff163073ffffffffffffffffffffffffffffffffffffffff1614610bc2576040517f08c379a0000000000000000000000000000000000000000000000000000000008152600401610bb99061440e565b60405180910390fd5b6000610bcc610cbd565b9050806000016000815480929190610be39061445d565b91905055506000816000015490507f72a415ccbbed7752b009b01c3fad0a1694ff64e2a51c65a309c0517cd732d2d1610c1b81610cea565b6000801b610c2881610cf7565b610c3533898989896118b6565b505081600001548114610c7d576040517f08c379a0000000000000000000000000000000000000000000000000000000008152600401610c7490614517565b60405180910390fd5b505050505050565b600080610c90611c54565b90508060000160009054906101000a900473ffffffffffffffffffffffffffffffffffffffff1691505090565b6000807f428e3b8892e2a2bc8574ce4723c321a1755cf7dc73aa1328e37a7b6996fe907f90508091505090565b610cf48133611c81565b50565b610d0081611cd2565b15610d37576040517f2d0a436a00000000000000000000000000000000000000000000000000000000815260040160405180910390fd5b50565b6127108161ffff161115610d83576040517f08c379a0000000000000000000000000000000000000000000000000000000008152600401610d7a906146cd565b60405180910390fd5b6000610d8d611d05565b90506000610da1868563ffffffff16611d32565b9050600a6005612710600a86612710610dba91906146ed565b61ffff1685610dc99190614723565b610dd39190614723565b610ddd9190614794565b610de791906147c5565b610df19190614794565b90506000610dfd610c85565b90506000821115610e3957610e388360020160009054906101000a900473ffffffffffffffffffffffffffffffffffffffff16878385611dcc565b5b60006305f5e1008089610e4c9190614794565b610e569190614723565b9050610e628184611ed7565b610e858283898b8a63ffffffff166040518060200160405280600081525061200d565b5050505050505050565b600080610e9a611d05565b9050600060648760ff16610eae9190614723565b6127108961ffff16610ec09190614723565b8a610ecb91906147c5565b610ed591906147c5565b90506063818360050160008c815260200190815260200160002054610efa9190614803565b12610f3a576040517f08c379a0000000000000000000000000000000000000000000000000000000008152600401610f3190614892565b60405180910390fd5b808260050160008b8152602001908152602001600020541015610f7257808260050160008b8152602001908152602001600020819055505b8160050160008a81526020019081526020016000206000815480929190610f989061445d565b91905055508160050160008a8152602001908152602001600020549250610fc183878787612438565b610fe48a610fcd610c85565b8589604051806020016040528060008152506124f3565b5050979650505050505050565b60606000610ffd6126a8565b9050806009016000848152602001908152602001600020805461101f906148e1565b80601f016020809104026020016040519081016040528092919081815260200182805461104b906148e1565b80156110985780601f1061106d57610100808354040283529160200191611098565b820191906000526020600020905b81548152906001019060200180831161107b57829003601f168201915b5050505050915050919050565b60006110af6126a8565b90508181600901600085815260200190815260200160002090816110d39190614af8565b50827f6bb7ff708619ba0610cba295a58592e0451dee2622938c8755667688daf3529b836040516111049190614c3e565b60405180910390a2505050565b60008260ff161480611126575060018260ff16145b611165576040517f08c379a000000000000000000000000000000000000000000000000000000000815260040161115c90614cac565b60405180910390fd5b6127108161ffff1611156111ae576040517f08c379a00000000000000000000000000000000000000000000000000000000081526004016111a5906146cd565b60405180910390fd5b60006111b8611d05565b905060008160020160009054906101000a900473ffffffffffffffffffffffffffffffffffffffff1673ffffffffffffffffffffffffffffffffffffffff1663313ce5676040518163ffffffff1660e01b8152600401602060405180830381865afa15801561122b573d6000803e3d6000fd5b505050506040513d601f19601f8201168201806040525081019061124f9190614ce1565b600a61125b9190614e41565b90506000600a90506000600a600183856112759190614723565b61127f9190614723565b6112899190614794565b905060008060018860ff160361135557600a60058585600a8d6112ac9190614e8c565b6fffffffffffffffffffffffffffffffff166112c89190614723565b6112d29190614794565b6112dc91906147c5565b6112e69190614794565b91508284836112f59190614723565b6112ff9190614794565b90506000821180156113115750600081115b611350576040517f08c379a000000000000000000000000000000000000000000000000000000000815260040161134790614f3b565b60405180910390fd5b6113e9565b82848a6fffffffffffffffffffffffffffffffff166113749190614723565b61137e9190614794565b905083838261138d9190614723565b6113979190614794565b91506000821180156113a95750600081115b6113e8576040517f08c379a00000000000000000000000000000000000000000000000000000000081526004016113df90614fcd565b60405180910390fd5b5b600a6005612710600a8a61271061140091906146ed565b61ffff168661140f9190614723565b6114199190614723565b6114239190614794565b61142d91906147c5565b6114379190614794565b91506000866000016000600160ff1660ff1681526020019081526020016000209050806000015482826001015461146e91906147c5565b11156114af576040517f08c379a00000000000000000000000000000000000000000000000000000000081526004016114a690615039565b60405180910390fd5b8181600101546114bf91906147c5565b816001018190555060006114d1610c85565b9050600084111561150d5761150c8860020160009054906101000a900473ffffffffffffffffffffffffffffffffffffffff168d8387611dcc565b5b61151b6317d7840085611ed7565b61153c81828e6317d78400876040518060200160405280600081525061200d565b82886007015461154c91906147c5565b8860070181905550505050505050505050505050565b60008061156d611d05565b905080600501600084815260200190815260200160002054915050919050565b6000611597611d05565b905060008160000160008660ff1660ff168152602001908152602001600020905080600001548363ffffffff1682600101546115d391906147c5565b1115611614576040517f08c379a000000000000000000000000000000000000000000000000000000000815260040161160b906150a5565b60405180910390fd5b8263ffffffff16816001015461162a91906147c5565b8160010181905550600061163c610c85565b90506116658182876317d784008863ffffffff166040518060200160405280600081525061200d565b8363ffffffff16836007015461167b91906147c5565b8360070181905550505050505050565b6127108161ffff1611156116d4576040517f08c379a00000000000000000000000000000000000000000000000000000000081526004016116cb906146cd565b60405180910390fd5b60006116de611d05565b905060008160020160009054906101000a900473ffffffffffffffffffffffffffffffffffffffff1673ffffffffffffffffffffffffffffffffffffffff1663313ce5676040518163ffffffff1660e01b8152600401602060405180830381865afa158015611751573d6000803e3d6000fd5b505050506040513d601f19601f820116820180604052508101906117759190614ce1565b600a6117819190614e41565b90506000600a6005612710600a8761271061179c91906146ed565b61ffff168660646117ad9190614723565b6117b79190614723565b6117c19190614723565b6117cb9190614794565b6117d591906147c5565b6117df9190614794565b905060006117eb610c85565b90506000821115611827576118268460020160009054906101000a900473ffffffffffffffffffffffffffffffffffffffff16878385611dcc565b5b611849818288631dcd650060016040518060200160405280600081525061200d565b611857631dcd650083611ed7565b505050505050565b600080600061186c611d05565b90508060000160008560ff1660ff1681526020019081526020016000206000015492508060000160008560ff1660ff16815260200190815260200160002060010154915050915091565b60008260ff1614806118cb575060018260ff16145b61190a576040517f08c379a000000000000000000000000000000000000000000000000000000000815260040161190190614cac565b60405180910390fd5b6127108161ffff161115611953576040517f08c379a000000000000000000000000000000000000000000000000000000000815260040161194a906146cd565b60405180910390fd5b600061195d611d05565b905060008160020160009054906101000a900473ffffffffffffffffffffffffffffffffffffffff1673ffffffffffffffffffffffffffffffffffffffff1663313ce5676040518163ffffffff1660e01b8152600401602060405180830381865afa1580156119d0573d6000803e3d6000fd5b505050506040513d601f19601f820116820180604052508101906119f49190614ce1565b600a611a009190614e41565b90506000600a9050600060018284611a189190614723565b611a229190614723565b905060008060018860ff1603611aee57600a60058585600a8d611a459190614e8c565b6fffffffffffffffffffffffffffffffff16611a619190614723565b611a6b9190614794565b611a7591906147c5565b611a7f9190614794565b9150828483611a8e9190614723565b611a989190614794565b9050600082118015611aaa5750600081115b611ae9576040517f08c379a0000000000000000000000000000000000000000000000000000000008152600401611ae090615137565b60405180910390fd5b611b82565b82848a6fffffffffffffffffffffffffffffffff16611b0d9190614723565b611b179190614794565b9050838382611b269190614723565b611b309190614794565b9150600082118015611b425750600081115b611b81576040517f08c379a0000000000000000000000000000000000000000000000000000000008152600401611b78906151c9565b60405180910390fd5b5b600a6005612710600a8a612710611b9991906146ed565b61ffff1686611ba89190614723565b611bb29190614723565b611bbc9190614794565b611bc691906147c5565b611bd09190614794565b91506000611bdc610c85565b90506000831115611c1857611c178760020160009054906101000a900473ffffffffffffffffffffffffffffffffffffffff168c8386611dcc565b5b611c266311e1a30084611ed7565b611c468c8c6311e1a30085604051806020016040528060008152506124f3565b505050505050505050505050565b6000807ff72346055b4d7224c7ec19860d22963ca622fbb313761bfba507c1a3aeedf37290508091505090565b611c8b82826126d5565b611cce5781816040517f521dcf0d000000000000000000000000000000000000000000000000000000008152600401611cc5929190615211565b60405180910390fd5b5050565b6000611cdc612776565b600001600083815260200190815260200160002060009054906101000a900460ff169050919050565b6000807f1a2f703e435318ee39feac62abda44020ca215505d5ba3284195182c842a2d3090508091505090565b600080611d3d6127a3565b9050600081600001600086815260200190815260200160002090506000611d6482866127d0565b9050848260010154611d76919061523a565b8260010181905550808260020154611d8e91906147c5565b82600201819055506000826001015403611dc05760008260000160006101000a81548160ff0219169083151502179055505b80935050505092915050565b6000611e698573ffffffffffffffffffffffffffffffffffffffff166323b872dd868686604051602401611e029392919061526e565b604051602081830303815290604052915060e01b6020820180517bffffffffffffffffffffffffffffffffffffffffffffffffffffffff83818316178352505050508673ffffffffffffffffffffffffffffffffffffffff1661291190919063ffffffff16565b90506000815114158015611e8e575080806020019051810190611e8c91906152dd565b155b15611ed057846040517f5274afe7000000000000000000000000000000000000000000000000000000008152600401611ec7919061530a565b60405180910390fd5b5050505050565b6000611ee1611d05565b9050600081600101600085815260200190815260200160002060000160049054906101000a900463ffffffff1682600101600086815260200190815260200160002060000160009054906101000a900463ffffffff16611f419190615325565b63ffffffff1682600101600086815260200190815260200160002060000160009054906101000a900463ffffffff1663ffffffff1684611f819190614723565b611f8b9190614794565b905060008184611f9b919061523a565b9050611fd08360020160009054906101000a900473ffffffffffffffffffffffffffffffffffffffff166317d784008461293e565b81836003016000828254611fe491906147c5565b9250508190555080836004016000828254611fff91906147c5565b925050819055505050505050565b600073ffffffffffffffffffffffffffffffffffffffff168473ffffffffffffffffffffffffffffffffffffffff1603612073576040517fa25202b800000000000000000000000000000000000000000000000000000000815260040160405180910390fd5b600061207e84612a3f565b9050600061208b84612a3f565b905061209b888888858588612ab9565b60006120a56126a8565b90506120b18187612d6a565b600081600001600088815260200190815260200160002060008a73ffffffffffffffffffffffffffffffffffffffff1673ffffffffffffffffffffffffffffffffffffffff16815260200190815260200160002054905080861115612142576040517fb38aedf300000000000000000000000000000000000000000000000000000000815260040160405180910390fd5b61214e8a8a8989612dda565b85810382600001600089815260200190815260200160002060008b73ffffffffffffffffffffffffffffffffffffffff1673ffffffffffffffffffffffffffffffffffffffff168152602001908152602001600020819055508873ffffffffffffffffffffffffffffffffffffffff168a73ffffffffffffffffffffffffffffffffffffffff16146123295781600201600088815260200190815260200160002060009054906101000a900460ff161561232857858260030160008b73ffffffffffffffffffffffffffffffffffffffff1673ffffffffffffffffffffffffffffffffffffffff16815260200190815260200160002060008c73ffffffffffffffffffffffffffffffffffffffff1673ffffffffffffffffffffffffffffffffffffffff168152602001908152602001600020600089815260200190815260200160002054038260030160008b73ffffffffffffffffffffffffffffffffffffffff1673ffffffffffffffffffffffffffffffffffffffff16815260200190815260200160002060008c73ffffffffffffffffffffffffffffffffffffffff1673ffffffffffffffffffffffffffffffffffffffff1681526020019081526020016000206000898152602001908152602001600020819055505b5b8582600001600089815260200190815260200160002060008a73ffffffffffffffffffffffffffffffffffffffff1673ffffffffffffffffffffffffffffffffffffffff168152602001908152602001600020600082825461238b91906147c5565b925050819055508773ffffffffffffffffffffffffffffffffffffffff168973ffffffffffffffffffffffffffffffffffffffff168b73ffffffffffffffffffffffffffffffffffffffff167fc3d58168c5ae7397731d063d5bbf3d657854427343f4c083240f7aacaa2d0f628a8a604051612408929190614388565b60405180910390a461241e8a8a8a87878a612fd7565b61242c8a8a8a8a8a8a612fed565b50505050505050505050565b60006124426127a3565b90506000816000016000878152602001908152602001600020905060018160000160006101000a81548160ff021916908315150217905550848160010181905550600084146124a7578385866124989190614723565b6124a29190614723565b6124b4565b84856124b39190614723565b5b816003018190555083816004018190555060008314806124d357508383105b6124dd57826124e3565b80600301545b8160050181905550505050505050565b600073ffffffffffffffffffffffffffffffffffffffff168473ffffffffffffffffffffffffffffffffffffffff1603612559576040517fefac521700000000000000000000000000000000000000000000000000000000815260040160405180910390fd5b600061256484612a3f565b9050600061257184612a3f565b905061258287600088858588612ab9565b600061258c6126a8565b90506125988187612d6a565b8481600001600088815260200190815260200160002060008973ffffffffffffffffffffffffffffffffffffffff1673ffffffffffffffffffffffffffffffffffffffff16815260200190815260200160002060008282546125fa91906147c5565b925050819055508673ffffffffffffffffffffffffffffffffffffffff16600073ffffffffffffffffffffffffffffffffffffffff168973ffffffffffffffffffffffffffffffffffffffff167fc3d58168c5ae7397731d063d5bbf3d657854427343f4c083240f7aacaa2d0f628989604051612678929190614388565b60405180910390a461268f88600089868689612fd7565b61269e88600089898989612fed565b5050505050505050565b6000807fe20f5a7f7e820e4505f9ef8ed1186e372d3490e37d8001618819927829be4e0590508091505090565b6000806126e06131b2565b905061276d838260010160008460000160009054906101000a900473ffffffffffffffffffffffffffffffffffffffff1673ffffffffffffffffffffffffffffffffffffffff1673ffffffffffffffffffffffffffffffffffffffff16815260200190815260200160002060008781526020019081526020016000206001016131df90919063ffffffff16565b91505092915050565b6000807fe8ceb94393aac3e803a9d4b376f7c5ffd7e8b6caab697212a5360c34a283caa190508091505090565b6000807f47b8e8b32475ba6530f41efddbadc333684d4f798e5f4689344334684c5f262590508091505090565b60008260000160009054906101000a900460ff16612823576040517f08c379a000000000000000000000000000000000000000000000000000000000815260040161281a906153cf565b60405180910390fd5b826001015482111561286a576040517f08c379a00000000000000000000000000000000000000000000000000000000081526004016128619061543b565b60405180910390fd5b6000600a60056001858760010154612882919061523a565b61288c91906147c5565b866001015461289b9190614723565b866003015486600a6128ad9190614723565b6128b79190614723565b6128c19190614794565b6128cb91906147c5565b6128d59190614794565b90506129088460050154846128ea9190614723565b6129038660040154866128fd9190614723565b8461320f565b613228565b91505092915050565b60606129368383604051806060016040528060238152602001615b5160239139613241565b905092915050565b6000612948613259565b905060008160000160008673ffffffffffffffffffffffffffffffffffffffff1673ffffffffffffffffffffffffffffffffffffffff168152602001908152602001600020600085815260200190815260200160002090508060000160009054906101000a900460ff166129bd575050612a3a565b6000831215612a01576040517f08c379a00000000000000000000000000000000000000000000000000000000081526004016129f8906154a7565b60405180910390fd5b82816002016000828254612a1591906154c7565b9250508190555082816003016000828254612a3091906154c7565b9250508190555050505b505050565b60606000600167ffffffffffffffff811115612a5e57612a5d61491d565b5b604051908082528060200260200182016040528015612a8c5781602001602082028036833780820191505090505b5090508281600081518110612aa457612aa361550b565b5b60200260200101818152505080915050919050565b8373ffffffffffffffffffffffffffffffffffffffff168573ffffffffffffffffffffffffffffffffffffffff1614612d54576000612af66126a8565b9050600081600501905060008260060160008973ffffffffffffffffffffffffffffffffffffffff1673ffffffffffffffffffffffffffffffffffffffff168152602001908152602001600020905060008360060160008973ffffffffffffffffffffffffffffffffffffffff1673ffffffffffffffffffffffffffffffffffffffff168152602001908152602001600020905060005b8751811015612d4e576000878281518110612bab57612baa61550b565b5b602002602001015190506000811115612d40576000898381518110612bd357612bd261550b565b5b60200260200101519050600073ffffffffffffffffffffffffffffffffffffffff168c73ffffffffffffffffffffffffffffffffffffffff1603612c4257818760040160008381526020019081526020016000206000828254612c3691906147c5565b92505081905550612c8d565b81612c4d8d83613286565b03612c8c57612c768c87600084815260200190815260200160002061335590919063ffffffff16565b50612c8a818661338590919063ffffffff16565b505b5b600073ffffffffffffffffffffffffffffffffffffffff168b73ffffffffffffffffffffffffffffffffffffffff1603612cf257818760040160008381526020019081526020016000206000828254612ce6919061523a565b92505081905550612d3e565b6000612cfe8c83613286565b03612d3d57612d278b87600084815260200190815260200160002061339f90919063ffffffff16565b50612d3b81856133cf90919063ffffffff16565b505b5b505b818060010192505050612b8d565b50505050505b612d628686868686866133e9565b505050505050565b612d7382613432565b81600b01600082815260200190815260200160002060009054906101000a900460ff1615612dd6576040517f08c379a0000000000000000000000000000000000000000000000000000000008152600401612dcd90615586565b60405180910390fd5b5050565b6000612de46126a8565b90508473ffffffffffffffffffffffffffffffffffffffff168473ffffffffffffffffffffffffffffffffffffffff1614612fd0578060010160008573ffffffffffffffffffffffffffffffffffffffff1673ffffffffffffffffffffffffffffffffffffffff16815260200190815260200160002060008673ffffffffffffffffffffffffffffffffffffffff1673ffffffffffffffffffffffffffffffffffffffff16815260200190815260200160002060009054906101000a900460ff16612edb576040517f3d2f0b3700000000000000000000000000000000000000000000000000000000815260040160405180910390fd5b80600201600084815260200190815260200160002060009054906101000a900460ff168015612f985750818160030160008673ffffffffffffffffffffffffffffffffffffffff1673ffffffffffffffffffffffffffffffffffffffff16815260200190815260200160002060008773ffffffffffffffffffffffffffffffffffffffff1673ffffffffffffffffffffffffffffffffffffffff168152602001908152602001600020600085815260200190815260200160002054105b15612fcf576040517f32af163800000000000000000000000000000000000000000000000000000000815260040160405180910390fd5b5b5050505050565b612fe5868686868686613487565b505050505050565b61300c8473ffffffffffffffffffffffffffffffffffffffff16613575565b156131aa578373ffffffffffffffffffffffffffffffffffffffff1663f23a6e6187878686866040518663ffffffff1660e01b81526004016130529594939291906155fb565b6020604051808303816000875af192505050801561308e57506040513d601f19601f8201168201806040525081019061308b91906156ad565b60015b61312a5761309a6156e7565b806308c379a0036130f657506130ae61573a565b806130b957506130f8565b806040517f08c379a00000000000000000000000000000000000000000000000000000000081526004016130ed9190614c3e565b60405180910390fd5b505b6040517f4eebd08100000000000000000000000000000000000000000000000000000000815260040160405180910390fd5b63f23a6e6160e01b7bffffffffffffffffffffffffffffffffffffffffffffffffffffffff1916817bffffffffffffffffffffffffffffffffffffffffffffffffffffffff1916146131a8576040517f542073e700000000000000000000000000000000000000000000000000000000815260040160405180910390fd5b505b505050505050565b6000807f746c6723185dc95a8925081faed89cbd4670299390e2ebfb0b9c3e755e204ef490508091505090565b6000613207836000018373ffffffffffffffffffffffffffffffffffffffff1660001b613588565b905092915050565b600081831161321e5781613220565b825b905092915050565b60008183116132375782613239565b815b905092915050565b606061325084846000856135ab565b90509392505050565b6000807ff0375085caeab71645bf74d020ee2aa37bc7b653d9e55911c1084d8c88b3c05c90508091505090565b60008073ffffffffffffffffffffffffffffffffffffffff168373ffffffffffffffffffffffffffffffffffffffff16036132ed576040517f4a772c2700000000000000000000000000000000000000000000000000000000815260040160405180910390fd5b60006132f76126a8565b905080600001600084815260200190815260200160002060008573ffffffffffffffffffffffffffffffffffffffff1673ffffffffffffffffffffffffffffffffffffffff1681526020019081526020016000205491505092915050565b600061337d836000018373ffffffffffffffffffffffffffffffffffffffff1660001b6136c4565b905092915050565b6000613397836000018360001b6136c4565b905092915050565b60006133c7836000018373ffffffffffffffffffffffffffffffffffffffff1660001b6137a8565b905092915050565b60006133e1836000018360001b6137a8565b905092915050565b600073ffffffffffffffffffffffffffffffffffffffff168573ffffffffffffffffffffffffffffffffffffffff161461342a5761342885848461380f565b505b505050505050565b80600a0160009054906101000a900460ff1615613484576040517f08c379a000000000000000000000000000000000000000000000000000000000815260040161347b90615816565b60405180910390fd5b50565b600073ffffffffffffffffffffffffffffffffffffffff168573ffffffffffffffffffffffffffffffffffffffff16146134c9576134c885848460006138b1565b5b600073ffffffffffffffffffffffffffffffffffffffff168473ffffffffffffffffffffffffffffffffffffffff161461350b5761350a84848460016138b1565b5b60005b835181101561356c5761355f61352261394c565b8583815181106135355761353461550b565b5b602002602001015188888786815181106135525761355161550b565b5b6020026020010151613984565b808060010191505061350e565b50505050505050565b600080823b905060008111915050919050565b600080836001016000848152602001908152602001600020541415905092915050565b60606135b685613575565b6135ec576040517f89c35afc00000000000000000000000000000000000000000000000000000000815260040160405180910390fd5b6000808673ffffffffffffffffffffffffffffffffffffffff1685876040516136159190615872565b60006040518083038185875af1925050503d8060008114613652576040519150601f19603f3d011682016040523d82523d6000602084013e613657565b606091505b5091509150811561366c5780925050506136bc565b60008151111561367f5780518082602001fd5b836040517f08c379a00000000000000000000000000000000000000000000000000000000081526004016136b39190614c3e565b60405180910390fd5b949350505050565b600080836001016000848152602001908152602001600020549050600081146137a1576000846000016001866000018054905003815481106137095761370861550b565b5b90600052602060002001549050808560000160018403815481106137305761372f61550b565b5b90600052602060002001819055508185600101600083815260200190815260200160002081905550508360000180548061376d5761376c615889565b5b6001900381819060005260206000200160009055905583600101600084815260200190815260200160002060009055600191505b5092915050565b60006137b48383613588565b6138095782600001829080600181540180825580915050600190039060005260206000200160009091909190915055826000018054905083600101600084815260200190815260200160002081905550600190505b92915050565b6000815183511461384c576040517f583b4bea00000000000000000000000000000000000000000000000000000000815260040160405180910390fd5b60005b83518110156138a5576138978585838151811061386f5761386e61550b565b5b602002602001015185848151811061388a5761388961550b565b5b6020026020010151613ab8565b50808060010191505061384f565b50600190509392505050565b81518351146138ec576040517f583b4bea00000000000000000000000000000000000000000000000000000000815260040160405180910390fd5b60005b8351811015613945576139388585838151811061390f5761390e61550b565b5b602002602001015185848151811061392a5761392961550b565b5b602002602001015185613c0a565b80806001019150506138ef565b5050505050565b600080613957611d05565b90508060020160009054906101000a900473ffffffffffffffffffffffffffffffffffffffff1691505090565b600061398e613259565b905060008160000160008873ffffffffffffffffffffffffffffffffffffffff1673ffffffffffffffffffffffffffffffffffffffff168152602001908152602001600020600087815260200190815260200160002090508060000160009054906101000a900460ff16613a03575050613ab1565b600073ffffffffffffffffffffffffffffffffffffffff168573ffffffffffffffffffffffffffffffffffffffff1614613a6e57613a6d8186857fffffffffffffffffffffffffffffffffffffffffffffffffffffffffffffffff613a6891906158b8565b613da8565b5b600073ffffffffffffffffffffffffffffffffffffffff168473ffffffffffffffffffffffffffffffffffffffff1614613aae57613aad818585613da8565b5b50505b5050505050565b600080613ac3613f29565b90506000816000016000868152602001908152602001600020905043816001015411613af457600192505050613c03565b60008160030160008873ffffffffffffffffffffffffffffffffffffffff1673ffffffffffffffffffffffffffffffffffffffff16815260200190815260200160002090506000600c82600301548360000154613b51919061523a565b613b5b9190614794565b8360020154836002015443613b70919061523a565b613b7a9190614794565b613b849190614723565b905060008260010154613baa838560030154613ba091906147c5565b8560000154613228565b613bb4919061523a565b905080871115613bf9576040517f08c379a0000000000000000000000000000000000000000000000000000000008152600401613bf0906159a2565b60405180910390fd5b6001955050505050505b9392505050565b6000613c14613f29565b90506000816000016000868152602001908152602001600020905043816001015411613c41575050613da2565b60008160030160008873ffffffffffffffffffffffffffffffffffffffff1673ffffffffffffffffffffffffffffffffffffffff168152602001908152602001600020905043826000015411613cdb5760018460ff1603613cd35784816000016000828254613cb091906147c5565b9250508190555084816003016000828254613ccb91906147c5565b925050819055505b505050613da2565b6000600c82600301548360000154613cf3919061523a565b613cfd9190614794565b8360020154836002015443613d12919061523a565b613d1c9190614794565b613d269190614723565b9050613d45818360030154613d3b91906147c5565b8360000154613228565b826003018190555060018560ff1603613d785785826000016000828254613d6c91906147c5565b92505081905550613d94565b85826001016000828254613d8c91906147c5565b925050819055505b438260020181905550505050505b50505050565b60008360040160008473ffffffffffffffffffffffffffffffffffffffff1673ffffffffffffffffffffffffffffffffffffffff16815260200190815260200160002090506000828560010154613dff91906154c7565b1215613e40576040517f08c379a0000000000000000000000000000000000000000000000000000000008152600401613e3790615a34565b60405180910390fd5b6000828260000154613e5291906154c7565b1215613e93576040517f08c379a0000000000000000000000000000000000000000000000000000000008152600401613e8a90615ac6565b60405180910390fd5b600080856001015414613ec2578460010154838660030154613eb591906158b8565b613ebf9190615ae6565b90505b828560010154613ed291906154c7565b8560010181905550808560030154613eea91906154c7565b8560030181905550828260000154613f0291906154c7565b8260000181905550808260010154613f1a9190614803565b82600101819055505050505050565b6000807fb666c964c288db81fc3205a9feeb13cfebbde2a4a4664c45ea26ef9d3d8de79290508091505090565b6000604051905090565b600080fd5b600073ffffffffffffffffffffffffffffffffffffffff82169050919050565b6000613f9082613f65565b9050919050565b613fa081613f85565b8114613fab57600080fd5b50565b600081359050613fbd81613f97565b92915050565b6000819050919050565b613fd681613fc3565b8114613fe157600080fd5b50565b600081359050613ff381613fcd565b92915050565b600063ffffffff82169050919050565b61401281613ff9565b811461401d57600080fd5b50565b60008135905061402f81614009565b92915050565b600061ffff82169050919050565b61404c81614035565b811461405757600080fd5b50565b60008135905061406981614043565b92915050565b6000806000806080858703121561408957614088613f60565b5b600061409787828801613fae565b94505060206140a887828801613fe4565b93505060406140b987828801614020565b92505060606140ca8782880161405a565b91505092959194509250565b600060ff82169050919050565b6140ec816140d6565b81146140f757600080fd5b50565b600081359050614109816140e3565b92915050565b60008060008060008060c0878903121561412c5761412b613f60565b5b600061413a89828a01613fe4565b965050602061414b89828a0161405a565b955050604061415c89828a016140fa565b945050606061416d89828a01613fe4565b935050608061417e89828a01613fe4565b92505060a061418f89828a01613fe4565b9150509295509295509295565b6141a581613fc3565b82525050565b60006020820190506141c0600083018461419c565b92915050565b60006fffffffffffffffffffffffffffffffff82169050919050565b6141eb816141c6565b81146141f657600080fd5b50565b600081359050614208816141e2565b92915050565b6000806000806080858703121561422857614227613f60565b5b600061423687828801613fae565b9450506020614247878288016141f9565b9350506040614258878288016140fa565b92505060606142698782880161405a565b91505092959194509250565b60008060006060848603121561428e5761428d613f60565b5b600061429c86828701613fae565b93505060206142ad86828701614020565b92505060406142be8682870161405a565b9150509250925092565b6000806000606084860312156142e1576142e0613f60565b5b60006142ef868287016140fa565b935050602061430086828701613fae565b925050604061431186828701614020565b9150509250925092565b6000806040838503121561433257614331613f60565b5b600061434085828601613fae565b92505060206143518582860161405a565b9150509250929050565b60006020828403121561437157614370613f60565b5b600061437f848285016140fa565b91505092915050565b600060408201905061439d600083018561419c565b6143aa602083018461419c565b9392505050565b600082825260208201905092915050565b7f4e4f545f414c4c4f574544000000000000000000000000000000000000000000600082015250565b60006143f8600b836143b1565b9150614403826143c2565b602082019050919050565b60006020820190508181036000830152614427816143eb565b9050919050565b7f4e487b7100000000000000000000000000000000000000000000000000000000600052601160045260246000fd5b600061446882613fc3565b91507fffffffffffffffffffffffffffffffffffffffffffffffffffffffffffffffff820361449a5761449961442e565b5b600182019050919050565b7f5265656e74727950726f74656374696f6e3a207265656e74727920646574656360008201527f7465642100000000000000000000000000000000000000000000000000000000602082015250565b60006145016024836143b1565b915061450c826144a5565b604082019050919050565b60006020820190508181036000830152614530816144f4565b9050919050565b7f4f6e6c7920737562736372697074696f6e20746f6b656e20747970652069732060008201527f7065726d69747465642100000000000000000000000000000000000000000000602082015250565b6000614593602a836143b1565b915061459e82614537565b604082019050919050565b600060208201905081810360008301526145c281614586565b9050919050565b7f5061796f75742063616e206265206d6164652066726f6d2041726578612c204d60008201527f61726b6574696e67206f7220446576656c6f706d656e7420706f6f6c21000000602082015250565b6000614625603d836143b1565b9150614630826145c9565b604082019050919050565b6000602082019050818103600083015261465481614618565b9050919050565b7f446973636f756e742070657263656e742063616e6e6f74206265206d6f72652060008201527f7468656e203130302c3030250000000000000000000000000000000000000000602082015250565b60006146b7602c836143b1565b91506146c28261465b565b604082019050919050565b600060208201905081810360008301526146e6816146aa565b9050919050565b60006146f882614035565b915061470383614035565b9250828203905061ffff81111561471d5761471c61442e565b5b92915050565b600061472e82613fc3565b915061473983613fc3565b925082820261474781613fc3565b9150828204841483151761475e5761475d61442e565b5b5092915050565b7f4e487b7100000000000000000000000000000000000000000000000000000000600052601260045260246000fd5b600061479f82613fc3565b91506147aa83613fc3565b9250826147ba576147b9614765565b5b828204905092915050565b60006147d082613fc3565b91506147db83613fc3565b92508282019050808211156147f3576147f261442e565b5b92915050565b6000819050919050565b600061480e826147f9565b9150614819836147f9565b92508282039050818112600084121682821360008512151617156148405761483f61442e565b5b92915050565b7f43616e27742063726561746520666f72206f6c64206d6f6e7468730000000000600082015250565b600061487c601b836143b1565b915061488782614846565b602082019050919050565b600060208201905081810360008301526148ab8161486f565b9050919050565b7f4e487b7100000000000000000000000000000000000000000000000000000000600052602260045260246000fd5b600060028204905060018216806148f957607f821691505b60208210810361490c5761490b6148b2565b5b50919050565b600081519050919050565b7f4e487b7100000000000000000000000000000000000000000000000000000000600052604160045260246000fd5b60008190508160005260206000209050919050565b60006020601f8301049050919050565b600082821b905092915050565b6000600883026149ae7fffffffffffffffffffffffffffffffffffffffffffffffffffffffffffffffff82614971565b6149b88683614971565b95508019841693508086168417925050509392505050565b6000819050919050565b60006149f56149f06149eb84613fc3565b6149d0565b613fc3565b9050919050565b6000819050919050565b614a0f836149da565b614a23614a1b826149fc565b84845461497e565b825550505050565b600090565b614a38614a2b565b614a43818484614a06565b505050565b5b81811015614a6757614a5c600082614a30565b600181019050614a49565b5050565b601f821115614aac57614a7d8161494c565b614a8684614961565b81016020851015614a95578190505b614aa9614aa185614961565b830182614a48565b50505b505050565b600082821c905092915050565b6000614acf60001984600802614ab1565b1980831691505092915050565b6000614ae88383614abe565b9150826002028217905092915050565b614b0182614912565b67ffffffffffffffff811115614b1a57614b1961491d565b5b614b2482546148e1565b614b2f828285614a6b565b600060209050601f831160018114614b625760008415614b50578287015190505b614b5a8582614adc565b865550614bc2565b601f198416614b708661494c565b60005b82811015614b9857848901518255600182019150602085019450602081019050614b73565b86831015614bb55784890151614bb1601f891682614abe565b8355505b6001600288020188555050505b505050505050565b60005b83811015614be8578082015181840152602081019050614bcd565b60008484015250505050565b6000601f19601f8301169050919050565b6000614c1082614912565b614c1a81856143b1565b9350614c2a818560208601614bca565b614c3381614bf4565b840191505092915050565b60006020820190508181036000830152614c588184614c05565b905092915050565b7f76616c7565547970652063616e2062652030206f722031206f6e6c7921000000600082015250565b6000614c96601d836143b1565b9150614ca182614c60565b602082019050919050565b60006020820190508181036000830152614cc581614c89565b9050919050565b600081519050614cdb816140e3565b92915050565b600060208284031215614cf757614cf6613f60565b5b6000614d0584828501614ccc565b91505092915050565b60008160011c9050919050565b6000808291508390505b6001851115614d6557808604811115614d4157614d4061442e565b5b6001851615614d505780820291505b8081029050614d5e85614d0e565b9450614d25565b94509492505050565b600082614d7e5760019050614e3a565b81614d8c5760009050614e3a565b8160018114614da25760028114614dac57614ddb565b6001915050614e3a565b60ff841115614dbe57614dbd61442e565b5b8360020a915084821115614dd557614dd461442e565b5b50614e3a565b5060208310610133831016604e8410600b8410161715614e105782820a905083811115614e0b57614e0a61442e565b5b614e3a565b614e1d8484846001614d1b565b92509050818404811115614e3457614e3361442e565b5b81810290505b9392505050565b6000614e4c82613fc3565b9150614e57836140d6565b9250614e847fffffffffffffffffffffffffffffffffffffffffffffffffffffffffffffffff8484614d6e565b905092915050565b6000614e97826141c6565b9150614ea2836141c6565b9250828202614eb0816141c6565b9150808214614ec257614ec161442e565b5b5092915050565b7f54686520696e707574207175616e7469747920697320746f6f20736d616c6c2060008201527f666f7220706179696e6720746f6b656e00000000000000000000000000000000602082015250565b6000614f256030836143b1565b9150614f3082614ec9565b604082019050919050565b60006020820190508181036000830152614f5481614f18565b9050919050565b7f54686520696e70757420616d6f756e7420697320746f6f20736d616c6c20666f60008201527f7220627579696e67206120746f6b656e00000000000000000000000000000000602082015250565b6000614fb76030836143b1565b9150614fc282614f5b565b604082019050919050565b60006020820190508181036000830152614fe681614faa565b9050919050565b7f4e6f7420656e6f75676820746f6b656e20746f2073656c6c0000000000000000600082015250565b60006150236018836143b1565b915061502e82614fed565b602082019050919050565b6000602082019050818103600083015261505281615016565b9050919050565b7f4e6f7420656e6f67756820746f6b656e20746f20676966740000000000000000600082015250565b600061508f6018836143b1565b915061509a82615059565b602082019050919050565b600060208201905081810360008301526150be81615082565b9050919050565b7f54686520696e707574207175616e7469747920697320746f6f20736d616c6c2060008201527f666f7220706179696e6720746f6b656e21000000000000000000000000000000602082015250565b60006151216031836143b1565b915061512c826150c5565b604082019050919050565b6000602082019050818103600083015261515081615114565b9050919050565b7f54686520696e70757420616d6f756e7420697320746f6f20736d616c6c20666f60008201527f7220627579696e67206120746f6b656e21000000000000000000000000000000602082015250565b60006151b36031836143b1565b91506151be82615157565b604082019050919050565b600060208201905081810360008301526151e2816151a6565b9050919050565b6000819050919050565b6151fc816151e9565b82525050565b61520b81613f85565b82525050565b600060408201905061522660008301856151f3565b6152336020830184615202565b9392505050565b600061524582613fc3565b915061525083613fc3565b92508282039050818111156152685761526761442e565b5b92915050565b60006060820190506152836000830186615202565b6152906020830185615202565b61529d604083018461419c565b949350505050565b60008115159050919050565b6152ba816152a5565b81146152c557600080fd5b50565b6000815190506152d7816152b1565b92915050565b6000602082840312156152f3576152f2613f60565b5b6000615301848285016152c8565b91505092915050565b600060208201905061531f6000830184615202565b92915050565b600061533082613ff9565b915061533b83613ff9565b9250828201905063ffffffff8111156153575761535661442e565b5b92915050565b7f43616c63756c6174696f6e206973206e6f7420656e61626c656420666f72207460008201527f686520746f6b656e210000000000000000000000000000000000000000000000602082015250565b60006153b96029836143b1565b91506153c48261535d565b604082019050919050565b600060208201905081810360008301526153e8816153ac565b9050919050565b7f4e6f7420656e6f75676874207175616e74697479206c65667421000000000000600082015250565b6000615425601a836143b1565b9150615430826153ef565b602082019050919050565b6000602082019050818103600083015261545481615418565b9050919050565b7f506f6f6c2063616e206f6e6c7920696e63726561736521000000000000000000600082015250565b60006154916017836143b1565b915061549c8261545b565b602082019050919050565b600060208201905081810360008301526154c081615484565b9050919050565b60006154d2826147f9565b91506154dd836147f9565b9250828201905082811215600083121683821260008412151617156155055761550461442e565b5b92915050565b7f4e487b7100000000000000000000000000000000000000000000000000000000600052603260045260246000fd5b7f546f6b656e206973207061757365642100000000000000000000000000000000600082015250565b60006155706010836143b1565b915061557b8261553a565b602082019050919050565b6000602082019050818103600083015261559f81615563565b9050919050565b600081519050919050565b600082825260208201905092915050565b60006155cd826155a6565b6155d781856155b1565b93506155e7818560208601614bca565b6155f081614bf4565b840191505092915050565b600060a0820190506156106000830188615202565b61561d6020830187615202565b61562a604083018661419c565b615637606083018561419c565b818103608083015261564981846155c2565b90509695505050505050565b60007fffffffff0000000000000000000000000000000000000000000000000000000082169050919050565b61568a81615655565b811461569557600080fd5b50565b6000815190506156a781615681565b92915050565b6000602082840312156156c3576156c2613f60565b5b60006156d184828501615698565b91505092915050565b60008160e01c9050919050565b600060033d11156157065760046000803e6157036000516156da565b90505b90565b61571282614bf4565b810181811067ffffffffffffffff821117156157315761573061491d565b5b80604052505050565b600060443d106157c75761574c613f56565b60043d036004823e80513d602482011167ffffffffffffffff821117156157745750506157c7565b808201805167ffffffffffffffff81111561579257505050506157c7565b80602083010160043d0385018111156157af5750505050506157c7565b6157be82602001850186615709565b82955050505050505b90565b7f416c6c20746f6b656e2069732070617573656421000000000000000000000000600082015250565b60006158006014836143b1565b915061580b826157ca565b602082019050919050565b6000602082019050818103600083015261582f816157f3565b9050919050565b600081905092915050565b600061584c826155a6565b6158568185615836565b9350615866818560208601614bca565b80840191505092915050565b600061587e8284615841565b915081905092915050565b7f4e487b7100000000000000000000000000000000000000000000000000000000600052603160045260246000fd5b60006158c3826147f9565b91506158ce836147f9565b92508282026158dc816147f9565b91507f800000000000000000000000000000000000000000000000000000000000000084146000841216156159145761591361442e565b5b82820584148315176159295761592861442e565b5b5092915050565b7f54686520616d6f756e7420697320677261746572207468656e2074686520616360008201527f63756d6c6174656420282773656c6c61626c65272920616d6f756e7421000000602082015250565b600061598c603d836143b1565b915061599782615930565b604082019050919050565b600060208201905081810360008301526159bb8161597f565b9050919050565b7f506f6f6c20746f6b656e207175616e6974792063616e2774206265206c65737360008201527f207468656e207a65726f21000000000000000000000000000000000000000000602082015250565b6000615a1e602b836143b1565b9150615a29826159c2565b604082019050919050565b60006020820190508181036000830152615a4d81615a11565b9050919050565b7f5573657220746f6b656e207175616e6974792063616e2774206265206c65737360008201527f207468656e207a65726f21000000000000000000000000000000000000000000602082015250565b6000615ab0602b836143b1565b9150615abb82615a54565b604082019050919050565b60006020820190508181036000830152615adf81615aa3565b9050919050565b6000615af1826147f9565b9150615afc836147f9565b925082615b0c57615b0b614765565b5b600160000383147f800000000000000000000000000000000000000000000000000000000000000083141615615b4557615b4461442e565b5b82820590509291505056fe416464726573735574696c733a206661696c6564206c6f772d6c6576656c2063616c6ca2646970667358221220da76045f846c4406747d7c905bb8f9cf8f27e2e8d17a7825e57ad25b853c093764736f6c63430008110033",
  "devdoc": {
    "kind": "dev",
    "methods": {},
    "version": 1
  },
  "userdoc": {
    "kind": "user",
    "methods": {},
    "version": 1
  },
  "storageLayout": {
    "storage": [],
    "types": null
  }
}