{
  "address": "0x04cD577f469e3461D272fF040818F5D9c5fcbA4d",
  "abi": [
    {
      "inputs": [],
      "stateMutability": "nonpayable",
      "type": "constructor"
    },
    {
      "inputs": [
        {
          "internalType": "bytes32",
          "name": "role",
          "type": "bytes32"
        },
        {
          "internalType": "address",
          "name": "account",
          "type": "address"
        }
      ],
      "name": "AccessDenied",
      "type": "error"
    },
    {
      "inputs": [],
      "name": "LibERC1155__ArrayLengthMismatch",
      "type": "error"
    },
    {
      "inputs": [],
      "name": "LibERC1155__BalanceQueryZeroAddress",
      "type": "error"
    },
    {
      "inputs": [],
      "name": "LibERC1155__ERC1155ReceiverNotImplemented",
      "type": "error"
    },
    {
      "inputs": [],
      "name": "LibERC1155__ERC1155ReceiverRejected",
      "type": "error"
    },
    {
      "inputs": [],
      "name": "LibERC1155__MintToZeroAddress",
      "type": "error"
    },
    {
      "inputs": [],
      "name": "LibERC1155__NotOwnerOrApproved",
      "type": "error"
    },
    {
      "inputs": [],
      "name": "LibERC1155__NotOwnerOrApprovedLimit",
      "type": "error"
    },
    {
      "inputs": [],
      "name": "LibERC1155__TransferExceedsBalance",
      "type": "error"
    },
    {
      "inputs": [],
      "name": "LibERC1155__TransferToZeroAddress",
      "type": "error"
    },
    {
      "inputs": [],
      "name": "TargetedPausable__TargetedPaused",
      "type": "error"
    },
    {
      "inputs": [
        {
          "internalType": "address",
          "name": "toAccount",
          "type": "address"
        }
      ],
      "name": "buyMagic100TokenAdmin",
      "outputs": [],
      "stateMutability": "nonpayable",
      "type": "function"
    },
    {
      "inputs": [
        {
          "internalType": "uint256",
          "name": "tokenType",
          "type": "uint256"
        },
        {
          "internalType": "uint16",
          "name": "year",
          "type": "uint16"
        },
        {
          "internalType": "uint8",
          "name": "month",
          "type": "uint8"
        },
        {
          "internalType": "uint256",
          "name": "quantity",
          "type": "uint256"
        },
        {
          "internalType": "uint256",
          "name": "min",
          "type": "uint256"
        },
        {
          "internalType": "uint256",
          "name": "max",
          "type": "uint256"
        }
      ],
      "name": "createSubscription",
      "outputs": [
        {
          "internalType": "uint256",
          "name": "tokenId",
          "type": "uint256"
        }
      ],
      "stateMutability": "nonpayable",
      "type": "function"
    },
    {
      "inputs": [
        {
          "internalType": "uint8",
          "name": "_tokenType",
          "type": "uint8"
        }
      ],
      "name": "getArexaTokenPool",
      "outputs": [
        {
          "components": [
            {
              "internalType": "uint256",
              "name": "total",
              "type": "uint256"
            },
            {
              "internalType": "uint256",
              "name": "sold",
              "type": "uint256"
            }
          ],
          "internalType": "struct ArexaTokenPool",
          "name": "",
          "type": "tuple"
        }
      ],
      "stateMutability": "view",
      "type": "function"
    },
    {
      "inputs": [
        {
          "internalType": "uint8",
          "name": "poolType",
          "type": "uint8"
        },
        {
          "internalType": "address",
          "name": "account",
          "type": "address"
        },
        {
          "internalType": "uint32",
          "name": "quantity",
          "type": "uint32"
        }
      ],
      "name": "payArexaTokenFromPool",
      "outputs": [],
      "stateMutability": "nonpayable",
      "type": "function"
    }
  ],
  "transactionHash": "0x3fa9615b46fe562e5b61d513212650d005a24ce5e4385c0863e088c1b0e1350e",
  "args": [],
  "numDeployments": 1,
  "solcInputHash": "ced8961b173ebba7aa99c056d260084d",
  "bytecode": "0x608060405234801561001057600080fd5b50613aea806100206000396000f3fe608060405234801561001057600080fd5b506004361061004c5760003560e01c8063065ab2ea14610051578063780ea57214610081578063dd5072b81461009d578063fdb23101146100cd575b600080fd5b61006b60048036038101906100669190612904565b6100e9565b60405161007891906129a0565b60405180910390f35b61009b60048036038101906100969190612a55565b610208565b005b6100b760048036038101906100b29190612aa8565b610331565b6040516100c49190612b13565b60405180910390f35b6100e760048036038101906100e29190612b2e565b6103be565b005b60006100f3610478565b73ffffffffffffffffffffffffffffffffffffffff163073ffffffffffffffffffffffffffffffffffffffff1614610160576040517f08c379a000000000000000000000000000000000000000000000000000000000815260040161015790612bb8565b60405180910390fd5b7f72a415ccbbed7752b009b01c3fad0a1694ff64e2a51c65a309c0517cd732d2d161018a816104b0565b6000801b610197816104bd565b6305f5e1008914806101ac5750630bebc20089145b6101eb576040517f08c379a00000000000000000000000000000000000000000000000000000000081526004016101e290612c4a565b60405180910390fd5b6101fa338a8a8a8a8a8a610500565b925050509695505050505050565b610210610478565b73ffffffffffffffffffffffffffffffffffffffff163073ffffffffffffffffffffffffffffffffffffffff161461027d576040517f08c379a000000000000000000000000000000000000000000000000000000000815260040161027490612bb8565b60405180910390fd5b7f72a415ccbbed7752b009b01c3fad0a1694ff64e2a51c65a309c0517cd732d2d16102a7816104b0565b6000801b6102b4816104bd565b600260ff168560ff1614806102cf5750600360ff168560ff16145b806102e05750600460ff168560ff16145b61031f576040517f08c379a000000000000000000000000000000000000000000000000000000000815260040161031690612cdc565b60405180910390fd5b61032a858585610662565b5050505050565b610339612832565b610341610478565b73ffffffffffffffffffffffffffffffffffffffff163073ffffffffffffffffffffffffffffffffffffffff16146103ae576040517f08c379a00000000000000000000000000000000000000000000000000000000081526004016103a590612bb8565b60405180910390fd5b6103b782610760565b9050919050565b6103c6610478565b73ffffffffffffffffffffffffffffffffffffffff163073ffffffffffffffffffffffffffffffffffffffff1614610433576040517f08c379a000000000000000000000000000000000000000000000000000000000815260040161042a90612bb8565b60405180910390fd5b7f72a415ccbbed7752b009b01c3fad0a1694ff64e2a51c65a309c0517cd732d2d161045d816104b0565b6000801b61046a816104bd565b610473836107b6565b505050565b6000806104836109a2565b90508060000160009054906101000a900473ffffffffffffffffffffffffffffffffffffffff1691505090565b6104ba81336109cf565b50565b6104c681610a20565b156104fd576040517f2d0a436a00000000000000000000000000000000000000000000000000000000815260040160405180910390fd5b50565b60008061050b610a53565b9050600060648760ff1661051f9190612d2b565b6127108961ffff166105319190612d2b565b8a61053c9190612d6d565b6105469190612d6d565b90506063818360050160008c81526020019081526020016000205461056b9190612dab565b126105ab576040517f08c379a00000000000000000000000000000000000000000000000000000000081526004016105a290612e3a565b60405180910390fd5b808260050160008b81526020019081526020016000205410156105e357808260050160008b8152602001908152602001600020819055505b8160050160008a8152602001908152602001600020600081548092919061060990612e5a565b91905055508160050160008a815260200190815260200160002054925061063283878787610a80565b6106558a61063e610478565b858960405180602001604052806000815250610b3b565b5050979650505050505050565b600061066c610a53565b905060008160000160008660ff1660ff168152602001908152602001600020905080600001548363ffffffff1682600101546106a89190612d6d565b11156106e9576040517f08c379a00000000000000000000000000000000000000000000000000000000081526004016106e090612eee565b60405180910390fd5b8263ffffffff1681600101546106ff9190612d6d565b81600101819055506000610711610478565b905061073a8182876317d784008863ffffffff1660405180602001604052806000815250610cf0565b8363ffffffff1683600701546107509190612d6d565b8360070181905550505050505050565b610768612832565b6000610772610a53565b90508060000160008460ff1660ff16815260200190815260200160002060405180604001604052908160008201548152602001600182015481525050915050919050565b60006107c0610a53565b905060008160020160009054906101000a900473ffffffffffffffffffffffffffffffffffffffff1673ffffffffffffffffffffffffffffffffffffffff1663313ce5676040518163ffffffff1660e01b8152600401602060405180830381865afa158015610833573d6000803e3d6000fd5b505050506040513d601f19601f820116820180604052508101906108579190612f23565b600a6108639190613083565b905060008160646108749190612d2b565b90506000610880610478565b905060008460020160009054906101000a900473ffffffffffffffffffffffffffffffffffffffff1673ffffffffffffffffffffffffffffffffffffffff166323b872dd8784866040518463ffffffff1660e01b81526004016108e5939291906130dd565b6020604051808303816000875af1158015610904573d6000803e3d6000fd5b505050506040513d601f19601f82011682018060405250810190610928919061314c565b90508061096a576040517f08c379a0000000000000000000000000000000000000000000000000000000008152600401610961906131eb565b60405180910390fd5b61098c828388631dcd6500600160405180602001604052806000815250610cf0565b61099a631dcd65008461111b565b505050505050565b6000807ff72346055b4d7224c7ec19860d22963ca622fbb313761bfba507c1a3aeedf37290508091505090565b6109d98282611251565b610a1c5781816040517f521dcf0d000000000000000000000000000000000000000000000000000000008152600401610a13929190613224565b60405180910390fd5b5050565b6000610a2a6112f2565b600001600083815260200190815260200160002060009054906101000a900460ff169050919050565b6000807f1a2f703e435318ee39feac62abda44020ca215505d5ba3284195182c842a2d3090508091505090565b6000610a8a61131f565b90506000816000016000878152602001908152602001600020905060018160000160006101000a81548160ff02191690831515021790555084816001018190555060008414610aef57838586610ae09190612d2b565b610aea9190612d2b565b610afc565b8485610afb9190612d2b565b5b81600301819055508381600401819055506000831480610b1b57508383105b610b255782610b2b565b80600301545b8160050181905550505050505050565b600073ffffffffffffffffffffffffffffffffffffffff168473ffffffffffffffffffffffffffffffffffffffff1603610ba1576040517fefac521700000000000000000000000000000000000000000000000000000000815260040160405180910390fd5b6000610bac8461134c565b90506000610bb98461134c565b9050610bca876000888585886113c6565b6000610bd4611677565b9050610be081876116a4565b8481600001600088815260200190815260200160002060008973ffffffffffffffffffffffffffffffffffffffff1673ffffffffffffffffffffffffffffffffffffffff1681526020019081526020016000206000828254610c429190612d6d565b925050819055508673ffffffffffffffffffffffffffffffffffffffff16600073ffffffffffffffffffffffffffffffffffffffff168973ffffffffffffffffffffffffffffffffffffffff167fc3d58168c5ae7397731d063d5bbf3d657854427343f4c083240f7aacaa2d0f628989604051610cc092919061324d565b60405180910390a4610cd788600089868689611714565b610ce68860008989898961172a565b5050505050505050565b600073ffffffffffffffffffffffffffffffffffffffff168473ffffffffffffffffffffffffffffffffffffffff1603610d56576040517fa25202b800000000000000000000000000000000000000000000000000000000815260040160405180910390fd5b6000610d618461134c565b90506000610d6e8461134c565b9050610d7e8888888585886113c6565b6000610d88611677565b9050610d9481876116a4565b600081600001600088815260200190815260200160002060008a73ffffffffffffffffffffffffffffffffffffffff1673ffffffffffffffffffffffffffffffffffffffff16815260200190815260200160002054905080861115610e25576040517fb38aedf300000000000000000000000000000000000000000000000000000000815260040160405180910390fd5b610e318a8a89896118ef565b85810382600001600089815260200190815260200160002060008b73ffffffffffffffffffffffffffffffffffffffff1673ffffffffffffffffffffffffffffffffffffffff168152602001908152602001600020819055508873ffffffffffffffffffffffffffffffffffffffff168a73ffffffffffffffffffffffffffffffffffffffff161461100c5781600201600088815260200190815260200160002060009054906101000a900460ff161561100b57858260030160008b73ffffffffffffffffffffffffffffffffffffffff1673ffffffffffffffffffffffffffffffffffffffff16815260200190815260200160002060008c73ffffffffffffffffffffffffffffffffffffffff1673ffffffffffffffffffffffffffffffffffffffff168152602001908152602001600020600089815260200190815260200160002054038260030160008b73ffffffffffffffffffffffffffffffffffffffff1673ffffffffffffffffffffffffffffffffffffffff16815260200190815260200160002060008c73ffffffffffffffffffffffffffffffffffffffff1673ffffffffffffffffffffffffffffffffffffffff1681526020019081526020016000206000898152602001908152602001600020819055505b5b8582600001600089815260200190815260200160002060008a73ffffffffffffffffffffffffffffffffffffffff1673ffffffffffffffffffffffffffffffffffffffff168152602001908152602001600020600082825461106e9190612d6d565b925050819055508773ffffffffffffffffffffffffffffffffffffffff168973ffffffffffffffffffffffffffffffffffffffff168b73ffffffffffffffffffffffffffffffffffffffff167fc3d58168c5ae7397731d063d5bbf3d657854427343f4c083240f7aacaa2d0f628a8a6040516110eb92919061324d565b60405180910390a46111018a8a8a87878a611714565b61110f8a8a8a8a8a8a61172a565b50505050505050505050565b6000611125610a53565b9050600081600101600085815260200190815260200160002060000160049054906101000a900463ffffffff1682600101600086815260200190815260200160002060000160009054906101000a900463ffffffff166111859190613276565b63ffffffff1682600101600086815260200190815260200160002060000160009054906101000a900463ffffffff1663ffffffff16846111c59190612d2b565b6111cf91906132dd565b9050600081846111df919061330e565b90506112148360020160009054906101000a900473ffffffffffffffffffffffffffffffffffffffff166317d7840084611aec565b818360030160008282546112289190612d6d565b92505081905550808360040160008282546112439190612d6d565b925050819055505050505050565b60008061125c611bed565b90506112e9838260010160008460000160009054906101000a900473ffffffffffffffffffffffffffffffffffffffff1673ffffffffffffffffffffffffffffffffffffffff1673ffffffffffffffffffffffffffffffffffffffff1681526020019081526020016000206000878152602001908152602001600020600101611c1a90919063ffffffff16565b91505092915050565b6000807fe8ceb94393aac3e803a9d4b376f7c5ffd7e8b6caab697212a5360c34a283caa190508091505090565b6000807f47b8e8b32475ba6530f41efddbadc333684d4f798e5f4689344334684c5f262590508091505090565b60606000600167ffffffffffffffff81111561136b5761136a613342565b5b6040519080825280602002602001820160405280156113995781602001602082028036833780820191505090505b50905082816000815181106113b1576113b0613371565b5b60200260200101818152505080915050919050565b8373ffffffffffffffffffffffffffffffffffffffff168573ffffffffffffffffffffffffffffffffffffffff1614611661576000611403611677565b9050600081600501905060008260060160008973ffffffffffffffffffffffffffffffffffffffff1673ffffffffffffffffffffffffffffffffffffffff168152602001908152602001600020905060008360060160008973ffffffffffffffffffffffffffffffffffffffff1673ffffffffffffffffffffffffffffffffffffffff168152602001908152602001600020905060005b875181101561165b5760008782815181106114b8576114b7613371565b5b60200260200101519050600081111561164d5760008983815181106114e0576114df613371565b5b60200260200101519050600073ffffffffffffffffffffffffffffffffffffffff168c73ffffffffffffffffffffffffffffffffffffffff160361154f578187600401600083815260200190815260200160002060008282546115439190612d6d565b9250508190555061159a565b8161155a8d83611c4a565b03611599576115838c876000848152602001908152602001600020611d1990919063ffffffff16565b506115978186611d4990919063ffffffff16565b505b5b600073ffffffffffffffffffffffffffffffffffffffff168b73ffffffffffffffffffffffffffffffffffffffff16036115ff578187600401600083815260200190815260200160002060008282546115f3919061330e565b9250508190555061164b565b600061160b8c83611c4a565b0361164a576116348b876000848152602001908152602001600020611d6390919063ffffffff16565b506116488185611d9390919063ffffffff16565b505b5b505b81806001019250505061149a565b50505050505b61166f868686868686611dad565b505050505050565b6000807fe20f5a7f7e820e4505f9ef8ed1186e372d3490e37d8001618819927829be4e0590508091505090565b6116ad82611df5565b81600b01600082815260200190815260200160002060009054906101000a900460ff1615611710576040517f08c379a0000000000000000000000000000000000000000000000000000000008152600401611707906133ec565b60405180910390fd5b5050565b611722868686868686611e4a565b505050505050565b6117498473ffffffffffffffffffffffffffffffffffffffff16611f38565b156118e7578373ffffffffffffffffffffffffffffffffffffffff1663f23a6e6187878686866040518663ffffffff1660e01b815260040161178f95949392919061349c565b6020604051808303816000875af19250505080156117cb57506040513d601f19601f820116820180604052508101906117c8919061354e565b60015b611867576117d7613588565b806308c379a00361183357506117eb6135db565b806117f65750611835565b806040517f08c379a000000000000000000000000000000000000000000000000000000000815260040161182a91906136af565b60405180910390fd5b505b6040517f4eebd08100000000000000000000000000000000000000000000000000000000815260040160405180910390fd5b63f23a6e6160e01b7bffffffffffffffffffffffffffffffffffffffffffffffffffffffff1916817bffffffffffffffffffffffffffffffffffffffffffffffffffffffff1916146118e5576040517f542073e700000000000000000000000000000000000000000000000000000000815260040160405180910390fd5b505b505050505050565b60006118f9611677565b90508473ffffffffffffffffffffffffffffffffffffffff168473ffffffffffffffffffffffffffffffffffffffff1614611ae5578060010160008573ffffffffffffffffffffffffffffffffffffffff1673ffffffffffffffffffffffffffffffffffffffff16815260200190815260200160002060008673ffffffffffffffffffffffffffffffffffffffff1673ffffffffffffffffffffffffffffffffffffffff16815260200190815260200160002060009054906101000a900460ff166119f0576040517f3d2f0b3700000000000000000000000000000000000000000000000000000000815260040160405180910390fd5b80600201600084815260200190815260200160002060009054906101000a900460ff168015611aad5750818160030160008673ffffffffffffffffffffffffffffffffffffffff1673ffffffffffffffffffffffffffffffffffffffff16815260200190815260200160002060008773ffffffffffffffffffffffffffffffffffffffff1673ffffffffffffffffffffffffffffffffffffffff168152602001908152602001600020600085815260200190815260200160002054105b15611ae4576040517f32af163800000000000000000000000000000000000000000000000000000000815260040160405180910390fd5b5b5050505050565b6000611af6611f4b565b905060008160000160008673ffffffffffffffffffffffffffffffffffffffff1673ffffffffffffffffffffffffffffffffffffffff168152602001908152602001600020600085815260200190815260200160002090508060000160009054906101000a900460ff16611b6b575050611be8565b6000831215611baf576040517f08c379a0000000000000000000000000000000000000000000000000000000008152600401611ba69061371d565b60405180910390fd5b82816002016000828254611bc3919061373d565b9250508190555082816003016000828254611bde919061373d565b9250508190555050505b505050565b6000807f746c6723185dc95a8925081faed89cbd4670299390e2ebfb0b9c3e755e204ef490508091505090565b6000611c42836000018373ffffffffffffffffffffffffffffffffffffffff1660001b611f78565b905092915050565b60008073ffffffffffffffffffffffffffffffffffffffff168373ffffffffffffffffffffffffffffffffffffffff1603611cb1576040517f4a772c2700000000000000000000000000000000000000000000000000000000815260040160405180910390fd5b6000611cbb611677565b905080600001600084815260200190815260200160002060008573ffffffffffffffffffffffffffffffffffffffff1673ffffffffffffffffffffffffffffffffffffffff1681526020019081526020016000205491505092915050565b6000611d41836000018373ffffffffffffffffffffffffffffffffffffffff1660001b611f9b565b905092915050565b6000611d5b836000018360001b611f9b565b905092915050565b6000611d8b836000018373ffffffffffffffffffffffffffffffffffffffff1660001b61207f565b905092915050565b6000611da5836000018360001b61207f565b905092915050565b600073ffffffffffffffffffffffffffffffffffffffff168573ffffffffffffffffffffffffffffffffffffffff1614611ded57611dec8584846120e6565b5b505050505050565b80600a0160009054906101000a900460ff1615611e47576040517f08c379a0000000000000000000000000000000000000000000000000000000008152600401611e3e906137cd565b60405180910390fd5b50565b600073ffffffffffffffffffffffffffffffffffffffff168573ffffffffffffffffffffffffffffffffffffffff1614611e8c57611e8b858484600061217f565b5b600073ffffffffffffffffffffffffffffffffffffffff168473ffffffffffffffffffffffffffffffffffffffff1614611ece57611ecd848484600161217f565b5b60005b8351811015611f2f57611f22611ee561221a565b858381518110611ef857611ef7613371565b5b60200260200101518888878681518110611f1557611f14613371565b5b6020026020010151612252565b8080600101915050611ed1565b50505050505050565b600080823b905060008111915050919050565b6000807ff0375085caeab71645bf74d020ee2aa37bc7b653d9e55911c1084d8c88b3c05c90508091505090565b600080836001016000848152602001908152602001600020541415905092915050565b6000808360010160008481526020019081526020016000205490506000811461207857600084600001600186600001805490500381548110611fe057611fdf613371565b5b906000526020600020015490508085600001600184038154811061200757612006613371565b5b906000526020600020018190555081856001016000838152602001908152602001600020819055505083600001805480612044576120436137ed565b5b6001900381819060005260206000200160009055905583600101600084815260200190815260200160002060009055600191505b5092915050565b600061208b8383611f78565b6120e05782600001829080600181540180825580915050600190039060005260206000200160009091909190915055826000018054905083600101600084815260200190815260200160002081905550600190505b92915050565b8051825114612121576040517f583b4bea00000000000000000000000000000000000000000000000000000000815260040160405180910390fd5b60005b82518110156121795761216c8484838151811061214457612143613371565b5b602002602001015184848151811061215f5761215e613371565b5b6020026020010151612386565b8080600101915050612124565b50505050565b81518351146121ba576040517f583b4bea00000000000000000000000000000000000000000000000000000000815260040160405180910390fd5b60005b835181101561221357612206858583815181106121dd576121dc613371565b5b60200260200101518584815181106121f8576121f7613371565b5b6020026020010151856124cd565b80806001019150506121bd565b5050505050565b600080612225610a53565b90508060020160009054906101000a900473ffffffffffffffffffffffffffffffffffffffff1691505090565b600061225c611f4b565b905060008160000160008873ffffffffffffffffffffffffffffffffffffffff1673ffffffffffffffffffffffffffffffffffffffff168152602001908152602001600020600087815260200190815260200160002090508060000160009054906101000a900460ff166122d157505061237f565b600073ffffffffffffffffffffffffffffffffffffffff168573ffffffffffffffffffffffffffffffffffffffff161461233c5761233b8186857fffffffffffffffffffffffffffffffffffffffffffffffffffffffffffffffff612336919061381c565b61266b565b5b600073ffffffffffffffffffffffffffffffffffffffff168473ffffffffffffffffffffffffffffffffffffffff161461237c5761237b81858561266b565b5b50505b5050505050565b60006123906127ec565b905060008160000160008581526020019081526020016000209050438160010154116123bd5750506124c8565b60008160030160008773ffffffffffffffffffffffffffffffffffffffff1673ffffffffffffffffffffffffffffffffffffffff16815260200190815260200160002090506000600c8260030154836000015461241a919061330e565b61242491906132dd565b8360020154836002015443612439919061330e565b61244391906132dd565b61244d9190612d2b565b9050600082600101546124738385600301546124699190612d6d565b8560000154612819565b61247d919061330e565b9050808611156124c2576040517f08c379a00000000000000000000000000000000000000000000000000000000081526004016124b990613906565b60405180910390fd5b50505050505b505050565b60006124d76127ec565b90506000816000016000868152602001908152602001600020905043816001015411612504575050612665565b60008160030160008873ffffffffffffffffffffffffffffffffffffffff1673ffffffffffffffffffffffffffffffffffffffff16815260200190815260200160002090504382600001541161259e5760018460ff160361259657848160000160008282546125739190612d6d565b925050819055508481600301600082825461258e9190612d6d565b925050819055505b505050612665565b6000600c826003015483600001546125b6919061330e565b6125c091906132dd565b83600201548360020154436125d5919061330e565b6125df91906132dd565b6125e99190612d2b565b90506126088183600301546125fe9190612d6d565b8360000154612819565b826003018190555060018560ff160361263b578582600001600082825461262f9190612d6d565b92505081905550612657565b8582600101600082825461264f9190612d6d565b925050819055505b438260020181905550505050505b50505050565b60008360040160008473ffffffffffffffffffffffffffffffffffffffff1673ffffffffffffffffffffffffffffffffffffffff168152602001908152602001600020905060008285600101546126c2919061373d565b1215612703576040517f08c379a00000000000000000000000000000000000000000000000000000000081526004016126fa90613998565b60405180910390fd5b6000828260000154612715919061373d565b1215612756576040517f08c379a000000000000000000000000000000000000000000000000000000000815260040161274d90613a2a565b60405180910390fd5b600080856001015414612785578460010154838660030154612778919061381c565b6127829190613a4a565b90505b828560010154612795919061373d565b85600101819055508085600301546127ad919061373d565b85600301819055508282600001546127c5919061373d565b82600001819055508082600101546127dd9190612dab565b82600101819055505050505050565b6000807fb666c964c288db81fc3205a9feeb13cfebbde2a4a4664c45ea26ef9d3d8de79290508091505090565b6000818311612828578261282a565b815b905092915050565b604051806040016040528060008152602001600081525090565b6000604051905090565b600080fd5b6000819050919050565b61286e8161285b565b811461287957600080fd5b50565b60008135905061288b81612865565b92915050565b600061ffff82169050919050565b6128a881612891565b81146128b357600080fd5b50565b6000813590506128c58161289f565b92915050565b600060ff82169050919050565b6128e1816128cb565b81146128ec57600080fd5b50565b6000813590506128fe816128d8565b92915050565b60008060008060008060c0878903121561292157612920612856565b5b600061292f89828a0161287c565b965050602061294089828a016128b6565b955050604061295189828a016128ef565b945050606061296289828a0161287c565b935050608061297389828a0161287c565b92505060a061298489828a0161287c565b9150509295509295509295565b61299a8161285b565b82525050565b60006020820190506129b56000830184612991565b92915050565b600073ffffffffffffffffffffffffffffffffffffffff82169050919050565b60006129e6826129bb565b9050919050565b6129f6816129db565b8114612a0157600080fd5b50565b600081359050612a13816129ed565b92915050565b600063ffffffff82169050919050565b612a3281612a19565b8114612a3d57600080fd5b50565b600081359050612a4f81612a29565b92915050565b600080600060608486031215612a6e57612a6d612856565b5b6000612a7c868287016128ef565b9350506020612a8d86828701612a04565b9250506040612a9e86828701612a40565b9150509250925092565b600060208284031215612abe57612abd612856565b5b6000612acc848285016128ef565b91505092915050565b612ade8161285b565b82525050565b604082016000820151612afa6000850182612ad5565b506020820151612b0d6020850182612ad5565b50505050565b6000604082019050612b286000830184612ae4565b92915050565b600060208284031215612b4457612b43612856565b5b6000612b5284828501612a04565b91505092915050565b600082825260208201905092915050565b7f4e4f545f414c4c4f574544000000000000000000000000000000000000000000600082015250565b6000612ba2600b83612b5b565b9150612bad82612b6c565b602082019050919050565b60006020820190508181036000830152612bd181612b95565b9050919050565b7f4f6e6c7920737562736372697074696f6e20746f6b656e20747970652069732060008201527f7065726d69747465642100000000000000000000000000000000000000000000602082015250565b6000612c34602a83612b5b565b9150612c3f82612bd8565b604082019050919050565b60006020820190508181036000830152612c6381612c27565b9050919050565b7f5061796f75742063616e206265206d6164652066726f6d2041726578612c204d60008201527f61726b6574696e67206f7220446576656c6f706d656e7420706f6f6c21000000602082015250565b6000612cc6603d83612b5b565b9150612cd182612c6a565b604082019050919050565b60006020820190508181036000830152612cf581612cb9565b9050919050565b7f4e487b7100000000000000000000000000000000000000000000000000000000600052601160045260246000fd5b6000612d368261285b565b9150612d418361285b565b9250828202612d4f8161285b565b91508282048414831517612d6657612d65612cfc565b5b5092915050565b6000612d788261285b565b9150612d838361285b565b9250828201905080821115612d9b57612d9a612cfc565b5b92915050565b6000819050919050565b6000612db682612da1565b9150612dc183612da1565b9250828203905081811260008412168282136000851215161715612de857612de7612cfc565b5b92915050565b7f43616e27742063726561746520666f72206f6c64206d6f6e7468730000000000600082015250565b6000612e24601b83612b5b565b9150612e2f82612dee565b602082019050919050565b60006020820190508181036000830152612e5381612e17565b9050919050565b6000612e658261285b565b91507fffffffffffffffffffffffffffffffffffffffffffffffffffffffffffffffff8203612e9757612e96612cfc565b5b600182019050919050565b7f4e6f7420656e6f67756820746f6b656e20746f20676966740000000000000000600082015250565b6000612ed8601883612b5b565b9150612ee382612ea2565b602082019050919050565b60006020820190508181036000830152612f0781612ecb565b9050919050565b600081519050612f1d816128d8565b92915050565b600060208284031215612f3957612f38612856565b5b6000612f4784828501612f0e565b91505092915050565b60008160011c9050919050565b6000808291508390505b6001851115612fa757808604811115612f8357612f82612cfc565b5b6001851615612f925780820291505b8081029050612fa085612f50565b9450612f67565b94509492505050565b600082612fc0576001905061307c565b81612fce576000905061307c565b8160018114612fe45760028114612fee5761301d565b600191505061307c565b60ff84111561300057612fff612cfc565b5b8360020a91508482111561301757613016612cfc565b5b5061307c565b5060208310610133831016604e8410600b84101617156130525782820a90508381111561304d5761304c612cfc565b5b61307c565b61305f8484846001612f5d565b9250905081840481111561307657613075612cfc565b5b81810290505b9392505050565b600061308e8261285b565b9150613099836128cb565b92506130c67fffffffffffffffffffffffffffffffffffffffffffffffffffffffffffffffff8484612fb0565b905092915050565b6130d7816129db565b82525050565b60006060820190506130f260008301866130ce565b6130ff60208301856130ce565b61310c6040830184612991565b949350505050565b60008115159050919050565b61312981613114565b811461313457600080fd5b50565b60008151905061314681613120565b92915050565b60006020828403121561316257613161612856565b5b600061317084828501613137565b91505092915050565b7f536f6d657468696e672077726f6e67207769746820746865207061796d656e7460008201527f2100000000000000000000000000000000000000000000000000000000000000602082015250565b60006131d5602183612b5b565b91506131e082613179565b604082019050919050565b60006020820190508181036000830152613204816131c8565b9050919050565b6000819050919050565b61321e8161320b565b82525050565b60006040820190506132396000830185613215565b61324660208301846130ce565b9392505050565b60006040820190506132626000830185612991565b61326f6020830184612991565b9392505050565b600061328182612a19565b915061328c83612a19565b9250828201905063ffffffff8111156132a8576132a7612cfc565b5b92915050565b7f4e487b7100000000000000000000000000000000000000000000000000000000600052601260045260246000fd5b60006132e88261285b565b91506132f38361285b565b925082613303576133026132ae565b5b828204905092915050565b60006133198261285b565b91506133248361285b565b925082820390508181111561333c5761333b612cfc565b5b92915050565b7f4e487b7100000000000000000000000000000000000000000000000000000000600052604160045260246000fd5b7f4e487b7100000000000000000000000000000000000000000000000000000000600052603260045260246000fd5b7f546f6b656e206973207061757365642100000000000000000000000000000000600082015250565b60006133d6601083612b5b565b91506133e1826133a0565b602082019050919050565b60006020820190508181036000830152613405816133c9565b9050919050565b600081519050919050565b600082825260208201905092915050565b60005b8381101561344657808201518184015260208101905061342b565b60008484015250505050565b6000601f19601f8301169050919050565b600061346e8261340c565b6134788185613417565b9350613488818560208601613428565b61349181613452565b840191505092915050565b600060a0820190506134b160008301886130ce565b6134be60208301876130ce565b6134cb6040830186612991565b6134d86060830185612991565b81810360808301526134ea8184613463565b90509695505050505050565b60007fffffffff0000000000000000000000000000000000000000000000000000000082169050919050565b61352b816134f6565b811461353657600080fd5b50565b60008151905061354881613522565b92915050565b60006020828403121561356457613563612856565b5b600061357284828501613539565b91505092915050565b60008160e01c9050919050565b600060033d11156135a75760046000803e6135a460005161357b565b90505b90565b6135b382613452565b810181811067ffffffffffffffff821117156135d2576135d1613342565b5b80604052505050565b600060443d10613668576135ed61284c565b60043d036004823e80513d602482011167ffffffffffffffff82111715613615575050613668565b808201805167ffffffffffffffff8111156136335750505050613668565b80602083010160043d038501811115613650575050505050613668565b61365f826020018501866135aa565b82955050505050505b90565b600081519050919050565b60006136818261366b565b61368b8185612b5b565b935061369b818560208601613428565b6136a481613452565b840191505092915050565b600060208201905081810360008301526136c98184613676565b905092915050565b7f506f6f6c2063616e206f6e6c7920696e63726561736521000000000000000000600082015250565b6000613707601783612b5b565b9150613712826136d1565b602082019050919050565b60006020820190508181036000830152613736816136fa565b9050919050565b600061374882612da1565b915061375383612da1565b92508282019050828112156000831216838212600084121516171561377b5761377a612cfc565b5b92915050565b7f416c6c20746f6b656e2069732070617573656421000000000000000000000000600082015250565b60006137b7601483612b5b565b91506137c282613781565b602082019050919050565b600060208201905081810360008301526137e6816137aa565b9050919050565b7f4e487b7100000000000000000000000000000000000000000000000000000000600052603160045260246000fd5b600061382782612da1565b915061383283612da1565b925082820261384081612da1565b91507f8000000000000000000000000000000000000000000000000000000000000000841460008412161561387857613877612cfc565b5b828205841483151761388d5761388c612cfc565b5b5092915050565b7f54686520616d6f756e7420697320677261746572207468656e2074686520616360008201527f63756d6c6174656420282773656c6c61626c65272920616d6f756e7421000000602082015250565b60006138f0603d83612b5b565b91506138fb82613894565b604082019050919050565b6000602082019050818103600083015261391f816138e3565b9050919050565b7f506f6f6c20746f6b656e207175616e6974792063616e2774206265206c65737360008201527f207468656e207a65726f21000000000000000000000000000000000000000000602082015250565b6000613982602b83612b5b565b915061398d82613926565b604082019050919050565b600060208201905081810360008301526139b181613975565b9050919050565b7f5573657220746f6b656e207175616e6974792063616e2774206265206c65737360008201527f207468656e207a65726f21000000000000000000000000000000000000000000602082015250565b6000613a14602b83612b5b565b9150613a1f826139b8565b604082019050919050565b60006020820190508181036000830152613a4381613a07565b9050919050565b6000613a5582612da1565b9150613a6083612da1565b925082613a7057613a6f6132ae565b5b600160000383147f800000000000000000000000000000000000000000000000000000000000000083141615613aa957613aa8612cfc565b5b82820590509291505056fea26469706673582212205deb3a6f914f5aba5e47251a5c4461c3554444bc30b8d5316e95ac29eca647cd64736f6c63430008110033",
  "devdoc": {
    "kind": "dev",
    "methods": {},
    "version": 1
  },
  "userdoc": {
    "kind": "user",
    "methods": {},
    "version": 1
  },
  "storageLayout": {
    "storage": [],
    "types": null
  }
}