{
  "address": "0x45722CC672cEa7759CE6C31221BEACa188CD1eF2",
  "abi": [
    {
      "inputs": [],
      "name": "AMOUNT_VALUE_TYPE",
      "outputs": [
        {
          "internalType": "uint8",
          "name": "",
          "type": "uint8"
        }
      ],
      "stateMutability": "view",
      "type": "function"
    },
    {
      "inputs": [],
      "name": "AREXA_ADMIN_ROLE",
      "outputs": [
        {
          "internalType": "bytes32",
          "name": "",
          "type": "bytes32"
        }
      ],
      "stateMutability": "view",
      "type": "function"
    },
    {
      "inputs": [],
      "name": "AREXA_TOKEN_ID",
      "outputs": [
        {
          "internalType": "uint256",
          "name": "",
          "type": "uint256"
        }
      ],
      "stateMutability": "view",
      "type": "function"
    },
    {
      "inputs": [],
      "name": "AREXA_TOKEN_POOL_AREXAINC",
      "outputs": [
        {
          "internalType": "uint8",
          "name": "",
          "type": "uint8"
        }
      ],
      "stateMutability": "view",
      "type": "function"
    },
    {
      "inputs": [],
      "name": "AREXA_TOKEN_POOL_DEVELOPMENT",
      "outputs": [
        {
          "internalType": "uint8",
          "name": "",
          "type": "uint8"
        }
      ],
      "stateMutability": "view",
      "type": "function"
    },
    {
      "inputs": [],
      "name": "AREXA_TOKEN_POOL_INVESTOR",
      "outputs": [
        {
          "internalType": "uint8",
          "name": "",
          "type": "uint8"
        }
      ],
      "stateMutability": "view",
      "type": "function"
    },
    {
      "inputs": [],
      "name": "AREXA_TOKEN_POOL_MARKETING",
      "outputs": [
        {
          "internalType": "uint8",
          "name": "",
          "type": "uint8"
        }
      ],
      "stateMutability": "view",
      "type": "function"
    },
    {
      "inputs": [],
      "name": "AREXA_TOKEN_POOL_RESERVED",
      "outputs": [
        {
          "internalType": "uint8",
          "name": "",
          "type": "uint8"
        }
      ],
      "stateMutability": "view",
      "type": "function"
    },
    {
      "inputs": [],
      "name": "MAGIC100_FIRST_BUYER",
      "outputs": [
        {
          "internalType": "bytes32",
          "name": "",
          "type": "bytes32"
        }
      ],
      "stateMutability": "view",
      "type": "function"
    },
    {
      "inputs": [],
      "name": "MAGIC_TOKEN_ID",
      "outputs": [
        {
          "internalType": "uint256",
          "name": "",
          "type": "uint256"
        }
      ],
      "stateMutability": "view",
      "type": "function"
    },
    {
      "inputs": [],
      "name": "PAUSABLE_AREXA_TOKEN",
      "outputs": [
        {
          "internalType": "bytes32",
          "name": "",
          "type": "bytes32"
        }
      ],
      "stateMutability": "view",
      "type": "function"
    },
    {
      "inputs": [],
      "name": "PAUSABLE_FULL",
      "outputs": [
        {
          "internalType": "bytes32",
          "name": "",
          "type": "bytes32"
        }
      ],
      "stateMutability": "view",
      "type": "function"
    },
    {
      "inputs": [],
      "name": "PAUSABLE_MAGIC_TOKEN",
      "outputs": [
        {
          "internalType": "bytes32",
          "name": "",
          "type": "bytes32"
        }
      ],
      "stateMutability": "view",
      "type": "function"
    },
    {
      "inputs": [],
      "name": "PAUSABLE_SUBSCR1_TOKEN",
      "outputs": [
        {
          "internalType": "bytes32",
          "name": "",
          "type": "bytes32"
        }
      ],
      "stateMutability": "view",
      "type": "function"
    },
    {
      "inputs": [],
      "name": "PAUSABLE_SUBSCR2_TOKEN",
      "outputs": [
        {
          "internalType": "bytes32",
          "name": "",
          "type": "bytes32"
        }
      ],
      "stateMutability": "view",
      "type": "function"
    },
    {
      "inputs": [],
      "name": "PAUSABLE_TRADER_TOKEN",
      "outputs": [
        {
          "internalType": "bytes32",
          "name": "",
          "type": "bytes32"
        }
      ],
      "stateMutability": "view",
      "type": "function"
    },
    {
      "inputs": [],
      "name": "QUANTITY_VALUE_TYPE",
      "outputs": [
        {
          "internalType": "uint8",
          "name": "",
          "type": "uint8"
        }
      ],
      "stateMutability": "view",
      "type": "function"
    },
    {
      "inputs": [],
      "name": "SUBSCR1_TOKEN_TYPE",
      "outputs": [
        {
          "internalType": "uint256",
          "name": "",
          "type": "uint256"
        }
      ],
      "stateMutability": "view",
      "type": "function"
    },
    {
      "inputs": [],
      "name": "SUBSCR2_TOKEN_TYPE",
      "outputs": [
        {
          "internalType": "uint256",
          "name": "",
          "type": "uint256"
        }
      ],
      "stateMutability": "view",
      "type": "function"
    },
    {
      "inputs": [],
      "name": "TRADER_TOKEN_ID",
      "outputs": [
        {
          "internalType": "uint256",
          "name": "",
          "type": "uint256"
        }
      ],
      "stateMutability": "view",
      "type": "function"
    },
    {
      "inputs": [
        {
          "internalType": "uint256",
          "name": "_id",
          "type": "uint256"
        }
      ],
      "name": "accountsByToken",
      "outputs": [
        {
          "internalType": "address[]",
          "name": "",
          "type": "address[]"
        }
      ],
      "stateMutability": "view",
      "type": "function"
    },
    {
      "inputs": [
        {
          "internalType": "address",
          "name": "_owner",
          "type": "address"
        },
        {
          "internalType": "address",
          "name": "_operator",
          "type": "address"
        },
        {
          "internalType": "uint256",
          "name": "_id",
          "type": "uint256"
        }
      ],
      "name": "allowance",
      "outputs": [
        {
          "internalType": "uint256",
          "name": "",
          "type": "uint256"
        }
      ],
      "stateMutability": "view",
      "type": "function"
    },
    {
      "inputs": [
        {
          "internalType": "address",
          "name": "_operator",
          "type": "address"
        },
        {
          "internalType": "uint256",
          "name": "_id",
          "type": "uint256"
        },
        {
          "internalType": "uint256",
          "name": "_currentValue",
          "type": "uint256"
        },
        {
          "internalType": "uint256",
          "name": "_newValue",
          "type": "uint256"
        }
      ],
      "name": "approve",
      "outputs": [],
      "stateMutability": "nonpayable",
      "type": "function"
    },
    {
      "inputs": [
        {
          "internalType": "address",
          "name": "_owner",
          "type": "address"
        },
        {
          "internalType": "uint256",
          "name": "_id",
          "type": "uint256"
        }
      ],
      "name": "balanceOf",
      "outputs": [
        {
          "internalType": "uint256",
          "name": "",
          "type": "uint256"
        }
      ],
      "stateMutability": "view",
      "type": "function"
    },
    {
      "inputs": [
        {
          "internalType": "address[]",
          "name": "_owners",
          "type": "address[]"
        },
        {
          "internalType": "uint256[]",
          "name": "_ids",
          "type": "uint256[]"
        }
      ],
      "name": "balanceOfBatch",
      "outputs": [
        {
          "internalType": "uint256[]",
          "name": "",
          "type": "uint256[]"
        }
      ],
      "stateMutability": "view",
      "type": "function"
    },
    {
      "inputs": [
        {
          "internalType": "uint128",
          "name": "value",
          "type": "uint128"
        },
        {
          "internalType": "uint8",
          "name": "valueType",
          "type": "uint8"
        }
      ],
      "name": "buyArexaToken",
      "outputs": [],
      "stateMutability": "nonpayable",
      "type": "function"
    },
    {
      "inputs": [
        {
          "internalType": "uint32",
          "name": "quantity",
          "type": "uint32"
        }
      ],
      "name": "buyEdgeSubscription",
      "outputs": [],
      "stateMutability": "nonpayable",
      "type": "function"
    },
    {
      "inputs": [],
      "name": "buyMagic100Token",
      "outputs": [],
      "stateMutability": "nonpayable",
      "type": "function"
    },
    {
      "inputs": [
        {
          "internalType": "address",
          "name": "toAccount",
          "type": "address"
        }
      ],
      "name": "buyMagic100TokenAdmin",
      "outputs": [],
      "stateMutability": "nonpayable",
      "type": "function"
    },
    {
      "inputs": [
        {
          "internalType": "uint32",
          "name": "quantity",
          "type": "uint32"
        }
      ],
      "name": "buyOracleSubscription",
      "outputs": [],
      "stateMutability": "nonpayable",
      "type": "function"
    },
    {
      "inputs": [
        {
          "internalType": "uint256",
          "name": "tokenId",
          "type": "uint256"
        },
        {
          "internalType": "uint32",
          "name": "quantity",
          "type": "uint32"
        }
      ],
      "name": "buySubscription",
      "outputs": [],
      "stateMutability": "nonpayable",
      "type": "function"
    },
    {
      "inputs": [
        {
          "internalType": "uint128",
          "name": "value",
          "type": "uint128"
        },
        {
          "internalType": "uint8",
          "name": "valueType",
          "type": "uint8"
        }
      ],
      "name": "buyTraderToken",
      "outputs": [],
      "stateMutability": "nonpayable",
      "type": "function"
    },
    {
      "inputs": [
        {
          "internalType": "address",
          "name": "account",
          "type": "address"
        }
      ],
      "name": "calcDivident",
      "outputs": [
        {
          "internalType": "int256",
          "name": "",
          "type": "int256"
        }
      ],
      "stateMutability": "view",
      "type": "function"
    },
    {
      "inputs": [
        {
          "internalType": "uint256",
          "name": "tokenId",
          "type": "uint256"
        },
        {
          "internalType": "uint32",
          "name": "quantity",
          "type": "uint32"
        }
      ],
      "name": "calcSubscriptionPrice",
      "outputs": [
        {
          "internalType": "uint256",
          "name": "",
          "type": "uint256"
        }
      ],
      "stateMutability": "view",
      "type": "function"
    },
    {
      "inputs": [
        {
          "internalType": "address",
          "name": "account",
          "type": "address"
        },
        {
          "internalType": "uint256",
          "name": "tokenId",
          "type": "uint256"
        },
        {
          "internalType": "uint256",
          "name": "amount",
          "type": "uint256"
        }
      ],
      "name": "calcUnrestrictedAmount",
      "outputs": [
        {
          "internalType": "uint256",
          "name": "",
          "type": "uint256"
        }
      ],
      "stateMutability": "view",
      "type": "function"
    },
    {
      "inputs": [
        {
          "internalType": "address",
          "name": "account",
          "type": "address"
        },
        {
          "internalType": "uint256",
          "name": "tokenId",
          "type": "uint256"
        },
        {
          "internalType": "uint256",
          "name": "amount",
          "type": "uint256"
        }
      ],
      "name": "checkRestriction",
      "outputs": [],
      "stateMutability": "view",
      "type": "function"
    },
    {
      "inputs": [
        {
          "internalType": "address",
          "name": "account",
          "type": "address"
        },
        {
          "internalType": "uint256[]",
          "name": "tokenIds",
          "type": "uint256[]"
        },
        {
          "internalType": "uint256[]",
          "name": "amounts",
          "type": "uint256[]"
        }
      ],
      "name": "checkRestrictions",
      "outputs": [],
      "stateMutability": "view",
      "type": "function"
    },
    {
      "inputs": [
        {
          "internalType": "uint256",
          "name": "tokenType",
          "type": "uint256"
        },
        {
          "internalType": "uint16",
          "name": "year",
          "type": "uint16"
        },
        {
          "internalType": "uint8",
          "name": "month",
          "type": "uint8"
        },
        {
          "internalType": "uint256",
          "name": "quantity",
          "type": "uint256"
        },
        {
          "internalType": "uint256",
          "name": "min",
          "type": "uint256"
        },
        {
          "internalType": "uint256",
          "name": "max",
          "type": "uint256"
        }
      ],
      "name": "createSubscription",
      "outputs": [
        {
          "internalType": "uint256",
          "name": "tokenId",
          "type": "uint256"
        }
      ],
      "stateMutability": "nonpayable",
      "type": "function"
    },
    {
      "inputs": [
        {
          "components": [
            {
              "internalType": "address",
              "name": "facetAddress",
              "type": "address"
            },
            {
              "internalType": "uint8",
              "name": "action",
              "type": "uint8"
            },
            {
              "internalType": "bytes4[]",
              "name": "functionSelectors",
              "type": "bytes4[]"
            }
          ],
          "internalType": "struct etAREXADiamondDummyImplementation.Tuple6871229[]",
          "name": "_diamondCut",
          "type": "tuple[]"
        },
        {
          "internalType": "address",
          "name": "_init",
          "type": "address"
        },
        {
          "internalType": "bytes",
          "name": "_calldata",
          "type": "bytes"
        }
      ],
      "name": "diamondCut",
      "outputs": [],
      "stateMutability": "nonpayable",
      "type": "function"
    },
    {
      "inputs": [
        {
          "internalType": "bytes4",
          "name": "_functionSelector",
          "type": "bytes4"
        }
      ],
      "name": "facetAddress",
      "outputs": [
        {
          "internalType": "address",
          "name": "facetAddress_",
          "type": "address"
        }
      ],
      "stateMutability": "view",
      "type": "function"
    },
    {
      "inputs": [],
      "name": "facetAddresses",
      "outputs": [
        {
          "internalType": "address[]",
          "name": "facetAddresses_",
          "type": "address[]"
        }
      ],
      "stateMutability": "view",
      "type": "function"
    },
    {
      "inputs": [
        {
          "internalType": "address",
          "name": "_facet",
          "type": "address"
        }
      ],
      "name": "facetFunctionSelectors",
      "outputs": [
        {
          "internalType": "bytes4[]",
          "name": "facetFunctionSelectors_",
          "type": "bytes4[]"
        }
      ],
      "stateMutability": "view",
      "type": "function"
    },
    {
      "inputs": [],
      "name": "facets",
      "outputs": [
        {
          "components": [
            {
              "internalType": "address",
              "name": "facetAddress",
              "type": "address"
            },
            {
              "internalType": "bytes4[]",
              "name": "functionSelectors",
              "type": "bytes4[]"
            }
          ],
          "internalType": "struct etAREXADiamondDummyImplementation.Tuple1236461[]",
          "name": "facets_",
          "type": "tuple[]"
        }
      ],
      "stateMutability": "view",
      "type": "function"
    },
    {
      "inputs": [
        {
          "internalType": "bytes32",
          "name": "_target",
          "type": "bytes32"
        },
        {
          "internalType": "address",
          "name": "_account",
          "type": "address"
        }
      ],
      "name": "getAccountBlackWhiteList",
      "outputs": [
        {
          "internalType": "bool",
          "name": "",
          "type": "bool"
        }
      ],
      "stateMutability": "view",
      "type": "function"
    },
    {
      "inputs": [],
      "name": "getArexaERC20Token",
      "outputs": [
        {
          "internalType": "address",
          "name": "",
          "type": "address"
        }
      ],
      "stateMutability": "view",
      "type": "function"
    },
    {
      "inputs": [
        {
          "internalType": "uint256",
          "name": "tokenId",
          "type": "uint256"
        }
      ],
      "name": "getArexaIncomeParameter",
      "outputs": [
        {
          "internalType": "uint32",
          "name": "pool_",
          "type": "uint32"
        },
        {
          "internalType": "uint32",
          "name": "arexa_",
          "type": "uint32"
        }
      ],
      "stateMutability": "view",
      "type": "function"
    },
    {
      "inputs": [
        {
          "internalType": "uint8",
          "name": "_tokenType",
          "type": "uint8"
        }
      ],
      "name": "getArexaTokenPool",
      "outputs": [
        {
          "components": [
            {
              "internalType": "uint256",
              "name": "total",
              "type": "uint256"
            },
            {
              "internalType": "uint256",
              "name": "sold",
              "type": "uint256"
            }
          ],
          "internalType": "struct etAREXADiamondDummyImplementation.Tuple4951158",
          "name": "",
          "type": "tuple"
        }
      ],
      "stateMutability": "view",
      "type": "function"
    },
    {
      "inputs": [
        {
          "internalType": "uint256",
          "name": "tokenType",
          "type": "uint256"
        }
      ],
      "name": "getCurrentSubscriptionTokenId",
      "outputs": [
        {
          "internalType": "uint256",
          "name": "",
          "type": "uint256"
        }
      ],
      "stateMutability": "view",
      "type": "function"
    },
    {
      "inputs": [],
      "name": "getInventory",
      "outputs": [
        {
          "internalType": "bool",
          "name": "isEnabled",
          "type": "bool"
        },
        {
          "internalType": "int256",
          "name": "sumQuantity",
          "type": "int256"
        },
        {
          "internalType": "int256",
          "name": "sumAmount",
          "type": "int256"
        },
        {
          "internalType": "int256",
          "name": "sumPnl",
          "type": "int256"
        }
      ],
      "stateMutability": "view",
      "type": "function"
    },
    {
      "inputs": [
        {
          "internalType": "address",
          "name": "account",
          "type": "address"
        }
      ],
      "name": "getInventoryItem",
      "outputs": [
        {
          "components": [
            {
              "internalType": "int256",
              "name": "quantity",
              "type": "int256"
            },
            {
              "internalType": "int256",
              "name": "deltaPnl",
              "type": "int256"
            },
            {
              "internalType": "int256",
              "name": "payedPnl",
              "type": "int256"
            }
          ],
          "internalType": "struct etAREXADiamondDummyImplementation.Tuple9951786",
          "name": "",
          "type": "tuple"
        }
      ],
      "stateMutability": "view",
      "type": "function"
    },
    {
      "inputs": [
        {
          "internalType": "address",
          "name": "_account",
          "type": "address"
        }
      ],
      "name": "getMagic100FirstBuyerWL",
      "outputs": [
        {
          "internalType": "bool",
          "name": "",
          "type": "bool"
        }
      ],
      "stateMutability": "view",
      "type": "function"
    },
    {
      "inputs": [],
      "name": "getPayingToken",
      "outputs": [
        {
          "internalType": "address",
          "name": "",
          "type": "address"
        }
      ],
      "stateMutability": "view",
      "type": "function"
    },
    {
      "inputs": [
        {
          "internalType": "bytes32",
          "name": "role",
          "type": "bytes32"
        }
      ],
      "name": "getRoleAdmin",
      "outputs": [
        {
          "internalType": "bytes32",
          "name": "",
          "type": "bytes32"
        }
      ],
      "stateMutability": "view",
      "type": "function"
    },
    {
      "inputs": [],
      "name": "getTokenBaseUri",
      "outputs": [
        {
          "internalType": "string",
          "name": "",
          "type": "string"
        }
      ],
      "stateMutability": "view",
      "type": "function"
    },
    {
      "inputs": [
        {
          "internalType": "uint256",
          "name": "_id",
          "type": "uint256"
        }
      ],
      "name": "getTokenUri",
      "outputs": [
        {
          "internalType": "string",
          "name": "",
          "type": "string"
        }
      ],
      "stateMutability": "view",
      "type": "function"
    },
    {
      "inputs": [],
      "name": "getUri",
      "outputs": [
        {
          "internalType": "string",
          "name": "",
          "type": "string"
        }
      ],
      "stateMutability": "view",
      "type": "function"
    },
    {
      "inputs": [
        {
          "internalType": "bytes32",
          "name": "role",
          "type": "bytes32"
        },
        {
          "internalType": "address",
          "name": "account",
          "type": "address"
        }
      ],
      "name": "grantRole",
      "outputs": [],
      "stateMutability": "nonpayable",
      "type": "function"
    },
    {
      "inputs": [
        {
          "internalType": "bytes32",
          "name": "role",
          "type": "bytes32"
        },
        {
          "internalType": "address",
          "name": "account",
          "type": "address"
        }
      ],
      "name": "hasRole",
      "outputs": [
        {
          "internalType": "bool",
          "name": "",
          "type": "bool"
        }
      ],
      "stateMutability": "view",
      "type": "function"
    },
    {
      "inputs": [],
      "name": "implementation",
      "outputs": [
        {
          "internalType": "address",
          "name": "",
          "type": "address"
        }
      ],
      "stateMutability": "view",
      "type": "function"
    },
    {
      "inputs": [
        {
          "internalType": "address",
          "name": "_owner",
          "type": "address"
        },
        {
          "internalType": "address",
          "name": "_operator",
          "type": "address"
        }
      ],
      "name": "isApprovedForAll",
      "outputs": [
        {
          "internalType": "bool",
          "name": "",
          "type": "bool"
        }
      ],
      "stateMutability": "view",
      "type": "function"
    },
    {
      "inputs": [
        {
          "internalType": "uint256",
          "name": "_tokenId",
          "type": "uint256"
        }
      ],
      "name": "isOperatorSpendingLimitEnabled",
      "outputs": [
        {
          "internalType": "bool",
          "name": "",
          "type": "bool"
        }
      ],
      "stateMutability": "view",
      "type": "function"
    },
    {
      "inputs": [
        {
          "internalType": "address",
          "name": "_operator",
          "type": "address"
        },
        {
          "internalType": "address",
          "name": "_from",
          "type": "address"
        },
        {
          "internalType": "uint256[]",
          "name": "_ids",
          "type": "uint256[]"
        },
        {
          "internalType": "uint256[]",
          "name": "_values",
          "type": "uint256[]"
        },
        {
          "internalType": "bytes",
          "name": "_data",
          "type": "bytes"
        }
      ],
      "name": "onERC1155BatchReceived",
      "outputs": [
        {
          "internalType": "bytes4",
          "name": "",
          "type": "bytes4"
        }
      ],
      "stateMutability": "nonpayable",
      "type": "function"
    },
    {
      "inputs": [
        {
          "internalType": "address",
          "name": "_operator",
          "type": "address"
        },
        {
          "internalType": "address",
          "name": "_from",
          "type": "address"
        },
        {
          "internalType": "uint256",
          "name": "_id",
          "type": "uint256"
        },
        {
          "internalType": "uint256",
          "name": "_value",
          "type": "uint256"
        },
        {
          "internalType": "bytes",
          "name": "_data",
          "type": "bytes"
        }
      ],
      "name": "onERC1155Received",
      "outputs": [
        {
          "internalType": "bytes4",
          "name": "",
          "type": "bytes4"
        }
      ],
      "stateMutability": "nonpayable",
      "type": "function"
    },
    {
      "inputs": [],
      "name": "owner",
      "outputs": [
        {
          "internalType": "address",
          "name": "",
          "type": "address"
        }
      ],
      "stateMutability": "view",
      "type": "function"
    },
    {
      "inputs": [
        {
          "internalType": "bytes32",
          "name": "target",
          "type": "bytes32"
        }
      ],
      "name": "pause",
      "outputs": [],
      "stateMutability": "nonpayable",
      "type": "function"
    },
    {
      "inputs": [],
      "name": "pauseAllToken",
      "outputs": [],
      "stateMutability": "nonpayable",
      "type": "function"
    },
    {
      "inputs": [
        {
          "internalType": "uint256",
          "name": "tokenId",
          "type": "uint256"
        }
      ],
      "name": "pauseToken",
      "outputs": [],
      "stateMutability": "nonpayable",
      "type": "function"
    },
    {
      "inputs": [
        {
          "internalType": "bytes32",
          "name": "target",
          "type": "bytes32"
        }
      ],
      "name": "paused",
      "outputs": [
        {
          "internalType": "bool",
          "name": "status_",
          "type": "bool"
        }
      ],
      "stateMutability": "view",
      "type": "function"
    },
    {
      "inputs": [
        {
          "internalType": "uint8",
          "name": "poolType",
          "type": "uint8"
        },
        {
          "internalType": "address",
          "name": "account",
          "type": "address"
        },
        {
          "internalType": "uint32",
          "name": "quantity",
          "type": "uint32"
        }
      ],
      "name": "payArexaTokenFromPool",
      "outputs": [],
      "stateMutability": "nonpayable",
      "type": "function"
    },
    {
      "inputs": [
        {
          "internalType": "address",
          "name": "toAccount",
          "type": "address"
        },
        {
          "internalType": "uint256",
          "name": "value",
          "type": "uint256"
        }
      ],
      "name": "payoutArexaDivident",
      "outputs": [],
      "stateMutability": "nonpayable",
      "type": "function"
    },
    {
      "inputs": [
        {
          "internalType": "address",
          "name": "toAccount",
          "type": "address"
        },
        {
          "internalType": "uint256",
          "name": "value",
          "type": "uint256"
        }
      ],
      "name": "payoutArexaIncome",
      "outputs": [],
      "stateMutability": "nonpayable",
      "type": "function"
    },
    {
      "inputs": [
        {
          "internalType": "uint256",
          "name": "value",
          "type": "uint256"
        }
      ],
      "name": "payoutDivident",
      "outputs": [],
      "stateMutability": "nonpayable",
      "type": "function"
    },
    {
      "inputs": [
        {
          "internalType": "bytes32",
          "name": "role",
          "type": "bytes32"
        }
      ],
      "name": "renounceRole",
      "outputs": [],
      "stateMutability": "nonpayable",
      "type": "function"
    },
    {
      "inputs": [
        {
          "internalType": "bytes32",
          "name": "role",
          "type": "bytes32"
        },
        {
          "internalType": "address",
          "name": "account",
          "type": "address"
        }
      ],
      "name": "revokeRole",
      "outputs": [],
      "stateMutability": "nonpayable",
      "type": "function"
    },
    {
      "inputs": [
        {
          "internalType": "address",
          "name": "_from",
          "type": "address"
        },
        {
          "internalType": "address",
          "name": "_to",
          "type": "address"
        },
        {
          "internalType": "uint256[]",
          "name": "_ids",
          "type": "uint256[]"
        },
        {
          "internalType": "uint256[]",
          "name": "_values",
          "type": "uint256[]"
        },
        {
          "internalType": "bytes",
          "name": "_data",
          "type": "bytes"
        }
      ],
      "name": "safeBatchTransferFrom",
      "outputs": [],
      "stateMutability": "nonpayable",
      "type": "function"
    },
    {
      "inputs": [
        {
          "internalType": "address",
          "name": "_from",
          "type": "address"
        },
        {
          "internalType": "address",
          "name": "_to",
          "type": "address"
        },
        {
          "internalType": "uint256",
          "name": "_id",
          "type": "uint256"
        },
        {
          "internalType": "uint256",
          "name": "_value",
          "type": "uint256"
        },
        {
          "internalType": "bytes",
          "name": "_data",
          "type": "bytes"
        }
      ],
      "name": "safeTransferFrom",
      "outputs": [],
      "stateMutability": "nonpayable",
      "type": "function"
    },
    {
      "inputs": [
        {
          "internalType": "bytes32",
          "name": "_target",
          "type": "bytes32"
        },
        {
          "internalType": "address",
          "name": "_account",
          "type": "address"
        },
        {
          "internalType": "bool",
          "name": "_lockValue",
          "type": "bool"
        }
      ],
      "name": "setAccountBlackWhiteList",
      "outputs": [],
      "stateMutability": "nonpayable",
      "type": "function"
    },
    {
      "inputs": [
        {
          "internalType": "address",
          "name": "_operator",
          "type": "address"
        },
        {
          "internalType": "bool",
          "name": "_approved",
          "type": "bool"
        }
      ],
      "name": "setApprovalForAll",
      "outputs": [],
      "stateMutability": "nonpayable",
      "type": "function"
    },
    {
      "inputs": [
        {
          "internalType": "uint256",
          "name": "tokenId",
          "type": "uint256"
        },
        {
          "internalType": "uint32",
          "name": "pool",
          "type": "uint32"
        },
        {
          "internalType": "uint32",
          "name": "arexa",
          "type": "uint32"
        }
      ],
      "name": "setArexaIncomeParameter",
      "outputs": [],
      "stateMutability": "nonpayable",
      "type": "function"
    },
    {
      "inputs": [
        {
          "internalType": "address[]",
          "name": "_addresses",
          "type": "address[]"
        },
        {
          "internalType": "bool",
          "name": "_lockValue",
          "type": "bool"
        }
      ],
      "name": "setBatchMagic100FirstBuyerWL",
      "outputs": [],
      "stateMutability": "nonpayable",
      "type": "function"
    },
    {
      "inputs": [
        {
          "internalType": "address",
          "name": "_implementation",
          "type": "address"
        }
      ],
      "name": "setDummyImplementation",
      "outputs": [],
      "stateMutability": "nonpayable",
      "type": "function"
    },
    {
      "inputs": [
        {
          "internalType": "address",
          "name": "_account",
          "type": "address"
        },
        {
          "internalType": "bool",
          "name": "_lockValue",
          "type": "bool"
        }
      ],
      "name": "setMagic100FirstBuyerWL",
      "outputs": [],
      "stateMutability": "nonpayable",
      "type": "function"
    },
    {
      "inputs": [
        {
          "internalType": "uint256",
          "name": "_tokenId",
          "type": "uint256"
        },
        {
          "internalType": "bool",
          "name": "_enabled",
          "type": "bool"
        }
      ],
      "name": "setOperatorSpendingLimitEnabled",
      "outputs": [],
      "stateMutability": "nonpayable",
      "type": "function"
    },
    {
      "inputs": [
        {
          "internalType": "address",
          "name": "_token",
          "type": "address"
        }
      ],
      "name": "setPayingToken",
      "outputs": [],
      "stateMutability": "nonpayable",
      "type": "function"
    },
    {
      "inputs": [
        {
          "internalType": "bytes32",
          "name": "role",
          "type": "bytes32"
        },
        {
          "internalType": "bytes32",
          "name": "adminRole",
          "type": "bytes32"
        }
      ],
      "name": "setRoleAdmin",
      "outputs": [],
      "stateMutability": "nonpayable",
      "type": "function"
    },
    {
      "inputs": [
        {
          "internalType": "string",
          "name": "newuri",
          "type": "string"
        }
      ],
      "name": "setTokenBaseURI",
      "outputs": [],
      "stateMutability": "nonpayable",
      "type": "function"
    },
    {
      "inputs": [
        {
          "internalType": "uint256",
          "name": "_id",
          "type": "uint256"
        },
        {
          "internalType": "string",
          "name": "newuri",
          "type": "string"
        }
      ],
      "name": "setTokenURI",
      "outputs": [],
      "stateMutability": "nonpayable",
      "type": "function"
    },
    {
      "inputs": [
        {
          "internalType": "string",
          "name": "newuri",
          "type": "string"
        }
      ],
      "name": "setURI",
      "outputs": [],
      "stateMutability": "nonpayable",
      "type": "function"
    },
    {
      "inputs": [
        {
          "internalType": "uint256",
          "name": "quantity",
          "type": "uint256"
        }
      ],
      "name": "stakeArexaToken",
      "outputs": [],
      "stateMutability": "nonpayable",
      "type": "function"
    },
    {
      "inputs": [
        {
          "internalType": "bytes4",
          "name": "_interfaceId",
          "type": "bytes4"
        }
      ],
      "name": "supportsInterface",
      "outputs": [
        {
          "internalType": "bool",
          "name": "",
          "type": "bool"
        }
      ],
      "stateMutability": "view",
      "type": "function"
    },
    {
      "inputs": [
        {
          "internalType": "address",
          "name": "_account",
          "type": "address"
        }
      ],
      "name": "tokensByAccount",
      "outputs": [
        {
          "internalType": "uint256[]",
          "name": "",
          "type": "uint256[]"
        }
      ],
      "stateMutability": "view",
      "type": "function"
    },
    {
      "inputs": [
        {
          "internalType": "uint256",
          "name": "_id",
          "type": "uint256"
        }
      ],
      "name": "totalHolders",
      "outputs": [
        {
          "internalType": "uint256",
          "name": "",
          "type": "uint256"
        }
      ],
      "stateMutability": "view",
      "type": "function"
    },
    {
      "inputs": [
        {
          "internalType": "uint256",
          "name": "_id",
          "type": "uint256"
        }
      ],
      "name": "totalSupply",
      "outputs": [
        {
          "internalType": "uint256",
          "name": "",
          "type": "uint256"
        }
      ],
      "stateMutability": "view",
      "type": "function"
    },
    {
      "inputs": [
        {
          "internalType": "address",
          "name": "_newOwner",
          "type": "address"
        }
      ],
      "name": "transferOwnership",
      "outputs": [],
      "stateMutability": "nonpayable",
      "type": "function"
    },
    {
      "inputs": [
        {
          "internalType": "bytes32",
          "name": "target",
          "type": "bytes32"
        }
      ],
      "name": "unpause",
      "outputs": [],
      "stateMutability": "nonpayable",
      "type": "function"
    },
    {
      "inputs": [],
      "name": "unpauseAllToken",
      "outputs": [],
      "stateMutability": "nonpayable",
      "type": "function"
    },
    {
      "inputs": [
        {
          "internalType": "uint256",
          "name": "tokenId",
          "type": "uint256"
        }
      ],
      "name": "unpauseToken",
      "outputs": [],
      "stateMutability": "nonpayable",
      "type": "function"
    },
    {
      "inputs": [
        {
          "internalType": "uint256",
          "name": "_id",
          "type": "uint256"
        }
      ],
      "name": "uri",
      "outputs": [
        {
          "internalType": "string",
          "name": "",
          "type": "string"
        }
      ],
      "stateMutability": "view",
      "type": "function"
    },
    {
      "inputs": [
        {
          "internalType": "address",
          "name": "fromAccount",
          "type": "address"
        },
        {
          "internalType": "address",
          "name": "toAccount",
          "type": "address"
        },
        {
          "internalType": "uint256",
          "name": "_quantity",
          "type": "uint256"
        }
      ],
      "name": "withdrawArexaToken",
      "outputs": [],
      "stateMutability": "nonpayable",
      "type": "function"
    }
  ],
  "transactionHash": "0xe1d92e7291055a65a3b599132dc40f3fcaacabc9db9f81a46d85ac930ff2ece2",
  "args": [],
  "numDeployments": 1,
  "solcInputHash": "a161d961c13b5580e4d14f067b2038a5",
  "bytecode": "0x608060405234801561001057600080fd5b50612e09806100206000396000f3fe608060405234801561001057600080fd5b50600436106105805760003560e01c8063780ea572116102e5578063be679d7c1161018d578063dbcc4d94116100f4578063f242432a116100ad578063f396f3d611610087578063f396f3d614611233578063fbd395f814611251578063fdb231011461126d578063ffc063b91461128957610580565b8063f242432a146111dd578063f2fde38b146111f9578063f33b89e51461121557610580565b8063dbcc4d94146110e3578063dd5072b814611101578063e985e9c514611131578063ea2fbed014611161578063ed56531a14611191578063f23a6e61146111ad57610580565b8063cdffacc611610146578063cdffacc61461101f578063d19bcdf31461104f578063d547741f1461106d578063d5ddea0414611089578063da473202146110a7578063dbc0b2ba146110c557610580565b8063be679d7c14610f71578063c1c64f0f14610fa1578063c39aa07d14610fab578063c676cdc114610fc7578063c8e5859c14610fe5578063cd3043551461100157610580565b806391d148541161024c578063a4e8f69911610205578063b2279560116101df578063b227956014610ed7578063b762fcfc14610ef3578063bc197c8114610f11578063bd85b03914610f4157610580565b8063a4e8f69914610e59578063abc16e7714610e77578063adfca15e14610ea757610580565b806391d1485414610d70578063958e3ea814610da05780639de34b3b14610dd15780639e9e466614610def578063a0dcbb0314610e1f578063a22cb46514610e3d57610580565b806387ed85ac1161029e57806387ed85ac14610cb25780638ad9134514610cce5780638b94028714610cfe5780638bb9c5bf14610d1a5780638da5cb5b14610d365780638ef79e9114610d5457610580565b8063780ea57214610c045780637980d95714610c205780637a0ed62714610c2a5780637badc7c114610c485780637dd06ce214610c5257806385bff2e714610c8257610580565b80634793c498116104485780635d7f850c116103af5780636a4600ad116103685780636dcfd841116103425780636dcfd84114610b6c57806372b88f1b14610b9c578063775d832c14610bcc578063776ab63414610be857610580565b80636a4600ad14610b185780636a6128f414610b345780636c19e58814610b5057610580565b80635d7f850c14610a515780635da9751c14610a725780635ddb39de14610aa25780635fc86ab914610ac057806361690b5014610ade5780636442a5ed14610afa57610580565b806352ef6b2c1161040157806352ef6b2c1461098b578063550cb31d146109a957806359539025146109c7578063598af9e7146109e55780635aecf18914610a155780635c60da1b14610a3357610580565b80634793c498146108b75780634ba6348b146108d55780634e1273f4146108f15780634e16fc8b146109215780634f4df4421461093f5780634f80ad251461095b57610580565b80631e4e0091116104ec5780632eb2c2d6116104a55780632eb2c2d61461080d5780632f2ff15d146108295780632f4dae9f1461084557806336b0142314610861578063384b2c621461087f57806340cf0ba11461089b57610580565b80631e4e00911461074f5780631e5da67c1461076b5780631f931c1c14610787578063248a9ca3146107a35780632db4e569146107d35780632dc00434146107f157610580565b80630848818b1161053e5780630848818b1461066957806308e7f2c5146106855780630e89341c146106a357806313ba55df146106d3578063162094c4146107035780631791bf201461071f57610580565b8062fdd58e1461058557806301ffc9a7146105b557806302fe5305146105e557806303d1229c1461060157806305acb1301461061d578063065ab2ea14610639575b600080fd5b61059f600480360381019061059a91906115ac565b6112a5565b6040516105ac91906115fb565b60405180910390f35b6105cf60048036038101906105ca919061166e565b6112ad565b6040516105dc91906116b6565b60405180910390f35b6105ff60048036038101906105fa9190611817565b6112b4565b005b61061b6004803603810190610616919061189c565b6112b7565b005b610637600480360381019061063291906118dc565b6112bb565b005b610653600480360381019061064e919061197c565b6112be565b60405161066091906115fb565b60405180910390f35b610683600480360381019061067e9190611a09565b6112ca565b005b61068d6112cd565b60405161069a9190611a45565b60405180910390f35b6106bd60048036038101906106b891906118dc565b6112d2565b6040516106ca9190611adf565b60405180910390f35b6106ed60048036038101906106e891906118dc565b6112d9565b6040516106fa91906115fb565b60405180910390f35b61071d60048036038101906107189190611b01565b6112e0565b005b610739600480360381019061073491906118dc565b6112e4565b60405161074691906115fb565b60405180910390f35b61076960048036038101906107649190611b93565b6112eb565b005b610785600480360381019061078091906115ac565b6112ef565b005b6107a1600480360381019061079c9190611ea7565b6112f3565b005b6107bd60048036038101906107b89190611f32565b6112f8565b6040516107ca9190611f6e565b60405180910390f35b6107db6112ff565b6040516107e891906115fb565b60405180910390f35b61080b60048036038101906108069190611f89565b611304565b005b61082760048036038101906108229190612079565b611307565b005b610843600480360381019061083e9190612148565b61130e565b005b61085f600480360381019061085a9190611f32565b611312565b005b610869611315565b60405161087691906115fb565b60405180910390f35b610899600480360381019061089491906115ac565b61131a565b005b6108b560048036038101906108b091906121b4565b61131e565b005b6108bf611322565b6040516108cc9190611f6e565b60405180910390f35b6108ef60048036038101906108ea919061223c565b611327565b005b61090b6004803603810190610906919061233f565b61132b565b6040516109189190612475565b60405180910390f35b610929611333565b6040516109369190611adf565b60405180910390f35b61095960048036038101906109549190612497565b611338565b005b61097560048036038101906109709190612148565b61133e565b60405161098291906116b6565b60405180910390f35b610993611346565b6040516109a091906125bc565b60405180910390f35b6109b161134b565b6040516109be9190611f6e565b60405180910390f35b6109cf611350565b6040516109dc9190611f6e565b60405180910390f35b6109ff60048036038101906109fa91906125de565b611355565b604051610a0c91906115fb565b60405180910390f35b610a1d61135e565b604051610a2a9190611a45565b60405180910390f35b610a3b611363565b604051610a489190612640565b60405180910390f35b610a59611368565b604051610a699493929190612674565b60405180910390f35b610a8c6004803603810190610a8791906126b9565b611373565b604051610a9991906115fb565b60405180910390f35b610aaa61137c565b604051610ab79190612640565b60405180910390f35b610ac8611381565b604051610ad59190611a45565b60405180910390f35b610af86004803603810190610af39190611f89565b611386565b005b610b02611389565b604051610b0f91906115fb565b60405180910390f35b610b326004803603810190610b2d919061270c565b61138e565b005b610b4e6004803603810190610b49919061223c565b611393565b005b610b6a6004803603810190610b65919061275f565b611397565b005b610b866004803603810190610b8191906118dc565b61139c565b604051610b9391906125bc565b60405180910390f35b610bb66004803603810190610bb1919061189c565b6113a3565b604051610bc391906115fb565b60405180910390f35b610be66004803603810190610be191906127b2565b6113ab565b005b610c026004803603810190610bfd91906118dc565b6113af565b005b610c1e6004803603810190610c1991906127f2565b6113b2565b005b610c286113b7565b005b610c326113b9565b604051610c3f9190612a02565b60405180910390f35b610c506113be565b005b610c6c6004803603810190610c679190611a09565b6113c0565b604051610c799190612a24565b60405180910390f35b610c9c6004803603810190610c979190611a09565b6113c7565b604051610ca99190612475565b60405180910390f35b610ccc6004803603810190610cc791906125de565b6113ce565b005b610ce86004803603810190610ce391906118dc565b6113d3565b604051610cf59190611adf565b60405180910390f35b610d186004803603810190610d1391906118dc565b6113da565b005b610d346004803603810190610d2f9190611f32565b6113dd565b005b610d3e6113e0565b604051610d4b9190612640565b60405180910390f35b610d6e6004803603810190610d699190611817565b6113e5565b005b610d8a6004803603810190610d859190612148565b6113e8565b604051610d9791906116b6565b60405180910390f35b610dba6004803603810190610db591906118dc565b6113f0565b604051610dc8929190612a4e565b60405180910390f35b610dd96113f8565b604051610de69190612640565b60405180910390f35b610e096004803603810190610e049190611f32565b6113fd565b604051610e1691906116b6565b60405180910390f35b610e27611404565b604051610e349190611f6e565b60405180910390f35b610e576004803603810190610e5291906127b2565b611409565b005b610e6161140d565b604051610e6e9190611f6e565b60405180910390f35b610e916004803603810190610e8c9190611a09565b611412565b604051610e9e9190612ac8565b60405180910390f35b610ec16004803603810190610ebc9190611a09565b61141f565b604051610ece9190612b52565b60405180910390f35b610ef16004803603810190610eec9190612b74565b611426565b005b610efb61142b565b604051610f089190611adf565b60405180910390f35b610f2b6004803603810190610f269190612079565b611430565b604051610f389190612c0e565b60405180910390f35b610f5b6004803603810190610f5691906118dc565b61143b565b604051610f6891906115fb565b60405180910390f35b610f8b6004803603810190610f869190611a09565b611442565b604051610f9891906116b6565b60405180910390f35b610fa9611449565b005b610fc56004803603810190610fc09190611a09565b61144b565b005b610fcf61144e565b604051610fdc9190611f6e565b60405180910390f35b610fff6004803603810190610ffa91906126b9565b611453565b005b611009611458565b6040516110169190611a45565b60405180910390f35b6110396004803603810190611034919061166e565b61145d565b6040516110469190612640565b60405180910390f35b611057611464565b6040516110649190611a45565b60405180910390f35b61108760048036038101906110829190612148565b611469565b005b61109161146d565b60405161109e9190611a45565b60405180910390f35b6110af611472565b6040516110bc91906115fb565b60405180910390f35b6110cd611477565b6040516110da9190611f6e565b60405180910390f35b6110eb61147c565b6040516110f89190611a45565b60405180910390f35b61111b60048036038101906111169190612c29565b611481565b6040516111289190612c85565b60405180910390f35b61114b60048036038101906111469190612ca0565b61148e565b60405161115891906116b6565b60405180910390f35b61117b600480360381019061117691906118dc565b611496565b60405161118891906116b6565b60405180910390f35b6111ab60048036038101906111a69190611f32565b61149d565b005b6111c760048036038101906111c29190612ce0565b6114a0565b6040516111d49190612c0e565b60405180910390f35b6111f760048036038101906111f29190612ce0565b6114ab565b005b611213600480360381019061120e9190611a09565b6114b2565b005b61121d6114b5565b60405161122a9190611f6e565b60405180910390f35b61123b6114ba565b60405161124891906115fb565b60405180910390f35b61126b600480360381019061126691906118dc565b6114bf565b005b61128760048036038101906112829190611a09565b6114c2565b005b6112a3600480360381019061129e9190612d77565b6114c5565b005b600092915050565b6000919050565b50565b5050565b50565b60009695505050505050565b50565b600090565b6060919050565b6000919050565b5050565b6000919050565b5050565b5050565b505050565b6000919050565b600090565b50565b5050505050565b5050565b50565b600090565b5050565b5050565b600090565b5050565b606092915050565b606090565b50505050565b600092915050565b606090565b600090565b600090565b60009392505050565b600090565b600090565b600080600080919293565b60009392505050565b600090565b600090565b50565b600090565b505050565b5050565b505050565b6060919050565b600092915050565b5050565b50565b505050565b565b606090565b565b6000919050565b6060919050565b505050565b6060919050565b50565b50565b600090565b50565b600092915050565b600080915091565b600090565b6000919050565b600090565b5050565b600090565b61141a6114c9565b919050565b6060919050565b505050565b606090565b600095945050505050565b6000919050565b6000919050565b565b50565b600090565b505050565b600090565b6000919050565b600090565b5050565b600090565b600090565b600090565b600090565b6114896114ea565b919050565b600092915050565b6000919050565b50565b600095945050505050565b5050505050565b50565b600090565b600090565b50565b50565b5050565b60405180606001604052806000815260200160008152602001600081525090565b604051806040016040528060008152602001600081525090565b6000604051905090565b600080fd5b600080fd5b600073ffffffffffffffffffffffffffffffffffffffff82169050919050565b600061154382611518565b9050919050565b61155381611538565b811461155e57600080fd5b50565b6000813590506115708161154a565b92915050565b6000819050919050565b61158981611576565b811461159457600080fd5b50565b6000813590506115a681611580565b92915050565b600080604083850312156115c3576115c261150e565b5b60006115d185828601611561565b92505060206115e285828601611597565b9150509250929050565b6115f581611576565b82525050565b600060208201905061161060008301846115ec565b92915050565b60007fffffffff0000000000000000000000000000000000000000000000000000000082169050919050565b61164b81611616565b811461165657600080fd5b50565b60008135905061166881611642565b92915050565b6000602082840312156116845761168361150e565b5b600061169284828501611659565b91505092915050565b60008115159050919050565b6116b08161169b565b82525050565b60006020820190506116cb60008301846116a7565b92915050565b600080fd5b600080fd5b6000601f19601f8301169050919050565b7f4e487b7100000000000000000000000000000000000000000000000000000000600052604160045260246000fd5b611724826116db565b810181811067ffffffffffffffff82111715611743576117426116ec565b5b80604052505050565b6000611756611504565b9050611762828261171b565b919050565b600067ffffffffffffffff821115611782576117816116ec565b5b61178b826116db565b9050602081019050919050565b82818337600083830152505050565b60006117ba6117b584611767565b61174c565b9050828152602081018484840111156117d6576117d56116d6565b5b6117e1848285611798565b509392505050565b600082601f8301126117fe576117fd6116d1565b5b813561180e8482602086016117a7565b91505092915050565b60006020828403121561182d5761182c61150e565b5b600082013567ffffffffffffffff81111561184b5761184a611513565b5b611857848285016117e9565b91505092915050565b600063ffffffff82169050919050565b61187981611860565b811461188457600080fd5b50565b60008135905061189681611870565b92915050565b600080604083850312156118b3576118b261150e565b5b60006118c185828601611597565b92505060206118d285828601611887565b9150509250929050565b6000602082840312156118f2576118f161150e565b5b600061190084828501611597565b91505092915050565b600061ffff82169050919050565b61192081611909565b811461192b57600080fd5b50565b60008135905061193d81611917565b92915050565b600060ff82169050919050565b61195981611943565b811461196457600080fd5b50565b60008135905061197681611950565b92915050565b60008060008060008060c087890312156119995761199861150e565b5b60006119a789828a01611597565b96505060206119b889828a0161192e565b95505060406119c989828a01611967565b94505060606119da89828a01611597565b93505060806119eb89828a01611597565b92505060a06119fc89828a01611597565b9150509295509295509295565b600060208284031215611a1f57611a1e61150e565b5b6000611a2d84828501611561565b91505092915050565b611a3f81611943565b82525050565b6000602082019050611a5a6000830184611a36565b92915050565b600081519050919050565b600082825260208201905092915050565b60005b83811015611a9a578082015181840152602081019050611a7f565b60008484015250505050565b6000611ab182611a60565b611abb8185611a6b565b9350611acb818560208601611a7c565b611ad4816116db565b840191505092915050565b60006020820190508181036000830152611af98184611aa6565b905092915050565b60008060408385031215611b1857611b1761150e565b5b6000611b2685828601611597565b925050602083013567ffffffffffffffff811115611b4757611b46611513565b5b611b53858286016117e9565b9150509250929050565b6000819050919050565b611b7081611b5d565b8114611b7b57600080fd5b50565b600081359050611b8d81611b67565b92915050565b60008060408385031215611baa57611ba961150e565b5b6000611bb885828601611b7e565b9250506020611bc985828601611b7e565b9150509250929050565b600067ffffffffffffffff821115611bee57611bed6116ec565b5b602082029050602081019050919050565b600080fd5b600080fd5b600080fd5b600067ffffffffffffffff821115611c2957611c286116ec565b5b602082029050602081019050919050565b6000611c4d611c4884611c0e565b61174c565b90508083825260208201905060208402830185811115611c7057611c6f611bff565b5b835b81811015611c995780611c858882611659565b845260208401935050602081019050611c72565b5050509392505050565b600082601f830112611cb857611cb76116d1565b5b8135611cc8848260208601611c3a565b91505092915050565b600060608284031215611ce757611ce6611c04565b5b611cf1606061174c565b90506000611d0184828501611561565b6000830152506020611d1584828501611967565b602083015250604082013567ffffffffffffffff811115611d3957611d38611c09565b5b611d4584828501611ca3565b60408301525092915050565b6000611d64611d5f84611bd3565b61174c565b90508083825260208201905060208402830185811115611d8757611d86611bff565b5b835b81811015611dce57803567ffffffffffffffff811115611dac57611dab6116d1565b5b808601611db98982611cd1565b85526020850194505050602081019050611d89565b5050509392505050565b600082601f830112611ded57611dec6116d1565b5b8135611dfd848260208601611d51565b91505092915050565b600067ffffffffffffffff821115611e2157611e206116ec565b5b611e2a826116db565b9050602081019050919050565b6000611e4a611e4584611e06565b61174c565b905082815260208101848484011115611e6657611e656116d6565b5b611e71848285611798565b509392505050565b600082601f830112611e8e57611e8d6116d1565b5b8135611e9e848260208601611e37565b91505092915050565b600080600060608486031215611ec057611ebf61150e565b5b600084013567ffffffffffffffff811115611ede57611edd611513565b5b611eea86828701611dd8565b9350506020611efb86828701611561565b925050604084013567ffffffffffffffff811115611f1c57611f1b611513565b5b611f2886828701611e79565b9150509250925092565b600060208284031215611f4857611f4761150e565b5b6000611f5684828501611b7e565b91505092915050565b611f6881611b5d565b82525050565b6000602082019050611f836000830184611f5f565b92915050565b600060208284031215611f9f57611f9e61150e565b5b6000611fad84828501611887565b91505092915050565b600067ffffffffffffffff821115611fd157611fd06116ec565b5b602082029050602081019050919050565b6000611ff5611ff084611fb6565b61174c565b9050808382526020820190506020840283018581111561201857612017611bff565b5b835b81811015612041578061202d8882611597565b84526020840193505060208101905061201a565b5050509392505050565b600082601f8301126120605761205f6116d1565b5b8135612070848260208601611fe2565b91505092915050565b600080600080600060a086880312156120955761209461150e565b5b60006120a388828901611561565b95505060206120b488828901611561565b945050604086013567ffffffffffffffff8111156120d5576120d4611513565b5b6120e18882890161204b565b935050606086013567ffffffffffffffff81111561210257612101611513565b5b61210e8882890161204b565b925050608086013567ffffffffffffffff81111561212f5761212e611513565b5b61213b88828901611e79565b9150509295509295909350565b6000806040838503121561215f5761215e61150e565b5b600061216d85828601611b7e565b925050602061217e85828601611561565b9150509250929050565b6121918161169b565b811461219c57600080fd5b50565b6000813590506121ae81612188565b92915050565b600080604083850312156121cb576121ca61150e565b5b60006121d985828601611597565b92505060206121ea8582860161219f565b9150509250929050565b60006fffffffffffffffffffffffffffffffff82169050919050565b612219816121f4565b811461222457600080fd5b50565b60008135905061223681612210565b92915050565b600080604083850312156122535761225261150e565b5b600061226185828601612227565b925050602061227285828601611967565b9150509250929050565b600067ffffffffffffffff821115612297576122966116ec565b5b602082029050602081019050919050565b60006122bb6122b68461227c565b61174c565b905080838252602082019050602084028301858111156122de576122dd611bff565b5b835b8181101561230757806122f38882611561565b8452602084019350506020810190506122e0565b5050509392505050565b600082601f830112612326576123256116d1565b5b81356123368482602086016122a8565b91505092915050565b600080604083850312156123565761235561150e565b5b600083013567ffffffffffffffff81111561237457612373611513565b5b61238085828601612311565b925050602083013567ffffffffffffffff8111156123a1576123a0611513565b5b6123ad8582860161204b565b9150509250929050565b600081519050919050565b600082825260208201905092915050565b6000819050602082019050919050565b6123ec81611576565b82525050565b60006123fe83836123e3565b60208301905092915050565b6000602082019050919050565b6000612422826123b7565b61242c81856123c2565b9350612437836123d3565b8060005b8381101561246857815161244f88826123f2565b975061245a8361240a565b92505060018101905061243b565b5085935050505092915050565b6000602082019050818103600083015261248f8184612417565b905092915050565b600080600080608085870312156124b1576124b061150e565b5b60006124bf87828801611561565b94505060206124d087828801611597565b93505060406124e187828801611597565b92505060606124f287828801611597565b91505092959194509250565b600081519050919050565b600082825260208201905092915050565b6000819050602082019050919050565b61253381611538565b82525050565b6000612545838361252a565b60208301905092915050565b6000602082019050919050565b6000612569826124fe565b6125738185612509565b935061257e8361251a565b8060005b838110156125af5781516125968882612539565b97506125a183612551565b925050600181019050612582565b5085935050505092915050565b600060208201905081810360008301526125d6818461255e565b905092915050565b6000806000606084860312156125f7576125f661150e565b5b600061260586828701611561565b935050602061261686828701611561565b925050604061262786828701611597565b9150509250925092565b61263a81611538565b82525050565b60006020820190506126556000830184612631565b92915050565b6000819050919050565b61266e8161265b565b82525050565b600060808201905061268960008301876116a7565b6126966020830186612665565b6126a36040830185612665565b6126b06060830184612665565b95945050505050565b6000806000606084860312156126d2576126d161150e565b5b60006126e086828701611561565b93505060206126f186828701611597565b925050604061270286828701611597565b9150509250925092565b6000806000606084860312156127255761272461150e565b5b600061273386828701611597565b935050602061274486828701611887565b925050604061275586828701611887565b9150509250925092565b6000806000606084860312156127785761277761150e565b5b600061278686828701611b7e565b935050602061279786828701611561565b92505060406127a88682870161219f565b9150509250925092565b600080604083850312156127c9576127c861150e565b5b60006127d785828601611561565b92505060206127e88582860161219f565b9150509250929050565b60008060006060848603121561280b5761280a61150e565b5b600061281986828701611967565b935050602061282a86828701611561565b925050604061283b86828701611887565b9150509250925092565b600081519050919050565b600082825260208201905092915050565b6000819050602082019050919050565b600081519050919050565b600082825260208201905092915050565b6000819050602082019050919050565b6128a681611616565b82525050565b60006128b8838361289d565b60208301905092915050565b6000602082019050919050565b60006128dc82612871565b6128e6818561287c565b93506128f18361288d565b8060005b8381101561292257815161290988826128ac565b9750612914836128c4565b9250506001810190506128f5565b5085935050505092915050565b6000604083016000830151612947600086018261252a565b506020830151848203602086015261295f82826128d1565b9150508091505092915050565b6000612978838361292f565b905092915050565b6000602082019050919050565b600061299882612845565b6129a28185612850565b9350836020820285016129b485612861565b8060005b858110156129f057848403895281516129d1858261296c565b94506129dc83612980565b925060208a019950506001810190506129b8565b50829750879550505050505092915050565b60006020820190508181036000830152612a1c818461298d565b905092915050565b6000602082019050612a396000830184612665565b92915050565b612a4881611860565b82525050565b6000604082019050612a636000830185612a3f565b612a706020830184612a3f565b9392505050565b612a808161265b565b82525050565b606082016000820151612a9c6000850182612a77565b506020820151612aaf6020850182612a77565b506040820151612ac26040850182612a77565b50505050565b6000606082019050612add6000830184612a86565b92915050565b600082825260208201905092915050565b6000612aff82612871565b612b098185612ae3565b9350612b148361288d565b8060005b83811015612b45578151612b2c88826128ac565b9750612b37836128c4565b925050600181019050612b18565b5085935050505092915050565b60006020820190508181036000830152612b6c8184612af4565b905092915050565b600080600060608486031215612b8d57612b8c61150e565b5b6000612b9b86828701611561565b935050602084013567ffffffffffffffff811115612bbc57612bbb611513565b5b612bc88682870161204b565b925050604084013567ffffffffffffffff811115612be957612be8611513565b5b612bf58682870161204b565b9150509250925092565b612c0881611616565b82525050565b6000602082019050612c236000830184612bff565b92915050565b600060208284031215612c3f57612c3e61150e565b5b6000612c4d84828501611967565b91505092915050565b604082016000820151612c6c60008501826123e3565b506020820151612c7f60208501826123e3565b50505050565b6000604082019050612c9a6000830184612c56565b92915050565b60008060408385031215612cb757612cb661150e565b5b6000612cc585828601611561565b9250506020612cd685828601611561565b9150509250929050565b600080600080600060a08688031215612cfc57612cfb61150e565b5b6000612d0a88828901611561565b9550506020612d1b88828901611561565b9450506040612d2c88828901611597565b9350506060612d3d88828901611597565b925050608086013567ffffffffffffffff811115612d5e57612d5d611513565b5b612d6a88828901611e79565b9150509295509295909350565b60008060408385031215612d8e57612d8d61150e565b5b600083013567ffffffffffffffff811115612dac57612dab611513565b5b612db885828601612311565b9250506020612dc98582860161219f565b915050925092905056fea2646970667358221220ab9d8a58caa88fce3b5b2c96b867bb87de900d88cead52fbc3432788c10c14d164736f6c63430008110033",
  "devdoc": {
    "kind": "dev",
    "methods": {},
    "version": 1
  },
  "userdoc": {
    "kind": "user",
    "methods": {},
    "notice": "This is a generated dummy diamond implementation for compatibility with etherscan. For full contract implementation, check out the diamond on louper: https://louper.dev/diamond/0x9765132BA2D5440FC734B65366cd34964eD309A8?network=goerli",
    "version": 1
  },
  "storageLayout": {
    "storage": [],
    "types": null
  }
}